{
	"Assignments/Assignment6(16-03-2026)/ProductOm.sol": {
		"ProductOrderManagement": {
			"abi": [
				{
					"inputs": [
						{
							"internalType": "string",
							"name": "_productnames",
							"type": "string"
						}
					],
					"name": "addproduct",
					"outputs": [],
					"stateMutability": "nonpayable",
					"type": "function"
				},
				{
					"inputs": [
						{
							"internalType": "uint256",
							"name": "_orderid",
							"type": "uint256"
						},
						{
							"internalType": "string",
							"name": "_productname",
							"type": "string"
						},
						{
							"internalType": "uint256",
							"name": "_quantity",
							"type": "uint256"
						},
						{
							"internalType": "address",
							"name": "_customer",
							"type": "address"
						},
						{
							"internalType": "enum ProductOrderManagement.orderstatus",
							"name": "_status",
							"type": "uint8"
						}
					],
					"name": "createorder",
					"outputs": [],
					"stateMutability": "nonpayable",
					"type": "function"
				},
				{
					"inputs": [
						{
							"internalType": "uint256",
							"name": "_orderid",
							"type": "uint256"
						}
					],
					"name": "getorder",
					"outputs": [
						{
							"internalType": "uint256",
							"name": "",
							"type": "uint256"
						},
						{
							"internalType": "string",
							"name": "",
							"type": "string"
						},
						{
							"internalType": "uint256",
							"name": "",
							"type": "uint256"
						},
						{
							"internalType": "address",
							"name": "",
							"type": "address"
						},
						{
							"internalType": "enum ProductOrderManagement.orderstatus",
							"name": "",
							"type": "uint8"
						}
					],
					"stateMutability": "view",
					"type": "function"
				}
			],
			"devdoc": {
				"kind": "dev",
				"methods": {},
				"version": 1
			},
			"evm": {
				"assembly": "    /* \"Assignments/Assignment6(16-03-2026)/ProductOm.sol\":622:1664  contract ProductOrderManagement {... */\n  mstore(0x40, 0x80)\n  callvalue\n  dup1\n  iszero\n  tag_1\n  jumpi\n  revert(0x00, 0x00)\ntag_1:\n  pop\n  dataSize(sub_0)\n  dup1\n  dataOffset(sub_0)\n  0x00\n  codecopy\n  0x00\n  return\nstop\n\nsub_0: assembly {\n        /* \"Assignments/Assignment6(16-03-2026)/ProductOm.sol\":622:1664  contract ProductOrderManagement {... */\n      mstore(0x40, 0x80)\n      callvalue\n      dup1\n      iszero\n      tag_1\n      jumpi\n      revert(0x00, 0x00)\n    tag_1:\n      pop\n      jumpi(tag_2, lt(calldatasize, 0x04))\n      shr(0xe0, calldataload(0x00))\n      dup1\n      0x466bdee3\n      eq\n      tag_3\n      jumpi\n      dup1\n      0xc7982e94\n      eq\n      tag_4\n      jumpi\n      dup1\n      0xeb8b2ffd\n      eq\n      tag_5\n      jumpi\n    tag_2:\n      revert(0x00, 0x00)\n        /* \"Assignments/Assignment6(16-03-2026)/ProductOm.sol\":1434:1659  function getorder (uint _orderid)public view returns(uint, string memory, uint,address,orderstatus){... */\n    tag_3:\n      tag_6\n      0x04\n      dup1\n      calldatasize\n      sub\n      dup2\n      add\n      swap1\n      tag_7\n      swap2\n      swap1\n      tag_8\n      jump\t// in\n    tag_7:\n      tag_9\n      jump\t// in\n    tag_6:\n      mload(0x40)\n      tag_10\n      swap6\n      swap5\n      swap4\n      swap3\n      swap2\n      swap1\n      tag_11\n      jump\t// in\n    tag_10:\n      mload(0x40)\n      dup1\n      swap2\n      sub\n      swap1\n      return\n        /* \"Assignments/Assignment6(16-03-2026)/ProductOm.sol\":1075:1182  function addproduct(string memory _productnames) public {... */\n    tag_4:\n      tag_12\n      0x04\n      dup1\n      calldatasize\n      sub\n      dup2\n      add\n      swap1\n      tag_13\n      swap2\n      swap1\n      tag_14\n      jump\t// in\n    tag_13:\n      tag_15\n      jump\t// in\n    tag_12:\n      stop\n        /* \"Assignments/Assignment6(16-03-2026)/ProductOm.sol\":1188:1428  function createorder(uint _orderid,string memory _productname,uint _quantity,address _customer,orderstatus _status) public validquantity(_quantity) {... */\n    tag_5:\n      tag_16\n      0x04\n      dup1\n      calldatasize\n      sub\n      dup2\n      add\n      swap1\n      tag_17\n      swap2\n      swap1\n      tag_18\n      jump\t// in\n    tag_17:\n      tag_19\n      jump\t// in\n    tag_16:\n      stop\n        /* \"Assignments/Assignment6(16-03-2026)/ProductOm.sol\":1434:1659  function getorder (uint _orderid)public view returns(uint, string memory, uint,address,orderstatus){... */\n    tag_9:\n        /* \"Assignments/Assignment6(16-03-2026)/ProductOm.sol\":1487:1491  uint */\n      0x00\n        /* \"Assignments/Assignment6(16-03-2026)/ProductOm.sol\":1493:1506  string memory */\n      0x60\n        /* \"Assignments/Assignment6(16-03-2026)/ProductOm.sol\":1508:1512  uint */\n      0x00\n        /* \"Assignments/Assignment6(16-03-2026)/ProductOm.sol\":1513:1520  address */\n      0x00\n        /* \"Assignments/Assignment6(16-03-2026)/ProductOm.sol\":1521:1532  orderstatus */\n      0x00\n        /* \"Assignments/Assignment6(16-03-2026)/ProductOm.sol\":1544:1558  order memory o */\n      0x00\n        /* \"Assignments/Assignment6(16-03-2026)/ProductOm.sol\":1561:1567  orders */\n      0x00\n        /* \"Assignments/Assignment6(16-03-2026)/ProductOm.sol\":1561:1577  orders[_orderid] */\n      0x00\n        /* \"Assignments/Assignment6(16-03-2026)/ProductOm.sol\":1568:1576  _orderid */\n      dup9\n        /* \"Assignments/Assignment6(16-03-2026)/ProductOm.sol\":1561:1577  orders[_orderid] */\n      dup2\n      mstore\n      0x20\n      add\n      swap1\n      dup2\n      mstore\n      0x20\n      add\n      0x00\n      keccak256\n        /* \"Assignments/Assignment6(16-03-2026)/ProductOm.sol\":1544:1577  order memory o = orders[_orderid] */\n      mload(0x40)\n      dup1\n      0xa0\n      add\n      0x40\n      mstore\n      swap1\n      dup2\n      0x00\n      dup3\n      add\n      sload\n      dup2\n      mstore\n      0x20\n      add\n      0x01\n      dup3\n      add\n      dup1\n      sload\n      tag_21\n      swap1\n      tag_22\n      jump\t// in\n    tag_21:\n      dup1\n      0x1f\n      add\n      0x20\n      dup1\n      swap2\n      div\n      mul\n      0x20\n      add\n      mload(0x40)\n      swap1\n      dup2\n      add\n      0x40\n      mstore\n      dup1\n      swap3\n      swap2\n      swap1\n      dup2\n      dup2\n      mstore\n      0x20\n      add\n      dup3\n      dup1\n      sload\n      tag_23\n      swap1\n      tag_22\n      jump\t// in\n    tag_23:\n      dup1\n      iszero\n      tag_24\n      jumpi\n      dup1\n      0x1f\n      lt\n      tag_25\n      jumpi\n      0x0100\n      dup1\n      dup4\n      sload\n      div\n      mul\n      dup4\n      mstore\n      swap2\n      0x20\n      add\n      swap2\n      jump(tag_24)\n    tag_25:\n      dup3\n      add\n      swap2\n      swap1\n      0x00\n      mstore\n      keccak256(0x00, 0x20)\n      swap1\n    tag_26:\n      dup2\n      sload\n      dup2\n      mstore\n      swap1\n      0x01\n      add\n      swap1\n      0x20\n      add\n      dup1\n      dup4\n      gt\n      tag_26\n      jumpi\n      dup3\n      swap1\n      sub\n      0x1f\n      and\n      dup3\n      add\n      swap2\n    tag_24:\n      pop\n      pop\n      pop\n      pop\n      pop\n      dup2\n      mstore\n      0x20\n      add\n      0x02\n      dup3\n      add\n      sload\n      dup2\n      mstore\n      0x20\n      add\n      0x03\n      dup3\n      add\n      0x00\n      swap1\n      sload\n      swap1\n      0x0100\n      exp\n      swap1\n      div\n      0xffffffffffffffffffffffffffffffffffffffff\n      and\n      0xffffffffffffffffffffffffffffffffffffffff\n      and\n      0xffffffffffffffffffffffffffffffffffffffff\n      and\n      dup2\n      mstore\n      0x20\n      add\n      0x03\n      dup3\n      add\n      0x14\n      swap1\n      sload\n      swap1\n      0x0100\n      exp\n      swap1\n      div\n      0xff\n      and\n      0x02\n      dup2\n      gt\n      iszero\n      tag_27\n      jumpi\n      tag_28\n      tag_29\n      jump\t// in\n    tag_28:\n    tag_27:\n      0x02\n      dup2\n      gt\n      iszero\n      tag_30\n      jumpi\n      tag_31\n      tag_29\n      jump\t// in\n    tag_31:\n    tag_30:\n      dup2\n      mstore\n      pop\n      pop\n      swap1\n      pop\n        /* \"Assignments/Assignment6(16-03-2026)/ProductOm.sol\":1596:1597  o */\n      dup1\n        /* \"Assignments/Assignment6(16-03-2026)/ProductOm.sol\":1596:1605  o.orderid */\n      0x00\n      add\n      mload\n        /* \"Assignments/Assignment6(16-03-2026)/ProductOm.sol\":1606:1607  o */\n      dup2\n        /* \"Assignments/Assignment6(16-03-2026)/ProductOm.sol\":1606:1619  o.productname */\n      0x20\n      add\n      mload\n        /* \"Assignments/Assignment6(16-03-2026)/ProductOm.sol\":1620:1621  o */\n      dup3\n        /* \"Assignments/Assignment6(16-03-2026)/ProductOm.sol\":1620:1630  o.quantity */\n      0x40\n      add\n      mload\n        /* \"Assignments/Assignment6(16-03-2026)/ProductOm.sol\":1631:1632  o */\n      dup4\n        /* \"Assignments/Assignment6(16-03-2026)/ProductOm.sol\":1631:1641  o.customer */\n      0x60\n      add\n      mload\n        /* \"Assignments/Assignment6(16-03-2026)/ProductOm.sol\":1642:1643  o */\n      dup5\n        /* \"Assignments/Assignment6(16-03-2026)/ProductOm.sol\":1642:1650  o.status */\n      0x80\n      add\n      mload\n        /* \"Assignments/Assignment6(16-03-2026)/ProductOm.sol\":1588:1651  return (o.orderid,o.productname,o.quantity,o.customer,o.status) */\n      swap6\n      pop\n      swap6\n      pop\n      swap6\n      pop\n      swap6\n      pop\n      swap6\n      pop\n      pop\n        /* \"Assignments/Assignment6(16-03-2026)/ProductOm.sol\":1434:1659  function getorder (uint _orderid)public view returns(uint, string memory, uint,address,orderstatus){... */\n      swap2\n      swap4\n      swap6\n      swap1\n      swap3\n      swap5\n      pop\n      jump\t// out\n        /* \"Assignments/Assignment6(16-03-2026)/ProductOm.sol\":1075:1182  function addproduct(string memory _productnames) public {... */\n    tag_15:\n        /* \"Assignments/Assignment6(16-03-2026)/ProductOm.sol\":1142:1154  productnames */\n      0x01\n        /* \"Assignments/Assignment6(16-03-2026)/ProductOm.sol\":1160:1173  _productnames */\n      dup2\n        /* \"Assignments/Assignment6(16-03-2026)/ProductOm.sol\":1142:1174  productnames.push(_productnames) */\n      swap1\n      dup1\n      0x01\n      dup2\n      sload\n      add\n      dup1\n      dup3\n      sstore\n      dup1\n      swap2\n      pop\n      pop\n      0x01\n      swap1\n      sub\n      swap1\n      0x00\n      mstore\n      keccak256(0x00, 0x20)\n      add\n      0x00\n      swap1\n      swap2\n      swap1\n      swap2\n      swap1\n      swap2\n      pop\n      swap1\n      dup2\n      tag_34\n      swap2\n      swap1\n      tag_35\n      jump\t// in\n    tag_34:\n      pop\n        /* \"Assignments/Assignment6(16-03-2026)/ProductOm.sol\":1075:1182  function addproduct(string memory _productnames) public {... */\n      pop\n      jump\t// out\n        /* \"Assignments/Assignment6(16-03-2026)/ProductOm.sol\":1188:1428  function createorder(uint _orderid,string memory _productname,uint _quantity,address _customer,orderstatus _status) public validquantity(_quantity) {... */\n    tag_19:\n        /* \"Assignments/Assignment6(16-03-2026)/ProductOm.sol\":1325:1334  _quantity */\n      dup3\n        /* \"Assignments/Assignment6(16-03-2026)/ProductOm.sol\":1012:1013  0 */\n      0x00\n        /* \"Assignments/Assignment6(16-03-2026)/ProductOm.sol\":1002:1011  _quantity */\n      dup2\n        /* \"Assignments/Assignment6(16-03-2026)/ProductOm.sol\":1002:1013  _quantity>0 */\n      gt\n        /* \"Assignments/Assignment6(16-03-2026)/ProductOm.sol\":994:1053  require(_quantity>0,\"quantity should be greater than zero\") */\n      tag_37\n      jumpi\n      mload(0x40)\n      0x08c379a000000000000000000000000000000000000000000000000000000000\n      dup2\n      mstore\n      0x04\n      add\n      tag_38\n      swap1\n      tag_39\n      jump\t// in\n    tag_38:\n      mload(0x40)\n      dup1\n      swap2\n      sub\n      swap1\n      revert\n    tag_37:\n        /* \"Assignments/Assignment6(16-03-2026)/ProductOm.sol\":1364:1420  order(_orderid,_productname,_quantity,_customer,_status) */\n      mload(0x40)\n      dup1\n      0xa0\n      add\n      0x40\n      mstore\n      dup1\n        /* \"Assignments/Assignment6(16-03-2026)/ProductOm.sol\":1370:1378  _orderid */\n      dup8\n        /* \"Assignments/Assignment6(16-03-2026)/ProductOm.sol\":1364:1420  order(_orderid,_productname,_quantity,_customer,_status) */\n      dup2\n      mstore\n      0x20\n      add\n        /* \"Assignments/Assignment6(16-03-2026)/ProductOm.sol\":1379:1391  _productname */\n      dup7\n        /* \"Assignments/Assignment6(16-03-2026)/ProductOm.sol\":1364:1420  order(_orderid,_productname,_quantity,_customer,_status) */\n      dup2\n      mstore\n      0x20\n      add\n        /* \"Assignments/Assignment6(16-03-2026)/ProductOm.sol\":1392:1401  _quantity */\n      dup6\n        /* \"Assignments/Assignment6(16-03-2026)/ProductOm.sol\":1364:1420  order(_orderid,_productname,_quantity,_customer,_status) */\n      dup2\n      mstore\n      0x20\n      add\n        /* \"Assignments/Assignment6(16-03-2026)/ProductOm.sol\":1402:1411  _customer */\n      dup5\n        /* \"Assignments/Assignment6(16-03-2026)/ProductOm.sol\":1364:1420  order(_orderid,_productname,_quantity,_customer,_status) */\n      0xffffffffffffffffffffffffffffffffffffffff\n      and\n      dup2\n      mstore\n      0x20\n      add\n        /* \"Assignments/Assignment6(16-03-2026)/ProductOm.sol\":1412:1419  _status */\n      dup4\n        /* \"Assignments/Assignment6(16-03-2026)/ProductOm.sol\":1364:1420  order(_orderid,_productname,_quantity,_customer,_status) */\n      0x02\n      dup2\n      gt\n      iszero\n      tag_41\n      jumpi\n      tag_42\n      tag_29\n      jump\t// in\n    tag_42:\n    tag_41:\n      dup2\n      mstore\n      pop\n        /* \"Assignments/Assignment6(16-03-2026)/ProductOm.sol\":1347:1353  orders */\n      0x00\n        /* \"Assignments/Assignment6(16-03-2026)/ProductOm.sol\":1347:1363  orders[_orderid] */\n      0x00\n        /* \"Assignments/Assignment6(16-03-2026)/ProductOm.sol\":1354:1362  _orderid */\n      dup9\n        /* \"Assignments/Assignment6(16-03-2026)/ProductOm.sol\":1347:1363  orders[_orderid] */\n      dup2\n      mstore\n      0x20\n      add\n      swap1\n      dup2\n      mstore\n      0x20\n      add\n      0x00\n      keccak256\n        /* \"Assignments/Assignment6(16-03-2026)/ProductOm.sol\":1347:1420  orders[_orderid]=order(_orderid,_productname,_quantity,_customer,_status) */\n      0x00\n      dup3\n      add\n      mload\n      dup2\n      0x00\n      add\n      sstore\n      0x20\n      dup3\n      add\n      mload\n      dup2\n      0x01\n      add\n      swap1\n      dup2\n      tag_43\n      swap2\n      swap1\n      tag_35\n      jump\t// in\n    tag_43:\n      pop\n      0x40\n      dup3\n      add\n      mload\n      dup2\n      0x02\n      add\n      sstore\n      0x60\n      dup3\n      add\n      mload\n      dup2\n      0x03\n      add\n      exp(0x0100, 0x00)\n      dup2\n      sload\n      dup2\n      0xffffffffffffffffffffffffffffffffffffffff\n      mul\n      not\n      and\n      swap1\n      dup4\n      0xffffffffffffffffffffffffffffffffffffffff\n      and\n      mul\n      or\n      swap1\n      sstore\n      pop\n      0x80\n      dup3\n      add\n      mload\n      dup2\n      0x03\n      add\n      exp(0x0100, 0x14)\n      dup2\n      sload\n      dup2\n      0xff\n      mul\n      not\n      and\n      swap1\n      dup4\n      0x02\n      dup2\n      gt\n      iszero\n      tag_44\n      jumpi\n      tag_45\n      tag_29\n      jump\t// in\n    tag_45:\n    tag_44:\n      mul\n      or\n      swap1\n      sstore\n      pop\n      swap1\n      pop\n      pop\n        /* \"Assignments/Assignment6(16-03-2026)/ProductOm.sol\":1188:1428  function createorder(uint _orderid,string memory _productname,uint _quantity,address _customer,orderstatus _status) public validquantity(_quantity) {... */\n      pop\n      pop\n      pop\n      pop\n      pop\n      pop\n      jump\t// out\n        /* \"#utility.yul\":7:82   */\n    tag_46:\n        /* \"#utility.yul\":40:46   */\n      0x00\n        /* \"#utility.yul\":73:75   */\n      0x40\n        /* \"#utility.yul\":67:76   */\n      mload\n        /* \"#utility.yul\":57:76   */\n      swap1\n      pop\n        /* \"#utility.yul\":7:82   */\n      swap1\n      jump\t// out\n        /* \"#utility.yul\":88:205   */\n    tag_47:\n        /* \"#utility.yul\":197:198   */\n      0x00\n        /* \"#utility.yul\":194:195   */\n      0x00\n        /* \"#utility.yul\":187:199   */\n      revert\n        /* \"#utility.yul\":211:328   */\n    tag_48:\n        /* \"#utility.yul\":320:321   */\n      0x00\n        /* \"#utility.yul\":317:318   */\n      0x00\n        /* \"#utility.yul\":310:322   */\n      revert\n        /* \"#utility.yul\":334:411   */\n    tag_49:\n        /* \"#utility.yul\":371:378   */\n      0x00\n        /* \"#utility.yul\":400:405   */\n      dup2\n        /* \"#utility.yul\":389:405   */\n      swap1\n      pop\n        /* \"#utility.yul\":334:411   */\n      swap2\n      swap1\n      pop\n      jump\t// out\n        /* \"#utility.yul\":417:539   */\n    tag_50:\n        /* \"#utility.yul\":490:514   */\n      tag_102\n        /* \"#utility.yul\":508:513   */\n      dup2\n        /* \"#utility.yul\":490:514   */\n      tag_49\n      jump\t// in\n    tag_102:\n        /* \"#utility.yul\":483:488   */\n      dup2\n        /* \"#utility.yul\":480:515   */\n      eq\n        /* \"#utility.yul\":470:533   */\n      tag_103\n      jumpi\n        /* \"#utility.yul\":529:530   */\n      0x00\n        /* \"#utility.yul\":526:527   */\n      0x00\n        /* \"#utility.yul\":519:531   */\n      revert\n        /* \"#utility.yul\":470:533   */\n    tag_103:\n        /* \"#utility.yul\":417:539   */\n      pop\n      jump\t// out\n        /* \"#utility.yul\":545:684   */\n    tag_51:\n        /* \"#utility.yul\":591:596   */\n      0x00\n        /* \"#utility.yul\":629:635   */\n      dup2\n        /* \"#utility.yul\":616:636   */\n      calldataload\n        /* \"#utility.yul\":607:636   */\n      swap1\n      pop\n        /* \"#utility.yul\":645:678   */\n      tag_105\n        /* \"#utility.yul\":672:677   */\n      dup2\n        /* \"#utility.yul\":645:678   */\n      tag_50\n      jump\t// in\n    tag_105:\n        /* \"#utility.yul\":545:684   */\n      swap3\n      swap2\n      pop\n      pop\n      jump\t// out\n        /* \"#utility.yul\":690:1019   */\n    tag_8:\n        /* \"#utility.yul\":749:755   */\n      0x00\n        /* \"#utility.yul\":798:800   */\n      0x20\n        /* \"#utility.yul\":786:795   */\n      dup3\n        /* \"#utility.yul\":777:784   */\n      dup5\n        /* \"#utility.yul\":773:796   */\n      sub\n        /* \"#utility.yul\":769:801   */\n      slt\n        /* \"#utility.yul\":766:885   */\n      iszero\n      tag_107\n      jumpi\n        /* \"#utility.yul\":804:883   */\n      tag_108\n      tag_47\n      jump\t// in\n    tag_108:\n        /* \"#utility.yul\":766:885   */\n    tag_107:\n        /* \"#utility.yul\":924:925   */\n      0x00\n        /* \"#utility.yul\":949:1002   */\n      tag_109\n        /* \"#utility.yul\":994:1001   */\n      dup5\n        /* \"#utility.yul\":985:991   */\n      dup3\n        /* \"#utility.yul\":974:983   */\n      dup6\n        /* \"#utility.yul\":970:992   */\n      add\n        /* \"#utility.yul\":949:1002   */\n      tag_51\n      jump\t// in\n    tag_109:\n        /* \"#utility.yul\":939:1002   */\n      swap2\n      pop\n        /* \"#utility.yul\":895:1012   */\n      pop\n        /* \"#utility.yul\":690:1019   */\n      swap3\n      swap2\n      pop\n      pop\n      jump\t// out\n        /* \"#utility.yul\":1025:1143   */\n    tag_52:\n        /* \"#utility.yul\":1112:1136   */\n      tag_111\n        /* \"#utility.yul\":1130:1135   */\n      dup2\n        /* \"#utility.yul\":1112:1136   */\n      tag_49\n      jump\t// in\n    tag_111:\n        /* \"#utility.yul\":1107:1110   */\n      dup3\n        /* \"#utility.yul\":1100:1137   */\n      mstore\n        /* \"#utility.yul\":1025:1143   */\n      pop\n      pop\n      jump\t// out\n        /* \"#utility.yul\":1149:1248   */\n    tag_53:\n        /* \"#utility.yul\":1201:1207   */\n      0x00\n        /* \"#utility.yul\":1235:1240   */\n      dup2\n        /* \"#utility.yul\":1229:1241   */\n      mload\n        /* \"#utility.yul\":1219:1241   */\n      swap1\n      pop\n        /* \"#utility.yul\":1149:1248   */\n      swap2\n      swap1\n      pop\n      jump\t// out\n        /* \"#utility.yul\":1254:1423   */\n    tag_54:\n        /* \"#utility.yul\":1338:1349   */\n      0x00\n        /* \"#utility.yul\":1372:1378   */\n      dup3\n        /* \"#utility.yul\":1367:1370   */\n      dup3\n        /* \"#utility.yul\":1360:1379   */\n      mstore\n        /* \"#utility.yul\":1412:1416   */\n      0x20\n        /* \"#utility.yul\":1407:1410   */\n      dup3\n        /* \"#utility.yul\":1403:1417   */\n      add\n        /* \"#utility.yul\":1388:1417   */\n      swap1\n      pop\n        /* \"#utility.yul\":1254:1423   */\n      swap3\n      swap2\n      pop\n      pop\n      jump\t// out\n        /* \"#utility.yul\":1429:1568   */\n    tag_55:\n        /* \"#utility.yul\":1518:1524   */\n      dup3\n        /* \"#utility.yul\":1513:1516   */\n      dup2\n        /* \"#utility.yul\":1508:1511   */\n      dup4\n        /* \"#utility.yul\":1502:1525   */\n      mcopy\n        /* \"#utility.yul\":1559:1560   */\n      0x00\n        /* \"#utility.yul\":1550:1556   */\n      dup4\n        /* \"#utility.yul\":1545:1548   */\n      dup4\n        /* \"#utility.yul\":1541:1557   */\n      add\n        /* \"#utility.yul\":1534:1561   */\n      mstore\n        /* \"#utility.yul\":1429:1568   */\n      pop\n      pop\n      pop\n      jump\t// out\n        /* \"#utility.yul\":1574:1676   */\n    tag_56:\n        /* \"#utility.yul\":1615:1621   */\n      0x00\n        /* \"#utility.yul\":1666:1668   */\n      0x1f\n        /* \"#utility.yul\":1662:1669   */\n      not\n        /* \"#utility.yul\":1657:1659   */\n      0x1f\n        /* \"#utility.yul\":1650:1655   */\n      dup4\n        /* \"#utility.yul\":1646:1660   */\n      add\n        /* \"#utility.yul\":1642:1670   */\n      and\n        /* \"#utility.yul\":1632:1670   */\n      swap1\n      pop\n        /* \"#utility.yul\":1574:1676   */\n      swap2\n      swap1\n      pop\n      jump\t// out\n        /* \"#utility.yul\":1682:2059   */\n    tag_57:\n        /* \"#utility.yul\":1770:1773   */\n      0x00\n        /* \"#utility.yul\":1798:1837   */\n      tag_117\n        /* \"#utility.yul\":1831:1836   */\n      dup3\n        /* \"#utility.yul\":1798:1837   */\n      tag_53\n      jump\t// in\n    tag_117:\n        /* \"#utility.yul\":1853:1924   */\n      tag_118\n        /* \"#utility.yul\":1917:1923   */\n      dup2\n        /* \"#utility.yul\":1912:1915   */\n      dup6\n        /* \"#utility.yul\":1853:1924   */\n      tag_54\n      jump\t// in\n    tag_118:\n        /* \"#utility.yul\":1846:1924   */\n      swap4\n      pop\n        /* \"#utility.yul\":1933:1998   */\n      tag_119\n        /* \"#utility.yul\":1991:1997   */\n      dup2\n        /* \"#utility.yul\":1986:1989   */\n      dup6\n        /* \"#utility.yul\":1979:1983   */\n      0x20\n        /* \"#utility.yul\":1972:1977   */\n      dup7\n        /* \"#utility.yul\":1968:1984   */\n      add\n        /* \"#utility.yul\":1933:1998   */\n      tag_55\n      jump\t// in\n    tag_119:\n        /* \"#utility.yul\":2023:2052   */\n      tag_120\n        /* \"#utility.yul\":2045:2051   */\n      dup2\n        /* \"#utility.yul\":2023:2052   */\n      tag_56\n      jump\t// in\n    tag_120:\n        /* \"#utility.yul\":2018:2021   */\n      dup5\n        /* \"#utility.yul\":2014:2053   */\n      add\n        /* \"#utility.yul\":2007:2053   */\n      swap2\n      pop\n        /* \"#utility.yul\":1774:2059   */\n      pop\n        /* \"#utility.yul\":1682:2059   */\n      swap3\n      swap2\n      pop\n      pop\n      jump\t// out\n        /* \"#utility.yul\":2065:2191   */\n    tag_58:\n        /* \"#utility.yul\":2102:2109   */\n      0x00\n        /* \"#utility.yul\":2142:2184   */\n      0xffffffffffffffffffffffffffffffffffffffff\n        /* \"#utility.yul\":2135:2140   */\n      dup3\n        /* \"#utility.yul\":2131:2185   */\n      and\n        /* \"#utility.yul\":2120:2185   */\n      swap1\n      pop\n        /* \"#utility.yul\":2065:2191   */\n      swap2\n      swap1\n      pop\n      jump\t// out\n        /* \"#utility.yul\":2197:2293   */\n    tag_59:\n        /* \"#utility.yul\":2234:2241   */\n      0x00\n        /* \"#utility.yul\":2263:2287   */\n      tag_123\n        /* \"#utility.yul\":2281:2286   */\n      dup3\n        /* \"#utility.yul\":2263:2287   */\n      tag_58\n      jump\t// in\n    tag_123:\n        /* \"#utility.yul\":2252:2287   */\n      swap1\n      pop\n        /* \"#utility.yul\":2197:2293   */\n      swap2\n      swap1\n      pop\n      jump\t// out\n        /* \"#utility.yul\":2299:2417   */\n    tag_60:\n        /* \"#utility.yul\":2386:2410   */\n      tag_125\n        /* \"#utility.yul\":2404:2409   */\n      dup2\n        /* \"#utility.yul\":2386:2410   */\n      tag_59\n      jump\t// in\n    tag_125:\n        /* \"#utility.yul\":2381:2384   */\n      dup3\n        /* \"#utility.yul\":2374:2411   */\n      mstore\n        /* \"#utility.yul\":2299:2417   */\n      pop\n      pop\n      jump\t// out\n        /* \"#utility.yul\":2423:2603   */\n    tag_29:\n        /* \"#utility.yul\":2471:2548   */\n      0x4e487b7100000000000000000000000000000000000000000000000000000000\n        /* \"#utility.yul\":2468:2469   */\n      0x00\n        /* \"#utility.yul\":2461:2549   */\n      mstore\n        /* \"#utility.yul\":2568:2572   */\n      0x21\n        /* \"#utility.yul\":2565:2566   */\n      0x04\n        /* \"#utility.yul\":2558:2573   */\n      mstore\n        /* \"#utility.yul\":2592:2596   */\n      0x24\n        /* \"#utility.yul\":2589:2590   */\n      0x00\n        /* \"#utility.yul\":2582:2597   */\n      revert\n        /* \"#utility.yul\":2609:2727   */\n    tag_61:\n        /* \"#utility.yul\":2695:2696   */\n      0x03\n        /* \"#utility.yul\":2688:2693   */\n      dup2\n        /* \"#utility.yul\":2685:2697   */\n      lt\n        /* \"#utility.yul\":2675:2721   */\n      tag_128\n      jumpi\n        /* \"#utility.yul\":2701:2719   */\n      tag_129\n      tag_29\n      jump\t// in\n    tag_129:\n        /* \"#utility.yul\":2675:2721   */\n    tag_128:\n        /* \"#utility.yul\":2609:2727   */\n      pop\n      jump\t// out\n        /* \"#utility.yul\":2733:2870   */\n    tag_62:\n        /* \"#utility.yul\":2783:2790   */\n      0x00\n        /* \"#utility.yul\":2812:2817   */\n      dup2\n        /* \"#utility.yul\":2801:2817   */\n      swap1\n      pop\n        /* \"#utility.yul\":2818:2864   */\n      tag_131\n        /* \"#utility.yul\":2858:2863   */\n      dup3\n        /* \"#utility.yul\":2818:2864   */\n      tag_61\n      jump\t// in\n    tag_131:\n        /* \"#utility.yul\":2733:2870   */\n      swap2\n      swap1\n      pop\n      jump\t// out\n        /* \"#utility.yul\":2876:3013   */\n    tag_63:\n        /* \"#utility.yul\":2937:2946   */\n      0x00\n        /* \"#utility.yul\":2970:3007   */\n      tag_133\n        /* \"#utility.yul\":3001:3006   */\n      dup3\n        /* \"#utility.yul\":2970:3007   */\n      tag_62\n      jump\t// in\n    tag_133:\n        /* \"#utility.yul\":2957:3007   */\n      swap1\n      pop\n        /* \"#utility.yul\":2876:3013   */\n      swap2\n      swap1\n      pop\n      jump\t// out\n        /* \"#utility.yul\":3019:3172   */\n    tag_64:\n        /* \"#utility.yul\":3117:3165   */\n      tag_135\n        /* \"#utility.yul\":3159:3164   */\n      dup2\n        /* \"#utility.yul\":3117:3165   */\n      tag_63\n      jump\t// in\n    tag_135:\n        /* \"#utility.yul\":3112:3115   */\n      dup3\n        /* \"#utility.yul\":3105:3166   */\n      mstore\n        /* \"#utility.yul\":3019:3172   */\n      pop\n      pop\n      jump\t// out\n        /* \"#utility.yul\":3178:3955   */\n    tag_11:\n        /* \"#utility.yul\":3414:3418   */\n      0x00\n        /* \"#utility.yul\":3452:3455   */\n      0xa0\n        /* \"#utility.yul\":3441:3450   */\n      dup3\n        /* \"#utility.yul\":3437:3456   */\n      add\n        /* \"#utility.yul\":3429:3456   */\n      swap1\n      pop\n        /* \"#utility.yul\":3466:3537   */\n      tag_137\n        /* \"#utility.yul\":3534:3535   */\n      0x00\n        /* \"#utility.yul\":3523:3532   */\n      dup4\n        /* \"#utility.yul\":3519:3536   */\n      add\n        /* \"#utility.yul\":3510:3516   */\n      dup9\n        /* \"#utility.yul\":3466:3537   */\n      tag_52\n      jump\t// in\n    tag_137:\n        /* \"#utility.yul\":3584:3593   */\n      dup2\n        /* \"#utility.yul\":3578:3582   */\n      dup2\n        /* \"#utility.yul\":3574:3594   */\n      sub\n        /* \"#utility.yul\":3569:3571   */\n      0x20\n        /* \"#utility.yul\":3558:3567   */\n      dup4\n        /* \"#utility.yul\":3554:3572   */\n      add\n        /* \"#utility.yul\":3547:3595   */\n      mstore\n        /* \"#utility.yul\":3612:3690   */\n      tag_138\n        /* \"#utility.yul\":3685:3689   */\n      dup2\n        /* \"#utility.yul\":3676:3682   */\n      dup8\n        /* \"#utility.yul\":3612:3690   */\n      tag_57\n      jump\t// in\n    tag_138:\n        /* \"#utility.yul\":3604:3690   */\n      swap1\n      pop\n        /* \"#utility.yul\":3700:3772   */\n      tag_139\n        /* \"#utility.yul\":3768:3770   */\n      0x40\n        /* \"#utility.yul\":3757:3766   */\n      dup4\n        /* \"#utility.yul\":3753:3771   */\n      add\n        /* \"#utility.yul\":3744:3750   */\n      dup7\n        /* \"#utility.yul\":3700:3772   */\n      tag_52\n      jump\t// in\n    tag_139:\n        /* \"#utility.yul\":3782:3854   */\n      tag_140\n        /* \"#utility.yul\":3850:3852   */\n      0x60\n        /* \"#utility.yul\":3839:3848   */\n      dup4\n        /* \"#utility.yul\":3835:3853   */\n      add\n        /* \"#utility.yul\":3826:3832   */\n      dup6\n        /* \"#utility.yul\":3782:3854   */\n      tag_60\n      jump\t// in\n    tag_140:\n        /* \"#utility.yul\":3864:3948   */\n      tag_141\n        /* \"#utility.yul\":3943:3946   */\n      0x80\n        /* \"#utility.yul\":3932:3941   */\n      dup4\n        /* \"#utility.yul\":3928:3947   */\n      add\n        /* \"#utility.yul\":3919:3925   */\n      dup5\n        /* \"#utility.yul\":3864:3948   */\n      tag_64\n      jump\t// in\n    tag_141:\n        /* \"#utility.yul\":3178:3955   */\n      swap7\n      swap6\n      pop\n      pop\n      pop\n      pop\n      pop\n      pop\n      jump\t// out\n        /* \"#utility.yul\":3961:4078   */\n    tag_65:\n        /* \"#utility.yul\":4070:4071   */\n      0x00\n        /* \"#utility.yul\":4067:4068   */\n      0x00\n        /* \"#utility.yul\":4060:4072   */\n      revert\n        /* \"#utility.yul\":4084:4201   */\n    tag_66:\n        /* \"#utility.yul\":4193:4194   */\n      0x00\n        /* \"#utility.yul\":4190:4191   */\n      0x00\n        /* \"#utility.yul\":4183:4195   */\n      revert\n        /* \"#utility.yul\":4207:4387   */\n    tag_67:\n        /* \"#utility.yul\":4255:4332   */\n      0x4e487b7100000000000000000000000000000000000000000000000000000000\n        /* \"#utility.yul\":4252:4253   */\n      0x00\n        /* \"#utility.yul\":4245:4333   */\n      mstore\n        /* \"#utility.yul\":4352:4356   */\n      0x41\n        /* \"#utility.yul\":4349:4350   */\n      0x04\n        /* \"#utility.yul\":4342:4357   */\n      mstore\n        /* \"#utility.yul\":4376:4380   */\n      0x24\n        /* \"#utility.yul\":4373:4374   */\n      0x00\n        /* \"#utility.yul\":4366:4381   */\n      revert\n        /* \"#utility.yul\":4393:4674   */\n    tag_68:\n        /* \"#utility.yul\":4476:4503   */\n      tag_146\n        /* \"#utility.yul\":4498:4502   */\n      dup3\n        /* \"#utility.yul\":4476:4503   */\n      tag_56\n      jump\t// in\n    tag_146:\n        /* \"#utility.yul\":4468:4474   */\n      dup2\n        /* \"#utility.yul\":4464:4504   */\n      add\n        /* \"#utility.yul\":4606:4612   */\n      dup2\n        /* \"#utility.yul\":4594:4604   */\n      dup2\n        /* \"#utility.yul\":4591:4613   */\n      lt\n        /* \"#utility.yul\":4570:4588   */\n      0xffffffffffffffff\n        /* \"#utility.yul\":4558:4568   */\n      dup3\n        /* \"#utility.yul\":4555:4589   */\n      gt\n        /* \"#utility.yul\":4552:4614   */\n      or\n        /* \"#utility.yul\":4549:4637   */\n      iszero\n      tag_147\n      jumpi\n        /* \"#utility.yul\":4617:4635   */\n      tag_148\n      tag_67\n      jump\t// in\n    tag_148:\n        /* \"#utility.yul\":4549:4637   */\n    tag_147:\n        /* \"#utility.yul\":4657:4667   */\n      dup1\n        /* \"#utility.yul\":4653:4655   */\n      0x40\n        /* \"#utility.yul\":4646:4668   */\n      mstore\n        /* \"#utility.yul\":4436:4674   */\n      pop\n        /* \"#utility.yul\":4393:4674   */\n      pop\n      pop\n      jump\t// out\n        /* \"#utility.yul\":4680:4809   */\n    tag_69:\n        /* \"#utility.yul\":4714:4720   */\n      0x00\n        /* \"#utility.yul\":4741:4761   */\n      tag_150\n      tag_46\n      jump\t// in\n    tag_150:\n        /* \"#utility.yul\":4731:4761   */\n      swap1\n      pop\n        /* \"#utility.yul\":4770:4803   */\n      tag_151\n        /* \"#utility.yul\":4798:4802   */\n      dup3\n        /* \"#utility.yul\":4790:4796   */\n      dup3\n        /* \"#utility.yul\":4770:4803   */\n      tag_68\n      jump\t// in\n    tag_151:\n        /* \"#utility.yul\":4680:4809   */\n      swap2\n      swap1\n      pop\n      jump\t// out\n        /* \"#utility.yul\":4815:5123   */\n    tag_70:\n        /* \"#utility.yul\":4877:4881   */\n      0x00\n        /* \"#utility.yul\":4967:4985   */\n      0xffffffffffffffff\n        /* \"#utility.yul\":4959:4965   */\n      dup3\n        /* \"#utility.yul\":4956:4986   */\n      gt\n        /* \"#utility.yul\":4953:5009   */\n      iszero\n      tag_153\n      jumpi\n        /* \"#utility.yul\":4989:5007   */\n      tag_154\n      tag_67\n      jump\t// in\n    tag_154:\n        /* \"#utility.yul\":4953:5009   */\n    tag_153:\n        /* \"#utility.yul\":5027:5056   */\n      tag_155\n        /* \"#utility.yul\":5049:5055   */\n      dup3\n        /* \"#utility.yul\":5027:5056   */\n      tag_56\n      jump\t// in\n    tag_155:\n        /* \"#utility.yul\":5019:5056   */\n      swap1\n      pop\n        /* \"#utility.yul\":5111:5115   */\n      0x20\n        /* \"#utility.yul\":5105:5109   */\n      dup2\n        /* \"#utility.yul\":5101:5116   */\n      add\n        /* \"#utility.yul\":5093:5116   */\n      swap1\n      pop\n        /* \"#utility.yul\":4815:5123   */\n      swap2\n      swap1\n      pop\n      jump\t// out\n        /* \"#utility.yul\":5129:5277   */\n    tag_71:\n        /* \"#utility.yul\":5227:5233   */\n      dup3\n        /* \"#utility.yul\":5222:5225   */\n      dup2\n        /* \"#utility.yul\":5217:5220   */\n      dup4\n        /* \"#utility.yul\":5204:5234   */\n      calldatacopy\n        /* \"#utility.yul\":5268:5269   */\n      0x00\n        /* \"#utility.yul\":5259:5265   */\n      dup4\n        /* \"#utility.yul\":5254:5257   */\n      dup4\n        /* \"#utility.yul\":5250:5266   */\n      add\n        /* \"#utility.yul\":5243:5270   */\n      mstore\n        /* \"#utility.yul\":5129:5277   */\n      pop\n      pop\n      pop\n      jump\t// out\n        /* \"#utility.yul\":5283:5708   */\n    tag_72:\n        /* \"#utility.yul\":5361:5366   */\n      0x00\n        /* \"#utility.yul\":5386:5452   */\n      tag_158\n        /* \"#utility.yul\":5402:5451   */\n      tag_159\n        /* \"#utility.yul\":5444:5450   */\n      dup5\n        /* \"#utility.yul\":5402:5451   */\n      tag_70\n      jump\t// in\n    tag_159:\n        /* \"#utility.yul\":5386:5452   */\n      tag_69\n      jump\t// in\n    tag_158:\n        /* \"#utility.yul\":5377:5452   */\n      swap1\n      pop\n        /* \"#utility.yul\":5475:5481   */\n      dup3\n        /* \"#utility.yul\":5468:5473   */\n      dup2\n        /* \"#utility.yul\":5461:5482   */\n      mstore\n        /* \"#utility.yul\":5513:5517   */\n      0x20\n        /* \"#utility.yul\":5506:5511   */\n      dup2\n        /* \"#utility.yul\":5502:5518   */\n      add\n        /* \"#utility.yul\":5551:5554   */\n      dup5\n        /* \"#utility.yul\":5542:5548   */\n      dup5\n        /* \"#utility.yul\":5537:5540   */\n      dup5\n        /* \"#utility.yul\":5533:5549   */\n      add\n        /* \"#utility.yul\":5530:5555   */\n      gt\n        /* \"#utility.yul\":5527:5639   */\n      iszero\n      tag_160\n      jumpi\n        /* \"#utility.yul\":5558:5637   */\n      tag_161\n      tag_66\n      jump\t// in\n    tag_161:\n        /* \"#utility.yul\":5527:5639   */\n    tag_160:\n        /* \"#utility.yul\":5648:5702   */\n      tag_162\n        /* \"#utility.yul\":5695:5701   */\n      dup5\n        /* \"#utility.yul\":5690:5693   */\n      dup3\n        /* \"#utility.yul\":5685:5688   */\n      dup6\n        /* \"#utility.yul\":5648:5702   */\n      tag_71\n      jump\t// in\n    tag_162:\n        /* \"#utility.yul\":5367:5708   */\n      pop\n        /* \"#utility.yul\":5283:5708   */\n      swap4\n      swap3\n      pop\n      pop\n      pop\n      jump\t// out\n        /* \"#utility.yul\":5728:6068   */\n    tag_73:\n        /* \"#utility.yul\":5784:5789   */\n      0x00\n        /* \"#utility.yul\":5833:5836   */\n      dup3\n        /* \"#utility.yul\":5826:5830   */\n      0x1f\n        /* \"#utility.yul\":5818:5824   */\n      dup4\n        /* \"#utility.yul\":5814:5831   */\n      add\n        /* \"#utility.yul\":5810:5837   */\n      slt\n        /* \"#utility.yul\":5800:5922   */\n      tag_164\n      jumpi\n        /* \"#utility.yul\":5841:5920   */\n      tag_165\n      tag_65\n      jump\t// in\n    tag_165:\n        /* \"#utility.yul\":5800:5922   */\n    tag_164:\n        /* \"#utility.yul\":5958:5964   */\n      dup2\n        /* \"#utility.yul\":5945:5965   */\n      calldataload\n        /* \"#utility.yul\":5983:6062   */\n      tag_166\n        /* \"#utility.yul\":6058:6061   */\n      dup5\n        /* \"#utility.yul\":6050:6056   */\n      dup3\n        /* \"#utility.yul\":6043:6047   */\n      0x20\n        /* \"#utility.yul\":6035:6041   */\n      dup7\n        /* \"#utility.yul\":6031:6048   */\n      add\n        /* \"#utility.yul\":5983:6062   */\n      tag_72\n      jump\t// in\n    tag_166:\n        /* \"#utility.yul\":5974:6062   */\n      swap2\n      pop\n        /* \"#utility.yul\":5790:6068   */\n      pop\n        /* \"#utility.yul\":5728:6068   */\n      swap3\n      swap2\n      pop\n      pop\n      jump\t// out\n        /* \"#utility.yul\":6074:6583   */\n    tag_14:\n        /* \"#utility.yul\":6143:6149   */\n      0x00\n        /* \"#utility.yul\":6192:6194   */\n      0x20\n        /* \"#utility.yul\":6180:6189   */\n      dup3\n        /* \"#utility.yul\":6171:6178   */\n      dup5\n        /* \"#utility.yul\":6167:6190   */\n      sub\n        /* \"#utility.yul\":6163:6195   */\n      slt\n        /* \"#utility.yul\":6160:6279   */\n      iszero\n      tag_168\n      jumpi\n        /* \"#utility.yul\":6198:6277   */\n      tag_169\n      tag_47\n      jump\t// in\n    tag_169:\n        /* \"#utility.yul\":6160:6279   */\n    tag_168:\n        /* \"#utility.yul\":6346:6347   */\n      0x00\n        /* \"#utility.yul\":6335:6344   */\n      dup3\n        /* \"#utility.yul\":6331:6348   */\n      add\n        /* \"#utility.yul\":6318:6349   */\n      calldataload\n        /* \"#utility.yul\":6376:6394   */\n      0xffffffffffffffff\n        /* \"#utility.yul\":6368:6374   */\n      dup2\n        /* \"#utility.yul\":6365:6395   */\n      gt\n        /* \"#utility.yul\":6362:6479   */\n      iszero\n      tag_170\n      jumpi\n        /* \"#utility.yul\":6398:6477   */\n      tag_171\n      tag_48\n      jump\t// in\n    tag_171:\n        /* \"#utility.yul\":6362:6479   */\n    tag_170:\n        /* \"#utility.yul\":6503:6566   */\n      tag_172\n        /* \"#utility.yul\":6558:6565   */\n      dup5\n        /* \"#utility.yul\":6549:6555   */\n      dup3\n        /* \"#utility.yul\":6538:6547   */\n      dup6\n        /* \"#utility.yul\":6534:6556   */\n      add\n        /* \"#utility.yul\":6503:6566   */\n      tag_73\n      jump\t// in\n    tag_172:\n        /* \"#utility.yul\":6493:6566   */\n      swap2\n      pop\n        /* \"#utility.yul\":6289:6576   */\n      pop\n        /* \"#utility.yul\":6074:6583   */\n      swap3\n      swap2\n      pop\n      pop\n      jump\t// out\n        /* \"#utility.yul\":6589:6711   */\n    tag_74:\n        /* \"#utility.yul\":6662:6686   */\n      tag_174\n        /* \"#utility.yul\":6680:6685   */\n      dup2\n        /* \"#utility.yul\":6662:6686   */\n      tag_59\n      jump\t// in\n    tag_174:\n        /* \"#utility.yul\":6655:6660   */\n      dup2\n        /* \"#utility.yul\":6652:6687   */\n      eq\n        /* \"#utility.yul\":6642:6705   */\n      tag_175\n      jumpi\n        /* \"#utility.yul\":6701:6702   */\n      0x00\n        /* \"#utility.yul\":6698:6699   */\n      0x00\n        /* \"#utility.yul\":6691:6703   */\n      revert\n        /* \"#utility.yul\":6642:6705   */\n    tag_175:\n        /* \"#utility.yul\":6589:6711   */\n      pop\n      jump\t// out\n        /* \"#utility.yul\":6717:6856   */\n    tag_75:\n        /* \"#utility.yul\":6763:6768   */\n      0x00\n        /* \"#utility.yul\":6801:6807   */\n      dup2\n        /* \"#utility.yul\":6788:6808   */\n      calldataload\n        /* \"#utility.yul\":6779:6808   */\n      swap1\n      pop\n        /* \"#utility.yul\":6817:6850   */\n      tag_177\n        /* \"#utility.yul\":6844:6849   */\n      dup2\n        /* \"#utility.yul\":6817:6850   */\n      tag_74\n      jump\t// in\n    tag_177:\n        /* \"#utility.yul\":6717:6856   */\n      swap3\n      swap2\n      pop\n      pop\n      jump\t// out\n        /* \"#utility.yul\":6862:6974   */\n    tag_76:\n        /* \"#utility.yul\":6948:6949   */\n      0x03\n        /* \"#utility.yul\":6941:6946   */\n      dup2\n        /* \"#utility.yul\":6938:6950   */\n      lt\n        /* \"#utility.yul\":6928:6968   */\n      tag_179\n      jumpi\n        /* \"#utility.yul\":6964:6965   */\n      0x00\n        /* \"#utility.yul\":6961:6962   */\n      0x00\n        /* \"#utility.yul\":6954:6966   */\n      revert\n        /* \"#utility.yul\":6928:6968   */\n    tag_179:\n        /* \"#utility.yul\":6862:6974   */\n      pop\n      jump\t// out\n        /* \"#utility.yul\":6980:7145   */\n    tag_77:\n        /* \"#utility.yul\":7039:7044   */\n      0x00\n        /* \"#utility.yul\":7077:7083   */\n      dup2\n        /* \"#utility.yul\":7064:7084   */\n      calldataload\n        /* \"#utility.yul\":7055:7084   */\n      swap1\n      pop\n        /* \"#utility.yul\":7093:7139   */\n      tag_181\n        /* \"#utility.yul\":7133:7138   */\n      dup2\n        /* \"#utility.yul\":7093:7139   */\n      tag_76\n      jump\t// in\n    tag_181:\n        /* \"#utility.yul\":6980:7145   */\n      swap3\n      swap2\n      pop\n      pop\n      jump\t// out\n        /* \"#utility.yul\":7151:8268   */\n    tag_18:\n        /* \"#utility.yul\":7269:7275   */\n      0x00\n        /* \"#utility.yul\":7277:7283   */\n      0x00\n        /* \"#utility.yul\":7285:7291   */\n      0x00\n        /* \"#utility.yul\":7293:7299   */\n      0x00\n        /* \"#utility.yul\":7301:7307   */\n      0x00\n        /* \"#utility.yul\":7350:7353   */\n      0xa0\n        /* \"#utility.yul\":7338:7347   */\n      dup7\n        /* \"#utility.yul\":7329:7336   */\n      dup9\n        /* \"#utility.yul\":7325:7348   */\n      sub\n        /* \"#utility.yul\":7321:7354   */\n      slt\n        /* \"#utility.yul\":7318:7438   */\n      iszero\n      tag_183\n      jumpi\n        /* \"#utility.yul\":7357:7436   */\n      tag_184\n      tag_47\n      jump\t// in\n    tag_184:\n        /* \"#utility.yul\":7318:7438   */\n    tag_183:\n        /* \"#utility.yul\":7477:7478   */\n      0x00\n        /* \"#utility.yul\":7502:7555   */\n      tag_185\n        /* \"#utility.yul\":7547:7554   */\n      dup9\n        /* \"#utility.yul\":7538:7544   */\n      dup3\n        /* \"#utility.yul\":7527:7536   */\n      dup10\n        /* \"#utility.yul\":7523:7545   */\n      add\n        /* \"#utility.yul\":7502:7555   */\n      tag_51\n      jump\t// in\n    tag_185:\n        /* \"#utility.yul\":7492:7555   */\n      swap6\n      pop\n        /* \"#utility.yul\":7448:7565   */\n      pop\n        /* \"#utility.yul\":7632:7634   */\n      0x20\n        /* \"#utility.yul\":7621:7630   */\n      dup7\n        /* \"#utility.yul\":7617:7635   */\n      add\n        /* \"#utility.yul\":7604:7636   */\n      calldataload\n        /* \"#utility.yul\":7663:7681   */\n      0xffffffffffffffff\n        /* \"#utility.yul\":7655:7661   */\n      dup2\n        /* \"#utility.yul\":7652:7682   */\n      gt\n        /* \"#utility.yul\":7649:7766   */\n      iszero\n      tag_186\n      jumpi\n        /* \"#utility.yul\":7685:7764   */\n      tag_187\n      tag_48\n      jump\t// in\n    tag_187:\n        /* \"#utility.yul\":7649:7766   */\n    tag_186:\n        /* \"#utility.yul\":7790:7853   */\n      tag_188\n        /* \"#utility.yul\":7845:7852   */\n      dup9\n        /* \"#utility.yul\":7836:7842   */\n      dup3\n        /* \"#utility.yul\":7825:7834   */\n      dup10\n        /* \"#utility.yul\":7821:7843   */\n      add\n        /* \"#utility.yul\":7790:7853   */\n      tag_73\n      jump\t// in\n    tag_188:\n        /* \"#utility.yul\":7780:7853   */\n      swap5\n      pop\n        /* \"#utility.yul\":7575:7863   */\n      pop\n        /* \"#utility.yul\":7902:7904   */\n      0x40\n        /* \"#utility.yul\":7928:7981   */\n      tag_189\n        /* \"#utility.yul\":7973:7980   */\n      dup9\n        /* \"#utility.yul\":7964:7970   */\n      dup3\n        /* \"#utility.yul\":7953:7962   */\n      dup10\n        /* \"#utility.yul\":7949:7971   */\n      add\n        /* \"#utility.yul\":7928:7981   */\n      tag_51\n      jump\t// in\n    tag_189:\n        /* \"#utility.yul\":7918:7981   */\n      swap4\n      pop\n        /* \"#utility.yul\":7873:7991   */\n      pop\n        /* \"#utility.yul\":8030:8032   */\n      0x60\n        /* \"#utility.yul\":8056:8109   */\n      tag_190\n        /* \"#utility.yul\":8101:8108   */\n      dup9\n        /* \"#utility.yul\":8092:8098   */\n      dup3\n        /* \"#utility.yul\":8081:8090   */\n      dup10\n        /* \"#utility.yul\":8077:8099   */\n      add\n        /* \"#utility.yul\":8056:8109   */\n      tag_75\n      jump\t// in\n    tag_190:\n        /* \"#utility.yul\":8046:8109   */\n      swap3\n      pop\n        /* \"#utility.yul\":8001:8119   */\n      pop\n        /* \"#utility.yul\":8158:8161   */\n      0x80\n        /* \"#utility.yul\":8185:8251   */\n      tag_191\n        /* \"#utility.yul\":8243:8250   */\n      dup9\n        /* \"#utility.yul\":8234:8240   */\n      dup3\n        /* \"#utility.yul\":8223:8232   */\n      dup10\n        /* \"#utility.yul\":8219:8241   */\n      add\n        /* \"#utility.yul\":8185:8251   */\n      tag_77\n      jump\t// in\n    tag_191:\n        /* \"#utility.yul\":8175:8251   */\n      swap2\n      pop\n        /* \"#utility.yul\":8129:8261   */\n      pop\n        /* \"#utility.yul\":7151:8268   */\n      swap3\n      swap6\n      pop\n      swap3\n      swap6\n      swap1\n      swap4\n      pop\n      jump\t// out\n        /* \"#utility.yul\":8274:8454   */\n    tag_78:\n        /* \"#utility.yul\":8322:8399   */\n      0x4e487b7100000000000000000000000000000000000000000000000000000000\n        /* \"#utility.yul\":8319:8320   */\n      0x00\n        /* \"#utility.yul\":8312:8400   */\n      mstore\n        /* \"#utility.yul\":8419:8423   */\n      0x22\n        /* \"#utility.yul\":8416:8417   */\n      0x04\n        /* \"#utility.yul\":8409:8424   */\n      mstore\n        /* \"#utility.yul\":8443:8447   */\n      0x24\n        /* \"#utility.yul\":8440:8441   */\n      0x00\n        /* \"#utility.yul\":8433:8448   */\n      revert\n        /* \"#utility.yul\":8460:8780   */\n    tag_22:\n        /* \"#utility.yul\":8504:8510   */\n      0x00\n        /* \"#utility.yul\":8541:8542   */\n      0x02\n        /* \"#utility.yul\":8535:8539   */\n      dup3\n        /* \"#utility.yul\":8531:8543   */\n      div\n        /* \"#utility.yul\":8521:8543   */\n      swap1\n      pop\n        /* \"#utility.yul\":8588:8589   */\n      0x01\n        /* \"#utility.yul\":8582:8586   */\n      dup3\n        /* \"#utility.yul\":8578:8590   */\n      and\n        /* \"#utility.yul\":8609:8627   */\n      dup1\n        /* \"#utility.yul\":8599:8680   */\n      tag_194\n      jumpi\n        /* \"#utility.yul\":8665:8669   */\n      0x7f\n        /* \"#utility.yul\":8657:8663   */\n      dup3\n        /* \"#utility.yul\":8653:8670   */\n      and\n        /* \"#utility.yul\":8643:8670   */\n      swap2\n      pop\n        /* \"#utility.yul\":8599:8680   */\n    tag_194:\n        /* \"#utility.yul\":8727:8729   */\n      0x20\n        /* \"#utility.yul\":8719:8725   */\n      dup3\n        /* \"#utility.yul\":8716:8730   */\n      lt\n        /* \"#utility.yul\":8696:8714   */\n      dup2\n        /* \"#utility.yul\":8693:8731   */\n      sub\n        /* \"#utility.yul\":8690:8774   */\n      tag_195\n      jumpi\n        /* \"#utility.yul\":8746:8764   */\n      tag_196\n      tag_78\n      jump\t// in\n    tag_196:\n        /* \"#utility.yul\":8690:8774   */\n    tag_195:\n        /* \"#utility.yul\":8511:8780   */\n      pop\n        /* \"#utility.yul\":8460:8780   */\n      swap2\n      swap1\n      pop\n      jump\t// out\n        /* \"#utility.yul\":8786:8927   */\n    tag_79:\n        /* \"#utility.yul\":8835:8839   */\n      0x00\n        /* \"#utility.yul\":8858:8861   */\n      dup2\n        /* \"#utility.yul\":8850:8861   */\n      swap1\n      pop\n        /* \"#utility.yul\":8881:8884   */\n      dup2\n        /* \"#utility.yul\":8878:8879   */\n      0x00\n        /* \"#utility.yul\":8871:8885   */\n      mstore\n        /* \"#utility.yul\":8915:8919   */\n      0x20\n        /* \"#utility.yul\":8912:8913   */\n      0x00\n        /* \"#utility.yul\":8902:8920   */\n      keccak256\n        /* \"#utility.yul\":8894:8920   */\n      swap1\n      pop\n        /* \"#utility.yul\":8786:8927   */\n      swap2\n      swap1\n      pop\n      jump\t// out\n        /* \"#utility.yul\":8933:9026   */\n    tag_80:\n        /* \"#utility.yul\":8970:8976   */\n      0x00\n        /* \"#utility.yul\":9017:9019   */\n      0x20\n        /* \"#utility.yul\":9012:9014   */\n      0x1f\n        /* \"#utility.yul\":9005:9010   */\n      dup4\n        /* \"#utility.yul\":9001:9015   */\n      add\n        /* \"#utility.yul\":8997:9020   */\n      div\n        /* \"#utility.yul\":8987:9020   */\n      swap1\n      pop\n        /* \"#utility.yul\":8933:9026   */\n      swap2\n      swap1\n      pop\n      jump\t// out\n        /* \"#utility.yul\":9032:9139   */\n    tag_81:\n        /* \"#utility.yul\":9076:9084   */\n      0x00\n        /* \"#utility.yul\":9126:9131   */\n      dup3\n        /* \"#utility.yul\":9120:9124   */\n      dup3\n        /* \"#utility.yul\":9116:9132   */\n      shl\n        /* \"#utility.yul\":9095:9132   */\n      swap1\n      pop\n        /* \"#utility.yul\":9032:9139   */\n      swap3\n      swap2\n      pop\n      pop\n      jump\t// out\n        /* \"#utility.yul\":9145:9538   */\n    tag_82:\n        /* \"#utility.yul\":9214:9220   */\n      0x00\n        /* \"#utility.yul\":9264:9265   */\n      0x08\n        /* \"#utility.yul\":9252:9262   */\n      dup4\n        /* \"#utility.yul\":9248:9266   */\n      mul\n        /* \"#utility.yul\":9287:9384   */\n      tag_201\n        /* \"#utility.yul\":9317:9383   */\n      0xffffffffffffffffffffffffffffffffffffffffffffffffffffffffffffffff\n        /* \"#utility.yul\":9306:9315   */\n      dup3\n        /* \"#utility.yul\":9287:9384   */\n      tag_81\n      jump\t// in\n    tag_201:\n        /* \"#utility.yul\":9405:9444   */\n      tag_202\n        /* \"#utility.yul\":9435:9443   */\n      dup7\n        /* \"#utility.yul\":9424:9433   */\n      dup4\n        /* \"#utility.yul\":9405:9444   */\n      tag_81\n      jump\t// in\n    tag_202:\n        /* \"#utility.yul\":9393:9444   */\n      swap6\n      pop\n        /* \"#utility.yul\":9477:9481   */\n      dup1\n        /* \"#utility.yul\":9473:9482   */\n      not\n        /* \"#utility.yul\":9466:9471   */\n      dup5\n        /* \"#utility.yul\":9462:9483   */\n      and\n        /* \"#utility.yul\":9453:9483   */\n      swap4\n      pop\n        /* \"#utility.yul\":9526:9530   */\n      dup1\n        /* \"#utility.yul\":9516:9524   */\n      dup7\n        /* \"#utility.yul\":9512:9531   */\n      and\n        /* \"#utility.yul\":9505:9510   */\n      dup5\n        /* \"#utility.yul\":9502:9532   */\n      or\n        /* \"#utility.yul\":9492:9532   */\n      swap3\n      pop\n        /* \"#utility.yul\":9221:9538   */\n      pop\n      pop\n        /* \"#utility.yul\":9145:9538   */\n      swap4\n      swap3\n      pop\n      pop\n      pop\n      jump\t// out\n        /* \"#utility.yul\":9544:9604   */\n    tag_83:\n        /* \"#utility.yul\":9572:9575   */\n      0x00\n        /* \"#utility.yul\":9593:9598   */\n      dup2\n        /* \"#utility.yul\":9586:9598   */\n      swap1\n      pop\n        /* \"#utility.yul\":9544:9604   */\n      swap2\n      swap1\n      pop\n      jump\t// out\n        /* \"#utility.yul\":9610:9752   */\n    tag_84:\n        /* \"#utility.yul\":9660:9669   */\n      0x00\n        /* \"#utility.yul\":9693:9746   */\n      tag_205\n        /* \"#utility.yul\":9711:9745   */\n      tag_206\n        /* \"#utility.yul\":9720:9744   */\n      tag_207\n        /* \"#utility.yul\":9738:9743   */\n      dup5\n        /* \"#utility.yul\":9720:9744   */\n      tag_49\n      jump\t// in\n    tag_207:\n        /* \"#utility.yul\":9711:9745   */\n      tag_83\n      jump\t// in\n    tag_206:\n        /* \"#utility.yul\":9693:9746   */\n      tag_49\n      jump\t// in\n    tag_205:\n        /* \"#utility.yul\":9680:9746   */\n      swap1\n      pop\n        /* \"#utility.yul\":9610:9752   */\n      swap2\n      swap1\n      pop\n      jump\t// out\n        /* \"#utility.yul\":9758:9833   */\n    tag_85:\n        /* \"#utility.yul\":9801:9804   */\n      0x00\n        /* \"#utility.yul\":9822:9827   */\n      dup2\n        /* \"#utility.yul\":9815:9827   */\n      swap1\n      pop\n        /* \"#utility.yul\":9758:9833   */\n      swap2\n      swap1\n      pop\n      jump\t// out\n        /* \"#utility.yul\":9839:10108   */\n    tag_86:\n        /* \"#utility.yul\":9949:9988   */\n      tag_210\n        /* \"#utility.yul\":9980:9987   */\n      dup4\n        /* \"#utility.yul\":9949:9988   */\n      tag_84\n      jump\t// in\n    tag_210:\n        /* \"#utility.yul\":10010:10101   */\n      tag_211\n        /* \"#utility.yul\":10059:10100   */\n      tag_212\n        /* \"#utility.yul\":10083:10099   */\n      dup3\n        /* \"#utility.yul\":10059:10100   */\n      tag_85\n      jump\t// in\n    tag_212:\n        /* \"#utility.yul\":10051:10057   */\n      dup5\n        /* \"#utility.yul\":10044:10048   */\n      dup5\n        /* \"#utility.yul\":10038:10049   */\n      sload\n        /* \"#utility.yul\":10010:10101   */\n      tag_82\n      jump\t// in\n    tag_211:\n        /* \"#utility.yul\":10004:10008   */\n      dup3\n        /* \"#utility.yul\":9997:10102   */\n      sstore\n        /* \"#utility.yul\":9915:10108   */\n      pop\n        /* \"#utility.yul\":9839:10108   */\n      pop\n      pop\n      pop\n      jump\t// out\n        /* \"#utility.yul\":10114:10187   */\n    tag_87:\n        /* \"#utility.yul\":10159:10162   */\n      0x00\n        /* \"#utility.yul\":10180:10181   */\n      0x00\n        /* \"#utility.yul\":10173:10181   */\n      swap1\n      pop\n        /* \"#utility.yul\":10114:10187   */\n      swap1\n      jump\t// out\n        /* \"#utility.yul\":10193:10382   */\n    tag_88:\n        /* \"#utility.yul\":10270:10302   */\n      tag_215\n      tag_87\n      jump\t// in\n    tag_215:\n        /* \"#utility.yul\":10311:10376   */\n      tag_216\n        /* \"#utility.yul\":10369:10375   */\n      dup2\n        /* \"#utility.yul\":10361:10367   */\n      dup5\n        /* \"#utility.yul\":10355:10359   */\n      dup5\n        /* \"#utility.yul\":10311:10376   */\n      tag_86\n      jump\t// in\n    tag_216:\n        /* \"#utility.yul\":10246:10382   */\n      pop\n        /* \"#utility.yul\":10193:10382   */\n      pop\n      pop\n      jump\t// out\n        /* \"#utility.yul\":10388:10602   */\n    tag_89:\n        /* \"#utility.yul\":10473:10474   */\n      0x00\n        /* \"#utility.yul\":10458:10596   */\n    tag_218:\n        /* \"#utility.yul\":10483:10492   */\n      dup3\n        /* \"#utility.yul\":10480:10481   */\n      dup2\n        /* \"#utility.yul\":10477:10493   */\n      lt\n        /* \"#utility.yul\":10458:10596   */\n      iszero\n      tag_220\n      jumpi\n        /* \"#utility.yul\":10535:10586   */\n      tag_221\n        /* \"#utility.yul\":10584:10585   */\n      0x00\n        /* \"#utility.yul\":10580:10581   */\n      dup3\n        /* \"#utility.yul\":10569:10578   */\n      dup5\n        /* \"#utility.yul\":10565:10582   */\n      add\n        /* \"#utility.yul\":10535:10586   */\n      tag_88\n      jump\t// in\n    tag_221:\n        /* \"#utility.yul\":10508:10509   */\n      0x01\n        /* \"#utility.yul\":10505:10506   */\n      dup2\n        /* \"#utility.yul\":10501:10510   */\n      add\n        /* \"#utility.yul\":10496:10510   */\n      swap1\n      pop\n        /* \"#utility.yul\":10458:10596   */\n      jump(tag_218)\n    tag_220:\n        /* \"#utility.yul\":10462:10476   */\n      pop\n        /* \"#utility.yul\":10388:10602   */\n      pop\n      pop\n      jump\t// out\n        /* \"#utility.yul\":10608:11354   */\n    tag_90:\n        /* \"#utility.yul\":10709:10711   */\n      0x1f\n        /* \"#utility.yul\":10704:10707   */\n      dup3\n        /* \"#utility.yul\":10701:10712   */\n      gt\n        /* \"#utility.yul\":10698:11347   */\n      iszero\n      tag_223\n      jumpi\n        /* \"#utility.yul\":10738:10748   */\n      dup3\n        /* \"#utility.yul\":10733:10736   */\n      dup3\n        /* \"#utility.yul\":10730:10749   */\n      gt\n        /* \"#utility.yul\":10727:11337   */\n      iszero\n      tag_224\n      jumpi\n        /* \"#utility.yul\":10784:10822   */\n      tag_225\n        /* \"#utility.yul\":10816:10821   */\n      dup2\n        /* \"#utility.yul\":10784:10822   */\n      tag_79\n      jump\t// in\n    tag_225:\n        /* \"#utility.yul\":10859:10881   */\n      tag_226\n        /* \"#utility.yul\":10877:10880   */\n      dup4\n        /* \"#utility.yul\":10859:10881   */\n      tag_80\n      jump\t// in\n    tag_226:\n        /* \"#utility.yul\":10918:10947   */\n      tag_227\n        /* \"#utility.yul\":10936:10946   */\n      dup6\n        /* \"#utility.yul\":10918:10947   */\n      tag_80\n      jump\t// in\n    tag_227:\n        /* \"#utility.yul\":11108:11110   */\n      0x20\n        /* \"#utility.yul\":11096:11106   */\n      dup7\n        /* \"#utility.yul\":11093:11111   */\n      lt\n        /* \"#utility.yul\":11090:11169   */\n      iszero\n      tag_228\n      jumpi\n        /* \"#utility.yul\":11150:11151   */\n      0x00\n        /* \"#utility.yul\":11134:11151   */\n      swap1\n      pop\n        /* \"#utility.yul\":11090:11169   */\n    tag_228:\n        /* \"#utility.yul\":11219:11231   */\n      dup1\n        /* \"#utility.yul\":11209:11217   */\n      dup4\n        /* \"#utility.yul\":11205:11232   */\n      add\n        /* \"#utility.yul\":11249:11323   */\n      tag_229\n        /* \"#utility.yul\":11309:11321   */\n      dup3\n        /* \"#utility.yul\":11295:11307   */\n      dup5\n        /* \"#utility.yul\":11291:11322   */\n      sub\n        /* \"#utility.yul\":11278:11289   */\n      dup3\n        /* \"#utility.yul\":11249:11323   */\n      tag_89\n      jump\t// in\n    tag_229:\n        /* \"#utility.yul\":10750:11337   */\n      pop\n      pop\n      pop\n      pop\n        /* \"#utility.yul\":10727:11337   */\n    tag_224:\n        /* \"#utility.yul\":10698:11347   */\n    tag_223:\n        /* \"#utility.yul\":10608:11354   */\n      pop\n      pop\n      pop\n      jump\t// out\n        /* \"#utility.yul\":11360:11477   */\n    tag_91:\n        /* \"#utility.yul\":11414:11422   */\n      0x00\n        /* \"#utility.yul\":11464:11469   */\n      dup3\n        /* \"#utility.yul\":11458:11462   */\n      dup3\n        /* \"#utility.yul\":11454:11470   */\n      shr\n        /* \"#utility.yul\":11433:11470   */\n      swap1\n      pop\n        /* \"#utility.yul\":11360:11477   */\n      swap3\n      swap2\n      pop\n      pop\n      jump\t// out\n        /* \"#utility.yul\":11483:11652   */\n    tag_92:\n        /* \"#utility.yul\":11527:11533   */\n      0x00\n        /* \"#utility.yul\":11560:11611   */\n      tag_232\n        /* \"#utility.yul\":11608:11609   */\n      0x00\n        /* \"#utility.yul\":11604:11610   */\n      not\n        /* \"#utility.yul\":11596:11601   */\n      dup5\n        /* \"#utility.yul\":11593:11594   */\n      0x08\n        /* \"#utility.yul\":11589:11602   */\n      mul\n        /* \"#utility.yul\":11560:11611   */\n      tag_91\n      jump\t// in\n    tag_232:\n        /* \"#utility.yul\":11556:11612   */\n      not\n        /* \"#utility.yul\":11641:11645   */\n      dup1\n        /* \"#utility.yul\":11635:11639   */\n      dup4\n        /* \"#utility.yul\":11631:11646   */\n      and\n        /* \"#utility.yul\":11621:11646   */\n      swap2\n      pop\n        /* \"#utility.yul\":11534:11652   */\n      pop\n        /* \"#utility.yul\":11483:11652   */\n      swap3\n      swap2\n      pop\n      pop\n      jump\t// out\n        /* \"#utility.yul\":11657:11952   */\n    tag_93:\n        /* \"#utility.yul\":11733:11737   */\n      0x00\n        /* \"#utility.yul\":11879:11908   */\n      tag_234\n        /* \"#utility.yul\":11904:11907   */\n      dup4\n        /* \"#utility.yul\":11898:11902   */\n      dup4\n        /* \"#utility.yul\":11879:11908   */\n      tag_92\n      jump\t// in\n    tag_234:\n        /* \"#utility.yul\":11871:11908   */\n      swap2\n      pop\n        /* \"#utility.yul\":11941:11944   */\n      dup3\n        /* \"#utility.yul\":11938:11939   */\n      0x02\n        /* \"#utility.yul\":11934:11945   */\n      mul\n        /* \"#utility.yul\":11928:11932   */\n      dup3\n        /* \"#utility.yul\":11925:11946   */\n      or\n        /* \"#utility.yul\":11917:11946   */\n      swap1\n      pop\n        /* \"#utility.yul\":11657:11952   */\n      swap3\n      swap2\n      pop\n      pop\n      jump\t// out\n        /* \"#utility.yul\":11957:13352   */\n    tag_35:\n        /* \"#utility.yul\":12074:12111   */\n      tag_236\n        /* \"#utility.yul\":12107:12110   */\n      dup3\n        /* \"#utility.yul\":12074:12111   */\n      tag_53\n      jump\t// in\n    tag_236:\n        /* \"#utility.yul\":12176:12194   */\n      0xffffffffffffffff\n        /* \"#utility.yul\":12168:12174   */\n      dup2\n        /* \"#utility.yul\":12165:12195   */\n      gt\n        /* \"#utility.yul\":12162:12218   */\n      iszero\n      tag_237\n      jumpi\n        /* \"#utility.yul\":12198:12216   */\n      tag_238\n      tag_67\n      jump\t// in\n    tag_238:\n        /* \"#utility.yul\":12162:12218   */\n    tag_237:\n        /* \"#utility.yul\":12242:12280   */\n      tag_239\n        /* \"#utility.yul\":12274:12278   */\n      dup3\n        /* \"#utility.yul\":12268:12279   */\n      sload\n        /* \"#utility.yul\":12242:12280   */\n      tag_22\n      jump\t// in\n    tag_239:\n        /* \"#utility.yul\":12327:12394   */\n      tag_240\n        /* \"#utility.yul\":12387:12393   */\n      dup3\n        /* \"#utility.yul\":12379:12385   */\n      dup3\n        /* \"#utility.yul\":12373:12377   */\n      dup6\n        /* \"#utility.yul\":12327:12394   */\n      tag_90\n      jump\t// in\n    tag_240:\n        /* \"#utility.yul\":12421:12422   */\n      0x00\n        /* \"#utility.yul\":12445:12449   */\n      0x20\n        /* \"#utility.yul\":12432:12449   */\n      swap1\n      pop\n        /* \"#utility.yul\":12477:12479   */\n      0x1f\n        /* \"#utility.yul\":12469:12475   */\n      dup4\n        /* \"#utility.yul\":12466:12480   */\n      gt\n        /* \"#utility.yul\":12494:12495   */\n      0x01\n        /* \"#utility.yul\":12489:13107   */\n      dup2\n      eq\n      tag_242\n      jumpi\n        /* \"#utility.yul\":13151:13152   */\n      0x00\n        /* \"#utility.yul\":13168:13174   */\n      dup5\n        /* \"#utility.yul\":13165:13242   */\n      iszero\n      tag_243\n      jumpi\n        /* \"#utility.yul\":13217:13226   */\n      dup3\n        /* \"#utility.yul\":13212:13215   */\n      dup8\n        /* \"#utility.yul\":13208:13227   */\n      add\n        /* \"#utility.yul\":13202:13228   */\n      mload\n        /* \"#utility.yul\":13193:13228   */\n      swap1\n      pop\n        /* \"#utility.yul\":13165:13242   */\n    tag_243:\n        /* \"#utility.yul\":13268:13335   */\n      tag_244\n        /* \"#utility.yul\":13328:13334   */\n      dup6\n        /* \"#utility.yul\":13321:13326   */\n      dup3\n        /* \"#utility.yul\":13268:13335   */\n      tag_93\n      jump\t// in\n    tag_244:\n        /* \"#utility.yul\":13262:13266   */\n      dup7\n        /* \"#utility.yul\":13255:13336   */\n      sstore\n        /* \"#utility.yul\":13124:13346   */\n      pop\n        /* \"#utility.yul\":12459:13346   */\n      jump(tag_241)\n        /* \"#utility.yul\":12489:13107   */\n    tag_242:\n        /* \"#utility.yul\":12541:12545   */\n      0x1f\n        /* \"#utility.yul\":12537:12546   */\n      not\n        /* \"#utility.yul\":12529:12535   */\n      dup5\n        /* \"#utility.yul\":12525:12547   */\n      and\n        /* \"#utility.yul\":12575:12612   */\n      tag_245\n        /* \"#utility.yul\":12607:12611   */\n      dup7\n        /* \"#utility.yul\":12575:12612   */\n      tag_79\n      jump\t// in\n    tag_245:\n        /* \"#utility.yul\":12634:12635   */\n      0x00\n        /* \"#utility.yul\":12648:12856   */\n    tag_246:\n        /* \"#utility.yul\":12662:12669   */\n      dup3\n        /* \"#utility.yul\":12659:12660   */\n      dup2\n        /* \"#utility.yul\":12656:12670   */\n      lt\n        /* \"#utility.yul\":12648:12856   */\n      iszero\n      tag_248\n      jumpi\n        /* \"#utility.yul\":12741:12750   */\n      dup5\n        /* \"#utility.yul\":12736:12739   */\n      dup10\n        /* \"#utility.yul\":12732:12751   */\n      add\n        /* \"#utility.yul\":12726:12752   */\n      mload\n        /* \"#utility.yul\":12718:12724   */\n      dup3\n        /* \"#utility.yul\":12711:12753   */\n      sstore\n        /* \"#utility.yul\":12792:12793   */\n      0x01\n        /* \"#utility.yul\":12784:12790   */\n      dup3\n        /* \"#utility.yul\":12780:12794   */\n      add\n        /* \"#utility.yul\":12770:12794   */\n      swap2\n      pop\n        /* \"#utility.yul\":12839:12841   */\n      0x20\n        /* \"#utility.yul\":12828:12837   */\n      dup6\n        /* \"#utility.yul\":12824:12842   */\n      add\n        /* \"#utility.yul\":12811:12842   */\n      swap5\n      pop\n        /* \"#utility.yul\":12685:12689   */\n      0x20\n        /* \"#utility.yul\":12682:12683   */\n      dup2\n        /* \"#utility.yul\":12678:12690   */\n      add\n        /* \"#utility.yul\":12673:12690   */\n      swap1\n      pop\n        /* \"#utility.yul\":12648:12856   */\n      jump(tag_246)\n    tag_248:\n        /* \"#utility.yul\":12884:12890   */\n      dup7\n        /* \"#utility.yul\":12875:12882   */\n      dup4\n        /* \"#utility.yul\":12872:12891   */\n      lt\n        /* \"#utility.yul\":12869:13048   */\n      iszero\n      tag_249\n      jumpi\n        /* \"#utility.yul\":12942:12951   */\n      dup5\n        /* \"#utility.yul\":12937:12940   */\n      dup10\n        /* \"#utility.yul\":12933:12952   */\n      add\n        /* \"#utility.yul\":12927:12953   */\n      mload\n        /* \"#utility.yul\":12985:13033   */\n      tag_250\n        /* \"#utility.yul\":13027:13031   */\n      0x1f\n        /* \"#utility.yul\":13019:13025   */\n      dup10\n        /* \"#utility.yul\":13015:13032   */\n      and\n        /* \"#utility.yul\":13004:13013   */\n      dup3\n        /* \"#utility.yul\":12985:13033   */\n      tag_92\n      jump\t// in\n    tag_250:\n        /* \"#utility.yul\":12977:12983   */\n      dup4\n        /* \"#utility.yul\":12970:13034   */\n      sstore\n        /* \"#utility.yul\":12892:13048   */\n      pop\n        /* \"#utility.yul\":12869:13048   */\n    tag_249:\n        /* \"#utility.yul\":13094:13095   */\n      0x01\n        /* \"#utility.yul\":13090:13091   */\n      0x02\n        /* \"#utility.yul\":13082:13088   */\n      dup9\n        /* \"#utility.yul\":13078:13092   */\n      mul\n        /* \"#utility.yul\":13074:13096   */\n      add\n        /* \"#utility.yul\":13068:13072   */\n      dup9\n        /* \"#utility.yul\":13061:13097   */\n      sstore\n        /* \"#utility.yul\":12496:13107   */\n      pop\n      pop\n      pop\n        /* \"#utility.yul\":12459:13346   */\n    tag_241:\n      pop\n        /* \"#utility.yul\":12049:13352   */\n      pop\n      pop\n      pop\n        /* \"#utility.yul\":11957:13352   */\n      pop\n      pop\n      jump\t// out\n        /* \"#utility.yul\":13358:13581   */\n    tag_94:\n        /* \"#utility.yul\":13498:13532   */\n      0x7175616e746974792073686f756c642062652067726561746572207468616e20\n        /* \"#utility.yul\":13494:13495   */\n      0x00\n        /* \"#utility.yul\":13486:13492   */\n      dup3\n        /* \"#utility.yul\":13482:13496   */\n      add\n        /* \"#utility.yul\":13475:13533   */\n      mstore\n        /* \"#utility.yul\":13567:13573   */\n      0x7a65726f00000000000000000000000000000000000000000000000000000000\n        /* \"#utility.yul\":13562:13564   */\n      0x20\n        /* \"#utility.yul\":13554:13560   */\n      dup3\n        /* \"#utility.yul\":13550:13565   */\n      add\n        /* \"#utility.yul\":13543:13574   */\n      mstore\n        /* \"#utility.yul\":13358:13581   */\n      pop\n      jump\t// out\n        /* \"#utility.yul\":13587:13953   */\n    tag_95:\n        /* \"#utility.yul\":13729:13732   */\n      0x00\n        /* \"#utility.yul\":13750:13817   */\n      tag_253\n        /* \"#utility.yul\":13814:13816   */\n      0x24\n        /* \"#utility.yul\":13809:13812   */\n      dup4\n        /* \"#utility.yul\":13750:13817   */\n      tag_54\n      jump\t// in\n    tag_253:\n        /* \"#utility.yul\":13743:13817   */\n      swap2\n      pop\n        /* \"#utility.yul\":13826:13919   */\n      tag_254\n        /* \"#utility.yul\":13915:13918   */\n      dup3\n        /* \"#utility.yul\":13826:13919   */\n      tag_94\n      jump\t// in\n    tag_254:\n        /* \"#utility.yul\":13944:13946   */\n      0x40\n        /* \"#utility.yul\":13939:13942   */\n      dup3\n        /* \"#utility.yul\":13935:13947   */\n      add\n        /* \"#utility.yul\":13928:13947   */\n      swap1\n      pop\n        /* \"#utility.yul\":13587:13953   */\n      swap2\n      swap1\n      pop\n      jump\t// out\n        /* \"#utility.yul\":13959:14378   */\n    tag_39:\n        /* \"#utility.yul\":14125:14129   */\n      0x00\n        /* \"#utility.yul\":14163:14165   */\n      0x20\n        /* \"#utility.yul\":14152:14161   */\n      dup3\n        /* \"#utility.yul\":14148:14166   */\n      add\n        /* \"#utility.yul\":14140:14166   */\n      swap1\n      pop\n        /* \"#utility.yul\":14212:14221   */\n      dup2\n        /* \"#utility.yul\":14206:14210   */\n      dup2\n        /* \"#utility.yul\":14202:14222   */\n      sub\n        /* \"#utility.yul\":14198:14199   */\n      0x00\n        /* \"#utility.yul\":14187:14196   */\n      dup4\n        /* \"#utility.yul\":14183:14200   */\n      add\n        /* \"#utility.yul\":14176:14223   */\n      mstore\n        /* \"#utility.yul\":14240:14371   */\n      tag_256\n        /* \"#utility.yul\":14366:14370   */\n      dup2\n        /* \"#utility.yul\":14240:14371   */\n      tag_95\n      jump\t// in\n    tag_256:\n        /* \"#utility.yul\":14232:14371   */\n      swap1\n      pop\n        /* \"#utility.yul\":13959:14378   */\n      swap2\n      swap1\n      pop\n      jump\t// out\n\n    auxdata: 0xa2646970667358221220884ebf1034b7ae4d43a6ff73d60c14e2e57650b10616302d1d2a210e3411dfb364736f6c63430008220033\n}\n",
				"bytecode": {
					"linkReferences": {},
					"object": "6080604052348015600e575f5ffd5b50610b9e8061001c5f395ff3fe608060405234801561000f575f5ffd5b506004361061003f575f3560e01c8063466bdee314610043578063c7982e9414610077578063eb8b2ffd14610093575b5f5ffd5b61005d600480360381019061005891906103f6565b6100af565b60405161006e959493929190610552565b60405180910390f35b610091600480360381019061008c91906106d6565b610232565b005b6100ad60048036038101906100a8919061076a565b610267565b005b5f60605f5f5f5f5f5f8881526020019081526020015f206040518060a00160405290815f82015481526020016001820180546100ea9061082a565b80601f01602080910402602001604051908101604052809291908181526020018280546101169061082a565b80156101615780601f1061013857610100808354040283529160200191610161565b820191905f5260205f20905b81548152906001019060200180831161014457829003601f168201915b5050505050815260200160028201548152602001600382015f9054906101000a900473ffffffffffffffffffffffffffffffffffffffff1673ffffffffffffffffffffffffffffffffffffffff1673ffffffffffffffffffffffffffffffffffffffff1681526020016003820160149054906101000a900460ff1660028111156101ee576101ed6104df565b5b6002811115610200576101ff6104df565b5b815250509050805f01518160200151826040015183606001518460800151955095509550955095505091939590929450565b600181908060018154018082558091505060019003905f5260205f20015f9091909190915090816102639190610a0b565b5050565b825f81116102aa576040517f08c379a00000000000000000000000000000000000000000000000000000000081526004016102a190610b4a565b60405180910390fd5b6040518060a001604052808781526020018681526020018581526020018473ffffffffffffffffffffffffffffffffffffffff1681526020018360028111156102f6576102f56104df565b5b8152505f5f8881526020019081526020015f205f820151815f015560208201518160010190816103269190610a0b565b50604082015181600201556060820151816003015f6101000a81548173ffffffffffffffffffffffffffffffffffffffff021916908373ffffffffffffffffffffffffffffffffffffffff16021790555060808201518160030160146101000a81548160ff021916908360028111156103a2576103a16104df565b5b0217905550905050505050505050565b5f604051905090565b5f5ffd5b5f5ffd5b5f819050919050565b6103d5816103c3565b81146103df575f5ffd5b50565b5f813590506103f0816103cc565b92915050565b5f6020828403121561040b5761040a6103bb565b5b5f610418848285016103e2565b91505092915050565b61042a816103c3565b82525050565b5f81519050919050565b5f82825260208201905092915050565b8281835e5f83830152505050565b5f601f19601f8301169050919050565b5f61047282610430565b61047c818561043a565b935061048c81856020860161044a565b61049581610458565b840191505092915050565b5f73ffffffffffffffffffffffffffffffffffffffff82169050919050565b5f6104c9826104a0565b9050919050565b6104d9816104bf565b82525050565b7f4e487b71000000000000000000000000000000000000000000000000000000005f52602160045260245ffd5b6003811061051d5761051c6104df565b5b50565b5f81905061052d8261050c565b919050565b5f61053c82610520565b9050919050565b61054c81610532565b82525050565b5f60a0820190506105655f830188610421565b81810360208301526105778187610468565b90506105866040830186610421565b61059360608301856104d0565b6105a06080830184610543565b9695505050505050565b5f5ffd5b5f5ffd5b7f4e487b71000000000000000000000000000000000000000000000000000000005f52604160045260245ffd5b6105e882610458565b810181811067ffffffffffffffff82111715610607576106066105b2565b5b80604052505050565b5f6106196103b2565b905061062582826105df565b919050565b5f67ffffffffffffffff821115610644576106436105b2565b5b61064d82610458565b9050602081019050919050565b828183375f83830152505050565b5f61067a6106758461062a565b610610565b905082815260208101848484011115610696576106956105ae565b5b6106a184828561065a565b509392505050565b5f82601f8301126106bd576106bc6105aa565b5b81356106cd848260208601610668565b91505092915050565b5f602082840312156106eb576106ea6103bb565b5b5f82013567ffffffffffffffff811115610708576107076103bf565b5b610714848285016106a9565b91505092915050565b610726816104bf565b8114610730575f5ffd5b50565b5f813590506107418161071d565b92915050565b60038110610753575f5ffd5b50565b5f8135905061076481610747565b92915050565b5f5f5f5f5f60a08688031215610783576107826103bb565b5b5f610790888289016103e2565b955050602086013567ffffffffffffffff8111156107b1576107b06103bf565b5b6107bd888289016106a9565b94505060406107ce888289016103e2565b93505060606107df88828901610733565b92505060806107f088828901610756565b9150509295509295909350565b7f4e487b71000000000000000000000000000000000000000000000000000000005f52602260045260245ffd5b5f600282049050600182168061084157607f821691505b602082108103610854576108536107fd565b5b50919050565b5f819050815f5260205f209050919050565b5f6020601f8301049050919050565b5f82821b905092915050565b5f600883026108b67fffffffffffffffffffffffffffffffffffffffffffffffffffffffffffffffff8261087b565b6108c0868361087b565b95508019841693508086168417925050509392505050565b5f819050919050565b5f6108fb6108f66108f1846103c3565b6108d8565b6103c3565b9050919050565b5f819050919050565b610914836108e1565b61092861092082610902565b848454610887565b825550505050565b5f5f905090565b61093f610930565b61094a81848461090b565b505050565b5f5b82811015610970576109655f828401610937565b600181019050610951565b505050565b601f8211156109c357828211156109c25761098f8161085a565b6109988361086c565b6109a18561086c565b60208610156109ae575f90505b8083016109bd8284038261094f565b505050505b5b505050565b5f82821c905092915050565b5f6109e35f19846008026109c8565b1980831691505092915050565b5f6109fb83836109d4565b9150826002028217905092915050565b610a1482610430565b67ffffffffffffffff811115610a2d57610a2c6105b2565b5b610a37825461082a565b610a42828285610975565b5f60209050601f831160018114610a73575f8415610a61578287015190505b610a6b85826109f0565b865550610ad2565b601f198416610a818661085a565b5f5b82811015610aa857848901518255600182019150602085019450602081019050610a83565b86831015610ac55784890151610ac1601f8916826109d4565b8355505b6001600288020188555050505b505050505050565b7f7175616e746974792073686f756c642062652067726561746572207468616e205f8201527f7a65726f00000000000000000000000000000000000000000000000000000000602082015250565b5f610b3460248361043a565b9150610b3f82610ada565b604082019050919050565b5f6020820190508181035f830152610b6181610b28565b905091905056fea2646970667358221220884ebf1034b7ae4d43a6ff73d60c14e2e57650b10616302d1d2a210e3411dfb364736f6c63430008220033",
					"opcodes": "PUSH1 0x80 PUSH1 0x40 MSTORE CALLVALUE DUP1 ISZERO PUSH1 0xE JUMPI PUSH0 PUSH0 REVERT JUMPDEST POP PUSH2 0xB9E DUP1 PUSH2 0x1C PUSH0 CODECOPY PUSH0 RETURN INVALID PUSH1 0x80 PUSH1 0x40 MSTORE CALLVALUE DUP1 ISZERO PUSH2 0xF JUMPI PUSH0 PUSH0 REVERT JUMPDEST POP PUSH1 0x4 CALLDATASIZE LT PUSH2 0x3F JUMPI PUSH0 CALLDATALOAD PUSH1 0xE0 SHR DUP1 PUSH4 0x466BDEE3 EQ PUSH2 0x43 JUMPI DUP1 PUSH4 0xC7982E94 EQ PUSH2 0x77 JUMPI DUP1 PUSH4 0xEB8B2FFD EQ PUSH2 0x93 JUMPI JUMPDEST PUSH0 PUSH0 REVERT JUMPDEST PUSH2 0x5D PUSH1 0x4 DUP1 CALLDATASIZE SUB DUP2 ADD SWAP1 PUSH2 0x58 SWAP2 SWAP1 PUSH2 0x3F6 JUMP JUMPDEST PUSH2 0xAF JUMP JUMPDEST PUSH1 0x40 MLOAD PUSH2 0x6E SWAP6 SWAP5 SWAP4 SWAP3 SWAP2 SWAP1 PUSH2 0x552 JUMP JUMPDEST PUSH1 0x40 MLOAD DUP1 SWAP2 SUB SWAP1 RETURN JUMPDEST PUSH2 0x91 PUSH1 0x4 DUP1 CALLDATASIZE SUB DUP2 ADD SWAP1 PUSH2 0x8C SWAP2 SWAP1 PUSH2 0x6D6 JUMP JUMPDEST PUSH2 0x232 JUMP JUMPDEST STOP JUMPDEST PUSH2 0xAD PUSH1 0x4 DUP1 CALLDATASIZE SUB DUP2 ADD SWAP1 PUSH2 0xA8 SWAP2 SWAP1 PUSH2 0x76A JUMP JUMPDEST PUSH2 0x267 JUMP JUMPDEST STOP JUMPDEST PUSH0 PUSH1 0x60 PUSH0 PUSH0 PUSH0 PUSH0 PUSH0 PUSH0 DUP9 DUP2 MSTORE PUSH1 0x20 ADD SWAP1 DUP2 MSTORE PUSH1 0x20 ADD PUSH0 KECCAK256 PUSH1 0x40 MLOAD DUP1 PUSH1 0xA0 ADD PUSH1 0x40 MSTORE SWAP1 DUP2 PUSH0 DUP3 ADD SLOAD DUP2 MSTORE PUSH1 0x20 ADD PUSH1 0x1 DUP3 ADD DUP1 SLOAD PUSH2 0xEA SWAP1 PUSH2 0x82A JUMP JUMPDEST DUP1 PUSH1 0x1F ADD PUSH1 0x20 DUP1 SWAP2 DIV MUL PUSH1 0x20 ADD PUSH1 0x40 MLOAD SWAP1 DUP2 ADD PUSH1 0x40 MSTORE DUP1 SWAP3 SWAP2 SWAP1 DUP2 DUP2 MSTORE PUSH1 0x20 ADD DUP3 DUP1 SLOAD PUSH2 0x116 SWAP1 PUSH2 0x82A JUMP JUMPDEST DUP1 ISZERO PUSH2 0x161 JUMPI DUP1 PUSH1 0x1F LT PUSH2 0x138 JUMPI PUSH2 0x100 DUP1 DUP4 SLOAD DIV MUL DUP4 MSTORE SWAP2 PUSH1 0x20 ADD SWAP2 PUSH2 0x161 JUMP JUMPDEST DUP3 ADD SWAP2 SWAP1 PUSH0 MSTORE PUSH1 0x20 PUSH0 KECCAK256 SWAP1 JUMPDEST DUP2 SLOAD DUP2 MSTORE SWAP1 PUSH1 0x1 ADD SWAP1 PUSH1 0x20 ADD DUP1 DUP4 GT PUSH2 0x144 JUMPI DUP3 SWAP1 SUB PUSH1 0x1F AND DUP3 ADD SWAP2 JUMPDEST POP POP POP POP POP DUP2 MSTORE PUSH1 0x20 ADD PUSH1 0x2 DUP3 ADD SLOAD DUP2 MSTORE PUSH1 0x20 ADD PUSH1 0x3 DUP3 ADD PUSH0 SWAP1 SLOAD SWAP1 PUSH2 0x100 EXP SWAP1 DIV PUSH20 0xFFFFFFFFFFFFFFFFFFFFFFFFFFFFFFFFFFFFFFFF AND PUSH20 0xFFFFFFFFFFFFFFFFFFFFFFFFFFFFFFFFFFFFFFFF AND PUSH20 0xFFFFFFFFFFFFFFFFFFFFFFFFFFFFFFFFFFFFFFFF AND DUP2 MSTORE PUSH1 0x20 ADD PUSH1 0x3 DUP3 ADD PUSH1 0x14 SWAP1 SLOAD SWAP1 PUSH2 0x100 EXP SWAP1 DIV PUSH1 0xFF AND PUSH1 0x2 DUP2 GT ISZERO PUSH2 0x1EE JUMPI PUSH2 0x1ED PUSH2 0x4DF JUMP JUMPDEST JUMPDEST PUSH1 0x2 DUP2 GT ISZERO PUSH2 0x200 JUMPI PUSH2 0x1FF PUSH2 0x4DF JUMP JUMPDEST JUMPDEST DUP2 MSTORE POP POP SWAP1 POP DUP1 PUSH0 ADD MLOAD DUP2 PUSH1 0x20 ADD MLOAD DUP3 PUSH1 0x40 ADD MLOAD DUP4 PUSH1 0x60 ADD MLOAD DUP5 PUSH1 0x80 ADD MLOAD SWAP6 POP SWAP6 POP SWAP6 POP SWAP6 POP SWAP6 POP POP SWAP2 SWAP4 SWAP6 SWAP1 SWAP3 SWAP5 POP JUMP JUMPDEST PUSH1 0x1 DUP2 SWAP1 DUP1 PUSH1 0x1 DUP2 SLOAD ADD DUP1 DUP3 SSTORE DUP1 SWAP2 POP POP PUSH1 0x1 SWAP1 SUB SWAP1 PUSH0 MSTORE PUSH1 0x20 PUSH0 KECCAK256 ADD PUSH0 SWAP1 SWAP2 SWAP1 SWAP2 SWAP1 SWAP2 POP SWAP1 DUP2 PUSH2 0x263 SWAP2 SWAP1 PUSH2 0xA0B JUMP JUMPDEST POP POP JUMP JUMPDEST DUP3 PUSH0 DUP2 GT PUSH2 0x2AA JUMPI PUSH1 0x40 MLOAD PUSH32 0x8C379A000000000000000000000000000000000000000000000000000000000 DUP2 MSTORE PUSH1 0x4 ADD PUSH2 0x2A1 SWAP1 PUSH2 0xB4A JUMP JUMPDEST PUSH1 0x40 MLOAD DUP1 SWAP2 SUB SWAP1 REVERT JUMPDEST PUSH1 0x40 MLOAD DUP1 PUSH1 0xA0 ADD PUSH1 0x40 MSTORE DUP1 DUP8 DUP2 MSTORE PUSH1 0x20 ADD DUP7 DUP2 MSTORE PUSH1 0x20 ADD DUP6 DUP2 MSTORE PUSH1 0x20 ADD DUP5 PUSH20 0xFFFFFFFFFFFFFFFFFFFFFFFFFFFFFFFFFFFFFFFF AND DUP2 MSTORE PUSH1 0x20 ADD DUP4 PUSH1 0x2 DUP2 GT ISZERO PUSH2 0x2F6 JUMPI PUSH2 0x2F5 PUSH2 0x4DF JUMP JUMPDEST JUMPDEST DUP2 MSTORE POP PUSH0 PUSH0 DUP9 DUP2 MSTORE PUSH1 0x20 ADD SWAP1 DUP2 MSTORE PUSH1 0x20 ADD PUSH0 KECCAK256 PUSH0 DUP3 ADD MLOAD DUP2 PUSH0 ADD SSTORE PUSH1 0x20 DUP3 ADD MLOAD DUP2 PUSH1 0x1 ADD SWAP1 DUP2 PUSH2 0x326 SWAP2 SWAP1 PUSH2 0xA0B JUMP JUMPDEST POP PUSH1 0x40 DUP3 ADD MLOAD DUP2 PUSH1 0x2 ADD SSTORE PUSH1 0x60 DUP3 ADD MLOAD DUP2 PUSH1 0x3 ADD PUSH0 PUSH2 0x100 EXP DUP2 SLOAD DUP2 PUSH20 0xFFFFFFFFFFFFFFFFFFFFFFFFFFFFFFFFFFFFFFFF MUL NOT AND SWAP1 DUP4 PUSH20 0xFFFFFFFFFFFFFFFFFFFFFFFFFFFFFFFFFFFFFFFF AND MUL OR SWAP1 SSTORE POP PUSH1 0x80 DUP3 ADD MLOAD DUP2 PUSH1 0x3 ADD PUSH1 0x14 PUSH2 0x100 EXP DUP2 SLOAD DUP2 PUSH1 0xFF MUL NOT AND SWAP1 DUP4 PUSH1 0x2 DUP2 GT ISZERO PUSH2 0x3A2 JUMPI PUSH2 0x3A1 PUSH2 0x4DF JUMP JUMPDEST JUMPDEST MUL OR SWAP1 SSTORE POP SWAP1 POP POP POP POP POP POP POP POP JUMP JUMPDEST PUSH0 PUSH1 0x40 MLOAD SWAP1 POP SWAP1 JUMP JUMPDEST PUSH0 PUSH0 REVERT JUMPDEST PUSH0 PUSH0 REVERT JUMPDEST PUSH0 DUP2 SWAP1 POP SWAP2 SWAP1 POP JUMP JUMPDEST PUSH2 0x3D5 DUP2 PUSH2 0x3C3 JUMP JUMPDEST DUP2 EQ PUSH2 0x3DF JUMPI PUSH0 PUSH0 REVERT JUMPDEST POP JUMP JUMPDEST PUSH0 DUP2 CALLDATALOAD SWAP1 POP PUSH2 0x3F0 DUP2 PUSH2 0x3CC JUMP JUMPDEST SWAP3 SWAP2 POP POP JUMP JUMPDEST PUSH0 PUSH1 0x20 DUP3 DUP5 SUB SLT ISZERO PUSH2 0x40B JUMPI PUSH2 0x40A PUSH2 0x3BB JUMP JUMPDEST JUMPDEST PUSH0 PUSH2 0x418 DUP5 DUP3 DUP6 ADD PUSH2 0x3E2 JUMP JUMPDEST SWAP2 POP POP SWAP3 SWAP2 POP POP JUMP JUMPDEST PUSH2 0x42A DUP2 PUSH2 0x3C3 JUMP JUMPDEST DUP3 MSTORE POP POP JUMP JUMPDEST PUSH0 DUP2 MLOAD SWAP1 POP SWAP2 SWAP1 POP JUMP JUMPDEST PUSH0 DUP3 DUP3 MSTORE PUSH1 0x20 DUP3 ADD SWAP1 POP SWAP3 SWAP2 POP POP JUMP JUMPDEST DUP3 DUP2 DUP4 MCOPY PUSH0 DUP4 DUP4 ADD MSTORE POP POP POP JUMP JUMPDEST PUSH0 PUSH1 0x1F NOT PUSH1 0x1F DUP4 ADD AND SWAP1 POP SWAP2 SWAP1 POP JUMP JUMPDEST PUSH0 PUSH2 0x472 DUP3 PUSH2 0x430 JUMP JUMPDEST PUSH2 0x47C DUP2 DUP6 PUSH2 0x43A JUMP JUMPDEST SWAP4 POP PUSH2 0x48C DUP2 DUP6 PUSH1 0x20 DUP7 ADD PUSH2 0x44A JUMP JUMPDEST PUSH2 0x495 DUP2 PUSH2 0x458 JUMP JUMPDEST DUP5 ADD SWAP2 POP POP SWAP3 SWAP2 POP POP JUMP JUMPDEST PUSH0 PUSH20 0xFFFFFFFFFFFFFFFFFFFFFFFFFFFFFFFFFFFFFFFF DUP3 AND SWAP1 POP SWAP2 SWAP1 POP JUMP JUMPDEST PUSH0 PUSH2 0x4C9 DUP3 PUSH2 0x4A0 JUMP JUMPDEST SWAP1 POP SWAP2 SWAP1 POP JUMP JUMPDEST PUSH2 0x4D9 DUP2 PUSH2 0x4BF JUMP JUMPDEST DUP3 MSTORE POP POP JUMP JUMPDEST PUSH32 0x4E487B7100000000000000000000000000000000000000000000000000000000 PUSH0 MSTORE PUSH1 0x21 PUSH1 0x4 MSTORE PUSH1 0x24 PUSH0 REVERT JUMPDEST PUSH1 0x3 DUP2 LT PUSH2 0x51D JUMPI PUSH2 0x51C PUSH2 0x4DF JUMP JUMPDEST JUMPDEST POP JUMP JUMPDEST PUSH0 DUP2 SWAP1 POP PUSH2 0x52D DUP3 PUSH2 0x50C JUMP JUMPDEST SWAP2 SWAP1 POP JUMP JUMPDEST PUSH0 PUSH2 0x53C DUP3 PUSH2 0x520 JUMP JUMPDEST SWAP1 POP SWAP2 SWAP1 POP JUMP JUMPDEST PUSH2 0x54C DUP2 PUSH2 0x532 JUMP JUMPDEST DUP3 MSTORE POP POP JUMP JUMPDEST PUSH0 PUSH1 0xA0 DUP3 ADD SWAP1 POP PUSH2 0x565 PUSH0 DUP4 ADD DUP9 PUSH2 0x421 JUMP JUMPDEST DUP2 DUP2 SUB PUSH1 0x20 DUP4 ADD MSTORE PUSH2 0x577 DUP2 DUP8 PUSH2 0x468 JUMP JUMPDEST SWAP1 POP PUSH2 0x586 PUSH1 0x40 DUP4 ADD DUP7 PUSH2 0x421 JUMP JUMPDEST PUSH2 0x593 PUSH1 0x60 DUP4 ADD DUP6 PUSH2 0x4D0 JUMP JUMPDEST PUSH2 0x5A0 PUSH1 0x80 DUP4 ADD DUP5 PUSH2 0x543 JUMP JUMPDEST SWAP7 SWAP6 POP POP POP POP POP POP JUMP JUMPDEST PUSH0 PUSH0 REVERT JUMPDEST PUSH0 PUSH0 REVERT JUMPDEST PUSH32 0x4E487B7100000000000000000000000000000000000000000000000000000000 PUSH0 MSTORE PUSH1 0x41 PUSH1 0x4 MSTORE PUSH1 0x24 PUSH0 REVERT JUMPDEST PUSH2 0x5E8 DUP3 PUSH2 0x458 JUMP JUMPDEST DUP2 ADD DUP2 DUP2 LT PUSH8 0xFFFFFFFFFFFFFFFF DUP3 GT OR ISZERO PUSH2 0x607 JUMPI PUSH2 0x606 PUSH2 0x5B2 JUMP JUMPDEST JUMPDEST DUP1 PUSH1 0x40 MSTORE POP POP POP JUMP JUMPDEST PUSH0 PUSH2 0x619 PUSH2 0x3B2 JUMP JUMPDEST SWAP1 POP PUSH2 0x625 DUP3 DUP3 PUSH2 0x5DF JUMP JUMPDEST SWAP2 SWAP1 POP JUMP JUMPDEST PUSH0 PUSH8 0xFFFFFFFFFFFFFFFF DUP3 GT ISZERO PUSH2 0x644 JUMPI PUSH2 0x643 PUSH2 0x5B2 JUMP JUMPDEST JUMPDEST PUSH2 0x64D DUP3 PUSH2 0x458 JUMP JUMPDEST SWAP1 POP PUSH1 0x20 DUP2 ADD SWAP1 POP SWAP2 SWAP1 POP JUMP JUMPDEST DUP3 DUP2 DUP4 CALLDATACOPY PUSH0 DUP4 DUP4 ADD MSTORE POP POP POP JUMP JUMPDEST PUSH0 PUSH2 0x67A PUSH2 0x675 DUP5 PUSH2 0x62A JUMP JUMPDEST PUSH2 0x610 JUMP JUMPDEST SWAP1 POP DUP3 DUP2 MSTORE PUSH1 0x20 DUP2 ADD DUP5 DUP5 DUP5 ADD GT ISZERO PUSH2 0x696 JUMPI PUSH2 0x695 PUSH2 0x5AE JUMP JUMPDEST JUMPDEST PUSH2 0x6A1 DUP5 DUP3 DUP6 PUSH2 0x65A JUMP JUMPDEST POP SWAP4 SWAP3 POP POP POP JUMP JUMPDEST PUSH0 DUP3 PUSH1 0x1F DUP4 ADD SLT PUSH2 0x6BD JUMPI PUSH2 0x6BC PUSH2 0x5AA JUMP JUMPDEST JUMPDEST DUP2 CALLDATALOAD PUSH2 0x6CD DUP5 DUP3 PUSH1 0x20 DUP7 ADD PUSH2 0x668 JUMP JUMPDEST SWAP2 POP POP SWAP3 SWAP2 POP POP JUMP JUMPDEST PUSH0 PUSH1 0x20 DUP3 DUP5 SUB SLT ISZERO PUSH2 0x6EB JUMPI PUSH2 0x6EA PUSH2 0x3BB JUMP JUMPDEST JUMPDEST PUSH0 DUP3 ADD CALLDATALOAD PUSH8 0xFFFFFFFFFFFFFFFF DUP2 GT ISZERO PUSH2 0x708 JUMPI PUSH2 0x707 PUSH2 0x3BF JUMP JUMPDEST JUMPDEST PUSH2 0x714 DUP5 DUP3 DUP6 ADD PUSH2 0x6A9 JUMP JUMPDEST SWAP2 POP POP SWAP3 SWAP2 POP POP JUMP JUMPDEST PUSH2 0x726 DUP2 PUSH2 0x4BF JUMP JUMPDEST DUP2 EQ PUSH2 0x730 JUMPI PUSH0 PUSH0 REVERT JUMPDEST POP JUMP JUMPDEST PUSH0 DUP2 CALLDATALOAD SWAP1 POP PUSH2 0x741 DUP2 PUSH2 0x71D JUMP JUMPDEST SWAP3 SWAP2 POP POP JUMP JUMPDEST PUSH1 0x3 DUP2 LT PUSH2 0x753 JUMPI PUSH0 PUSH0 REVERT JUMPDEST POP JUMP JUMPDEST PUSH0 DUP2 CALLDATALOAD SWAP1 POP PUSH2 0x764 DUP2 PUSH2 0x747 JUMP JUMPDEST SWAP3 SWAP2 POP POP JUMP JUMPDEST PUSH0 PUSH0 PUSH0 PUSH0 PUSH0 PUSH1 0xA0 DUP7 DUP9 SUB SLT ISZERO PUSH2 0x783 JUMPI PUSH2 0x782 PUSH2 0x3BB JUMP JUMPDEST JUMPDEST PUSH0 PUSH2 0x790 DUP9 DUP3 DUP10 ADD PUSH2 0x3E2 JUMP JUMPDEST SWAP6 POP POP PUSH1 0x20 DUP7 ADD CALLDATALOAD PUSH8 0xFFFFFFFFFFFFFFFF DUP2 GT ISZERO PUSH2 0x7B1 JUMPI PUSH2 0x7B0 PUSH2 0x3BF JUMP JUMPDEST JUMPDEST PUSH2 0x7BD DUP9 DUP3 DUP10 ADD PUSH2 0x6A9 JUMP JUMPDEST SWAP5 POP POP PUSH1 0x40 PUSH2 0x7CE DUP9 DUP3 DUP10 ADD PUSH2 0x3E2 JUMP JUMPDEST SWAP4 POP POP PUSH1 0x60 PUSH2 0x7DF DUP9 DUP3 DUP10 ADD PUSH2 0x733 JUMP JUMPDEST SWAP3 POP POP PUSH1 0x80 PUSH2 0x7F0 DUP9 DUP3 DUP10 ADD PUSH2 0x756 JUMP JUMPDEST SWAP2 POP POP SWAP3 SWAP6 POP SWAP3 SWAP6 SWAP1 SWAP4 POP JUMP JUMPDEST PUSH32 0x4E487B7100000000000000000000000000000000000000000000000000000000 PUSH0 MSTORE PUSH1 0x22 PUSH1 0x4 MSTORE PUSH1 0x24 PUSH0 REVERT JUMPDEST PUSH0 PUSH1 0x2 DUP3 DIV SWAP1 POP PUSH1 0x1 DUP3 AND DUP1 PUSH2 0x841 JUMPI PUSH1 0x7F DUP3 AND SWAP2 POP JUMPDEST PUSH1 0x20 DUP3 LT DUP2 SUB PUSH2 0x854 JUMPI PUSH2 0x853 PUSH2 0x7FD JUMP JUMPDEST JUMPDEST POP SWAP2 SWAP1 POP JUMP JUMPDEST PUSH0 DUP2 SWAP1 POP DUP2 PUSH0 MSTORE PUSH1 0x20 PUSH0 KECCAK256 SWAP1 POP SWAP2 SWAP1 POP JUMP JUMPDEST PUSH0 PUSH1 0x20 PUSH1 0x1F DUP4 ADD DIV SWAP1 POP SWAP2 SWAP1 POP JUMP JUMPDEST PUSH0 DUP3 DUP3 SHL SWAP1 POP SWAP3 SWAP2 POP POP JUMP JUMPDEST PUSH0 PUSH1 0x8 DUP4 MUL PUSH2 0x8B6 PUSH32 0xFFFFFFFFFFFFFFFFFFFFFFFFFFFFFFFFFFFFFFFFFFFFFFFFFFFFFFFFFFFFFFFF DUP3 PUSH2 0x87B JUMP JUMPDEST PUSH2 0x8C0 DUP7 DUP4 PUSH2 0x87B JUMP JUMPDEST SWAP6 POP DUP1 NOT DUP5 AND SWAP4 POP DUP1 DUP7 AND DUP5 OR SWAP3 POP POP POP SWAP4 SWAP3 POP POP POP JUMP JUMPDEST PUSH0 DUP2 SWAP1 POP SWAP2 SWAP1 POP JUMP JUMPDEST PUSH0 PUSH2 0x8FB PUSH2 0x8F6 PUSH2 0x8F1 DUP5 PUSH2 0x3C3 JUMP JUMPDEST PUSH2 0x8D8 JUMP JUMPDEST PUSH2 0x3C3 JUMP JUMPDEST SWAP1 POP SWAP2 SWAP1 POP JUMP JUMPDEST PUSH0 DUP2 SWAP1 POP SWAP2 SWAP1 POP JUMP JUMPDEST PUSH2 0x914 DUP4 PUSH2 0x8E1 JUMP JUMPDEST PUSH2 0x928 PUSH2 0x920 DUP3 PUSH2 0x902 JUMP JUMPDEST DUP5 DUP5 SLOAD PUSH2 0x887 JUMP JUMPDEST DUP3 SSTORE POP POP POP POP JUMP JUMPDEST PUSH0 PUSH0 SWAP1 POP SWAP1 JUMP JUMPDEST PUSH2 0x93F PUSH2 0x930 JUMP JUMPDEST PUSH2 0x94A DUP2 DUP5 DUP5 PUSH2 0x90B JUMP JUMPDEST POP POP POP JUMP JUMPDEST PUSH0 JUMPDEST DUP3 DUP2 LT ISZERO PUSH2 0x970 JUMPI PUSH2 0x965 PUSH0 DUP3 DUP5 ADD PUSH2 0x937 JUMP JUMPDEST PUSH1 0x1 DUP2 ADD SWAP1 POP PUSH2 0x951 JUMP JUMPDEST POP POP POP JUMP JUMPDEST PUSH1 0x1F DUP3 GT ISZERO PUSH2 0x9C3 JUMPI DUP3 DUP3 GT ISZERO PUSH2 0x9C2 JUMPI PUSH2 0x98F DUP2 PUSH2 0x85A JUMP JUMPDEST PUSH2 0x998 DUP4 PUSH2 0x86C JUMP JUMPDEST PUSH2 0x9A1 DUP6 PUSH2 0x86C JUMP JUMPDEST PUSH1 0x20 DUP7 LT ISZERO PUSH2 0x9AE JUMPI PUSH0 SWAP1 POP JUMPDEST DUP1 DUP4 ADD PUSH2 0x9BD DUP3 DUP5 SUB DUP3 PUSH2 0x94F JUMP JUMPDEST POP POP POP POP JUMPDEST JUMPDEST POP POP POP JUMP JUMPDEST PUSH0 DUP3 DUP3 SHR SWAP1 POP SWAP3 SWAP2 POP POP JUMP JUMPDEST PUSH0 PUSH2 0x9E3 PUSH0 NOT DUP5 PUSH1 0x8 MUL PUSH2 0x9C8 JUMP JUMPDEST NOT DUP1 DUP4 AND SWAP2 POP POP SWAP3 SWAP2 POP POP JUMP JUMPDEST PUSH0 PUSH2 0x9FB DUP4 DUP4 PUSH2 0x9D4 JUMP JUMPDEST SWAP2 POP DUP3 PUSH1 0x2 MUL DUP3 OR SWAP1 POP SWAP3 SWAP2 POP POP JUMP JUMPDEST PUSH2 0xA14 DUP3 PUSH2 0x430 JUMP JUMPDEST PUSH8 0xFFFFFFFFFFFFFFFF DUP2 GT ISZERO PUSH2 0xA2D JUMPI PUSH2 0xA2C PUSH2 0x5B2 JUMP JUMPDEST JUMPDEST PUSH2 0xA37 DUP3 SLOAD PUSH2 0x82A JUMP JUMPDEST PUSH2 0xA42 DUP3 DUP3 DUP6 PUSH2 0x975 JUMP JUMPDEST PUSH0 PUSH1 0x20 SWAP1 POP PUSH1 0x1F DUP4 GT PUSH1 0x1 DUP2 EQ PUSH2 0xA73 JUMPI PUSH0 DUP5 ISZERO PUSH2 0xA61 JUMPI DUP3 DUP8 ADD MLOAD SWAP1 POP JUMPDEST PUSH2 0xA6B DUP6 DUP3 PUSH2 0x9F0 JUMP JUMPDEST DUP7 SSTORE POP PUSH2 0xAD2 JUMP JUMPDEST PUSH1 0x1F NOT DUP5 AND PUSH2 0xA81 DUP7 PUSH2 0x85A JUMP JUMPDEST PUSH0 JUMPDEST DUP3 DUP2 LT ISZERO PUSH2 0xAA8 JUMPI DUP5 DUP10 ADD MLOAD DUP3 SSTORE PUSH1 0x1 DUP3 ADD SWAP2 POP PUSH1 0x20 DUP6 ADD SWAP5 POP PUSH1 0x20 DUP2 ADD SWAP1 POP PUSH2 0xA83 JUMP JUMPDEST DUP7 DUP4 LT ISZERO PUSH2 0xAC5 JUMPI DUP5 DUP10 ADD MLOAD PUSH2 0xAC1 PUSH1 0x1F DUP10 AND DUP3 PUSH2 0x9D4 JUMP JUMPDEST DUP4 SSTORE POP JUMPDEST PUSH1 0x1 PUSH1 0x2 DUP9 MUL ADD DUP9 SSTORE POP POP POP JUMPDEST POP POP POP POP POP POP JUMP JUMPDEST PUSH32 0x7175616E746974792073686F756C642062652067726561746572207468616E20 PUSH0 DUP3 ADD MSTORE PUSH32 0x7A65726F00000000000000000000000000000000000000000000000000000000 PUSH1 0x20 DUP3 ADD MSTORE POP JUMP JUMPDEST PUSH0 PUSH2 0xB34 PUSH1 0x24 DUP4 PUSH2 0x43A JUMP JUMPDEST SWAP2 POP PUSH2 0xB3F DUP3 PUSH2 0xADA JUMP JUMPDEST PUSH1 0x40 DUP3 ADD SWAP1 POP SWAP2 SWAP1 POP JUMP JUMPDEST PUSH0 PUSH1 0x20 DUP3 ADD SWAP1 POP DUP2 DUP2 SUB PUSH0 DUP4 ADD MSTORE PUSH2 0xB61 DUP2 PUSH2 0xB28 JUMP JUMPDEST SWAP1 POP SWAP2 SWAP1 POP JUMP INVALID LOG2 PUSH5 0x6970667358 0x22 SLT KECCAK256 DUP9 0x4E 0xBF LT CALLVALUE 0xB7 0xAE 0x4D NUMBER 0xA6 SELFDESTRUCT PUSH20 0xD60C14E2E57650B10616302D1D2A210E3411DFB3 PUSH5 0x736F6C6343 STOP ADDMOD 0x22 STOP CALLER "
				},
				"gasEstimates": {
					"creation": {
						"codeDepositCost": "594800",
						"executionCost": "623",
						"totalCost": "595423"
					},
					"external": {
						"addproduct(string)": "infinite",
						"createorder(uint256,string,uint256,address,uint8)": "infinite",
						"getorder(uint256)": "infinite"
					}
				},
				"methodIdentifiers": {
					"addproduct(string)": "c7982e94",
					"createorder(uint256,string,uint256,address,uint8)": "eb8b2ffd",
					"getorder(uint256)": "466bdee3"
				}
			},
			"storageLayout": {
				"storage": [
					{
						"astId": 22,
						"contract": "Assignments/Assignment6(16-03-2026)/ProductOm.sol:ProductOrderManagement",
						"label": "orders",
						"offset": 0,
						"slot": "0",
						"type": "t_mapping(t_uint256,t_struct(order)17_storage)"
					},
					{
						"astId": 25,
						"contract": "Assignments/Assignment6(16-03-2026)/ProductOm.sol:ProductOrderManagement",
						"label": "productnames",
						"offset": 0,
						"slot": "1",
						"type": "t_array(t_string_storage)dyn_storage"
					}
				],
				"types": {
					"t_address": {
						"encoding": "inplace",
						"label": "address",
						"numberOfBytes": "20"
					},
					"t_array(t_string_storage)dyn_storage": {
						"base": "t_string_storage",
						"encoding": "dynamic_array",
						"label": "string[]",
						"numberOfBytes": "32"
					},
					"t_enum(orderstatus)5": {
						"encoding": "inplace",
						"label": "enum ProductOrderManagement.orderstatus",
						"numberOfBytes": "1"
					},
					"t_mapping(t_uint256,t_struct(order)17_storage)": {
						"encoding": "mapping",
						"key": "t_uint256",
						"label": "mapping(uint256 => struct ProductOrderManagement.order)",
						"numberOfBytes": "32",
						"value": "t_struct(order)17_storage"
					},
					"t_string_storage": {
						"encoding": "bytes",
						"label": "string",
						"numberOfBytes": "32"
					},
					"t_struct(order)17_storage": {
						"encoding": "inplace",
						"label": "struct ProductOrderManagement.order",
						"members": [
							{
								"astId": 7,
								"contract": "Assignments/Assignment6(16-03-2026)/ProductOm.sol:ProductOrderManagement",
								"label": "orderid",
								"offset": 0,
								"slot": "0",
								"type": "t_uint256"
							},
							{
								"astId": 9,
								"contract": "Assignments/Assignment6(16-03-2026)/ProductOm.sol:ProductOrderManagement",
								"label": "productname",
								"offset": 0,
								"slot": "1",
								"type": "t_string_storage"
							},
							{
								"astId": 11,
								"contract": "Assignments/Assignment6(16-03-2026)/ProductOm.sol:ProductOrderManagement",
								"label": "quantity",
								"offset": 0,
								"slot": "2",
								"type": "t_uint256"
							},
							{
								"astId": 13,
								"contract": "Assignments/Assignment6(16-03-2026)/ProductOm.sol:ProductOrderManagement",
								"label": "customer",
								"offset": 0,
								"slot": "3",
								"type": "t_address"
							},
							{
								"astId": 16,
								"contract": "Assignments/Assignment6(16-03-2026)/ProductOm.sol:ProductOrderManagement",
								"label": "status",
								"offset": 20,
								"slot": "3",
								"type": "t_enum(orderstatus)5"
							}
						],
						"numberOfBytes": "128"
					},
					"t_uint256": {
						"encoding": "inplace",
						"label": "uint256",
						"numberOfBytes": "32"
					}
				}
			},
			"userdoc": {
				"kind": "user",
				"methods": {},
				"version": 1
			}
		}
	}
}