{
	"Assignments/Assignment6(20-03-2026)/transfermapping.sol": {
		"wallet": {
			"abi": [
				{
					"inputs": [],
					"stateMutability": "nonpayable",
					"type": "constructor"
				},
				{
					"inputs": [],
					"name": "Iswalletopen",
					"outputs": [
						{
							"internalType": "bool",
							"name": "",
							"type": "bool"
						}
					],
					"stateMutability": "view",
					"type": "function"
				},
				{
					"inputs": [],
					"name": "balance",
					"outputs": [
						{
							"internalType": "uint256",
							"name": "",
							"type": "uint256"
						}
					],
					"stateMutability": "view",
					"type": "function"
				},
				{
					"inputs": [
						{
							"internalType": "uint256",
							"name": "_amount",
							"type": "uint256"
						}
					],
					"name": "deposit",
					"outputs": [],
					"stateMutability": "nonpayable",
					"type": "function"
				},
				{
					"inputs": [],
					"name": "netTransaction",
					"outputs": [
						{
							"internalType": "int256",
							"name": "",
							"type": "int256"
						}
					],
					"stateMutability": "view",
					"type": "function"
				},
				{
					"inputs": [
						{
							"internalType": "uint256",
							"name": "_amount",
							"type": "uint256"
						}
					],
					"name": "withdraw",
					"outputs": [],
					"stateMutability": "nonpayable",
					"type": "function"
				}
			],
			"devdoc": {
				"kind": "dev",
				"methods": {},
				"version": 1
			},
			"evm": {
				"assembly": "    /* \"Assignments/Assignment6(20-03-2026)/transfermapping.sol\":244:962  contract wallet{... */\n  mstore(0x40, 0x80)\n    /* \"Assignments/Assignment6(20-03-2026)/transfermapping.sol\":359:436  constructor(){... */\n  callvalue\n  dup1\n  iszero\n  tag_1\n  jumpi\n  revert(0x00, 0x00)\ntag_1:\n  pop\n    /* \"Assignments/Assignment6(20-03-2026)/transfermapping.sol\":393:398  20000 */\n  0x4e20\n    /* \"Assignments/Assignment6(20-03-2026)/transfermapping.sol\":383:390  balance */\n  0x00\n    /* \"Assignments/Assignment6(20-03-2026)/transfermapping.sol\":383:398  balance = 20000 */\n  dup2\n  swap1\n  sstore\n  pop\n    /* \"Assignments/Assignment6(20-03-2026)/transfermapping.sol\":424:428  true */\n  0x01\n    /* \"Assignments/Assignment6(20-03-2026)/transfermapping.sol\":409:421  Iswalletopen */\n  0x02\n  0x00\n    /* \"Assignments/Assignment6(20-03-2026)/transfermapping.sol\":409:428  Iswalletopen = true */\n  0x0100\n  exp\n  dup2\n  sload\n  dup2\n  0xff\n  mul\n  not\n  and\n  swap1\n  dup4\n  iszero\n  iszero\n  mul\n  or\n  swap1\n  sstore\n  pop\n    /* \"Assignments/Assignment6(20-03-2026)/transfermapping.sol\":244:962  contract wallet{... */\n  dataSize(sub_0)\n  dup1\n  dataOffset(sub_0)\n  0x00\n  codecopy\n  0x00\n  return\nstop\n\nsub_0: assembly {\n        /* \"Assignments/Assignment6(20-03-2026)/transfermapping.sol\":244:962  contract wallet{... */\n      mstore(0x40, 0x80)\n      callvalue\n      dup1\n      iszero\n      tag_1\n      jumpi\n      revert(0x00, 0x00)\n    tag_1:\n      pop\n      jumpi(tag_2, lt(calldatasize, 0x04))\n      shr(0xe0, calldataload(0x00))\n      dup1\n      0x2e1a7d4d\n      eq\n      tag_3\n      jumpi\n      dup1\n      0x82f889b1\n      eq\n      tag_4\n      jumpi\n      dup1\n      0x98c51394\n      eq\n      tag_5\n      jumpi\n      dup1\n      0xb69ef8a8\n      eq\n      tag_6\n      jumpi\n      dup1\n      0xb6b55f25\n      eq\n      tag_7\n      jumpi\n    tag_2:\n      revert(0x00, 0x00)\n        /* \"Assignments/Assignment6(20-03-2026)/transfermapping.sol\":770:952  function withdraw(uint _amount)public onlyopen{... */\n    tag_3:\n      tag_8\n      0x04\n      dup1\n      calldatasize\n      sub\n      dup2\n      add\n      swap1\n      tag_9\n      swap2\n      swap1\n      tag_10\n      jump\t// in\n    tag_9:\n      tag_11\n      jump\t// in\n    tag_8:\n      stop\n        /* \"Assignments/Assignment6(20-03-2026)/transfermapping.sol\":324:349  bool public  Iswalletopen */\n    tag_4:\n      tag_12\n      tag_13\n      jump\t// in\n    tag_12:\n      mload(0x40)\n      tag_14\n      swap2\n      swap1\n      tag_15\n      jump\t// in\n    tag_14:\n      mload(0x40)\n      dup1\n      swap2\n      sub\n      swap1\n      return\n        /* \"Assignments/Assignment6(20-03-2026)/transfermapping.sol\":292:317  int public netTransaction */\n    tag_5:\n      tag_16\n      tag_17\n      jump\t// in\n    tag_16:\n      mload(0x40)\n      tag_18\n      swap2\n      swap1\n      tag_19\n      jump\t// in\n    tag_18:\n      mload(0x40)\n      dup1\n      swap2\n      sub\n      swap1\n      return\n        /* \"Assignments/Assignment6(20-03-2026)/transfermapping.sol\":266:285  uint public balance */\n    tag_6:\n      tag_20\n      tag_21\n      jump\t// in\n    tag_20:\n      mload(0x40)\n      tag_22\n      swap2\n      swap1\n      tag_23\n      jump\t// in\n    tag_22:\n      mload(0x40)\n      dup1\n      swap2\n      sub\n      swap1\n      return\n        /* \"Assignments/Assignment6(20-03-2026)/transfermapping.sol\":622:746  function deposit(uint _amount) public onlyopen{... */\n    tag_7:\n      tag_24\n      0x04\n      dup1\n      calldatasize\n      sub\n      dup2\n      add\n      swap1\n      tag_25\n      swap2\n      swap1\n      tag_10\n      jump\t// in\n    tag_25:\n      tag_26\n      jump\t// in\n    tag_24:\n      stop\n        /* \"Assignments/Assignment6(20-03-2026)/transfermapping.sol\":770:952  function withdraw(uint _amount)public onlyopen{... */\n    tag_11:\n        /* \"Assignments/Assignment6(20-03-2026)/transfermapping.sol\":549:561  Iswalletopen */\n      0x02\n      0x00\n      swap1\n      sload\n      swap1\n      0x0100\n      exp\n      swap1\n      div\n      0xff\n      and\n        /* \"Assignments/Assignment6(20-03-2026)/transfermapping.sol\":541:581  require(Iswalletopen,\"wallet is closed\") */\n      tag_28\n      jumpi\n      mload(0x40)\n      0x08c379a000000000000000000000000000000000000000000000000000000000\n      dup2\n      mstore\n      0x04\n      add\n      tag_29\n      swap1\n      tag_30\n      jump\t// in\n    tag_29:\n      mload(0x40)\n      dup1\n      swap2\n      sub\n      swap1\n      revert\n    tag_28:\n        /* \"Assignments/Assignment6(20-03-2026)/transfermapping.sol\":845:852  balance */\n      sload(0x00)\n        /* \"Assignments/Assignment6(20-03-2026)/transfermapping.sol\":835:842  _amount */\n      dup2\n        /* \"Assignments/Assignment6(20-03-2026)/transfermapping.sol\":835:852  _amount<= balance */\n      gt\n      iszero\n        /* \"Assignments/Assignment6(20-03-2026)/transfermapping.sol\":827:875  require(_amount<= balance,\"Insufficientbalance\") */\n      tag_32\n      jumpi\n      mload(0x40)\n      0x08c379a000000000000000000000000000000000000000000000000000000000\n      dup2\n      mstore\n      0x04\n      add\n      tag_33\n      swap1\n      tag_34\n      jump\t// in\n    tag_33:\n      mload(0x40)\n      dup1\n      swap2\n      sub\n      swap1\n      revert\n    tag_32:\n        /* \"Assignments/Assignment6(20-03-2026)/transfermapping.sol\":897:904  _amount */\n      dup1\n        /* \"Assignments/Assignment6(20-03-2026)/transfermapping.sol\":886:893  balance */\n      0x00\n      0x00\n        /* \"Assignments/Assignment6(20-03-2026)/transfermapping.sol\":886:904  balance -= _amount */\n      dup3\n      dup3\n      sload\n      tag_35\n      swap2\n      swap1\n      tag_36\n      jump\t// in\n    tag_35:\n      swap3\n      pop\n      pop\n      dup2\n      swap1\n      sstore\n      pop\n        /* \"Assignments/Assignment6(20-03-2026)/transfermapping.sol\":936:943  _amount */\n      dup1\n        /* \"Assignments/Assignment6(20-03-2026)/transfermapping.sol\":915:929  netTransaction */\n      0x01\n      0x00\n        /* \"Assignments/Assignment6(20-03-2026)/transfermapping.sol\":915:944  netTransaction -=int(_amount) */\n      dup3\n      dup3\n      sload\n      tag_37\n      swap2\n      swap1\n      tag_38\n      jump\t// in\n    tag_37:\n      swap3\n      pop\n      pop\n      dup2\n      swap1\n      sstore\n      pop\n        /* \"Assignments/Assignment6(20-03-2026)/transfermapping.sol\":770:952  function withdraw(uint _amount)public onlyopen{... */\n      pop\n      jump\t// out\n        /* \"Assignments/Assignment6(20-03-2026)/transfermapping.sol\":324:349  bool public  Iswalletopen */\n    tag_13:\n      0x02\n      0x00\n      swap1\n      sload\n      swap1\n      0x0100\n      exp\n      swap1\n      div\n      0xff\n      and\n      dup2\n      jump\t// out\n        /* \"Assignments/Assignment6(20-03-2026)/transfermapping.sol\":292:317  int public netTransaction */\n    tag_17:\n      sload(0x01)\n      dup2\n      jump\t// out\n        /* \"Assignments/Assignment6(20-03-2026)/transfermapping.sol\":266:285  uint public balance */\n    tag_21:\n      sload(0x00)\n      dup2\n      jump\t// out\n        /* \"Assignments/Assignment6(20-03-2026)/transfermapping.sol\":622:746  function deposit(uint _amount) public onlyopen{... */\n    tag_26:\n        /* \"Assignments/Assignment6(20-03-2026)/transfermapping.sol\":549:561  Iswalletopen */\n      0x02\n      0x00\n      swap1\n      sload\n      swap1\n      0x0100\n      exp\n      swap1\n      div\n      0xff\n      and\n        /* \"Assignments/Assignment6(20-03-2026)/transfermapping.sol\":541:581  require(Iswalletopen,\"wallet is closed\") */\n      tag_40\n      jumpi\n      mload(0x40)\n      0x08c379a000000000000000000000000000000000000000000000000000000000\n      dup2\n      mstore\n      0x04\n      add\n      tag_41\n      swap1\n      tag_30\n      jump\t// in\n    tag_41:\n      mload(0x40)\n      dup1\n      swap2\n      sub\n      swap1\n      revert\n    tag_40:\n        /* \"Assignments/Assignment6(20-03-2026)/transfermapping.sol\":690:697  _amount */\n      dup1\n        /* \"Assignments/Assignment6(20-03-2026)/transfermapping.sol\":679:686  balance */\n      0x00\n      0x00\n        /* \"Assignments/Assignment6(20-03-2026)/transfermapping.sol\":679:697  balance += _amount */\n      dup3\n      dup3\n      sload\n      tag_43\n      swap2\n      swap1\n      tag_44\n      jump\t// in\n    tag_43:\n      swap3\n      pop\n      pop\n      dup2\n      swap1\n      sstore\n      pop\n        /* \"Assignments/Assignment6(20-03-2026)/transfermapping.sol\":730:737  _amount */\n      dup1\n        /* \"Assignments/Assignment6(20-03-2026)/transfermapping.sol\":708:722  netTransaction */\n      0x01\n      0x00\n        /* \"Assignments/Assignment6(20-03-2026)/transfermapping.sol\":708:738  netTransaction += int(_amount) */\n      dup3\n      dup3\n      sload\n      tag_45\n      swap2\n      swap1\n      tag_46\n      jump\t// in\n    tag_45:\n      swap3\n      pop\n      pop\n      dup2\n      swap1\n      sstore\n      pop\n        /* \"Assignments/Assignment6(20-03-2026)/transfermapping.sol\":622:746  function deposit(uint _amount) public onlyopen{... */\n      pop\n      jump\t// out\n        /* \"#utility.yul\":88:205   */\n    tag_48:\n        /* \"#utility.yul\":197:198   */\n      0x00\n        /* \"#utility.yul\":194:195   */\n      0x00\n        /* \"#utility.yul\":187:199   */\n      revert\n        /* \"#utility.yul\":334:411   */\n    tag_50:\n        /* \"#utility.yul\":371:378   */\n      0x00\n        /* \"#utility.yul\":400:405   */\n      dup2\n        /* \"#utility.yul\":389:405   */\n      swap1\n      pop\n        /* \"#utility.yul\":334:411   */\n      swap2\n      swap1\n      pop\n      jump\t// out\n        /* \"#utility.yul\":417:539   */\n    tag_51:\n        /* \"#utility.yul\":490:514   */\n      tag_70\n        /* \"#utility.yul\":508:513   */\n      dup2\n        /* \"#utility.yul\":490:514   */\n      tag_50\n      jump\t// in\n    tag_70:\n        /* \"#utility.yul\":483:488   */\n      dup2\n        /* \"#utility.yul\":480:515   */\n      eq\n        /* \"#utility.yul\":470:533   */\n      tag_71\n      jumpi\n        /* \"#utility.yul\":529:530   */\n      0x00\n        /* \"#utility.yul\":526:527   */\n      0x00\n        /* \"#utility.yul\":519:531   */\n      revert\n        /* \"#utility.yul\":470:533   */\n    tag_71:\n        /* \"#utility.yul\":417:539   */\n      pop\n      jump\t// out\n        /* \"#utility.yul\":545:684   */\n    tag_52:\n        /* \"#utility.yul\":591:596   */\n      0x00\n        /* \"#utility.yul\":629:635   */\n      dup2\n        /* \"#utility.yul\":616:636   */\n      calldataload\n        /* \"#utility.yul\":607:636   */\n      swap1\n      pop\n        /* \"#utility.yul\":645:678   */\n      tag_73\n        /* \"#utility.yul\":672:677   */\n      dup2\n        /* \"#utility.yul\":645:678   */\n      tag_51\n      jump\t// in\n    tag_73:\n        /* \"#utility.yul\":545:684   */\n      swap3\n      swap2\n      pop\n      pop\n      jump\t// out\n        /* \"#utility.yul\":690:1019   */\n    tag_10:\n        /* \"#utility.yul\":749:755   */\n      0x00\n        /* \"#utility.yul\":798:800   */\n      0x20\n        /* \"#utility.yul\":786:795   */\n      dup3\n        /* \"#utility.yul\":777:784   */\n      dup5\n        /* \"#utility.yul\":773:796   */\n      sub\n        /* \"#utility.yul\":769:801   */\n      slt\n        /* \"#utility.yul\":766:885   */\n      iszero\n      tag_75\n      jumpi\n        /* \"#utility.yul\":804:883   */\n      tag_76\n      tag_48\n      jump\t// in\n    tag_76:\n        /* \"#utility.yul\":766:885   */\n    tag_75:\n        /* \"#utility.yul\":924:925   */\n      0x00\n        /* \"#utility.yul\":949:1002   */\n      tag_77\n        /* \"#utility.yul\":994:1001   */\n      dup5\n        /* \"#utility.yul\":985:991   */\n      dup3\n        /* \"#utility.yul\":974:983   */\n      dup6\n        /* \"#utility.yul\":970:992   */\n      add\n        /* \"#utility.yul\":949:1002   */\n      tag_52\n      jump\t// in\n    tag_77:\n        /* \"#utility.yul\":939:1002   */\n      swap2\n      pop\n        /* \"#utility.yul\":895:1012   */\n      pop\n        /* \"#utility.yul\":690:1019   */\n      swap3\n      swap2\n      pop\n      pop\n      jump\t// out\n        /* \"#utility.yul\":1025:1115   */\n    tag_53:\n        /* \"#utility.yul\":1059:1066   */\n      0x00\n        /* \"#utility.yul\":1102:1107   */\n      dup2\n        /* \"#utility.yul\":1095:1108   */\n      iszero\n        /* \"#utility.yul\":1088:1109   */\n      iszero\n        /* \"#utility.yul\":1077:1109   */\n      swap1\n      pop\n        /* \"#utility.yul\":1025:1115   */\n      swap2\n      swap1\n      pop\n      jump\t// out\n        /* \"#utility.yul\":1121:1230   */\n    tag_54:\n        /* \"#utility.yul\":1202:1223   */\n      tag_80\n        /* \"#utility.yul\":1217:1222   */\n      dup2\n        /* \"#utility.yul\":1202:1223   */\n      tag_53\n      jump\t// in\n    tag_80:\n        /* \"#utility.yul\":1197:1200   */\n      dup3\n        /* \"#utility.yul\":1190:1224   */\n      mstore\n        /* \"#utility.yul\":1121:1230   */\n      pop\n      pop\n      jump\t// out\n        /* \"#utility.yul\":1236:1446   */\n    tag_15:\n        /* \"#utility.yul\":1323:1327   */\n      0x00\n        /* \"#utility.yul\":1361:1363   */\n      0x20\n        /* \"#utility.yul\":1350:1359   */\n      dup3\n        /* \"#utility.yul\":1346:1364   */\n      add\n        /* \"#utility.yul\":1338:1364   */\n      swap1\n      pop\n        /* \"#utility.yul\":1374:1439   */\n      tag_82\n        /* \"#utility.yul\":1436:1437   */\n      0x00\n        /* \"#utility.yul\":1425:1434   */\n      dup4\n        /* \"#utility.yul\":1421:1438   */\n      add\n        /* \"#utility.yul\":1412:1418   */\n      dup5\n        /* \"#utility.yul\":1374:1439   */\n      tag_54\n      jump\t// in\n    tag_82:\n        /* \"#utility.yul\":1236:1446   */\n      swap3\n      swap2\n      pop\n      pop\n      jump\t// out\n        /* \"#utility.yul\":1452:1528   */\n    tag_55:\n        /* \"#utility.yul\":1488:1495   */\n      0x00\n        /* \"#utility.yul\":1517:1522   */\n      dup2\n        /* \"#utility.yul\":1506:1522   */\n      swap1\n      pop\n        /* \"#utility.yul\":1452:1528   */\n      swap2\n      swap1\n      pop\n      jump\t// out\n        /* \"#utility.yul\":1534:1649   */\n    tag_56:\n        /* \"#utility.yul\":1619:1642   */\n      tag_85\n        /* \"#utility.yul\":1636:1641   */\n      dup2\n        /* \"#utility.yul\":1619:1642   */\n      tag_55\n      jump\t// in\n    tag_85:\n        /* \"#utility.yul\":1614:1617   */\n      dup3\n        /* \"#utility.yul\":1607:1643   */\n      mstore\n        /* \"#utility.yul\":1534:1649   */\n      pop\n      pop\n      jump\t// out\n        /* \"#utility.yul\":1655:1873   */\n    tag_19:\n        /* \"#utility.yul\":1746:1750   */\n      0x00\n        /* \"#utility.yul\":1784:1786   */\n      0x20\n        /* \"#utility.yul\":1773:1782   */\n      dup3\n        /* \"#utility.yul\":1769:1787   */\n      add\n        /* \"#utility.yul\":1761:1787   */\n      swap1\n      pop\n        /* \"#utility.yul\":1797:1866   */\n      tag_87\n        /* \"#utility.yul\":1863:1864   */\n      0x00\n        /* \"#utility.yul\":1852:1861   */\n      dup4\n        /* \"#utility.yul\":1848:1865   */\n      add\n        /* \"#utility.yul\":1839:1845   */\n      dup5\n        /* \"#utility.yul\":1797:1866   */\n      tag_56\n      jump\t// in\n    tag_87:\n        /* \"#utility.yul\":1655:1873   */\n      swap3\n      swap2\n      pop\n      pop\n      jump\t// out\n        /* \"#utility.yul\":1879:1997   */\n    tag_57:\n        /* \"#utility.yul\":1966:1990   */\n      tag_89\n        /* \"#utility.yul\":1984:1989   */\n      dup2\n        /* \"#utility.yul\":1966:1990   */\n      tag_50\n      jump\t// in\n    tag_89:\n        /* \"#utility.yul\":1961:1964   */\n      dup3\n        /* \"#utility.yul\":1954:1991   */\n      mstore\n        /* \"#utility.yul\":1879:1997   */\n      pop\n      pop\n      jump\t// out\n        /* \"#utility.yul\":2003:2225   */\n    tag_23:\n        /* \"#utility.yul\":2096:2100   */\n      0x00\n        /* \"#utility.yul\":2134:2136   */\n      0x20\n        /* \"#utility.yul\":2123:2132   */\n      dup3\n        /* \"#utility.yul\":2119:2137   */\n      add\n        /* \"#utility.yul\":2111:2137   */\n      swap1\n      pop\n        /* \"#utility.yul\":2147:2218   */\n      tag_91\n        /* \"#utility.yul\":2215:2216   */\n      0x00\n        /* \"#utility.yul\":2204:2213   */\n      dup4\n        /* \"#utility.yul\":2200:2217   */\n      add\n        /* \"#utility.yul\":2191:2197   */\n      dup5\n        /* \"#utility.yul\":2147:2218   */\n      tag_57\n      jump\t// in\n    tag_91:\n        /* \"#utility.yul\":2003:2225   */\n      swap3\n      swap2\n      pop\n      pop\n      jump\t// out\n        /* \"#utility.yul\":2231:2400   */\n    tag_58:\n        /* \"#utility.yul\":2315:2326   */\n      0x00\n        /* \"#utility.yul\":2349:2355   */\n      dup3\n        /* \"#utility.yul\":2344:2347   */\n      dup3\n        /* \"#utility.yul\":2337:2356   */\n      mstore\n        /* \"#utility.yul\":2389:2393   */\n      0x20\n        /* \"#utility.yul\":2384:2387   */\n      dup3\n        /* \"#utility.yul\":2380:2394   */\n      add\n        /* \"#utility.yul\":2365:2394   */\n      swap1\n      pop\n        /* \"#utility.yul\":2231:2400   */\n      swap3\n      swap2\n      pop\n      pop\n      jump\t// out\n        /* \"#utility.yul\":2406:2572   */\n    tag_59:\n        /* \"#utility.yul\":2546:2564   */\n      0x77616c6c657420697320636c6f73656400000000000000000000000000000000\n        /* \"#utility.yul\":2542:2543   */\n      0x00\n        /* \"#utility.yul\":2534:2540   */\n      dup3\n        /* \"#utility.yul\":2530:2544   */\n      add\n        /* \"#utility.yul\":2523:2565   */\n      mstore\n        /* \"#utility.yul\":2406:2572   */\n      pop\n      jump\t// out\n        /* \"#utility.yul\":2578:2944   */\n    tag_60:\n        /* \"#utility.yul\":2720:2723   */\n      0x00\n        /* \"#utility.yul\":2741:2808   */\n      tag_95\n        /* \"#utility.yul\":2805:2807   */\n      0x10\n        /* \"#utility.yul\":2800:2803   */\n      dup4\n        /* \"#utility.yul\":2741:2808   */\n      tag_58\n      jump\t// in\n    tag_95:\n        /* \"#utility.yul\":2734:2808   */\n      swap2\n      pop\n        /* \"#utility.yul\":2817:2910   */\n      tag_96\n        /* \"#utility.yul\":2906:2909   */\n      dup3\n        /* \"#utility.yul\":2817:2910   */\n      tag_59\n      jump\t// in\n    tag_96:\n        /* \"#utility.yul\":2935:2937   */\n      0x20\n        /* \"#utility.yul\":2930:2933   */\n      dup3\n        /* \"#utility.yul\":2926:2938   */\n      add\n        /* \"#utility.yul\":2919:2938   */\n      swap1\n      pop\n        /* \"#utility.yul\":2578:2944   */\n      swap2\n      swap1\n      pop\n      jump\t// out\n        /* \"#utility.yul\":2950:3369   */\n    tag_30:\n        /* \"#utility.yul\":3116:3120   */\n      0x00\n        /* \"#utility.yul\":3154:3156   */\n      0x20\n        /* \"#utility.yul\":3143:3152   */\n      dup3\n        /* \"#utility.yul\":3139:3157   */\n      add\n        /* \"#utility.yul\":3131:3157   */\n      swap1\n      pop\n        /* \"#utility.yul\":3203:3212   */\n      dup2\n        /* \"#utility.yul\":3197:3201   */\n      dup2\n        /* \"#utility.yul\":3193:3213   */\n      sub\n        /* \"#utility.yul\":3189:3190   */\n      0x00\n        /* \"#utility.yul\":3178:3187   */\n      dup4\n        /* \"#utility.yul\":3174:3191   */\n      add\n        /* \"#utility.yul\":3167:3214   */\n      mstore\n        /* \"#utility.yul\":3231:3362   */\n      tag_98\n        /* \"#utility.yul\":3357:3361   */\n      dup2\n        /* \"#utility.yul\":3231:3362   */\n      tag_60\n      jump\t// in\n    tag_98:\n        /* \"#utility.yul\":3223:3362   */\n      swap1\n      pop\n        /* \"#utility.yul\":2950:3369   */\n      swap2\n      swap1\n      pop\n      jump\t// out\n        /* \"#utility.yul\":3375:3544   */\n    tag_61:\n        /* \"#utility.yul\":3515:3536   */\n      0x496e73756666696369656e7462616c616e636500000000000000000000000000\n        /* \"#utility.yul\":3511:3512   */\n      0x00\n        /* \"#utility.yul\":3503:3509   */\n      dup3\n        /* \"#utility.yul\":3499:3513   */\n      add\n        /* \"#utility.yul\":3492:3537   */\n      mstore\n        /* \"#utility.yul\":3375:3544   */\n      pop\n      jump\t// out\n        /* \"#utility.yul\":3550:3916   */\n    tag_62:\n        /* \"#utility.yul\":3692:3695   */\n      0x00\n        /* \"#utility.yul\":3713:3780   */\n      tag_101\n        /* \"#utility.yul\":3777:3779   */\n      0x13\n        /* \"#utility.yul\":3772:3775   */\n      dup4\n        /* \"#utility.yul\":3713:3780   */\n      tag_58\n      jump\t// in\n    tag_101:\n        /* \"#utility.yul\":3706:3780   */\n      swap2\n      pop\n        /* \"#utility.yul\":3789:3882   */\n      tag_102\n        /* \"#utility.yul\":3878:3881   */\n      dup3\n        /* \"#utility.yul\":3789:3882   */\n      tag_61\n      jump\t// in\n    tag_102:\n        /* \"#utility.yul\":3907:3909   */\n      0x20\n        /* \"#utility.yul\":3902:3905   */\n      dup3\n        /* \"#utility.yul\":3898:3910   */\n      add\n        /* \"#utility.yul\":3891:3910   */\n      swap1\n      pop\n        /* \"#utility.yul\":3550:3916   */\n      swap2\n      swap1\n      pop\n      jump\t// out\n        /* \"#utility.yul\":3922:4341   */\n    tag_34:\n        /* \"#utility.yul\":4088:4092   */\n      0x00\n        /* \"#utility.yul\":4126:4128   */\n      0x20\n        /* \"#utility.yul\":4115:4124   */\n      dup3\n        /* \"#utility.yul\":4111:4129   */\n      add\n        /* \"#utility.yul\":4103:4129   */\n      swap1\n      pop\n        /* \"#utility.yul\":4175:4184   */\n      dup2\n        /* \"#utility.yul\":4169:4173   */\n      dup2\n        /* \"#utility.yul\":4165:4185   */\n      sub\n        /* \"#utility.yul\":4161:4162   */\n      0x00\n        /* \"#utility.yul\":4150:4159   */\n      dup4\n        /* \"#utility.yul\":4146:4163   */\n      add\n        /* \"#utility.yul\":4139:4186   */\n      mstore\n        /* \"#utility.yul\":4203:4334   */\n      tag_104\n        /* \"#utility.yul\":4329:4333   */\n      dup2\n        /* \"#utility.yul\":4203:4334   */\n      tag_62\n      jump\t// in\n    tag_104:\n        /* \"#utility.yul\":4195:4334   */\n      swap1\n      pop\n        /* \"#utility.yul\":3922:4341   */\n      swap2\n      swap1\n      pop\n      jump\t// out\n        /* \"#utility.yul\":4347:4527   */\n    tag_63:\n        /* \"#utility.yul\":4395:4472   */\n      0x4e487b7100000000000000000000000000000000000000000000000000000000\n        /* \"#utility.yul\":4392:4393   */\n      0x00\n        /* \"#utility.yul\":4385:4473   */\n      mstore\n        /* \"#utility.yul\":4492:4496   */\n      0x11\n        /* \"#utility.yul\":4489:4490   */\n      0x04\n        /* \"#utility.yul\":4482:4497   */\n      mstore\n        /* \"#utility.yul\":4516:4520   */\n      0x24\n        /* \"#utility.yul\":4513:4514   */\n      0x00\n        /* \"#utility.yul\":4506:4521   */\n      revert\n        /* \"#utility.yul\":4533:4727   */\n    tag_36:\n        /* \"#utility.yul\":4573:4577   */\n      0x00\n        /* \"#utility.yul\":4593:4613   */\n      tag_107\n        /* \"#utility.yul\":4611:4612   */\n      dup3\n        /* \"#utility.yul\":4593:4613   */\n      tag_50\n      jump\t// in\n    tag_107:\n        /* \"#utility.yul\":4588:4613   */\n      swap2\n      pop\n        /* \"#utility.yul\":4627:4647   */\n      tag_108\n        /* \"#utility.yul\":4645:4646   */\n      dup4\n        /* \"#utility.yul\":4627:4647   */\n      tag_50\n      jump\t// in\n    tag_108:\n        /* \"#utility.yul\":4622:4647   */\n      swap3\n      pop\n        /* \"#utility.yul\":4671:4672   */\n      dup3\n        /* \"#utility.yul\":4668:4669   */\n      dup3\n        /* \"#utility.yul\":4664:4673   */\n      sub\n        /* \"#utility.yul\":4656:4673   */\n      swap1\n      pop\n        /* \"#utility.yul\":4695:4696   */\n      dup2\n        /* \"#utility.yul\":4689:4693   */\n      dup2\n        /* \"#utility.yul\":4686:4697   */\n      gt\n        /* \"#utility.yul\":4683:4720   */\n      iszero\n      tag_109\n      jumpi\n        /* \"#utility.yul\":4700:4718   */\n      tag_110\n      tag_63\n      jump\t// in\n    tag_110:\n        /* \"#utility.yul\":4683:4720   */\n    tag_109:\n        /* \"#utility.yul\":4533:4727   */\n      swap3\n      swap2\n      pop\n      pop\n      jump\t// out\n        /* \"#utility.yul\":4733:5105   */\n    tag_38:\n        /* \"#utility.yul\":4772:4776   */\n      0x00\n        /* \"#utility.yul\":4792:4811   */\n      tag_112\n        /* \"#utility.yul\":4809:4810   */\n      dup3\n        /* \"#utility.yul\":4792:4811   */\n      tag_55\n      jump\t// in\n    tag_112:\n        /* \"#utility.yul\":4787:4811   */\n      swap2\n      pop\n        /* \"#utility.yul\":4825:4844   */\n      tag_113\n        /* \"#utility.yul\":4842:4843   */\n      dup4\n        /* \"#utility.yul\":4825:4844   */\n      tag_55\n      jump\t// in\n    tag_113:\n        /* \"#utility.yul\":4820:4844   */\n      swap3\n      pop\n        /* \"#utility.yul\":4868:4869   */\n      dup3\n        /* \"#utility.yul\":4865:4866   */\n      dup3\n        /* \"#utility.yul\":4861:4870   */\n      sub\n        /* \"#utility.yul\":4853:4870   */\n      swap1\n      pop\n        /* \"#utility.yul\":5062:5063   */\n      dup2\n        /* \"#utility.yul\":5056:5060   */\n      dup2\n        /* \"#utility.yul\":5052:5064   */\n      slt\n        /* \"#utility.yul\":5048:5049   */\n      0x00\n        /* \"#utility.yul\":5045:5046   */\n      dup5\n        /* \"#utility.yul\":5041:5050   */\n      slt\n        /* \"#utility.yul\":5037:5065   */\n      and\n        /* \"#utility.yul\":5020:5021   */\n      dup3\n        /* \"#utility.yul\":5014:5018   */\n      dup3\n        /* \"#utility.yul\":5010:5022   */\n      sgt\n        /* \"#utility.yul\":5005:5006   */\n      0x00\n        /* \"#utility.yul\":5002:5003   */\n      dup6\n        /* \"#utility.yul\":4998:5007   */\n      slt\n        /* \"#utility.yul\":4991:5008   */\n      iszero\n        /* \"#utility.yul\":4987:5023   */\n      and\n        /* \"#utility.yul\":4971:5075   */\n      or\n        /* \"#utility.yul\":4968:5098   */\n      iszero\n      tag_114\n      jumpi\n        /* \"#utility.yul\":5078:5096   */\n      tag_115\n      tag_63\n      jump\t// in\n    tag_115:\n        /* \"#utility.yul\":4968:5098   */\n    tag_114:\n        /* \"#utility.yul\":4733:5105   */\n      swap3\n      swap2\n      pop\n      pop\n      jump\t// out\n        /* \"#utility.yul\":5111:5302   */\n    tag_44:\n        /* \"#utility.yul\":5151:5154   */\n      0x00\n        /* \"#utility.yul\":5170:5190   */\n      tag_117\n        /* \"#utility.yul\":5188:5189   */\n      dup3\n        /* \"#utility.yul\":5170:5190   */\n      tag_50\n      jump\t// in\n    tag_117:\n        /* \"#utility.yul\":5165:5190   */\n      swap2\n      pop\n        /* \"#utility.yul\":5204:5224   */\n      tag_118\n        /* \"#utility.yul\":5222:5223   */\n      dup4\n        /* \"#utility.yul\":5204:5224   */\n      tag_50\n      jump\t// in\n    tag_118:\n        /* \"#utility.yul\":5199:5224   */\n      swap3\n      pop\n        /* \"#utility.yul\":5247:5248   */\n      dup3\n        /* \"#utility.yul\":5244:5245   */\n      dup3\n        /* \"#utility.yul\":5240:5249   */\n      add\n        /* \"#utility.yul\":5233:5249   */\n      swap1\n      pop\n        /* \"#utility.yul\":5268:5271   */\n      dup1\n        /* \"#utility.yul\":5265:5266   */\n      dup3\n        /* \"#utility.yul\":5262:5272   */\n      gt\n        /* \"#utility.yul\":5259:5295   */\n      iszero\n      tag_119\n      jumpi\n        /* \"#utility.yul\":5275:5293   */\n      tag_120\n      tag_63\n      jump\t// in\n    tag_120:\n        /* \"#utility.yul\":5259:5295   */\n    tag_119:\n        /* \"#utility.yul\":5111:5302   */\n      swap3\n      swap2\n      pop\n      pop\n      jump\t// out\n        /* \"#utility.yul\":5308:5683   */\n    tag_46:\n        /* \"#utility.yul\":5347:5350   */\n      0x00\n        /* \"#utility.yul\":5366:5385   */\n      tag_122\n        /* \"#utility.yul\":5383:5384   */\n      dup3\n        /* \"#utility.yul\":5366:5385   */\n      tag_55\n      jump\t// in\n    tag_122:\n        /* \"#utility.yul\":5361:5385   */\n      swap2\n      pop\n        /* \"#utility.yul\":5399:5418   */\n      tag_123\n        /* \"#utility.yul\":5416:5417   */\n      dup4\n        /* \"#utility.yul\":5399:5418   */\n      tag_55\n      jump\t// in\n    tag_123:\n        /* \"#utility.yul\":5394:5418   */\n      swap3\n      pop\n        /* \"#utility.yul\":5441:5442   */\n      dup3\n        /* \"#utility.yul\":5438:5439   */\n      dup3\n        /* \"#utility.yul\":5434:5443   */\n      add\n        /* \"#utility.yul\":5427:5443   */\n      swap1\n      pop\n        /* \"#utility.yul\":5639:5640   */\n      dup3\n        /* \"#utility.yul\":5634:5637   */\n      dup2\n        /* \"#utility.yul\":5630:5641   */\n      slt\n        /* \"#utility.yul\":5623:5642   */\n      iszero\n        /* \"#utility.yul\":5619:5620   */\n      0x00\n        /* \"#utility.yul\":5616:5617   */\n      dup4\n        /* \"#utility.yul\":5612:5621   */\n      slt\n        /* \"#utility.yul\":5608:5643   */\n      and\n        /* \"#utility.yul\":5591:5592   */\n      dup4\n        /* \"#utility.yul\":5586:5589   */\n      dup3\n        /* \"#utility.yul\":5582:5593   */\n      slt\n        /* \"#utility.yul\":5577:5578   */\n      0x00\n        /* \"#utility.yul\":5574:5575   */\n      dup5\n        /* \"#utility.yul\":5570:5579   */\n      slt\n        /* \"#utility.yul\":5563:5580   */\n      iszero\n        /* \"#utility.yul\":5559:5594   */\n      and\n        /* \"#utility.yul\":5543:5653   */\n      or\n        /* \"#utility.yul\":5540:5676   */\n      iszero\n      tag_124\n      jumpi\n        /* \"#utility.yul\":5656:5674   */\n      tag_125\n      tag_63\n      jump\t// in\n    tag_125:\n        /* \"#utility.yul\":5540:5676   */\n    tag_124:\n        /* \"#utility.yul\":5308:5683   */\n      swap3\n      swap2\n      pop\n      pop\n      jump\t// out\n\n    auxdata: 0xa26469706673582212202aaef3f5e39305e20f370e5c0052e1f9b2414c986aee94cf7509f5422c85cf2164736f6c634300081f0033\n}\n",
				"bytecode": {
					"linkReferences": {},
					"object": "6080604052348015600e575f5ffd5b50614e205f81905550600160025f6101000a81548160ff0219169083151502179055506105648061003e5f395ff3fe608060405234801561000f575f5ffd5b5060043610610055575f3560e01c80632e1a7d4d1461005957806382f889b11461007557806398c5139414610093578063b69ef8a8146100b1578063b6b55f25146100cf575b5f5ffd5b610073600480360381019061006e9190610283565b6100eb565b005b61007d6101af565b60405161008a91906102c8565b60405180910390f35b61009b6101c1565b6040516100a891906102f9565b60405180910390f35b6100b96101c7565b6040516100c69190610321565b60405180910390f35b6100e960048036038101906100e49190610283565b6101cc565b005b60025f9054906101000a900460ff16610139576040517f08c379a000000000000000000000000000000000000000000000000000000000815260040161013090610394565b60405180910390fd5b5f5481111561017d576040517f08c379a0000000000000000000000000000000000000000000000000000000008152600401610174906103fc565b60405180910390fd5b805f5f82825461018d9190610447565b925050819055508060015f8282546101a5919061047a565b9250508190555050565b60025f9054906101000a900460ff1681565b60015481565b5f5481565b60025f9054906101000a900460ff1661021a576040517f08c379a000000000000000000000000000000000000000000000000000000000815260040161021190610394565b60405180910390fd5b805f5f82825461022a91906104ba565b925050819055508060015f82825461024291906104ed565b9250508190555050565b5f5ffd5b5f819050919050565b61026281610250565b811461026c575f5ffd5b50565b5f8135905061027d81610259565b92915050565b5f602082840312156102985761029761024c565b5b5f6102a58482850161026f565b91505092915050565b5f8115159050919050565b6102c2816102ae565b82525050565b5f6020820190506102db5f8301846102b9565b92915050565b5f819050919050565b6102f3816102e1565b82525050565b5f60208201905061030c5f8301846102ea565b92915050565b61031b81610250565b82525050565b5f6020820190506103345f830184610312565b92915050565b5f82825260208201905092915050565b7f77616c6c657420697320636c6f736564000000000000000000000000000000005f82015250565b5f61037e60108361033a565b91506103898261034a565b602082019050919050565b5f6020820190508181035f8301526103ab81610372565b9050919050565b7f496e73756666696369656e7462616c616e6365000000000000000000000000005f82015250565b5f6103e660138361033a565b91506103f1826103b2565b602082019050919050565b5f6020820190508181035f830152610413816103da565b9050919050565b7f4e487b71000000000000000000000000000000000000000000000000000000005f52601160045260245ffd5b5f61045182610250565b915061045c83610250565b92508282039050818111156104745761047361041a565b5b92915050565b5f610484826102e1565b915061048f836102e1565b925082820390508181125f8412168282135f8512151617156104b4576104b361041a565b5b92915050565b5f6104c482610250565b91506104cf83610250565b92508282019050808211156104e7576104e661041a565b5b92915050565b5f6104f7826102e1565b9150610502836102e1565b92508282019050828112155f8312168382125f8412151617156105285761052761041a565b5b9291505056fea26469706673582212202aaef3f5e39305e20f370e5c0052e1f9b2414c986aee94cf7509f5422c85cf2164736f6c634300081f0033",
					"opcodes": "PUSH1 0x80 PUSH1 0x40 MSTORE CALLVALUE DUP1 ISZERO PUSH1 0xE JUMPI PUSH0 PUSH0 REVERT JUMPDEST POP PUSH2 0x4E20 PUSH0 DUP2 SWAP1 SSTORE POP PUSH1 0x1 PUSH1 0x2 PUSH0 PUSH2 0x100 EXP DUP2 SLOAD DUP2 PUSH1 0xFF MUL NOT AND SWAP1 DUP4 ISZERO ISZERO MUL OR SWAP1 SSTORE POP PUSH2 0x564 DUP1 PUSH2 0x3E PUSH0 CODECOPY PUSH0 RETURN INVALID PUSH1 0x80 PUSH1 0x40 MSTORE CALLVALUE DUP1 ISZERO PUSH2 0xF JUMPI PUSH0 PUSH0 REVERT JUMPDEST POP PUSH1 0x4 CALLDATASIZE LT PUSH2 0x55 JUMPI PUSH0 CALLDATALOAD PUSH1 0xE0 SHR DUP1 PUSH4 0x2E1A7D4D EQ PUSH2 0x59 JUMPI DUP1 PUSH4 0x82F889B1 EQ PUSH2 0x75 JUMPI DUP1 PUSH4 0x98C51394 EQ PUSH2 0x93 JUMPI DUP1 PUSH4 0xB69EF8A8 EQ PUSH2 0xB1 JUMPI DUP1 PUSH4 0xB6B55F25 EQ PUSH2 0xCF JUMPI JUMPDEST PUSH0 PUSH0 REVERT JUMPDEST PUSH2 0x73 PUSH1 0x4 DUP1 CALLDATASIZE SUB DUP2 ADD SWAP1 PUSH2 0x6E SWAP2 SWAP1 PUSH2 0x283 JUMP JUMPDEST PUSH2 0xEB JUMP JUMPDEST STOP JUMPDEST PUSH2 0x7D PUSH2 0x1AF JUMP JUMPDEST PUSH1 0x40 MLOAD PUSH2 0x8A SWAP2 SWAP1 PUSH2 0x2C8 JUMP JUMPDEST PUSH1 0x40 MLOAD DUP1 SWAP2 SUB SWAP1 RETURN JUMPDEST PUSH2 0x9B PUSH2 0x1C1 JUMP JUMPDEST PUSH1 0x40 MLOAD PUSH2 0xA8 SWAP2 SWAP1 PUSH2 0x2F9 JUMP JUMPDEST PUSH1 0x40 MLOAD DUP1 SWAP2 SUB SWAP1 RETURN JUMPDEST PUSH2 0xB9 PUSH2 0x1C7 JUMP JUMPDEST PUSH1 0x40 MLOAD PUSH2 0xC6 SWAP2 SWAP1 PUSH2 0x321 JUMP JUMPDEST PUSH1 0x40 MLOAD DUP1 SWAP2 SUB SWAP1 RETURN JUMPDEST PUSH2 0xE9 PUSH1 0x4 DUP1 CALLDATASIZE SUB DUP2 ADD SWAP1 PUSH2 0xE4 SWAP2 SWAP1 PUSH2 0x283 JUMP JUMPDEST PUSH2 0x1CC JUMP JUMPDEST STOP JUMPDEST PUSH1 0x2 PUSH0 SWAP1 SLOAD SWAP1 PUSH2 0x100 EXP SWAP1 DIV PUSH1 0xFF AND PUSH2 0x139 JUMPI PUSH1 0x40 MLOAD PUSH32 0x8C379A000000000000000000000000000000000000000000000000000000000 DUP2 MSTORE PUSH1 0x4 ADD PUSH2 0x130 SWAP1 PUSH2 0x394 JUMP JUMPDEST PUSH1 0x40 MLOAD DUP1 SWAP2 SUB SWAP1 REVERT JUMPDEST PUSH0 SLOAD DUP2 GT ISZERO PUSH2 0x17D JUMPI PUSH1 0x40 MLOAD PUSH32 0x8C379A000000000000000000000000000000000000000000000000000000000 DUP2 MSTORE PUSH1 0x4 ADD PUSH2 0x174 SWAP1 PUSH2 0x3FC JUMP JUMPDEST PUSH1 0x40 MLOAD DUP1 SWAP2 SUB SWAP1 REVERT JUMPDEST DUP1 PUSH0 PUSH0 DUP3 DUP3 SLOAD PUSH2 0x18D SWAP2 SWAP1 PUSH2 0x447 JUMP JUMPDEST SWAP3 POP POP DUP2 SWAP1 SSTORE POP DUP1 PUSH1 0x1 PUSH0 DUP3 DUP3 SLOAD PUSH2 0x1A5 SWAP2 SWAP1 PUSH2 0x47A JUMP JUMPDEST SWAP3 POP POP DUP2 SWAP1 SSTORE POP POP JUMP JUMPDEST PUSH1 0x2 PUSH0 SWAP1 SLOAD SWAP1 PUSH2 0x100 EXP SWAP1 DIV PUSH1 0xFF AND DUP2 JUMP JUMPDEST PUSH1 0x1 SLOAD DUP2 JUMP JUMPDEST PUSH0 SLOAD DUP2 JUMP JUMPDEST PUSH1 0x2 PUSH0 SWAP1 SLOAD SWAP1 PUSH2 0x100 EXP SWAP1 DIV PUSH1 0xFF AND PUSH2 0x21A JUMPI PUSH1 0x40 MLOAD PUSH32 0x8C379A000000000000000000000000000000000000000000000000000000000 DUP2 MSTORE PUSH1 0x4 ADD PUSH2 0x211 SWAP1 PUSH2 0x394 JUMP JUMPDEST PUSH1 0x40 MLOAD DUP1 SWAP2 SUB SWAP1 REVERT JUMPDEST DUP1 PUSH0 PUSH0 DUP3 DUP3 SLOAD PUSH2 0x22A SWAP2 SWAP1 PUSH2 0x4BA JUMP JUMPDEST SWAP3 POP POP DUP2 SWAP1 SSTORE POP DUP1 PUSH1 0x1 PUSH0 DUP3 DUP3 SLOAD PUSH2 0x242 SWAP2 SWAP1 PUSH2 0x4ED JUMP JUMPDEST SWAP3 POP POP DUP2 SWAP1 SSTORE POP POP JUMP JUMPDEST PUSH0 PUSH0 REVERT JUMPDEST PUSH0 DUP2 SWAP1 POP SWAP2 SWAP1 POP JUMP JUMPDEST PUSH2 0x262 DUP2 PUSH2 0x250 JUMP JUMPDEST DUP2 EQ PUSH2 0x26C JUMPI PUSH0 PUSH0 REVERT JUMPDEST POP JUMP JUMPDEST PUSH0 DUP2 CALLDATALOAD SWAP1 POP PUSH2 0x27D DUP2 PUSH2 0x259 JUMP JUMPDEST SWAP3 SWAP2 POP POP JUMP JUMPDEST PUSH0 PUSH1 0x20 DUP3 DUP5 SUB SLT ISZERO PUSH2 0x298 JUMPI PUSH2 0x297 PUSH2 0x24C JUMP JUMPDEST JUMPDEST PUSH0 PUSH2 0x2A5 DUP5 DUP3 DUP6 ADD PUSH2 0x26F JUMP JUMPDEST SWAP2 POP POP SWAP3 SWAP2 POP POP JUMP JUMPDEST PUSH0 DUP2 ISZERO ISZERO SWAP1 POP SWAP2 SWAP1 POP JUMP JUMPDEST PUSH2 0x2C2 DUP2 PUSH2 0x2AE JUMP JUMPDEST DUP3 MSTORE POP POP JUMP JUMPDEST PUSH0 PUSH1 0x20 DUP3 ADD SWAP1 POP PUSH2 0x2DB PUSH0 DUP4 ADD DUP5 PUSH2 0x2B9 JUMP JUMPDEST SWAP3 SWAP2 POP POP JUMP JUMPDEST PUSH0 DUP2 SWAP1 POP SWAP2 SWAP1 POP JUMP JUMPDEST PUSH2 0x2F3 DUP2 PUSH2 0x2E1 JUMP JUMPDEST DUP3 MSTORE POP POP JUMP JUMPDEST PUSH0 PUSH1 0x20 DUP3 ADD SWAP1 POP PUSH2 0x30C PUSH0 DUP4 ADD DUP5 PUSH2 0x2EA JUMP JUMPDEST SWAP3 SWAP2 POP POP JUMP JUMPDEST PUSH2 0x31B DUP2 PUSH2 0x250 JUMP JUMPDEST DUP3 MSTORE POP POP JUMP JUMPDEST PUSH0 PUSH1 0x20 DUP3 ADD SWAP1 POP PUSH2 0x334 PUSH0 DUP4 ADD DUP5 PUSH2 0x312 JUMP JUMPDEST SWAP3 SWAP2 POP POP JUMP JUMPDEST PUSH0 DUP3 DUP3 MSTORE PUSH1 0x20 DUP3 ADD SWAP1 POP SWAP3 SWAP2 POP POP JUMP JUMPDEST PUSH32 0x77616C6C657420697320636C6F73656400000000000000000000000000000000 PUSH0 DUP3 ADD MSTORE POP JUMP JUMPDEST PUSH0 PUSH2 0x37E PUSH1 0x10 DUP4 PUSH2 0x33A JUMP JUMPDEST SWAP2 POP PUSH2 0x389 DUP3 PUSH2 0x34A JUMP JUMPDEST PUSH1 0x20 DUP3 ADD SWAP1 POP SWAP2 SWAP1 POP JUMP JUMPDEST PUSH0 PUSH1 0x20 DUP3 ADD SWAP1 POP DUP2 DUP2 SUB PUSH0 DUP4 ADD MSTORE PUSH2 0x3AB DUP2 PUSH2 0x372 JUMP JUMPDEST SWAP1 POP SWAP2 SWAP1 POP JUMP JUMPDEST PUSH32 0x496E73756666696369656E7462616C616E636500000000000000000000000000 PUSH0 DUP3 ADD MSTORE POP JUMP JUMPDEST PUSH0 PUSH2 0x3E6 PUSH1 0x13 DUP4 PUSH2 0x33A JUMP JUMPDEST SWAP2 POP PUSH2 0x3F1 DUP3 PUSH2 0x3B2 JUMP JUMPDEST PUSH1 0x20 DUP3 ADD SWAP1 POP SWAP2 SWAP1 POP JUMP JUMPDEST PUSH0 PUSH1 0x20 DUP3 ADD SWAP1 POP DUP2 DUP2 SUB PUSH0 DUP4 ADD MSTORE PUSH2 0x413 DUP2 PUSH2 0x3DA JUMP JUMPDEST SWAP1 POP SWAP2 SWAP1 POP JUMP JUMPDEST PUSH32 0x4E487B7100000000000000000000000000000000000000000000000000000000 PUSH0 MSTORE PUSH1 0x11 PUSH1 0x4 MSTORE PUSH1 0x24 PUSH0 REVERT JUMPDEST PUSH0 PUSH2 0x451 DUP3 PUSH2 0x250 JUMP JUMPDEST SWAP2 POP PUSH2 0x45C DUP4 PUSH2 0x250 JUMP JUMPDEST SWAP3 POP DUP3 DUP3 SUB SWAP1 POP DUP2 DUP2 GT ISZERO PUSH2 0x474 JUMPI PUSH2 0x473 PUSH2 0x41A JUMP JUMPDEST JUMPDEST SWAP3 SWAP2 POP POP JUMP JUMPDEST PUSH0 PUSH2 0x484 DUP3 PUSH2 0x2E1 JUMP JUMPDEST SWAP2 POP PUSH2 0x48F DUP4 PUSH2 0x2E1 JUMP JUMPDEST SWAP3 POP DUP3 DUP3 SUB SWAP1 POP DUP2 DUP2 SLT PUSH0 DUP5 SLT AND DUP3 DUP3 SGT PUSH0 DUP6 SLT ISZERO AND OR ISZERO PUSH2 0x4B4 JUMPI PUSH2 0x4B3 PUSH2 0x41A JUMP JUMPDEST JUMPDEST SWAP3 SWAP2 POP POP JUMP JUMPDEST PUSH0 PUSH2 0x4C4 DUP3 PUSH2 0x250 JUMP JUMPDEST SWAP2 POP PUSH2 0x4CF DUP4 PUSH2 0x250 JUMP JUMPDEST SWAP3 POP DUP3 DUP3 ADD SWAP1 POP DUP1 DUP3 GT ISZERO PUSH2 0x4E7 JUMPI PUSH2 0x4E6 PUSH2 0x41A JUMP JUMPDEST JUMPDEST SWAP3 SWAP2 POP POP JUMP JUMPDEST PUSH0 PUSH2 0x4F7 DUP3 PUSH2 0x2E1 JUMP JUMPDEST SWAP2 POP PUSH2 0x502 DUP4 PUSH2 0x2E1 JUMP JUMPDEST SWAP3 POP DUP3 DUP3 ADD SWAP1 POP DUP3 DUP2 SLT ISZERO PUSH0 DUP4 SLT AND DUP4 DUP3 SLT PUSH0 DUP5 SLT ISZERO AND OR ISZERO PUSH2 0x528 JUMPI PUSH2 0x527 PUSH2 0x41A JUMP JUMPDEST JUMPDEST SWAP3 SWAP2 POP POP JUMP INVALID LOG2 PUSH5 0x6970667358 0x22 SLT KECCAK256 0x2A 0xAE RETURN CREATE2 CALLF 0x9305 0xE2 0xF CALLDATACOPY 0xE TLOAD STOP MSTORE RJUMPI 0xF9B2 COINBASE 0x4C SWAP9 PUSH11 0xEE94CF7509F5422C85CF21 PUSH5 0x736F6C6343 STOP ADDMOD 0x1F STOP CALLER "
				},
				"gasEstimates": {
					"creation": {
						"codeDepositCost": "276000",
						"executionCost": "46695",
						"totalCost": "322695"
					},
					"external": {
						"Iswalletopen()": "2466",
						"balance()": "2468",
						"deposit(uint256)": "infinite",
						"netTransaction()": "2447",
						"withdraw(uint256)": "infinite"
					}
				},
				"methodIdentifiers": {
					"Iswalletopen()": "82f889b1",
					"balance()": "b69ef8a8",
					"deposit(uint256)": "b6b55f25",
					"netTransaction()": "98c51394",
					"withdraw(uint256)": "2e1a7d4d"
				}
			},
			"storageLayout": {
				"storage": [
					{
						"astId": 3,
						"contract": "Assignments/Assignment6(20-03-2026)/transfermapping.sol:wallet",
						"label": "balance",
						"offset": 0,
						"slot": "0",
						"type": "t_uint256"
					},
					{
						"astId": 5,
						"contract": "Assignments/Assignment6(20-03-2026)/transfermapping.sol:wallet",
						"label": "netTransaction",
						"offset": 0,
						"slot": "1",
						"type": "t_int256"
					},
					{
						"astId": 7,
						"contract": "Assignments/Assignment6(20-03-2026)/transfermapping.sol:wallet",
						"label": "Iswalletopen",
						"offset": 0,
						"slot": "2",
						"type": "t_bool"
					},
					{
						"astId": 23,
						"contract": "Assignments/Assignment6(20-03-2026)/transfermapping.sol:wallet",
						"label": "Balance",
						"offset": 0,
						"slot": "3",
						"type": "t_mapping(t_address,t_uint256)"
					}
				],
				"types": {
					"t_address": {
						"encoding": "inplace",
						"label": "address",
						"numberOfBytes": "20"
					},
					"t_bool": {
						"encoding": "inplace",
						"label": "bool",
						"numberOfBytes": "1"
					},
					"t_int256": {
						"encoding": "inplace",
						"label": "int256",
						"numberOfBytes": "32"
					},
					"t_mapping(t_address,t_uint256)": {
						"encoding": "mapping",
						"key": "t_address",
						"label": "mapping(address => uint256)",
						"numberOfBytes": "32",
						"value": "t_uint256"
					},
					"t_uint256": {
						"encoding": "inplace",
						"label": "uint256",
						"numberOfBytes": "32"
					}
				}
			},
			"userdoc": {
				"kind": "user",
				"methods": {},
				"version": 1
			}
		}
	}
}