{
	"Assignments/Assignment6(20-03-2026)/1)userdetails.sol": {
		"userdetails": {
			"abi": [
				{
					"anonymous": false,
					"inputs": [
						{
							"indexed": false,
							"internalType": "uint256",
							"name": "id",
							"type": "uint256"
						},
						{
							"indexed": false,
							"internalType": "string",
							"name": "name",
							"type": "string"
						}
					],
					"name": "details",
					"type": "event"
				},
				{
					"inputs": [],
					"name": "getuserdetails",
					"outputs": [
						{
							"internalType": "uint256",
							"name": "",
							"type": "uint256"
						},
						{
							"internalType": "string",
							"name": "",
							"type": "string"
						}
					],
					"stateMutability": "view",
					"type": "function"
				},
				{
					"inputs": [
						{
							"internalType": "uint256",
							"name": "_id",
							"type": "uint256"
						},
						{
							"internalType": "string",
							"name": "_name",
							"type": "string"
						}
					],
					"name": "setuserdetails",
					"outputs": [],
					"stateMutability": "nonpayable",
					"type": "function"
				}
			],
			"devdoc": {
				"kind": "dev",
				"methods": {},
				"version": 1
			},
			"evm": {
				"assembly": "    /* \"Assignments/Assignment6(20-03-2026)/1)userdetails.sol\":243:833  contract userdetails {... */\n  mstore(0x40, 0x80)\n  callvalue\n  dup1\n  iszero\n  tag_1\n  jumpi\n  revert(0x00, 0x00)\ntag_1:\n  pop\n  dataSize(sub_0)\n  dup1\n  dataOffset(sub_0)\n  0x00\n  codecopy\n  0x00\n  return\nstop\n\nsub_0: assembly {\n        /* \"Assignments/Assignment6(20-03-2026)/1)userdetails.sol\":243:833  contract userdetails {... */\n      mstore(0x40, 0x80)\n      callvalue\n      dup1\n      iszero\n      tag_1\n      jumpi\n      revert(0x00, 0x00)\n    tag_1:\n      pop\n      jumpi(tag_2, lt(calldatasize, 0x04))\n      shr(0xe0, calldataload(0x00))\n      dup1\n      0x8bc65ce7\n      eq\n      tag_3\n      jumpi\n      dup1\n      0xd24557db\n      eq\n      tag_4\n      jumpi\n    tag_2:\n      revert(0x00, 0x00)\n        /* \"Assignments/Assignment6(20-03-2026)/1)userdetails.sol\":674:828  function getuserdetails () public  view  returns (uint, string memory){... */\n    tag_3:\n      tag_5\n      tag_6\n      jump\t// in\n    tag_5:\n      mload(0x40)\n      tag_7\n      swap3\n      swap2\n      swap1\n      tag_8\n      jump\t// in\n    tag_7:\n      mload(0x40)\n      dup1\n      swap2\n      sub\n      swap1\n      return\n        /* \"Assignments/Assignment6(20-03-2026)/1)userdetails.sol\":481:648  function setuserdetails(uint256 _id, string memory _name) public {... */\n    tag_4:\n      tag_9\n      0x04\n      dup1\n      calldatasize\n      sub\n      dup2\n      add\n      swap1\n      tag_10\n      swap2\n      swap1\n      tag_11\n      jump\t// in\n    tag_10:\n      tag_12\n      jump\t// in\n    tag_9:\n      stop\n        /* \"Assignments/Assignment6(20-03-2026)/1)userdetails.sol\":674:828  function getuserdetails () public  view  returns (uint, string memory){... */\n    tag_6:\n        /* \"Assignments/Assignment6(20-03-2026)/1)userdetails.sol\":724:728  uint */\n      0x00\n        /* \"Assignments/Assignment6(20-03-2026)/1)userdetails.sol\":730:743  string memory */\n      0x60\n        /* \"Assignments/Assignment6(20-03-2026)/1)userdetails.sol\":755:768  user memory u */\n      0x00\n        /* \"Assignments/Assignment6(20-03-2026)/1)userdetails.sol\":771:776  users */\n      0x00\n        /* \"Assignments/Assignment6(20-03-2026)/1)userdetails.sol\":771:788  users[msg.sender] */\n      0x00\n        /* \"Assignments/Assignment6(20-03-2026)/1)userdetails.sol\":777:787  msg.sender */\n      caller\n        /* \"Assignments/Assignment6(20-03-2026)/1)userdetails.sol\":771:788  users[msg.sender] */\n      0xffffffffffffffffffffffffffffffffffffffff\n      and\n      0xffffffffffffffffffffffffffffffffffffffff\n      and\n      dup2\n      mstore\n      0x20\n      add\n      swap1\n      dup2\n      mstore\n      0x20\n      add\n      0x00\n      keccak256\n        /* \"Assignments/Assignment6(20-03-2026)/1)userdetails.sol\":755:788  user memory u = users[msg.sender] */\n      mload(0x40)\n      dup1\n      0x40\n      add\n      0x40\n      mstore\n      swap1\n      dup2\n      0x00\n      dup3\n      add\n      sload\n      dup2\n      mstore\n      0x20\n      add\n      0x01\n      dup3\n      add\n      dup1\n      sload\n      tag_14\n      swap1\n      tag_15\n      jump\t// in\n    tag_14:\n      dup1\n      0x1f\n      add\n      0x20\n      dup1\n      swap2\n      div\n      mul\n      0x20\n      add\n      mload(0x40)\n      swap1\n      dup2\n      add\n      0x40\n      mstore\n      dup1\n      swap3\n      swap2\n      swap1\n      dup2\n      dup2\n      mstore\n      0x20\n      add\n      dup3\n      dup1\n      sload\n      tag_16\n      swap1\n      tag_15\n      jump\t// in\n    tag_16:\n      dup1\n      iszero\n      tag_17\n      jumpi\n      dup1\n      0x1f\n      lt\n      tag_18\n      jumpi\n      0x0100\n      dup1\n      dup4\n      sload\n      div\n      mul\n      dup4\n      mstore\n      swap2\n      0x20\n      add\n      swap2\n      jump(tag_17)\n    tag_18:\n      dup3\n      add\n      swap2\n      swap1\n      0x00\n      mstore\n      keccak256(0x00, 0x20)\n      swap1\n    tag_19:\n      dup2\n      sload\n      dup2\n      mstore\n      swap1\n      0x01\n      add\n      swap1\n      0x20\n      add\n      dup1\n      dup4\n      gt\n      tag_19\n      jumpi\n      dup3\n      swap1\n      sub\n      0x1f\n      and\n      dup3\n      add\n      swap2\n    tag_17:\n      pop\n      pop\n      pop\n      pop\n      pop\n      dup2\n      mstore\n      pop\n      pop\n      swap1\n      pop\n        /* \"Assignments/Assignment6(20-03-2026)/1)userdetails.sol\":807:808  u */\n      dup1\n        /* \"Assignments/Assignment6(20-03-2026)/1)userdetails.sol\":807:811  u.id */\n      0x00\n      add\n      mload\n        /* \"Assignments/Assignment6(20-03-2026)/1)userdetails.sol\":813:814  u */\n      dup2\n        /* \"Assignments/Assignment6(20-03-2026)/1)userdetails.sol\":813:819  u.name */\n      0x20\n      add\n      mload\n        /* \"Assignments/Assignment6(20-03-2026)/1)userdetails.sol\":799:820  return (u.id, u.name) */\n      swap3\n      pop\n      swap3\n      pop\n      pop\n        /* \"Assignments/Assignment6(20-03-2026)/1)userdetails.sol\":674:828  function getuserdetails () public  view  returns (uint, string memory){... */\n      swap1\n      swap2\n      jump\t// out\n        /* \"Assignments/Assignment6(20-03-2026)/1)userdetails.sol\":481:648  function setuserdetails(uint256 _id, string memory _name) public {... */\n    tag_12:\n        /* \"Assignments/Assignment6(20-03-2026)/1)userdetails.sol\":575:590  user(_id,_name) */\n      mload(0x40)\n      dup1\n      0x40\n      add\n      0x40\n      mstore\n      dup1\n        /* \"Assignments/Assignment6(20-03-2026)/1)userdetails.sol\":580:583  _id */\n      dup4\n        /* \"Assignments/Assignment6(20-03-2026)/1)userdetails.sol\":575:590  user(_id,_name) */\n      dup2\n      mstore\n      0x20\n      add\n        /* \"Assignments/Assignment6(20-03-2026)/1)userdetails.sol\":584:589  _name */\n      dup3\n        /* \"Assignments/Assignment6(20-03-2026)/1)userdetails.sol\":575:590  user(_id,_name) */\n      dup2\n      mstore\n      pop\n        /* \"Assignments/Assignment6(20-03-2026)/1)userdetails.sol\":557:562  users */\n      0x00\n        /* \"Assignments/Assignment6(20-03-2026)/1)userdetails.sol\":557:574  users[msg.sender] */\n      0x00\n        /* \"Assignments/Assignment6(20-03-2026)/1)userdetails.sol\":563:573  msg.sender */\n      caller\n        /* \"Assignments/Assignment6(20-03-2026)/1)userdetails.sol\":557:574  users[msg.sender] */\n      0xffffffffffffffffffffffffffffffffffffffff\n      and\n      0xffffffffffffffffffffffffffffffffffffffff\n      and\n      dup2\n      mstore\n      0x20\n      add\n      swap1\n      dup2\n      mstore\n      0x20\n      add\n      0x00\n      keccak256\n        /* \"Assignments/Assignment6(20-03-2026)/1)userdetails.sol\":557:590  users[msg.sender]=user(_id,_name) */\n      0x00\n      dup3\n      add\n      mload\n      dup2\n      0x00\n      add\n      sstore\n      0x20\n      dup3\n      add\n      mload\n      dup2\n      0x01\n      add\n      swap1\n      dup2\n      tag_21\n      swap2\n      swap1\n      tag_22\n      jump\t// in\n    tag_21:\n      pop\n      swap1\n      pop\n      pop\n        /* \"Assignments/Assignment6(20-03-2026)/1)userdetails.sol\":622:640  details(_id,_name) */\n      0x27dccbe05feb657aed5f8b0e82b02c08ebea1b33da241b64b3af1522e0e22292\n        /* \"Assignments/Assignment6(20-03-2026)/1)userdetails.sol\":630:633  _id */\n      dup3\n        /* \"Assignments/Assignment6(20-03-2026)/1)userdetails.sol\":634:639  _name */\n      dup3\n        /* \"Assignments/Assignment6(20-03-2026)/1)userdetails.sol\":622:640  details(_id,_name) */\n      mload(0x40)\n      tag_23\n      swap3\n      swap2\n      swap1\n      tag_8\n      jump\t// in\n    tag_23:\n      mload(0x40)\n      dup1\n      swap2\n      sub\n      swap1\n      log1\n        /* \"Assignments/Assignment6(20-03-2026)/1)userdetails.sol\":481:648  function setuserdetails(uint256 _id, string memory _name) public {... */\n      pop\n      pop\n      jump\t// out\n        /* \"#utility.yul\":7:84   */\n    tag_24:\n        /* \"#utility.yul\":44:51   */\n      0x00\n        /* \"#utility.yul\":73:78   */\n      dup2\n        /* \"#utility.yul\":62:78   */\n      swap1\n      pop\n        /* \"#utility.yul\":7:84   */\n      swap2\n      swap1\n      pop\n      jump\t// out\n        /* \"#utility.yul\":90:208   */\n    tag_25:\n        /* \"#utility.yul\":177:201   */\n      tag_64\n        /* \"#utility.yul\":195:200   */\n      dup2\n        /* \"#utility.yul\":177:201   */\n      tag_24\n      jump\t// in\n    tag_64:\n        /* \"#utility.yul\":172:175   */\n      dup3\n        /* \"#utility.yul\":165:202   */\n      mstore\n        /* \"#utility.yul\":90:208   */\n      pop\n      pop\n      jump\t// out\n        /* \"#utility.yul\":214:313   */\n    tag_26:\n        /* \"#utility.yul\":266:272   */\n      0x00\n        /* \"#utility.yul\":300:305   */\n      dup2\n        /* \"#utility.yul\":294:306   */\n      mload\n        /* \"#utility.yul\":284:306   */\n      swap1\n      pop\n        /* \"#utility.yul\":214:313   */\n      swap2\n      swap1\n      pop\n      jump\t// out\n        /* \"#utility.yul\":319:488   */\n    tag_27:\n        /* \"#utility.yul\":403:414   */\n      0x00\n        /* \"#utility.yul\":437:443   */\n      dup3\n        /* \"#utility.yul\":432:435   */\n      dup3\n        /* \"#utility.yul\":425:444   */\n      mstore\n        /* \"#utility.yul\":477:481   */\n      0x20\n        /* \"#utility.yul\":472:475   */\n      dup3\n        /* \"#utility.yul\":468:482   */\n      add\n        /* \"#utility.yul\":453:482   */\n      swap1\n      pop\n        /* \"#utility.yul\":319:488   */\n      swap3\n      swap2\n      pop\n      pop\n      jump\t// out\n        /* \"#utility.yul\":494:633   */\n    tag_28:\n        /* \"#utility.yul\":583:589   */\n      dup3\n        /* \"#utility.yul\":578:581   */\n      dup2\n        /* \"#utility.yul\":573:576   */\n      dup4\n        /* \"#utility.yul\":567:590   */\n      mcopy\n        /* \"#utility.yul\":624:625   */\n      0x00\n        /* \"#utility.yul\":615:621   */\n      dup4\n        /* \"#utility.yul\":610:613   */\n      dup4\n        /* \"#utility.yul\":606:622   */\n      add\n        /* \"#utility.yul\":599:626   */\n      mstore\n        /* \"#utility.yul\":494:633   */\n      pop\n      pop\n      pop\n      jump\t// out\n        /* \"#utility.yul\":639:741   */\n    tag_29:\n        /* \"#utility.yul\":680:686   */\n      0x00\n        /* \"#utility.yul\":731:733   */\n      0x1f\n        /* \"#utility.yul\":727:734   */\n      not\n        /* \"#utility.yul\":722:724   */\n      0x1f\n        /* \"#utility.yul\":715:720   */\n      dup4\n        /* \"#utility.yul\":711:725   */\n      add\n        /* \"#utility.yul\":707:735   */\n      and\n        /* \"#utility.yul\":697:735   */\n      swap1\n      pop\n        /* \"#utility.yul\":639:741   */\n      swap2\n      swap1\n      pop\n      jump\t// out\n        /* \"#utility.yul\":747:1124   */\n    tag_30:\n        /* \"#utility.yul\":835:838   */\n      0x00\n        /* \"#utility.yul\":863:902   */\n      tag_70\n        /* \"#utility.yul\":896:901   */\n      dup3\n        /* \"#utility.yul\":863:902   */\n      tag_26\n      jump\t// in\n    tag_70:\n        /* \"#utility.yul\":918:989   */\n      tag_71\n        /* \"#utility.yul\":982:988   */\n      dup2\n        /* \"#utility.yul\":977:980   */\n      dup6\n        /* \"#utility.yul\":918:989   */\n      tag_27\n      jump\t// in\n    tag_71:\n        /* \"#utility.yul\":911:989   */\n      swap4\n      pop\n        /* \"#utility.yul\":998:1063   */\n      tag_72\n        /* \"#utility.yul\":1056:1062   */\n      dup2\n        /* \"#utility.yul\":1051:1054   */\n      dup6\n        /* \"#utility.yul\":1044:1048   */\n      0x20\n        /* \"#utility.yul\":1037:1042   */\n      dup7\n        /* \"#utility.yul\":1033:1049   */\n      add\n        /* \"#utility.yul\":998:1063   */\n      tag_28\n      jump\t// in\n    tag_72:\n        /* \"#utility.yul\":1088:1117   */\n      tag_73\n        /* \"#utility.yul\":1110:1116   */\n      dup2\n        /* \"#utility.yul\":1088:1117   */\n      tag_29\n      jump\t// in\n    tag_73:\n        /* \"#utility.yul\":1083:1086   */\n      dup5\n        /* \"#utility.yul\":1079:1118   */\n      add\n        /* \"#utility.yul\":1072:1118   */\n      swap2\n      pop\n        /* \"#utility.yul\":839:1124   */\n      pop\n        /* \"#utility.yul\":747:1124   */\n      swap3\n      swap2\n      pop\n      pop\n      jump\t// out\n        /* \"#utility.yul\":1130:1553   */\n    tag_8:\n        /* \"#utility.yul\":1271:1275   */\n      0x00\n        /* \"#utility.yul\":1309:1311   */\n      0x40\n        /* \"#utility.yul\":1298:1307   */\n      dup3\n        /* \"#utility.yul\":1294:1312   */\n      add\n        /* \"#utility.yul\":1286:1312   */\n      swap1\n      pop\n        /* \"#utility.yul\":1322:1393   */\n      tag_75\n        /* \"#utility.yul\":1390:1391   */\n      0x00\n        /* \"#utility.yul\":1379:1388   */\n      dup4\n        /* \"#utility.yul\":1375:1392   */\n      add\n        /* \"#utility.yul\":1366:1372   */\n      dup6\n        /* \"#utility.yul\":1322:1393   */\n      tag_25\n      jump\t// in\n    tag_75:\n        /* \"#utility.yul\":1440:1449   */\n      dup2\n        /* \"#utility.yul\":1434:1438   */\n      dup2\n        /* \"#utility.yul\":1430:1450   */\n      sub\n        /* \"#utility.yul\":1425:1427   */\n      0x20\n        /* \"#utility.yul\":1414:1423   */\n      dup4\n        /* \"#utility.yul\":1410:1428   */\n      add\n        /* \"#utility.yul\":1403:1451   */\n      mstore\n        /* \"#utility.yul\":1468:1546   */\n      tag_76\n        /* \"#utility.yul\":1541:1545   */\n      dup2\n        /* \"#utility.yul\":1532:1538   */\n      dup5\n        /* \"#utility.yul\":1468:1546   */\n      tag_30\n      jump\t// in\n    tag_76:\n        /* \"#utility.yul\":1460:1546   */\n      swap1\n      pop\n        /* \"#utility.yul\":1130:1553   */\n      swap4\n      swap3\n      pop\n      pop\n      pop\n      jump\t// out\n        /* \"#utility.yul\":1559:1634   */\n    tag_31:\n        /* \"#utility.yul\":1592:1598   */\n      0x00\n        /* \"#utility.yul\":1625:1627   */\n      0x40\n        /* \"#utility.yul\":1619:1628   */\n      mload\n        /* \"#utility.yul\":1609:1628   */\n      swap1\n      pop\n        /* \"#utility.yul\":1559:1634   */\n      swap1\n      jump\t// out\n        /* \"#utility.yul\":1640:1757   */\n    tag_32:\n        /* \"#utility.yul\":1749:1750   */\n      0x00\n        /* \"#utility.yul\":1746:1747   */\n      0x00\n        /* \"#utility.yul\":1739:1751   */\n      revert\n        /* \"#utility.yul\":1763:1880   */\n    tag_33:\n        /* \"#utility.yul\":1872:1873   */\n      0x00\n        /* \"#utility.yul\":1869:1870   */\n      0x00\n        /* \"#utility.yul\":1862:1874   */\n      revert\n        /* \"#utility.yul\":1886:2008   */\n    tag_34:\n        /* \"#utility.yul\":1959:1983   */\n      tag_81\n        /* \"#utility.yul\":1977:1982   */\n      dup2\n        /* \"#utility.yul\":1959:1983   */\n      tag_24\n      jump\t// in\n    tag_81:\n        /* \"#utility.yul\":1952:1957   */\n      dup2\n        /* \"#utility.yul\":1949:1984   */\n      eq\n        /* \"#utility.yul\":1939:2002   */\n      tag_82\n      jumpi\n        /* \"#utility.yul\":1998:1999   */\n      0x00\n        /* \"#utility.yul\":1995:1996   */\n      0x00\n        /* \"#utility.yul\":1988:2000   */\n      revert\n        /* \"#utility.yul\":1939:2002   */\n    tag_82:\n        /* \"#utility.yul\":1886:2008   */\n      pop\n      jump\t// out\n        /* \"#utility.yul\":2014:2153   */\n    tag_35:\n        /* \"#utility.yul\":2060:2065   */\n      0x00\n        /* \"#utility.yul\":2098:2104   */\n      dup2\n        /* \"#utility.yul\":2085:2105   */\n      calldataload\n        /* \"#utility.yul\":2076:2105   */\n      swap1\n      pop\n        /* \"#utility.yul\":2114:2147   */\n      tag_84\n        /* \"#utility.yul\":2141:2146   */\n      dup2\n        /* \"#utility.yul\":2114:2147   */\n      tag_34\n      jump\t// in\n    tag_84:\n        /* \"#utility.yul\":2014:2153   */\n      swap3\n      swap2\n      pop\n      pop\n      jump\t// out\n        /* \"#utility.yul\":2159:2276   */\n    tag_36:\n        /* \"#utility.yul\":2268:2269   */\n      0x00\n        /* \"#utility.yul\":2265:2266   */\n      0x00\n        /* \"#utility.yul\":2258:2270   */\n      revert\n        /* \"#utility.yul\":2282:2399   */\n    tag_37:\n        /* \"#utility.yul\":2391:2392   */\n      0x00\n        /* \"#utility.yul\":2388:2389   */\n      0x00\n        /* \"#utility.yul\":2381:2393   */\n      revert\n        /* \"#utility.yul\":2405:2585   */\n    tag_38:\n        /* \"#utility.yul\":2453:2530   */\n      0x4e487b7100000000000000000000000000000000000000000000000000000000\n        /* \"#utility.yul\":2450:2451   */\n      0x00\n        /* \"#utility.yul\":2443:2531   */\n      mstore\n        /* \"#utility.yul\":2550:2554   */\n      0x41\n        /* \"#utility.yul\":2547:2548   */\n      0x04\n        /* \"#utility.yul\":2540:2555   */\n      mstore\n        /* \"#utility.yul\":2574:2578   */\n      0x24\n        /* \"#utility.yul\":2571:2572   */\n      0x00\n        /* \"#utility.yul\":2564:2579   */\n      revert\n        /* \"#utility.yul\":2591:2872   */\n    tag_39:\n        /* \"#utility.yul\":2674:2701   */\n      tag_89\n        /* \"#utility.yul\":2696:2700   */\n      dup3\n        /* \"#utility.yul\":2674:2701   */\n      tag_29\n      jump\t// in\n    tag_89:\n        /* \"#utility.yul\":2666:2672   */\n      dup2\n        /* \"#utility.yul\":2662:2702   */\n      add\n        /* \"#utility.yul\":2804:2810   */\n      dup2\n        /* \"#utility.yul\":2792:2802   */\n      dup2\n        /* \"#utility.yul\":2789:2811   */\n      lt\n        /* \"#utility.yul\":2768:2786   */\n      0xffffffffffffffff\n        /* \"#utility.yul\":2756:2766   */\n      dup3\n        /* \"#utility.yul\":2753:2787   */\n      gt\n        /* \"#utility.yul\":2750:2812   */\n      or\n        /* \"#utility.yul\":2747:2835   */\n      iszero\n      tag_90\n      jumpi\n        /* \"#utility.yul\":2815:2833   */\n      tag_91\n      tag_38\n      jump\t// in\n    tag_91:\n        /* \"#utility.yul\":2747:2835   */\n    tag_90:\n        /* \"#utility.yul\":2855:2865   */\n      dup1\n        /* \"#utility.yul\":2851:2853   */\n      0x40\n        /* \"#utility.yul\":2844:2866   */\n      mstore\n        /* \"#utility.yul\":2634:2872   */\n      pop\n        /* \"#utility.yul\":2591:2872   */\n      pop\n      pop\n      jump\t// out\n        /* \"#utility.yul\":2878:3007   */\n    tag_40:\n        /* \"#utility.yul\":2912:2918   */\n      0x00\n        /* \"#utility.yul\":2939:2959   */\n      tag_93\n      tag_31\n      jump\t// in\n    tag_93:\n        /* \"#utility.yul\":2929:2959   */\n      swap1\n      pop\n        /* \"#utility.yul\":2968:3001   */\n      tag_94\n        /* \"#utility.yul\":2996:3000   */\n      dup3\n        /* \"#utility.yul\":2988:2994   */\n      dup3\n        /* \"#utility.yul\":2968:3001   */\n      tag_39\n      jump\t// in\n    tag_94:\n        /* \"#utility.yul\":2878:3007   */\n      swap2\n      swap1\n      pop\n      jump\t// out\n        /* \"#utility.yul\":3013:3321   */\n    tag_41:\n        /* \"#utility.yul\":3075:3079   */\n      0x00\n        /* \"#utility.yul\":3165:3183   */\n      0xffffffffffffffff\n        /* \"#utility.yul\":3157:3163   */\n      dup3\n        /* \"#utility.yul\":3154:3184   */\n      gt\n        /* \"#utility.yul\":3151:3207   */\n      iszero\n      tag_96\n      jumpi\n        /* \"#utility.yul\":3187:3205   */\n      tag_97\n      tag_38\n      jump\t// in\n    tag_97:\n        /* \"#utility.yul\":3151:3207   */\n    tag_96:\n        /* \"#utility.yul\":3225:3254   */\n      tag_98\n        /* \"#utility.yul\":3247:3253   */\n      dup3\n        /* \"#utility.yul\":3225:3254   */\n      tag_29\n      jump\t// in\n    tag_98:\n        /* \"#utility.yul\":3217:3254   */\n      swap1\n      pop\n        /* \"#utility.yul\":3309:3313   */\n      0x20\n        /* \"#utility.yul\":3303:3307   */\n      dup2\n        /* \"#utility.yul\":3299:3314   */\n      add\n        /* \"#utility.yul\":3291:3314   */\n      swap1\n      pop\n        /* \"#utility.yul\":3013:3321   */\n      swap2\n      swap1\n      pop\n      jump\t// out\n        /* \"#utility.yul\":3327:3475   */\n    tag_42:\n        /* \"#utility.yul\":3425:3431   */\n      dup3\n        /* \"#utility.yul\":3420:3423   */\n      dup2\n        /* \"#utility.yul\":3415:3418   */\n      dup4\n        /* \"#utility.yul\":3402:3432   */\n      calldatacopy\n        /* \"#utility.yul\":3466:3467   */\n      0x00\n        /* \"#utility.yul\":3457:3463   */\n      dup4\n        /* \"#utility.yul\":3452:3455   */\n      dup4\n        /* \"#utility.yul\":3448:3464   */\n      add\n        /* \"#utility.yul\":3441:3468   */\n      mstore\n        /* \"#utility.yul\":3327:3475   */\n      pop\n      pop\n      pop\n      jump\t// out\n        /* \"#utility.yul\":3481:3906   */\n    tag_43:\n        /* \"#utility.yul\":3559:3564   */\n      0x00\n        /* \"#utility.yul\":3584:3650   */\n      tag_101\n        /* \"#utility.yul\":3600:3649   */\n      tag_102\n        /* \"#utility.yul\":3642:3648   */\n      dup5\n        /* \"#utility.yul\":3600:3649   */\n      tag_41\n      jump\t// in\n    tag_102:\n        /* \"#utility.yul\":3584:3650   */\n      tag_40\n      jump\t// in\n    tag_101:\n        /* \"#utility.yul\":3575:3650   */\n      swap1\n      pop\n        /* \"#utility.yul\":3673:3679   */\n      dup3\n        /* \"#utility.yul\":3666:3671   */\n      dup2\n        /* \"#utility.yul\":3659:3680   */\n      mstore\n        /* \"#utility.yul\":3711:3715   */\n      0x20\n        /* \"#utility.yul\":3704:3709   */\n      dup2\n        /* \"#utility.yul\":3700:3716   */\n      add\n        /* \"#utility.yul\":3749:3752   */\n      dup5\n        /* \"#utility.yul\":3740:3746   */\n      dup5\n        /* \"#utility.yul\":3735:3738   */\n      dup5\n        /* \"#utility.yul\":3731:3747   */\n      add\n        /* \"#utility.yul\":3728:3753   */\n      gt\n        /* \"#utility.yul\":3725:3837   */\n      iszero\n      tag_103\n      jumpi\n        /* \"#utility.yul\":3756:3835   */\n      tag_104\n      tag_37\n      jump\t// in\n    tag_104:\n        /* \"#utility.yul\":3725:3837   */\n    tag_103:\n        /* \"#utility.yul\":3846:3900   */\n      tag_105\n        /* \"#utility.yul\":3893:3899   */\n      dup5\n        /* \"#utility.yul\":3888:3891   */\n      dup3\n        /* \"#utility.yul\":3883:3886   */\n      dup6\n        /* \"#utility.yul\":3846:3900   */\n      tag_42\n      jump\t// in\n    tag_105:\n        /* \"#utility.yul\":3565:3906   */\n      pop\n        /* \"#utility.yul\":3481:3906   */\n      swap4\n      swap3\n      pop\n      pop\n      pop\n      jump\t// out\n        /* \"#utility.yul\":3926:4266   */\n    tag_44:\n        /* \"#utility.yul\":3982:3987   */\n      0x00\n        /* \"#utility.yul\":4031:4034   */\n      dup3\n        /* \"#utility.yul\":4024:4028   */\n      0x1f\n        /* \"#utility.yul\":4016:4022   */\n      dup4\n        /* \"#utility.yul\":4012:4029   */\n      add\n        /* \"#utility.yul\":4008:4035   */\n      slt\n        /* \"#utility.yul\":3998:4120   */\n      tag_107\n      jumpi\n        /* \"#utility.yul\":4039:4118   */\n      tag_108\n      tag_36\n      jump\t// in\n    tag_108:\n        /* \"#utility.yul\":3998:4120   */\n    tag_107:\n        /* \"#utility.yul\":4156:4162   */\n      dup2\n        /* \"#utility.yul\":4143:4163   */\n      calldataload\n        /* \"#utility.yul\":4181:4260   */\n      tag_109\n        /* \"#utility.yul\":4256:4259   */\n      dup5\n        /* \"#utility.yul\":4248:4254   */\n      dup3\n        /* \"#utility.yul\":4241:4245   */\n      0x20\n        /* \"#utility.yul\":4233:4239   */\n      dup7\n        /* \"#utility.yul\":4229:4246   */\n      add\n        /* \"#utility.yul\":4181:4260   */\n      tag_43\n      jump\t// in\n    tag_109:\n        /* \"#utility.yul\":4172:4260   */\n      swap2\n      pop\n        /* \"#utility.yul\":3988:4266   */\n      pop\n        /* \"#utility.yul\":3926:4266   */\n      swap3\n      swap2\n      pop\n      pop\n      jump\t// out\n        /* \"#utility.yul\":4272:4926   */\n    tag_11:\n        /* \"#utility.yul\":4350:4356   */\n      0x00\n        /* \"#utility.yul\":4358:4364   */\n      0x00\n        /* \"#utility.yul\":4407:4409   */\n      0x40\n        /* \"#utility.yul\":4395:4404   */\n      dup4\n        /* \"#utility.yul\":4386:4393   */\n      dup6\n        /* \"#utility.yul\":4382:4405   */\n      sub\n        /* \"#utility.yul\":4378:4410   */\n      slt\n        /* \"#utility.yul\":4375:4494   */\n      iszero\n      tag_111\n      jumpi\n        /* \"#utility.yul\":4413:4492   */\n      tag_112\n      tag_32\n      jump\t// in\n    tag_112:\n        /* \"#utility.yul\":4375:4494   */\n    tag_111:\n        /* \"#utility.yul\":4533:4534   */\n      0x00\n        /* \"#utility.yul\":4558:4611   */\n      tag_113\n        /* \"#utility.yul\":4603:4610   */\n      dup6\n        /* \"#utility.yul\":4594:4600   */\n      dup3\n        /* \"#utility.yul\":4583:4592   */\n      dup7\n        /* \"#utility.yul\":4579:4601   */\n      add\n        /* \"#utility.yul\":4558:4611   */\n      tag_35\n      jump\t// in\n    tag_113:\n        /* \"#utility.yul\":4548:4611   */\n      swap3\n      pop\n        /* \"#utility.yul\":4504:4621   */\n      pop\n        /* \"#utility.yul\":4688:4690   */\n      0x20\n        /* \"#utility.yul\":4677:4686   */\n      dup4\n        /* \"#utility.yul\":4673:4691   */\n      add\n        /* \"#utility.yul\":4660:4692   */\n      calldataload\n        /* \"#utility.yul\":4719:4737   */\n      0xffffffffffffffff\n        /* \"#utility.yul\":4711:4717   */\n      dup2\n        /* \"#utility.yul\":4708:4738   */\n      gt\n        /* \"#utility.yul\":4705:4822   */\n      iszero\n      tag_114\n      jumpi\n        /* \"#utility.yul\":4741:4820   */\n      tag_115\n      tag_33\n      jump\t// in\n    tag_115:\n        /* \"#utility.yul\":4705:4822   */\n    tag_114:\n        /* \"#utility.yul\":4846:4909   */\n      tag_116\n        /* \"#utility.yul\":4901:4908   */\n      dup6\n        /* \"#utility.yul\":4892:4898   */\n      dup3\n        /* \"#utility.yul\":4881:4890   */\n      dup7\n        /* \"#utility.yul\":4877:4899   */\n      add\n        /* \"#utility.yul\":4846:4909   */\n      tag_44\n      jump\t// in\n    tag_116:\n        /* \"#utility.yul\":4836:4909   */\n      swap2\n      pop\n        /* \"#utility.yul\":4631:4919   */\n      pop\n        /* \"#utility.yul\":4272:4926   */\n      swap3\n      pop\n      swap3\n      swap1\n      pop\n      jump\t// out\n        /* \"#utility.yul\":4932:5112   */\n    tag_45:\n        /* \"#utility.yul\":4980:5057   */\n      0x4e487b7100000000000000000000000000000000000000000000000000000000\n        /* \"#utility.yul\":4977:4978   */\n      0x00\n        /* \"#utility.yul\":4970:5058   */\n      mstore\n        /* \"#utility.yul\":5077:5081   */\n      0x22\n        /* \"#utility.yul\":5074:5075   */\n      0x04\n        /* \"#utility.yul\":5067:5082   */\n      mstore\n        /* \"#utility.yul\":5101:5105   */\n      0x24\n        /* \"#utility.yul\":5098:5099   */\n      0x00\n        /* \"#utility.yul\":5091:5106   */\n      revert\n        /* \"#utility.yul\":5118:5438   */\n    tag_15:\n        /* \"#utility.yul\":5162:5168   */\n      0x00\n        /* \"#utility.yul\":5199:5200   */\n      0x02\n        /* \"#utility.yul\":5193:5197   */\n      dup3\n        /* \"#utility.yul\":5189:5201   */\n      div\n        /* \"#utility.yul\":5179:5201   */\n      swap1\n      pop\n        /* \"#utility.yul\":5246:5247   */\n      0x01\n        /* \"#utility.yul\":5240:5244   */\n      dup3\n        /* \"#utility.yul\":5236:5248   */\n      and\n        /* \"#utility.yul\":5267:5285   */\n      dup1\n        /* \"#utility.yul\":5257:5338   */\n      tag_119\n      jumpi\n        /* \"#utility.yul\":5323:5327   */\n      0x7f\n        /* \"#utility.yul\":5315:5321   */\n      dup3\n        /* \"#utility.yul\":5311:5328   */\n      and\n        /* \"#utility.yul\":5301:5328   */\n      swap2\n      pop\n        /* \"#utility.yul\":5257:5338   */\n    tag_119:\n        /* \"#utility.yul\":5385:5387   */\n      0x20\n        /* \"#utility.yul\":5377:5383   */\n      dup3\n        /* \"#utility.yul\":5374:5388   */\n      lt\n        /* \"#utility.yul\":5354:5372   */\n      dup2\n        /* \"#utility.yul\":5351:5389   */\n      sub\n        /* \"#utility.yul\":5348:5432   */\n      tag_120\n      jumpi\n        /* \"#utility.yul\":5404:5422   */\n      tag_121\n      tag_45\n      jump\t// in\n    tag_121:\n        /* \"#utility.yul\":5348:5432   */\n    tag_120:\n        /* \"#utility.yul\":5169:5438   */\n      pop\n        /* \"#utility.yul\":5118:5438   */\n      swap2\n      swap1\n      pop\n      jump\t// out\n        /* \"#utility.yul\":5444:5585   */\n    tag_46:\n        /* \"#utility.yul\":5493:5497   */\n      0x00\n        /* \"#utility.yul\":5516:5519   */\n      dup2\n        /* \"#utility.yul\":5508:5519   */\n      swap1\n      pop\n        /* \"#utility.yul\":5539:5542   */\n      dup2\n        /* \"#utility.yul\":5536:5537   */\n      0x00\n        /* \"#utility.yul\":5529:5543   */\n      mstore\n        /* \"#utility.yul\":5573:5577   */\n      0x20\n        /* \"#utility.yul\":5570:5571   */\n      0x00\n        /* \"#utility.yul\":5560:5578   */\n      keccak256\n        /* \"#utility.yul\":5552:5578   */\n      swap1\n      pop\n        /* \"#utility.yul\":5444:5585   */\n      swap2\n      swap1\n      pop\n      jump\t// out\n        /* \"#utility.yul\":5591:5684   */\n    tag_47:\n        /* \"#utility.yul\":5628:5634   */\n      0x00\n        /* \"#utility.yul\":5675:5677   */\n      0x20\n        /* \"#utility.yul\":5670:5672   */\n      0x1f\n        /* \"#utility.yul\":5663:5668   */\n      dup4\n        /* \"#utility.yul\":5659:5673   */\n      add\n        /* \"#utility.yul\":5655:5678   */\n      div\n        /* \"#utility.yul\":5645:5678   */\n      swap1\n      pop\n        /* \"#utility.yul\":5591:5684   */\n      swap2\n      swap1\n      pop\n      jump\t// out\n        /* \"#utility.yul\":5690:5797   */\n    tag_48:\n        /* \"#utility.yul\":5734:5742   */\n      0x00\n        /* \"#utility.yul\":5784:5789   */\n      dup3\n        /* \"#utility.yul\":5778:5782   */\n      dup3\n        /* \"#utility.yul\":5774:5790   */\n      shl\n        /* \"#utility.yul\":5753:5790   */\n      swap1\n      pop\n        /* \"#utility.yul\":5690:5797   */\n      swap3\n      swap2\n      pop\n      pop\n      jump\t// out\n        /* \"#utility.yul\":5803:6196   */\n    tag_49:\n        /* \"#utility.yul\":5872:5878   */\n      0x00\n        /* \"#utility.yul\":5922:5923   */\n      0x08\n        /* \"#utility.yul\":5910:5920   */\n      dup4\n        /* \"#utility.yul\":5906:5924   */\n      mul\n        /* \"#utility.yul\":5945:6042   */\n      tag_126\n        /* \"#utility.yul\":5975:6041   */\n      0xffffffffffffffffffffffffffffffffffffffffffffffffffffffffffffffff\n        /* \"#utility.yul\":5964:5973   */\n      dup3\n        /* \"#utility.yul\":5945:6042   */\n      tag_48\n      jump\t// in\n    tag_126:\n        /* \"#utility.yul\":6063:6102   */\n      tag_127\n        /* \"#utility.yul\":6093:6101   */\n      dup7\n        /* \"#utility.yul\":6082:6091   */\n      dup4\n        /* \"#utility.yul\":6063:6102   */\n      tag_48\n      jump\t// in\n    tag_127:\n        /* \"#utility.yul\":6051:6102   */\n      swap6\n      pop\n        /* \"#utility.yul\":6135:6139   */\n      dup1\n        /* \"#utility.yul\":6131:6140   */\n      not\n        /* \"#utility.yul\":6124:6129   */\n      dup5\n        /* \"#utility.yul\":6120:6141   */\n      and\n        /* \"#utility.yul\":6111:6141   */\n      swap4\n      pop\n        /* \"#utility.yul\":6184:6188   */\n      dup1\n        /* \"#utility.yul\":6174:6182   */\n      dup7\n        /* \"#utility.yul\":6170:6189   */\n      and\n        /* \"#utility.yul\":6163:6168   */\n      dup5\n        /* \"#utility.yul\":6160:6190   */\n      or\n        /* \"#utility.yul\":6150:6190   */\n      swap3\n      pop\n        /* \"#utility.yul\":5879:6196   */\n      pop\n      pop\n        /* \"#utility.yul\":5803:6196   */\n      swap4\n      swap3\n      pop\n      pop\n      pop\n      jump\t// out\n        /* \"#utility.yul\":6202:6262   */\n    tag_50:\n        /* \"#utility.yul\":6230:6233   */\n      0x00\n        /* \"#utility.yul\":6251:6256   */\n      dup2\n        /* \"#utility.yul\":6244:6256   */\n      swap1\n      pop\n        /* \"#utility.yul\":6202:6262   */\n      swap2\n      swap1\n      pop\n      jump\t// out\n        /* \"#utility.yul\":6268:6410   */\n    tag_51:\n        /* \"#utility.yul\":6318:6327   */\n      0x00\n        /* \"#utility.yul\":6351:6404   */\n      tag_130\n        /* \"#utility.yul\":6369:6403   */\n      tag_131\n        /* \"#utility.yul\":6378:6402   */\n      tag_132\n        /* \"#utility.yul\":6396:6401   */\n      dup5\n        /* \"#utility.yul\":6378:6402   */\n      tag_24\n      jump\t// in\n    tag_132:\n        /* \"#utility.yul\":6369:6403   */\n      tag_50\n      jump\t// in\n    tag_131:\n        /* \"#utility.yul\":6351:6404   */\n      tag_24\n      jump\t// in\n    tag_130:\n        /* \"#utility.yul\":6338:6404   */\n      swap1\n      pop\n        /* \"#utility.yul\":6268:6410   */\n      swap2\n      swap1\n      pop\n      jump\t// out\n        /* \"#utility.yul\":6416:6491   */\n    tag_52:\n        /* \"#utility.yul\":6459:6462   */\n      0x00\n        /* \"#utility.yul\":6480:6485   */\n      dup2\n        /* \"#utility.yul\":6473:6485   */\n      swap1\n      pop\n        /* \"#utility.yul\":6416:6491   */\n      swap2\n      swap1\n      pop\n      jump\t// out\n        /* \"#utility.yul\":6497:6766   */\n    tag_53:\n        /* \"#utility.yul\":6607:6646   */\n      tag_135\n        /* \"#utility.yul\":6638:6645   */\n      dup4\n        /* \"#utility.yul\":6607:6646   */\n      tag_51\n      jump\t// in\n    tag_135:\n        /* \"#utility.yul\":6668:6759   */\n      tag_136\n        /* \"#utility.yul\":6717:6758   */\n      tag_137\n        /* \"#utility.yul\":6741:6757   */\n      dup3\n        /* \"#utility.yul\":6717:6758   */\n      tag_52\n      jump\t// in\n    tag_137:\n        /* \"#utility.yul\":6709:6715   */\n      dup5\n        /* \"#utility.yul\":6702:6706   */\n      dup5\n        /* \"#utility.yul\":6696:6707   */\n      sload\n        /* \"#utility.yul\":6668:6759   */\n      tag_49\n      jump\t// in\n    tag_136:\n        /* \"#utility.yul\":6662:6666   */\n      dup3\n        /* \"#utility.yul\":6655:6760   */\n      sstore\n        /* \"#utility.yul\":6573:6766   */\n      pop\n        /* \"#utility.yul\":6497:6766   */\n      pop\n      pop\n      pop\n      jump\t// out\n        /* \"#utility.yul\":6772:6845   */\n    tag_54:\n        /* \"#utility.yul\":6817:6820   */\n      0x00\n        /* \"#utility.yul\":6838:6839   */\n      0x00\n        /* \"#utility.yul\":6831:6839   */\n      swap1\n      pop\n        /* \"#utility.yul\":6772:6845   */\n      swap1\n      jump\t// out\n        /* \"#utility.yul\":6851:7040   */\n    tag_55:\n        /* \"#utility.yul\":6928:6960   */\n      tag_140\n      tag_54\n      jump\t// in\n    tag_140:\n        /* \"#utility.yul\":6969:7034   */\n      tag_141\n        /* \"#utility.yul\":7027:7033   */\n      dup2\n        /* \"#utility.yul\":7019:7025   */\n      dup5\n        /* \"#utility.yul\":7013:7017   */\n      dup5\n        /* \"#utility.yul\":6969:7034   */\n      tag_53\n      jump\t// in\n    tag_141:\n        /* \"#utility.yul\":6904:7040   */\n      pop\n        /* \"#utility.yul\":6851:7040   */\n      pop\n      pop\n      jump\t// out\n        /* \"#utility.yul\":7046:7232   */\n    tag_56:\n        /* \"#utility.yul\":7106:7226   */\n    tag_143:\n        /* \"#utility.yul\":7123:7126   */\n      dup2\n        /* \"#utility.yul\":7116:7121   */\n      dup2\n        /* \"#utility.yul\":7113:7127   */\n      lt\n        /* \"#utility.yul\":7106:7226   */\n      iszero\n      tag_145\n      jumpi\n        /* \"#utility.yul\":7177:7216   */\n      tag_146\n        /* \"#utility.yul\":7214:7215   */\n      0x00\n        /* \"#utility.yul\":7207:7212   */\n      dup3\n        /* \"#utility.yul\":7177:7216   */\n      tag_55\n      jump\t// in\n    tag_146:\n        /* \"#utility.yul\":7150:7151   */\n      0x01\n        /* \"#utility.yul\":7143:7148   */\n      dup2\n        /* \"#utility.yul\":7139:7152   */\n      add\n        /* \"#utility.yul\":7130:7152   */\n      swap1\n      pop\n        /* \"#utility.yul\":7106:7226   */\n      jump(tag_143)\n    tag_145:\n        /* \"#utility.yul\":7046:7232   */\n      pop\n      pop\n      jump\t// out\n        /* \"#utility.yul\":7238:7781   */\n    tag_57:\n        /* \"#utility.yul\":7339:7341   */\n      0x1f\n        /* \"#utility.yul\":7334:7337   */\n      dup3\n        /* \"#utility.yul\":7331:7342   */\n      gt\n        /* \"#utility.yul\":7328:7774   */\n      iszero\n      tag_148\n      jumpi\n        /* \"#utility.yul\":7373:7411   */\n      tag_149\n        /* \"#utility.yul\":7405:7410   */\n      dup2\n        /* \"#utility.yul\":7373:7411   */\n      tag_46\n      jump\t// in\n    tag_149:\n        /* \"#utility.yul\":7457:7486   */\n      tag_150\n        /* \"#utility.yul\":7475:7485   */\n      dup5\n        /* \"#utility.yul\":7457:7486   */\n      tag_47\n      jump\t// in\n    tag_150:\n        /* \"#utility.yul\":7447:7455   */\n      dup2\n        /* \"#utility.yul\":7443:7487   */\n      add\n        /* \"#utility.yul\":7640:7642   */\n      0x20\n        /* \"#utility.yul\":7628:7638   */\n      dup6\n        /* \"#utility.yul\":7625:7643   */\n      lt\n        /* \"#utility.yul\":7622:7671   */\n      iszero\n      tag_151\n      jumpi\n        /* \"#utility.yul\":7661:7669   */\n      dup2\n        /* \"#utility.yul\":7646:7669   */\n      swap1\n      pop\n        /* \"#utility.yul\":7622:7671   */\n    tag_151:\n        /* \"#utility.yul\":7684:7764   */\n      tag_152\n        /* \"#utility.yul\":7740:7762   */\n      tag_153\n        /* \"#utility.yul\":7758:7761   */\n      dup6\n        /* \"#utility.yul\":7740:7762   */\n      tag_47\n      jump\t// in\n    tag_153:\n        /* \"#utility.yul\":7730:7738   */\n      dup4\n        /* \"#utility.yul\":7726:7763   */\n      add\n        /* \"#utility.yul\":7713:7724   */\n      dup3\n        /* \"#utility.yul\":7684:7764   */\n      tag_56\n      jump\t// in\n    tag_152:\n        /* \"#utility.yul\":7343:7774   */\n      pop\n      pop\n        /* \"#utility.yul\":7328:7774   */\n    tag_148:\n        /* \"#utility.yul\":7238:7781   */\n      pop\n      pop\n      pop\n      jump\t// out\n        /* \"#utility.yul\":7787:7904   */\n    tag_58:\n        /* \"#utility.yul\":7841:7849   */\n      0x00\n        /* \"#utility.yul\":7891:7896   */\n      dup3\n        /* \"#utility.yul\":7885:7889   */\n      dup3\n        /* \"#utility.yul\":7881:7897   */\n      shr\n        /* \"#utility.yul\":7860:7897   */\n      swap1\n      pop\n        /* \"#utility.yul\":7787:7904   */\n      swap3\n      swap2\n      pop\n      pop\n      jump\t// out\n        /* \"#utility.yul\":7910:8079   */\n    tag_59:\n        /* \"#utility.yul\":7954:7960   */\n      0x00\n        /* \"#utility.yul\":7987:8038   */\n      tag_156\n        /* \"#utility.yul\":8035:8036   */\n      0x00\n        /* \"#utility.yul\":8031:8037   */\n      not\n        /* \"#utility.yul\":8023:8028   */\n      dup5\n        /* \"#utility.yul\":8020:8021   */\n      0x08\n        /* \"#utility.yul\":8016:8029   */\n      mul\n        /* \"#utility.yul\":7987:8038   */\n      tag_58\n      jump\t// in\n    tag_156:\n        /* \"#utility.yul\":7983:8039   */\n      not\n        /* \"#utility.yul\":8068:8072   */\n      dup1\n        /* \"#utility.yul\":8062:8066   */\n      dup4\n        /* \"#utility.yul\":8058:8073   */\n      and\n        /* \"#utility.yul\":8048:8073   */\n      swap2\n      pop\n        /* \"#utility.yul\":7961:8079   */\n      pop\n        /* \"#utility.yul\":7910:8079   */\n      swap3\n      swap2\n      pop\n      pop\n      jump\t// out\n        /* \"#utility.yul\":8084:8379   */\n    tag_60:\n        /* \"#utility.yul\":8160:8164   */\n      0x00\n        /* \"#utility.yul\":8306:8335   */\n      tag_158\n        /* \"#utility.yul\":8331:8334   */\n      dup4\n        /* \"#utility.yul\":8325:8329   */\n      dup4\n        /* \"#utility.yul\":8306:8335   */\n      tag_59\n      jump\t// in\n    tag_158:\n        /* \"#utility.yul\":8298:8335   */\n      swap2\n      pop\n        /* \"#utility.yul\":8368:8371   */\n      dup3\n        /* \"#utility.yul\":8365:8366   */\n      0x02\n        /* \"#utility.yul\":8361:8372   */\n      mul\n        /* \"#utility.yul\":8355:8359   */\n      dup3\n        /* \"#utility.yul\":8352:8373   */\n      or\n        /* \"#utility.yul\":8344:8373   */\n      swap1\n      pop\n        /* \"#utility.yul\":8084:8379   */\n      swap3\n      swap2\n      pop\n      pop\n      jump\t// out\n        /* \"#utility.yul\":8384:9779   */\n    tag_22:\n        /* \"#utility.yul\":8501:8538   */\n      tag_160\n        /* \"#utility.yul\":8534:8537   */\n      dup3\n        /* \"#utility.yul\":8501:8538   */\n      tag_26\n      jump\t// in\n    tag_160:\n        /* \"#utility.yul\":8603:8621   */\n      0xffffffffffffffff\n        /* \"#utility.yul\":8595:8601   */\n      dup2\n        /* \"#utility.yul\":8592:8622   */\n      gt\n        /* \"#utility.yul\":8589:8645   */\n      iszero\n      tag_161\n      jumpi\n        /* \"#utility.yul\":8625:8643   */\n      tag_162\n      tag_38\n      jump\t// in\n    tag_162:\n        /* \"#utility.yul\":8589:8645   */\n    tag_161:\n        /* \"#utility.yul\":8669:8707   */\n      tag_163\n        /* \"#utility.yul\":8701:8705   */\n      dup3\n        /* \"#utility.yul\":8695:8706   */\n      sload\n        /* \"#utility.yul\":8669:8707   */\n      tag_15\n      jump\t// in\n    tag_163:\n        /* \"#utility.yul\":8754:8821   */\n      tag_164\n        /* \"#utility.yul\":8814:8820   */\n      dup3\n        /* \"#utility.yul\":8806:8812   */\n      dup3\n        /* \"#utility.yul\":8800:8804   */\n      dup6\n        /* \"#utility.yul\":8754:8821   */\n      tag_57\n      jump\t// in\n    tag_164:\n        /* \"#utility.yul\":8848:8849   */\n      0x00\n        /* \"#utility.yul\":8872:8876   */\n      0x20\n        /* \"#utility.yul\":8859:8876   */\n      swap1\n      pop\n        /* \"#utility.yul\":8904:8906   */\n      0x1f\n        /* \"#utility.yul\":8896:8902   */\n      dup4\n        /* \"#utility.yul\":8893:8907   */\n      gt\n        /* \"#utility.yul\":8921:8922   */\n      0x01\n        /* \"#utility.yul\":8916:9534   */\n      dup2\n      eq\n      tag_166\n      jumpi\n        /* \"#utility.yul\":9578:9579   */\n      0x00\n        /* \"#utility.yul\":9595:9601   */\n      dup5\n        /* \"#utility.yul\":9592:9669   */\n      iszero\n      tag_167\n      jumpi\n        /* \"#utility.yul\":9644:9653   */\n      dup3\n        /* \"#utility.yul\":9639:9642   */\n      dup8\n        /* \"#utility.yul\":9635:9654   */\n      add\n        /* \"#utility.yul\":9629:9655   */\n      mload\n        /* \"#utility.yul\":9620:9655   */\n      swap1\n      pop\n        /* \"#utility.yul\":9592:9669   */\n    tag_167:\n        /* \"#utility.yul\":9695:9762   */\n      tag_168\n        /* \"#utility.yul\":9755:9761   */\n      dup6\n        /* \"#utility.yul\":9748:9753   */\n      dup3\n        /* \"#utility.yul\":9695:9762   */\n      tag_60\n      jump\t// in\n    tag_168:\n        /* \"#utility.yul\":9689:9693   */\n      dup7\n        /* \"#utility.yul\":9682:9763   */\n      sstore\n        /* \"#utility.yul\":9551:9773   */\n      pop\n        /* \"#utility.yul\":8886:9773   */\n      jump(tag_165)\n        /* \"#utility.yul\":8916:9534   */\n    tag_166:\n        /* \"#utility.yul\":8968:8972   */\n      0x1f\n        /* \"#utility.yul\":8964:8973   */\n      not\n        /* \"#utility.yul\":8956:8962   */\n      dup5\n        /* \"#utility.yul\":8952:8974   */\n      and\n        /* \"#utility.yul\":9002:9039   */\n      tag_169\n        /* \"#utility.yul\":9034:9038   */\n      dup7\n        /* \"#utility.yul\":9002:9039   */\n      tag_46\n      jump\t// in\n    tag_169:\n        /* \"#utility.yul\":9061:9062   */\n      0x00\n        /* \"#utility.yul\":9075:9283   */\n    tag_170:\n        /* \"#utility.yul\":9089:9096   */\n      dup3\n        /* \"#utility.yul\":9086:9087   */\n      dup2\n        /* \"#utility.yul\":9083:9097   */\n      lt\n        /* \"#utility.yul\":9075:9283   */\n      iszero\n      tag_172\n      jumpi\n        /* \"#utility.yul\":9168:9177   */\n      dup5\n        /* \"#utility.yul\":9163:9166   */\n      dup10\n        /* \"#utility.yul\":9159:9178   */\n      add\n        /* \"#utility.yul\":9153:9179   */\n      mload\n        /* \"#utility.yul\":9145:9151   */\n      dup3\n        /* \"#utility.yul\":9138:9180   */\n      sstore\n        /* \"#utility.yul\":9219:9220   */\n      0x01\n        /* \"#utility.yul\":9211:9217   */\n      dup3\n        /* \"#utility.yul\":9207:9221   */\n      add\n        /* \"#utility.yul\":9197:9221   */\n      swap2\n      pop\n        /* \"#utility.yul\":9266:9268   */\n      0x20\n        /* \"#utility.yul\":9255:9264   */\n      dup6\n        /* \"#utility.yul\":9251:9269   */\n      add\n        /* \"#utility.yul\":9238:9269   */\n      swap5\n      pop\n        /* \"#utility.yul\":9112:9116   */\n      0x20\n        /* \"#utility.yul\":9109:9110   */\n      dup2\n        /* \"#utility.yul\":9105:9117   */\n      add\n        /* \"#utility.yul\":9100:9117   */\n      swap1\n      pop\n        /* \"#utility.yul\":9075:9283   */\n      jump(tag_170)\n    tag_172:\n        /* \"#utility.yul\":9311:9317   */\n      dup7\n        /* \"#utility.yul\":9302:9309   */\n      dup4\n        /* \"#utility.yul\":9299:9318   */\n      lt\n        /* \"#utility.yul\":9296:9475   */\n      iszero\n      tag_173\n      jumpi\n        /* \"#utility.yul\":9369:9378   */\n      dup5\n        /* \"#utility.yul\":9364:9367   */\n      dup10\n        /* \"#utility.yul\":9360:9379   */\n      add\n        /* \"#utility.yul\":9354:9380   */\n      mload\n        /* \"#utility.yul\":9412:9460   */\n      tag_174\n        /* \"#utility.yul\":9454:9458   */\n      0x1f\n        /* \"#utility.yul\":9446:9452   */\n      dup10\n        /* \"#utility.yul\":9442:9459   */\n      and\n        /* \"#utility.yul\":9431:9440   */\n      dup3\n        /* \"#utility.yul\":9412:9460   */\n      tag_59\n      jump\t// in\n    tag_174:\n        /* \"#utility.yul\":9404:9410   */\n      dup4\n        /* \"#utility.yul\":9397:9461   */\n      sstore\n        /* \"#utility.yul\":9319:9475   */\n      pop\n        /* \"#utility.yul\":9296:9475   */\n    tag_173:\n        /* \"#utility.yul\":9521:9522   */\n      0x01\n        /* \"#utility.yul\":9517:9518   */\n      0x02\n        /* \"#utility.yul\":9509:9515   */\n      dup9\n        /* \"#utility.yul\":9505:9519   */\n      mul\n        /* \"#utility.yul\":9501:9523   */\n      add\n        /* \"#utility.yul\":9495:9499   */\n      dup9\n        /* \"#utility.yul\":9488:9524   */\n      sstore\n        /* \"#utility.yul\":8923:9534   */\n      pop\n      pop\n      pop\n        /* \"#utility.yul\":8886:9773   */\n    tag_165:\n      pop\n        /* \"#utility.yul\":8476:9779   */\n      pop\n      pop\n      pop\n        /* \"#utility.yul\":8384:9779   */\n      pop\n      pop\n      jump\t// out\n\n    auxdata: 0xa2646970667358221220dbbf70a3e171cb9c83fe09607b05a9d5daeb3518a90afe67e0cb182c9134d68a64736f6c634300081f0033\n}\n",
				"bytecode": {
					"linkReferences": {},
					"object": "6080604052348015600e575f5ffd5b506107938061001c5f395ff3fe608060405234801561000f575f5ffd5b5060043610610034575f3560e01c80638bc65ce714610038578063d24557db14610057575b5f5ffd5b610040610073565b60405161004e9291906102a2565b60405180910390f35b610071600480360381019061006c9190610437565b61016b565b005b5f60605f5f5f3373ffffffffffffffffffffffffffffffffffffffff1673ffffffffffffffffffffffffffffffffffffffff1681526020019081526020015f206040518060400160405290815f82015481526020016001820180546100d7906104be565b80601f0160208091040260200160405190810160405280929190818152602001828054610103906104be565b801561014e5780601f106101255761010080835404028352916020019161014e565b820191905f5260205f20905b81548152906001019060200180831161013157829003601f168201915b5050505050815250509050805f0151816020015192509250509091565b6040518060400160405280838152602001828152505f5f3373ffffffffffffffffffffffffffffffffffffffff1673ffffffffffffffffffffffffffffffffffffffff1681526020019081526020015f205f820151815f015560208201518160010190816101d9919061068e565b509050507f27dccbe05feb657aed5f8b0e82b02c08ebea1b33da241b64b3af1522e0e22292828260405161020e9291906102a2565b60405180910390a15050565b5f819050919050565b61022c8161021a565b82525050565b5f81519050919050565b5f82825260208201905092915050565b8281835e5f83830152505050565b5f601f19601f8301169050919050565b5f61027482610232565b61027e818561023c565b935061028e81856020860161024c565b6102978161025a565b840191505092915050565b5f6040820190506102b55f830185610223565b81810360208301526102c7818461026a565b90509392505050565b5f604051905090565b5f5ffd5b5f5ffd5b6102ea8161021a565b81146102f4575f5ffd5b50565b5f81359050610305816102e1565b92915050565b5f5ffd5b5f5ffd5b7f4e487b71000000000000000000000000000000000000000000000000000000005f52604160045260245ffd5b6103498261025a565b810181811067ffffffffffffffff8211171561036857610367610313565b5b80604052505050565b5f61037a6102d0565b90506103868282610340565b919050565b5f67ffffffffffffffff8211156103a5576103a4610313565b5b6103ae8261025a565b9050602081019050919050565b828183375f83830152505050565b5f6103db6103d68461038b565b610371565b9050828152602081018484840111156103f7576103f661030f565b5b6104028482856103bb565b509392505050565b5f82601f83011261041e5761041d61030b565b5b813561042e8482602086016103c9565b91505092915050565b5f5f6040838503121561044d5761044c6102d9565b5b5f61045a858286016102f7565b925050602083013567ffffffffffffffff81111561047b5761047a6102dd565b5b6104878582860161040a565b9150509250929050565b7f4e487b71000000000000000000000000000000000000000000000000000000005f52602260045260245ffd5b5f60028204905060018216806104d557607f821691505b6020821081036104e8576104e7610491565b5b50919050565b5f819050815f5260205f209050919050565b5f6020601f8301049050919050565b5f82821b905092915050565b5f6008830261054a7fffffffffffffffffffffffffffffffffffffffffffffffffffffffffffffffff8261050f565b610554868361050f565b95508019841693508086168417925050509392505050565b5f819050919050565b5f61058f61058a6105858461021a565b61056c565b61021a565b9050919050565b5f819050919050565b6105a883610575565b6105bc6105b482610596565b84845461051b565b825550505050565b5f5f905090565b6105d36105c4565b6105de81848461059f565b505050565b5b81811015610601576105f65f826105cb565b6001810190506105e4565b5050565b601f82111561064657610617816104ee565b61062084610500565b8101602085101561062f578190505b61064361063b85610500565b8301826105e3565b50505b505050565b5f82821c905092915050565b5f6106665f198460080261064b565b1980831691505092915050565b5f61067e8383610657565b9150826002028217905092915050565b61069782610232565b67ffffffffffffffff8111156106b0576106af610313565b5b6106ba82546104be565b6106c5828285610605565b5f60209050601f8311600181146106f6575f84156106e4578287015190505b6106ee8582610673565b865550610755565b601f198416610704866104ee565b5f5b8281101561072b57848901518255600182019150602085019450602081019050610706565b868310156107485784890151610744601f891682610657565b8355505b6001600288020188555050505b50505050505056fea2646970667358221220dbbf70a3e171cb9c83fe09607b05a9d5daeb3518a90afe67e0cb182c9134d68a64736f6c634300081f0033",
					"opcodes": "PUSH1 0x80 PUSH1 0x40 MSTORE CALLVALUE DUP1 ISZERO PUSH1 0xE JUMPI PUSH0 PUSH0 REVERT JUMPDEST POP PUSH2 0x793 DUP1 PUSH2 0x1C PUSH0 CODECOPY PUSH0 RETURN INVALID PUSH1 0x80 PUSH1 0x40 MSTORE CALLVALUE DUP1 ISZERO PUSH2 0xF JUMPI PUSH0 PUSH0 REVERT JUMPDEST POP PUSH1 0x4 CALLDATASIZE LT PUSH2 0x34 JUMPI PUSH0 CALLDATALOAD PUSH1 0xE0 SHR DUP1 PUSH4 0x8BC65CE7 EQ PUSH2 0x38 JUMPI DUP1 PUSH4 0xD24557DB EQ PUSH2 0x57 JUMPI JUMPDEST PUSH0 PUSH0 REVERT JUMPDEST PUSH2 0x40 PUSH2 0x73 JUMP JUMPDEST PUSH1 0x40 MLOAD PUSH2 0x4E SWAP3 SWAP2 SWAP1 PUSH2 0x2A2 JUMP JUMPDEST PUSH1 0x40 MLOAD DUP1 SWAP2 SUB SWAP1 RETURN JUMPDEST PUSH2 0x71 PUSH1 0x4 DUP1 CALLDATASIZE SUB DUP2 ADD SWAP1 PUSH2 0x6C SWAP2 SWAP1 PUSH2 0x437 JUMP JUMPDEST PUSH2 0x16B JUMP JUMPDEST STOP JUMPDEST PUSH0 PUSH1 0x60 PUSH0 PUSH0 PUSH0 CALLER PUSH20 0xFFFFFFFFFFFFFFFFFFFFFFFFFFFFFFFFFFFFFFFF AND PUSH20 0xFFFFFFFFFFFFFFFFFFFFFFFFFFFFFFFFFFFFFFFF AND DUP2 MSTORE PUSH1 0x20 ADD SWAP1 DUP2 MSTORE PUSH1 0x20 ADD PUSH0 KECCAK256 PUSH1 0x40 MLOAD DUP1 PUSH1 0x40 ADD PUSH1 0x40 MSTORE SWAP1 DUP2 PUSH0 DUP3 ADD SLOAD DUP2 MSTORE PUSH1 0x20 ADD PUSH1 0x1 DUP3 ADD DUP1 SLOAD PUSH2 0xD7 SWAP1 PUSH2 0x4BE JUMP JUMPDEST DUP1 PUSH1 0x1F ADD PUSH1 0x20 DUP1 SWAP2 DIV MUL PUSH1 0x20 ADD PUSH1 0x40 MLOAD SWAP1 DUP2 ADD PUSH1 0x40 MSTORE DUP1 SWAP3 SWAP2 SWAP1 DUP2 DUP2 MSTORE PUSH1 0x20 ADD DUP3 DUP1 SLOAD PUSH2 0x103 SWAP1 PUSH2 0x4BE JUMP JUMPDEST DUP1 ISZERO PUSH2 0x14E JUMPI DUP1 PUSH1 0x1F LT PUSH2 0x125 JUMPI PUSH2 0x100 DUP1 DUP4 SLOAD DIV MUL DUP4 MSTORE SWAP2 PUSH1 0x20 ADD SWAP2 PUSH2 0x14E JUMP JUMPDEST DUP3 ADD SWAP2 SWAP1 PUSH0 MSTORE PUSH1 0x20 PUSH0 KECCAK256 SWAP1 JUMPDEST DUP2 SLOAD DUP2 MSTORE SWAP1 PUSH1 0x1 ADD SWAP1 PUSH1 0x20 ADD DUP1 DUP4 GT PUSH2 0x131 JUMPI DUP3 SWAP1 SUB PUSH1 0x1F AND DUP3 ADD SWAP2 JUMPDEST POP POP POP POP POP DUP2 MSTORE POP POP SWAP1 POP DUP1 PUSH0 ADD MLOAD DUP2 PUSH1 0x20 ADD MLOAD SWAP3 POP SWAP3 POP POP SWAP1 SWAP2 JUMP JUMPDEST PUSH1 0x40 MLOAD DUP1 PUSH1 0x40 ADD PUSH1 0x40 MSTORE DUP1 DUP4 DUP2 MSTORE PUSH1 0x20 ADD DUP3 DUP2 MSTORE POP PUSH0 PUSH0 CALLER PUSH20 0xFFFFFFFFFFFFFFFFFFFFFFFFFFFFFFFFFFFFFFFF AND PUSH20 0xFFFFFFFFFFFFFFFFFFFFFFFFFFFFFFFFFFFFFFFF AND DUP2 MSTORE PUSH1 0x20 ADD SWAP1 DUP2 MSTORE PUSH1 0x20 ADD PUSH0 KECCAK256 PUSH0 DUP3 ADD MLOAD DUP2 PUSH0 ADD SSTORE PUSH1 0x20 DUP3 ADD MLOAD DUP2 PUSH1 0x1 ADD SWAP1 DUP2 PUSH2 0x1D9 SWAP2 SWAP1 PUSH2 0x68E JUMP JUMPDEST POP SWAP1 POP POP PUSH32 0x27DCCBE05FEB657AED5F8B0E82B02C08EBEA1B33DA241B64B3AF1522E0E22292 DUP3 DUP3 PUSH1 0x40 MLOAD PUSH2 0x20E SWAP3 SWAP2 SWAP1 PUSH2 0x2A2 JUMP JUMPDEST PUSH1 0x40 MLOAD DUP1 SWAP2 SUB SWAP1 LOG1 POP POP JUMP JUMPDEST PUSH0 DUP2 SWAP1 POP SWAP2 SWAP1 POP JUMP JUMPDEST PUSH2 0x22C DUP2 PUSH2 0x21A JUMP JUMPDEST DUP3 MSTORE POP POP JUMP JUMPDEST PUSH0 DUP2 MLOAD SWAP1 POP SWAP2 SWAP1 POP JUMP JUMPDEST PUSH0 DUP3 DUP3 MSTORE PUSH1 0x20 DUP3 ADD SWAP1 POP SWAP3 SWAP2 POP POP JUMP JUMPDEST DUP3 DUP2 DUP4 MCOPY PUSH0 DUP4 DUP4 ADD MSTORE POP POP POP JUMP JUMPDEST PUSH0 PUSH1 0x1F NOT PUSH1 0x1F DUP4 ADD AND SWAP1 POP SWAP2 SWAP1 POP JUMP JUMPDEST PUSH0 PUSH2 0x274 DUP3 PUSH2 0x232 JUMP JUMPDEST PUSH2 0x27E DUP2 DUP6 PUSH2 0x23C JUMP JUMPDEST SWAP4 POP PUSH2 0x28E DUP2 DUP6 PUSH1 0x20 DUP7 ADD PUSH2 0x24C JUMP JUMPDEST PUSH2 0x297 DUP2 PUSH2 0x25A JUMP JUMPDEST DUP5 ADD SWAP2 POP POP SWAP3 SWAP2 POP POP JUMP JUMPDEST PUSH0 PUSH1 0x40 DUP3 ADD SWAP1 POP PUSH2 0x2B5 PUSH0 DUP4 ADD DUP6 PUSH2 0x223 JUMP JUMPDEST DUP2 DUP2 SUB PUSH1 0x20 DUP4 ADD MSTORE PUSH2 0x2C7 DUP2 DUP5 PUSH2 0x26A JUMP JUMPDEST SWAP1 POP SWAP4 SWAP3 POP POP POP JUMP JUMPDEST PUSH0 PUSH1 0x40 MLOAD SWAP1 POP SWAP1 JUMP JUMPDEST PUSH0 PUSH0 REVERT JUMPDEST PUSH0 PUSH0 REVERT JUMPDEST PUSH2 0x2EA DUP2 PUSH2 0x21A JUMP JUMPDEST DUP2 EQ PUSH2 0x2F4 JUMPI PUSH0 PUSH0 REVERT JUMPDEST POP JUMP JUMPDEST PUSH0 DUP2 CALLDATALOAD SWAP1 POP PUSH2 0x305 DUP2 PUSH2 0x2E1 JUMP JUMPDEST SWAP3 SWAP2 POP POP JUMP JUMPDEST PUSH0 PUSH0 REVERT JUMPDEST PUSH0 PUSH0 REVERT JUMPDEST PUSH32 0x4E487B7100000000000000000000000000000000000000000000000000000000 PUSH0 MSTORE PUSH1 0x41 PUSH1 0x4 MSTORE PUSH1 0x24 PUSH0 REVERT JUMPDEST PUSH2 0x349 DUP3 PUSH2 0x25A JUMP JUMPDEST DUP2 ADD DUP2 DUP2 LT PUSH8 0xFFFFFFFFFFFFFFFF DUP3 GT OR ISZERO PUSH2 0x368 JUMPI PUSH2 0x367 PUSH2 0x313 JUMP JUMPDEST JUMPDEST DUP1 PUSH1 0x40 MSTORE POP POP POP JUMP JUMPDEST PUSH0 PUSH2 0x37A PUSH2 0x2D0 JUMP JUMPDEST SWAP1 POP PUSH2 0x386 DUP3 DUP3 PUSH2 0x340 JUMP JUMPDEST SWAP2 SWAP1 POP JUMP JUMPDEST PUSH0 PUSH8 0xFFFFFFFFFFFFFFFF DUP3 GT ISZERO PUSH2 0x3A5 JUMPI PUSH2 0x3A4 PUSH2 0x313 JUMP JUMPDEST JUMPDEST PUSH2 0x3AE DUP3 PUSH2 0x25A JUMP JUMPDEST SWAP1 POP PUSH1 0x20 DUP2 ADD SWAP1 POP SWAP2 SWAP1 POP JUMP JUMPDEST DUP3 DUP2 DUP4 CALLDATACOPY PUSH0 DUP4 DUP4 ADD MSTORE POP POP POP JUMP JUMPDEST PUSH0 PUSH2 0x3DB PUSH2 0x3D6 DUP5 PUSH2 0x38B JUMP JUMPDEST PUSH2 0x371 JUMP JUMPDEST SWAP1 POP DUP3 DUP2 MSTORE PUSH1 0x20 DUP2 ADD DUP5 DUP5 DUP5 ADD GT ISZERO PUSH2 0x3F7 JUMPI PUSH2 0x3F6 PUSH2 0x30F JUMP JUMPDEST JUMPDEST PUSH2 0x402 DUP5 DUP3 DUP6 PUSH2 0x3BB JUMP JUMPDEST POP SWAP4 SWAP3 POP POP POP JUMP JUMPDEST PUSH0 DUP3 PUSH1 0x1F DUP4 ADD SLT PUSH2 0x41E JUMPI PUSH2 0x41D PUSH2 0x30B JUMP JUMPDEST JUMPDEST DUP2 CALLDATALOAD PUSH2 0x42E DUP5 DUP3 PUSH1 0x20 DUP7 ADD PUSH2 0x3C9 JUMP JUMPDEST SWAP2 POP POP SWAP3 SWAP2 POP POP JUMP JUMPDEST PUSH0 PUSH0 PUSH1 0x40 DUP4 DUP6 SUB SLT ISZERO PUSH2 0x44D JUMPI PUSH2 0x44C PUSH2 0x2D9 JUMP JUMPDEST JUMPDEST PUSH0 PUSH2 0x45A DUP6 DUP3 DUP7 ADD PUSH2 0x2F7 JUMP JUMPDEST SWAP3 POP POP PUSH1 0x20 DUP4 ADD CALLDATALOAD PUSH8 0xFFFFFFFFFFFFFFFF DUP2 GT ISZERO PUSH2 0x47B JUMPI PUSH2 0x47A PUSH2 0x2DD JUMP JUMPDEST JUMPDEST PUSH2 0x487 DUP6 DUP3 DUP7 ADD PUSH2 0x40A JUMP JUMPDEST SWAP2 POP POP SWAP3 POP SWAP3 SWAP1 POP JUMP JUMPDEST PUSH32 0x4E487B7100000000000000000000000000000000000000000000000000000000 PUSH0 MSTORE PUSH1 0x22 PUSH1 0x4 MSTORE PUSH1 0x24 PUSH0 REVERT JUMPDEST PUSH0 PUSH1 0x2 DUP3 DIV SWAP1 POP PUSH1 0x1 DUP3 AND DUP1 PUSH2 0x4D5 JUMPI PUSH1 0x7F DUP3 AND SWAP2 POP JUMPDEST PUSH1 0x20 DUP3 LT DUP2 SUB PUSH2 0x4E8 JUMPI PUSH2 0x4E7 PUSH2 0x491 JUMP JUMPDEST JUMPDEST POP SWAP2 SWAP1 POP JUMP JUMPDEST PUSH0 DUP2 SWAP1 POP DUP2 PUSH0 MSTORE PUSH1 0x20 PUSH0 KECCAK256 SWAP1 POP SWAP2 SWAP1 POP JUMP JUMPDEST PUSH0 PUSH1 0x20 PUSH1 0x1F DUP4 ADD DIV SWAP1 POP SWAP2 SWAP1 POP JUMP JUMPDEST PUSH0 DUP3 DUP3 SHL SWAP1 POP SWAP3 SWAP2 POP POP JUMP JUMPDEST PUSH0 PUSH1 0x8 DUP4 MUL PUSH2 0x54A PUSH32 0xFFFFFFFFFFFFFFFFFFFFFFFFFFFFFFFFFFFFFFFFFFFFFFFFFFFFFFFFFFFFFFFF DUP3 PUSH2 0x50F JUMP JUMPDEST PUSH2 0x554 DUP7 DUP4 PUSH2 0x50F JUMP JUMPDEST SWAP6 POP DUP1 NOT DUP5 AND SWAP4 POP DUP1 DUP7 AND DUP5 OR SWAP3 POP POP POP SWAP4 SWAP3 POP POP POP JUMP JUMPDEST PUSH0 DUP2 SWAP1 POP SWAP2 SWAP1 POP JUMP JUMPDEST PUSH0 PUSH2 0x58F PUSH2 0x58A PUSH2 0x585 DUP5 PUSH2 0x21A JUMP JUMPDEST PUSH2 0x56C JUMP JUMPDEST PUSH2 0x21A JUMP JUMPDEST SWAP1 POP SWAP2 SWAP1 POP JUMP JUMPDEST PUSH0 DUP2 SWAP1 POP SWAP2 SWAP1 POP JUMP JUMPDEST PUSH2 0x5A8 DUP4 PUSH2 0x575 JUMP JUMPDEST PUSH2 0x5BC PUSH2 0x5B4 DUP3 PUSH2 0x596 JUMP JUMPDEST DUP5 DUP5 SLOAD PUSH2 0x51B JUMP JUMPDEST DUP3 SSTORE POP POP POP POP JUMP JUMPDEST PUSH0 PUSH0 SWAP1 POP SWAP1 JUMP JUMPDEST PUSH2 0x5D3 PUSH2 0x5C4 JUMP JUMPDEST PUSH2 0x5DE DUP2 DUP5 DUP5 PUSH2 0x59F JUMP JUMPDEST POP POP POP JUMP JUMPDEST JUMPDEST DUP2 DUP2 LT ISZERO PUSH2 0x601 JUMPI PUSH2 0x5F6 PUSH0 DUP3 PUSH2 0x5CB JUMP JUMPDEST PUSH1 0x1 DUP2 ADD SWAP1 POP PUSH2 0x5E4 JUMP JUMPDEST POP POP JUMP JUMPDEST PUSH1 0x1F DUP3 GT ISZERO PUSH2 0x646 JUMPI PUSH2 0x617 DUP2 PUSH2 0x4EE JUMP JUMPDEST PUSH2 0x620 DUP5 PUSH2 0x500 JUMP JUMPDEST DUP2 ADD PUSH1 0x20 DUP6 LT ISZERO PUSH2 0x62F JUMPI DUP2 SWAP1 POP JUMPDEST PUSH2 0x643 PUSH2 0x63B DUP6 PUSH2 0x500 JUMP JUMPDEST DUP4 ADD DUP3 PUSH2 0x5E3 JUMP JUMPDEST POP POP JUMPDEST POP POP POP JUMP JUMPDEST PUSH0 DUP3 DUP3 SHR SWAP1 POP SWAP3 SWAP2 POP POP JUMP JUMPDEST PUSH0 PUSH2 0x666 PUSH0 NOT DUP5 PUSH1 0x8 MUL PUSH2 0x64B JUMP JUMPDEST NOT DUP1 DUP4 AND SWAP2 POP POP SWAP3 SWAP2 POP POP JUMP JUMPDEST PUSH0 PUSH2 0x67E DUP4 DUP4 PUSH2 0x657 JUMP JUMPDEST SWAP2 POP DUP3 PUSH1 0x2 MUL DUP3 OR SWAP1 POP SWAP3 SWAP2 POP POP JUMP JUMPDEST PUSH2 0x697 DUP3 PUSH2 0x232 JUMP JUMPDEST PUSH8 0xFFFFFFFFFFFFFFFF DUP2 GT ISZERO PUSH2 0x6B0 JUMPI PUSH2 0x6AF PUSH2 0x313 JUMP JUMPDEST JUMPDEST PUSH2 0x6BA DUP3 SLOAD PUSH2 0x4BE JUMP JUMPDEST PUSH2 0x6C5 DUP3 DUP3 DUP6 PUSH2 0x605 JUMP JUMPDEST PUSH0 PUSH1 0x20 SWAP1 POP PUSH1 0x1F DUP4 GT PUSH1 0x1 DUP2 EQ PUSH2 0x6F6 JUMPI PUSH0 DUP5 ISZERO PUSH2 0x6E4 JUMPI DUP3 DUP8 ADD MLOAD SWAP1 POP JUMPDEST PUSH2 0x6EE DUP6 DUP3 PUSH2 0x673 JUMP JUMPDEST DUP7 SSTORE POP PUSH2 0x755 JUMP JUMPDEST PUSH1 0x1F NOT DUP5 AND PUSH2 0x704 DUP7 PUSH2 0x4EE JUMP JUMPDEST PUSH0 JUMPDEST DUP3 DUP2 LT ISZERO PUSH2 0x72B JUMPI DUP5 DUP10 ADD MLOAD DUP3 SSTORE PUSH1 0x1 DUP3 ADD SWAP2 POP PUSH1 0x20 DUP6 ADD SWAP5 POP PUSH1 0x20 DUP2 ADD SWAP1 POP PUSH2 0x706 JUMP JUMPDEST DUP7 DUP4 LT ISZERO PUSH2 0x748 JUMPI DUP5 DUP10 ADD MLOAD PUSH2 0x744 PUSH1 0x1F DUP10 AND DUP3 PUSH2 0x657 JUMP JUMPDEST DUP4 SSTORE POP JUMPDEST PUSH1 0x1 PUSH1 0x2 DUP9 MUL ADD DUP9 SSTORE POP POP POP JUMPDEST POP POP POP POP POP POP JUMP INVALID LOG2 PUSH5 0x6970667358 0x22 SLT KECCAK256 0xDB 0xBF PUSH17 0xA3E171CB9C83FE09607B05A9D5DAEB3518 0xA9 EXP INVALID PUSH8 0xE0CB182C9134D68A PUSH5 0x736F6C6343 STOP ADDMOD 0x1F STOP CALLER "
				},
				"gasEstimates": {
					"creation": {
						"codeDepositCost": "387800",
						"executionCost": "422",
						"totalCost": "388222"
					},
					"external": {
						"getuserdetails()": "infinite",
						"setuserdetails(uint256,string)": "infinite"
					}
				},
				"methodIdentifiers": {
					"getuserdetails()": "8bc65ce7",
					"setuserdetails(uint256,string)": "d24557db"
				}
			},
			"storageLayout": {
				"storage": [
					{
						"astId": 11,
						"contract": "Assignments/Assignment6(20-03-2026)/1)userdetails.sol:userdetails",
						"label": "users",
						"offset": 0,
						"slot": "0",
						"type": "t_mapping(t_address,t_struct(user)6_storage)"
					}
				],
				"types": {
					"t_address": {
						"encoding": "inplace",
						"label": "address",
						"numberOfBytes": "20"
					},
					"t_mapping(t_address,t_struct(user)6_storage)": {
						"encoding": "mapping",
						"key": "t_address",
						"label": "mapping(address => struct userdetails.user)",
						"numberOfBytes": "32",
						"value": "t_struct(user)6_storage"
					},
					"t_string_storage": {
						"encoding": "bytes",
						"label": "string",
						"numberOfBytes": "32"
					},
					"t_struct(user)6_storage": {
						"encoding": "inplace",
						"label": "struct userdetails.user",
						"members": [
							{
								"astId": 3,
								"contract": "Assignments/Assignment6(20-03-2026)/1)userdetails.sol:userdetails",
								"label": "id",
								"offset": 0,
								"slot": "0",
								"type": "t_uint256"
							},
							{
								"astId": 5,
								"contract": "Assignments/Assignment6(20-03-2026)/1)userdetails.sol:userdetails",
								"label": "name",
								"offset": 0,
								"slot": "1",
								"type": "t_string_storage"
							}
						],
						"numberOfBytes": "64"
					},
					"t_uint256": {
						"encoding": "inplace",
						"label": "uint256",
						"numberOfBytes": "32"
					}
				}
			},
			"userdoc": {
				"kind": "user",
				"methods": {},
				"version": 1
			}
		}
	}
}