{
	"Assignments/enumstructarray.sol": {
		"StudentCourse": {
			"abi": [
				{
					"inputs": [
						{
							"internalType": "uint256",
							"name": "index",
							"type": "uint256"
						}
					],
					"name": "getStudent",
					"outputs": [
						{
							"internalType": "uint256",
							"name": "",
							"type": "uint256"
						},
						{
							"internalType": "string",
							"name": "",
							"type": "string"
						},
						{
							"internalType": "uint256",
							"name": "",
							"type": "uint256"
						},
						{
							"internalType": "enum StudentCourse.CourseStatus",
							"name": "",
							"type": "uint8"
						}
					],
					"stateMutability": "view",
					"type": "function"
				},
				{
					"inputs": [
						{
							"internalType": "uint256",
							"name": "_id",
							"type": "uint256"
						},
						{
							"internalType": "string",
							"name": "_name",
							"type": "string"
						},
						{
							"internalType": "uint256",
							"name": "_age",
							"type": "uint256"
						},
						{
							"internalType": "enum StudentCourse.CourseStatus",
							"name": "_status",
							"type": "uint8"
						}
					],
					"name": "setStudent",
					"outputs": [],
					"stateMutability": "nonpayable",
					"type": "function"
				},
				{
					"inputs": [
						{
							"internalType": "uint256",
							"name": "",
							"type": "uint256"
						}
					],
					"name": "students",
					"outputs": [
						{
							"internalType": "uint256",
							"name": "id",
							"type": "uint256"
						},
						{
							"internalType": "string",
							"name": "name",
							"type": "string"
						},
						{
							"internalType": "uint256",
							"name": "age",
							"type": "uint256"
						},
						{
							"internalType": "enum StudentCourse.CourseStatus",
							"name": "status",
							"type": "uint8"
						}
					],
					"stateMutability": "view",
					"type": "function"
				}
			],
			"devdoc": {
				"kind": "dev",
				"methods": {},
				"version": 1
			},
			"evm": {
				"assembly": "    /* \"Assignments/enumstructarray.sol\":60:1006  contract StudentCourse {... */\n  mstore(0x40, 0x80)\n  callvalue\n  dup1\n  iszero\n  tag_1\n  jumpi\n  revert(0x00, 0x00)\ntag_1:\n  pop\n  dataSize(sub_0)\n  dup1\n  dataOffset(sub_0)\n  0x00\n  codecopy\n  0x00\n  return\nstop\n\nsub_0: assembly {\n        /* \"Assignments/enumstructarray.sol\":60:1006  contract StudentCourse {... */\n      mstore(0x40, 0x80)\n      callvalue\n      dup1\n      iszero\n      tag_1\n      jumpi\n      revert(0x00, 0x00)\n    tag_1:\n      pop\n      jumpi(tag_2, lt(calldatasize, 0x04))\n      shr(0xe0, calldataload(0x00))\n      dup1\n      0x0450f0b4\n      eq\n      tag_3\n      jumpi\n      dup1\n      0x06ead22e\n      eq\n      tag_4\n      jumpi\n      dup1\n      0x642f9163\n      eq\n      tag_5\n      jumpi\n    tag_2:\n      revert(0x00, 0x00)\n        /* \"Assignments/enumstructarray.sol\":448:654  function setStudent(... */\n    tag_3:\n      tag_6\n      0x04\n      dup1\n      calldatasize\n      sub\n      dup2\n      add\n      swap1\n      tag_7\n      swap2\n      swap1\n      tag_8\n      jump\t// in\n    tag_7:\n      tag_9\n      jump\t// in\n    tag_6:\n      stop\n        /* \"Assignments/enumstructarray.sol\":374:399  Student[] public students */\n    tag_4:\n      tag_10\n      0x04\n      dup1\n      calldatasize\n      sub\n      dup2\n      add\n      swap1\n      tag_11\n      swap2\n      swap1\n      tag_12\n      jump\t// in\n    tag_11:\n      tag_13\n      jump\t// in\n    tag_10:\n      mload(0x40)\n      tag_14\n      swap5\n      swap4\n      swap3\n      swap2\n      swap1\n      tag_15\n      jump\t// in\n    tag_14:\n      mload(0x40)\n      dup1\n      swap2\n      sub\n      swap1\n      return\n        /* \"Assignments/enumstructarray.sol\":710:1001  function getStudent(uint index)... */\n    tag_5:\n      tag_16\n      0x04\n      dup1\n      calldatasize\n      sub\n      dup2\n      add\n      swap1\n      tag_17\n      swap2\n      swap1\n      tag_12\n      jump\t// in\n    tag_17:\n      tag_18\n      jump\t// in\n    tag_16:\n      mload(0x40)\n      tag_19\n      swap5\n      swap4\n      swap3\n      swap2\n      swap1\n      tag_15\n      jump\t// in\n    tag_19:\n      mload(0x40)\n      dup1\n      swap2\n      sub\n      swap1\n      return\n        /* \"Assignments/enumstructarray.sol\":448:654  function setStudent(... */\n    tag_9:\n        /* \"Assignments/enumstructarray.sol\":595:603  students */\n      0x00\n        /* \"Assignments/enumstructarray.sol\":609:643  Student(_id, _name, _age, _status) */\n      mload(0x40)\n      dup1\n      0x80\n      add\n      0x40\n      mstore\n      dup1\n        /* \"Assignments/enumstructarray.sol\":617:620  _id */\n      dup7\n        /* \"Assignments/enumstructarray.sol\":609:643  Student(_id, _name, _age, _status) */\n      dup2\n      mstore\n      0x20\n      add\n        /* \"Assignments/enumstructarray.sol\":622:627  _name */\n      dup6\n        /* \"Assignments/enumstructarray.sol\":609:643  Student(_id, _name, _age, _status) */\n      dup2\n      mstore\n      0x20\n      add\n        /* \"Assignments/enumstructarray.sol\":629:633  _age */\n      dup5\n        /* \"Assignments/enumstructarray.sol\":609:643  Student(_id, _name, _age, _status) */\n      dup2\n      mstore\n      0x20\n      add\n        /* \"Assignments/enumstructarray.sol\":635:642  _status */\n      dup4\n        /* \"Assignments/enumstructarray.sol\":609:643  Student(_id, _name, _age, _status) */\n      0x02\n      dup2\n      gt\n      iszero\n      tag_21\n      jumpi\n      tag_22\n      tag_23\n      jump\t// in\n    tag_22:\n    tag_21:\n      dup2\n      mstore\n      pop\n        /* \"Assignments/enumstructarray.sol\":595:644  students.push(Student(_id, _name, _age, _status)) */\n      swap1\n      dup1\n      0x01\n      dup2\n      sload\n      add\n      dup1\n      dup3\n      sstore\n      dup1\n      swap2\n      pop\n      pop\n      0x01\n      swap1\n      sub\n      swap1\n      0x00\n      mstore\n      keccak256(0x00, 0x20)\n      swap1\n      0x04\n      mul\n      add\n      0x00\n      swap1\n      swap2\n      swap1\n      swap2\n      swap1\n      swap2\n      pop\n      0x00\n      dup3\n      add\n      mload\n      dup2\n      0x00\n      add\n      sstore\n      0x20\n      dup3\n      add\n      mload\n      dup2\n      0x01\n      add\n      swap1\n      dup2\n      tag_25\n      swap2\n      swap1\n      tag_26\n      jump\t// in\n    tag_25:\n      pop\n      0x40\n      dup3\n      add\n      mload\n      dup2\n      0x02\n      add\n      sstore\n      0x60\n      dup3\n      add\n      mload\n      dup2\n      0x03\n      add\n      exp(0x0100, 0x00)\n      dup2\n      sload\n      dup2\n      0xff\n      mul\n      not\n      and\n      swap1\n      dup4\n      0x02\n      dup2\n      gt\n      iszero\n      tag_27\n      jumpi\n      tag_28\n      tag_23\n      jump\t// in\n    tag_28:\n    tag_27:\n      mul\n      or\n      swap1\n      sstore\n      pop\n      pop\n      pop\n        /* \"Assignments/enumstructarray.sol\":448:654  function setStudent(... */\n      pop\n      pop\n      pop\n      pop\n      jump\t// out\n        /* \"Assignments/enumstructarray.sol\":374:399  Student[] public students */\n    tag_13:\n      0x00\n      dup2\n      dup2\n      sload\n      dup2\n      lt\n      tag_29\n      jumpi\n      0x00\n      dup1\n      revert\n    tag_29:\n      swap1\n      0x00\n      mstore\n      keccak256(0x00, 0x20)\n      swap1\n      0x04\n      mul\n      add\n      0x00\n      swap2\n      pop\n      swap1\n      pop\n      dup1\n      0x00\n      add\n      sload\n      swap1\n      dup1\n      0x01\n      add\n      dup1\n      sload\n      tag_31\n      swap1\n      tag_32\n      jump\t// in\n    tag_31:\n      dup1\n      0x1f\n      add\n      0x20\n      dup1\n      swap2\n      div\n      mul\n      0x20\n      add\n      mload(0x40)\n      swap1\n      dup2\n      add\n      0x40\n      mstore\n      dup1\n      swap3\n      swap2\n      swap1\n      dup2\n      dup2\n      mstore\n      0x20\n      add\n      dup3\n      dup1\n      sload\n      tag_33\n      swap1\n      tag_32\n      jump\t// in\n    tag_33:\n      dup1\n      iszero\n      tag_34\n      jumpi\n      dup1\n      0x1f\n      lt\n      tag_35\n      jumpi\n      0x0100\n      dup1\n      dup4\n      sload\n      div\n      mul\n      dup4\n      mstore\n      swap2\n      0x20\n      add\n      swap2\n      jump(tag_34)\n    tag_35:\n      dup3\n      add\n      swap2\n      swap1\n      0x00\n      mstore\n      keccak256(0x00, 0x20)\n      swap1\n    tag_36:\n      dup2\n      sload\n      dup2\n      mstore\n      swap1\n      0x01\n      add\n      swap1\n      0x20\n      add\n      dup1\n      dup4\n      gt\n      tag_36\n      jumpi\n      dup3\n      swap1\n      sub\n      0x1f\n      and\n      dup3\n      add\n      swap2\n    tag_34:\n      pop\n      pop\n      pop\n      pop\n      pop\n      swap1\n      dup1\n      0x02\n      add\n      sload\n      swap1\n      dup1\n      0x03\n      add\n      0x00\n      swap1\n      sload\n      swap1\n      0x0100\n      exp\n      swap1\n      div\n      0xff\n      and\n      swap1\n      pop\n      dup5\n      jump\t// out\n        /* \"Assignments/enumstructarray.sol\":710:1001  function getStudent(uint index)... */\n    tag_18:\n        /* \"Assignments/enumstructarray.sol\":804:808  uint */\n      0x00\n        /* \"Assignments/enumstructarray.sol\":823:836  string memory */\n      0x60\n        /* \"Assignments/enumstructarray.sol\":851:855  uint */\n      0x00\n        /* \"Assignments/enumstructarray.sol\":870:882  CourseStatus */\n      0x00\n        /* \"Assignments/enumstructarray.sol\":910:926  Student memory s */\n      0x00\n        /* \"Assignments/enumstructarray.sol\":929:937  students */\n      0x00\n        /* \"Assignments/enumstructarray.sol\":938:943  index */\n      dup7\n        /* \"Assignments/enumstructarray.sol\":929:944  students[index] */\n      dup2\n      sload\n      dup2\n      lt\n      tag_38\n      jumpi\n      tag_39\n      tag_40\n      jump\t// in\n    tag_39:\n    tag_38:\n      swap1\n      0x00\n      mstore\n      keccak256(0x00, 0x20)\n      swap1\n      0x04\n      mul\n      add\n        /* \"Assignments/enumstructarray.sol\":910:944  Student memory s = students[index] */\n      mload(0x40)\n      dup1\n      0x80\n      add\n      0x40\n      mstore\n      swap1\n      dup2\n      0x00\n      dup3\n      add\n      sload\n      dup2\n      mstore\n      0x20\n      add\n      0x01\n      dup3\n      add\n      dup1\n      sload\n      tag_42\n      swap1\n      tag_32\n      jump\t// in\n    tag_42:\n      dup1\n      0x1f\n      add\n      0x20\n      dup1\n      swap2\n      div\n      mul\n      0x20\n      add\n      mload(0x40)\n      swap1\n      dup2\n      add\n      0x40\n      mstore\n      dup1\n      swap3\n      swap2\n      swap1\n      dup2\n      dup2\n      mstore\n      0x20\n      add\n      dup3\n      dup1\n      sload\n      tag_43\n      swap1\n      tag_32\n      jump\t// in\n    tag_43:\n      dup1\n      iszero\n      tag_44\n      jumpi\n      dup1\n      0x1f\n      lt\n      tag_45\n      jumpi\n      0x0100\n      dup1\n      dup4\n      sload\n      div\n      mul\n      dup4\n      mstore\n      swap2\n      0x20\n      add\n      swap2\n      jump(tag_44)\n    tag_45:\n      dup3\n      add\n      swap2\n      swap1\n      0x00\n      mstore\n      keccak256(0x00, 0x20)\n      swap1\n    tag_46:\n      dup2\n      sload\n      dup2\n      mstore\n      swap1\n      0x01\n      add\n      swap1\n      0x20\n      add\n      dup1\n      dup4\n      gt\n      tag_46\n      jumpi\n      dup3\n      swap1\n      sub\n      0x1f\n      and\n      dup3\n      add\n      swap2\n    tag_44:\n      pop\n      pop\n      pop\n      pop\n      pop\n      dup2\n      mstore\n      0x20\n      add\n      0x02\n      dup3\n      add\n      sload\n      dup2\n      mstore\n      0x20\n      add\n      0x03\n      dup3\n      add\n      0x00\n      swap1\n      sload\n      swap1\n      0x0100\n      exp\n      swap1\n      div\n      0xff\n      and\n      0x02\n      dup2\n      gt\n      iszero\n      tag_47\n      jumpi\n      tag_48\n      tag_23\n      jump\t// in\n    tag_48:\n    tag_47:\n      0x02\n      dup2\n      gt\n      iszero\n      tag_49\n      jumpi\n      tag_50\n      tag_23\n      jump\t// in\n    tag_50:\n    tag_49:\n      dup2\n      mstore\n      pop\n      pop\n      swap1\n      pop\n        /* \"Assignments/enumstructarray.sol\":963:964  s */\n      dup1\n        /* \"Assignments/enumstructarray.sol\":963:967  s.id */\n      0x00\n      add\n      mload\n        /* \"Assignments/enumstructarray.sol\":969:970  s */\n      dup2\n        /* \"Assignments/enumstructarray.sol\":969:975  s.name */\n      0x20\n      add\n      mload\n        /* \"Assignments/enumstructarray.sol\":977:978  s */\n      dup3\n        /* \"Assignments/enumstructarray.sol\":977:982  s.age */\n      0x40\n      add\n      mload\n        /* \"Assignments/enumstructarray.sol\":984:985  s */\n      dup4\n        /* \"Assignments/enumstructarray.sol\":984:992  s.status */\n      0x60\n      add\n      mload\n        /* \"Assignments/enumstructarray.sol\":955:993  return (s.id, s.name, s.age, s.status) */\n      swap5\n      pop\n      swap5\n      pop\n      swap5\n      pop\n      swap5\n      pop\n      pop\n        /* \"Assignments/enumstructarray.sol\":710:1001  function getStudent(uint index)... */\n      swap2\n      swap4\n      pop\n      swap2\n      swap4\n      jump\t// out\n        /* \"#utility.yul\":7:82   */\n    tag_51:\n        /* \"#utility.yul\":40:46   */\n      0x00\n        /* \"#utility.yul\":73:75   */\n      0x40\n        /* \"#utility.yul\":67:76   */\n      mload\n        /* \"#utility.yul\":57:76   */\n      swap1\n      pop\n        /* \"#utility.yul\":7:82   */\n      swap1\n      jump\t// out\n        /* \"#utility.yul\":88:205   */\n    tag_52:\n        /* \"#utility.yul\":197:198   */\n      0x00\n        /* \"#utility.yul\":194:195   */\n      0x00\n        /* \"#utility.yul\":187:199   */\n      revert\n        /* \"#utility.yul\":211:328   */\n    tag_53:\n        /* \"#utility.yul\":320:321   */\n      0x00\n        /* \"#utility.yul\":317:318   */\n      0x00\n        /* \"#utility.yul\":310:322   */\n      revert\n        /* \"#utility.yul\":334:411   */\n    tag_54:\n        /* \"#utility.yul\":371:378   */\n      0x00\n        /* \"#utility.yul\":400:405   */\n      dup2\n        /* \"#utility.yul\":389:405   */\n      swap1\n      pop\n        /* \"#utility.yul\":334:411   */\n      swap2\n      swap1\n      pop\n      jump\t// out\n        /* \"#utility.yul\":417:539   */\n    tag_55:\n        /* \"#utility.yul\":490:514   */\n      tag_100\n        /* \"#utility.yul\":508:513   */\n      dup2\n        /* \"#utility.yul\":490:514   */\n      tag_54\n      jump\t// in\n    tag_100:\n        /* \"#utility.yul\":483:488   */\n      dup2\n        /* \"#utility.yul\":480:515   */\n      eq\n        /* \"#utility.yul\":470:533   */\n      tag_101\n      jumpi\n        /* \"#utility.yul\":529:530   */\n      0x00\n        /* \"#utility.yul\":526:527   */\n      0x00\n        /* \"#utility.yul\":519:531   */\n      revert\n        /* \"#utility.yul\":470:533   */\n    tag_101:\n        /* \"#utility.yul\":417:539   */\n      pop\n      jump\t// out\n        /* \"#utility.yul\":545:684   */\n    tag_56:\n        /* \"#utility.yul\":591:596   */\n      0x00\n        /* \"#utility.yul\":629:635   */\n      dup2\n        /* \"#utility.yul\":616:636   */\n      calldataload\n        /* \"#utility.yul\":607:636   */\n      swap1\n      pop\n        /* \"#utility.yul\":645:678   */\n      tag_103\n        /* \"#utility.yul\":672:677   */\n      dup2\n        /* \"#utility.yul\":645:678   */\n      tag_55\n      jump\t// in\n    tag_103:\n        /* \"#utility.yul\":545:684   */\n      swap3\n      swap2\n      pop\n      pop\n      jump\t// out\n        /* \"#utility.yul\":690:807   */\n    tag_57:\n        /* \"#utility.yul\":799:800   */\n      0x00\n        /* \"#utility.yul\":796:797   */\n      0x00\n        /* \"#utility.yul\":789:801   */\n      revert\n        /* \"#utility.yul\":813:930   */\n    tag_58:\n        /* \"#utility.yul\":922:923   */\n      0x00\n        /* \"#utility.yul\":919:920   */\n      0x00\n        /* \"#utility.yul\":912:924   */\n      revert\n        /* \"#utility.yul\":936:1038   */\n    tag_59:\n        /* \"#utility.yul\":977:983   */\n      0x00\n        /* \"#utility.yul\":1028:1030   */\n      0x1f\n        /* \"#utility.yul\":1024:1031   */\n      not\n        /* \"#utility.yul\":1019:1021   */\n      0x1f\n        /* \"#utility.yul\":1012:1017   */\n      dup4\n        /* \"#utility.yul\":1008:1022   */\n      add\n        /* \"#utility.yul\":1004:1032   */\n      and\n        /* \"#utility.yul\":994:1032   */\n      swap1\n      pop\n        /* \"#utility.yul\":936:1038   */\n      swap2\n      swap1\n      pop\n      jump\t// out\n        /* \"#utility.yul\":1044:1224   */\n    tag_60:\n        /* \"#utility.yul\":1092:1169   */\n      0x4e487b7100000000000000000000000000000000000000000000000000000000\n        /* \"#utility.yul\":1089:1090   */\n      0x00\n        /* \"#utility.yul\":1082:1170   */\n      mstore\n        /* \"#utility.yul\":1189:1193   */\n      0x41\n        /* \"#utility.yul\":1186:1187   */\n      0x04\n        /* \"#utility.yul\":1179:1194   */\n      mstore\n        /* \"#utility.yul\":1213:1217   */\n      0x24\n        /* \"#utility.yul\":1210:1211   */\n      0x00\n        /* \"#utility.yul\":1203:1218   */\n      revert\n        /* \"#utility.yul\":1230:1511   */\n    tag_61:\n        /* \"#utility.yul\":1313:1340   */\n      tag_109\n        /* \"#utility.yul\":1335:1339   */\n      dup3\n        /* \"#utility.yul\":1313:1340   */\n      tag_59\n      jump\t// in\n    tag_109:\n        /* \"#utility.yul\":1305:1311   */\n      dup2\n        /* \"#utility.yul\":1301:1341   */\n      add\n        /* \"#utility.yul\":1443:1449   */\n      dup2\n        /* \"#utility.yul\":1431:1441   */\n      dup2\n        /* \"#utility.yul\":1428:1450   */\n      lt\n        /* \"#utility.yul\":1407:1425   */\n      0xffffffffffffffff\n        /* \"#utility.yul\":1395:1405   */\n      dup3\n        /* \"#utility.yul\":1392:1426   */\n      gt\n        /* \"#utility.yul\":1389:1451   */\n      or\n        /* \"#utility.yul\":1386:1474   */\n      iszero\n      tag_110\n      jumpi\n        /* \"#utility.yul\":1454:1472   */\n      tag_111\n      tag_60\n      jump\t// in\n    tag_111:\n        /* \"#utility.yul\":1386:1474   */\n    tag_110:\n        /* \"#utility.yul\":1494:1504   */\n      dup1\n        /* \"#utility.yul\":1490:1492   */\n      0x40\n        /* \"#utility.yul\":1483:1505   */\n      mstore\n        /* \"#utility.yul\":1273:1511   */\n      pop\n        /* \"#utility.yul\":1230:1511   */\n      pop\n      pop\n      jump\t// out\n        /* \"#utility.yul\":1517:1646   */\n    tag_62:\n        /* \"#utility.yul\":1551:1557   */\n      0x00\n        /* \"#utility.yul\":1578:1598   */\n      tag_113\n      tag_51\n      jump\t// in\n    tag_113:\n        /* \"#utility.yul\":1568:1598   */\n      swap1\n      pop\n        /* \"#utility.yul\":1607:1640   */\n      tag_114\n        /* \"#utility.yul\":1635:1639   */\n      dup3\n        /* \"#utility.yul\":1627:1633   */\n      dup3\n        /* \"#utility.yul\":1607:1640   */\n      tag_61\n      jump\t// in\n    tag_114:\n        /* \"#utility.yul\":1517:1646   */\n      swap2\n      swap1\n      pop\n      jump\t// out\n        /* \"#utility.yul\":1652:1960   */\n    tag_63:\n        /* \"#utility.yul\":1714:1718   */\n      0x00\n        /* \"#utility.yul\":1804:1822   */\n      0xffffffffffffffff\n        /* \"#utility.yul\":1796:1802   */\n      dup3\n        /* \"#utility.yul\":1793:1823   */\n      gt\n        /* \"#utility.yul\":1790:1846   */\n      iszero\n      tag_116\n      jumpi\n        /* \"#utility.yul\":1826:1844   */\n      tag_117\n      tag_60\n      jump\t// in\n    tag_117:\n        /* \"#utility.yul\":1790:1846   */\n    tag_116:\n        /* \"#utility.yul\":1864:1893   */\n      tag_118\n        /* \"#utility.yul\":1886:1892   */\n      dup3\n        /* \"#utility.yul\":1864:1893   */\n      tag_59\n      jump\t// in\n    tag_118:\n        /* \"#utility.yul\":1856:1893   */\n      swap1\n      pop\n        /* \"#utility.yul\":1948:1952   */\n      0x20\n        /* \"#utility.yul\":1942:1946   */\n      dup2\n        /* \"#utility.yul\":1938:1953   */\n      add\n        /* \"#utility.yul\":1930:1953   */\n      swap1\n      pop\n        /* \"#utility.yul\":1652:1960   */\n      swap2\n      swap1\n      pop\n      jump\t// out\n        /* \"#utility.yul\":1966:2114   */\n    tag_64:\n        /* \"#utility.yul\":2064:2070   */\n      dup3\n        /* \"#utility.yul\":2059:2062   */\n      dup2\n        /* \"#utility.yul\":2054:2057   */\n      dup4\n        /* \"#utility.yul\":2041:2071   */\n      calldatacopy\n        /* \"#utility.yul\":2105:2106   */\n      0x00\n        /* \"#utility.yul\":2096:2102   */\n      dup4\n        /* \"#utility.yul\":2091:2094   */\n      dup4\n        /* \"#utility.yul\":2087:2103   */\n      add\n        /* \"#utility.yul\":2080:2107   */\n      mstore\n        /* \"#utility.yul\":1966:2114   */\n      pop\n      pop\n      pop\n      jump\t// out\n        /* \"#utility.yul\":2120:2545   */\n    tag_65:\n        /* \"#utility.yul\":2198:2203   */\n      0x00\n        /* \"#utility.yul\":2223:2289   */\n      tag_121\n        /* \"#utility.yul\":2239:2288   */\n      tag_122\n        /* \"#utility.yul\":2281:2287   */\n      dup5\n        /* \"#utility.yul\":2239:2288   */\n      tag_63\n      jump\t// in\n    tag_122:\n        /* \"#utility.yul\":2223:2289   */\n      tag_62\n      jump\t// in\n    tag_121:\n        /* \"#utility.yul\":2214:2289   */\n      swap1\n      pop\n        /* \"#utility.yul\":2312:2318   */\n      dup3\n        /* \"#utility.yul\":2305:2310   */\n      dup2\n        /* \"#utility.yul\":2298:2319   */\n      mstore\n        /* \"#utility.yul\":2350:2354   */\n      0x20\n        /* \"#utility.yul\":2343:2348   */\n      dup2\n        /* \"#utility.yul\":2339:2355   */\n      add\n        /* \"#utility.yul\":2388:2391   */\n      dup5\n        /* \"#utility.yul\":2379:2385   */\n      dup5\n        /* \"#utility.yul\":2374:2377   */\n      dup5\n        /* \"#utility.yul\":2370:2386   */\n      add\n        /* \"#utility.yul\":2367:2392   */\n      gt\n        /* \"#utility.yul\":2364:2476   */\n      iszero\n      tag_123\n      jumpi\n        /* \"#utility.yul\":2395:2474   */\n      tag_124\n      tag_58\n      jump\t// in\n    tag_124:\n        /* \"#utility.yul\":2364:2476   */\n    tag_123:\n        /* \"#utility.yul\":2485:2539   */\n      tag_125\n        /* \"#utility.yul\":2532:2538   */\n      dup5\n        /* \"#utility.yul\":2527:2530   */\n      dup3\n        /* \"#utility.yul\":2522:2525   */\n      dup6\n        /* \"#utility.yul\":2485:2539   */\n      tag_64\n      jump\t// in\n    tag_125:\n        /* \"#utility.yul\":2204:2545   */\n      pop\n        /* \"#utility.yul\":2120:2545   */\n      swap4\n      swap3\n      pop\n      pop\n      pop\n      jump\t// out\n        /* \"#utility.yul\":2565:2905   */\n    tag_66:\n        /* \"#utility.yul\":2621:2626   */\n      0x00\n        /* \"#utility.yul\":2670:2673   */\n      dup3\n        /* \"#utility.yul\":2663:2667   */\n      0x1f\n        /* \"#utility.yul\":2655:2661   */\n      dup4\n        /* \"#utility.yul\":2651:2668   */\n      add\n        /* \"#utility.yul\":2647:2674   */\n      slt\n        /* \"#utility.yul\":2637:2759   */\n      tag_127\n      jumpi\n        /* \"#utility.yul\":2678:2757   */\n      tag_128\n      tag_57\n      jump\t// in\n    tag_128:\n        /* \"#utility.yul\":2637:2759   */\n    tag_127:\n        /* \"#utility.yul\":2795:2801   */\n      dup2\n        /* \"#utility.yul\":2782:2802   */\n      calldataload\n        /* \"#utility.yul\":2820:2899   */\n      tag_129\n        /* \"#utility.yul\":2895:2898   */\n      dup5\n        /* \"#utility.yul\":2887:2893   */\n      dup3\n        /* \"#utility.yul\":2880:2884   */\n      0x20\n        /* \"#utility.yul\":2872:2878   */\n      dup7\n        /* \"#utility.yul\":2868:2885   */\n      add\n        /* \"#utility.yul\":2820:2899   */\n      tag_65\n      jump\t// in\n    tag_129:\n        /* \"#utility.yul\":2811:2899   */\n      swap2\n      pop\n        /* \"#utility.yul\":2627:2905   */\n      pop\n        /* \"#utility.yul\":2565:2905   */\n      swap3\n      swap2\n      pop\n      pop\n      jump\t// out\n        /* \"#utility.yul\":2911:3024   */\n    tag_67:\n        /* \"#utility.yul\":2998:2999   */\n      0x03\n        /* \"#utility.yul\":2991:2996   */\n      dup2\n        /* \"#utility.yul\":2988:3000   */\n      lt\n        /* \"#utility.yul\":2978:3018   */\n      tag_131\n      jumpi\n        /* \"#utility.yul\":3014:3015   */\n      0x00\n        /* \"#utility.yul\":3011:3012   */\n      0x00\n        /* \"#utility.yul\":3004:3016   */\n      revert\n        /* \"#utility.yul\":2978:3018   */\n    tag_131:\n        /* \"#utility.yul\":2911:3024   */\n      pop\n      jump\t// out\n        /* \"#utility.yul\":3030:3197   */\n    tag_68:\n        /* \"#utility.yul\":3090:3095   */\n      0x00\n        /* \"#utility.yul\":3128:3134   */\n      dup2\n        /* \"#utility.yul\":3115:3135   */\n      calldataload\n        /* \"#utility.yul\":3106:3135   */\n      swap1\n      pop\n        /* \"#utility.yul\":3144:3191   */\n      tag_133\n        /* \"#utility.yul\":3185:3190   */\n      dup2\n        /* \"#utility.yul\":3144:3191   */\n      tag_67\n      jump\t// in\n    tag_133:\n        /* \"#utility.yul\":3030:3197   */\n      swap3\n      swap2\n      pop\n      pop\n      jump\t// out\n        /* \"#utility.yul\":3203:4176   */\n    tag_8:\n        /* \"#utility.yul\":3313:3319   */\n      0x00\n        /* \"#utility.yul\":3321:3327   */\n      0x00\n        /* \"#utility.yul\":3329:3335   */\n      0x00\n        /* \"#utility.yul\":3337:3343   */\n      0x00\n        /* \"#utility.yul\":3386:3389   */\n      0x80\n        /* \"#utility.yul\":3374:3383   */\n      dup6\n        /* \"#utility.yul\":3365:3372   */\n      dup8\n        /* \"#utility.yul\":3361:3384   */\n      sub\n        /* \"#utility.yul\":3357:3390   */\n      slt\n        /* \"#utility.yul\":3354:3474   */\n      iszero\n      tag_135\n      jumpi\n        /* \"#utility.yul\":3393:3472   */\n      tag_136\n      tag_52\n      jump\t// in\n    tag_136:\n        /* \"#utility.yul\":3354:3474   */\n    tag_135:\n        /* \"#utility.yul\":3513:3514   */\n      0x00\n        /* \"#utility.yul\":3538:3591   */\n      tag_137\n        /* \"#utility.yul\":3583:3590   */\n      dup8\n        /* \"#utility.yul\":3574:3580   */\n      dup3\n        /* \"#utility.yul\":3563:3572   */\n      dup9\n        /* \"#utility.yul\":3559:3581   */\n      add\n        /* \"#utility.yul\":3538:3591   */\n      tag_56\n      jump\t// in\n    tag_137:\n        /* \"#utility.yul\":3528:3591   */\n      swap5\n      pop\n        /* \"#utility.yul\":3484:3601   */\n      pop\n        /* \"#utility.yul\":3668:3670   */\n      0x20\n        /* \"#utility.yul\":3657:3666   */\n      dup6\n        /* \"#utility.yul\":3653:3671   */\n      add\n        /* \"#utility.yul\":3640:3672   */\n      calldataload\n        /* \"#utility.yul\":3699:3717   */\n      0xffffffffffffffff\n        /* \"#utility.yul\":3691:3697   */\n      dup2\n        /* \"#utility.yul\":3688:3718   */\n      gt\n        /* \"#utility.yul\":3685:3802   */\n      iszero\n      tag_138\n      jumpi\n        /* \"#utility.yul\":3721:3800   */\n      tag_139\n      tag_53\n      jump\t// in\n    tag_139:\n        /* \"#utility.yul\":3685:3802   */\n    tag_138:\n        /* \"#utility.yul\":3826:3889   */\n      tag_140\n        /* \"#utility.yul\":3881:3888   */\n      dup8\n        /* \"#utility.yul\":3872:3878   */\n      dup3\n        /* \"#utility.yul\":3861:3870   */\n      dup9\n        /* \"#utility.yul\":3857:3879   */\n      add\n        /* \"#utility.yul\":3826:3889   */\n      tag_66\n      jump\t// in\n    tag_140:\n        /* \"#utility.yul\":3816:3889   */\n      swap4\n      pop\n        /* \"#utility.yul\":3611:3899   */\n      pop\n        /* \"#utility.yul\":3938:3940   */\n      0x40\n        /* \"#utility.yul\":3964:4017   */\n      tag_141\n        /* \"#utility.yul\":4009:4016   */\n      dup8\n        /* \"#utility.yul\":4000:4006   */\n      dup3\n        /* \"#utility.yul\":3989:3998   */\n      dup9\n        /* \"#utility.yul\":3985:4007   */\n      add\n        /* \"#utility.yul\":3964:4017   */\n      tag_56\n      jump\t// in\n    tag_141:\n        /* \"#utility.yul\":3954:4017   */\n      swap3\n      pop\n        /* \"#utility.yul\":3909:4027   */\n      pop\n        /* \"#utility.yul\":4066:4068   */\n      0x60\n        /* \"#utility.yul\":4092:4159   */\n      tag_142\n        /* \"#utility.yul\":4151:4158   */\n      dup8\n        /* \"#utility.yul\":4142:4148   */\n      dup3\n        /* \"#utility.yul\":4131:4140   */\n      dup9\n        /* \"#utility.yul\":4127:4149   */\n      add\n        /* \"#utility.yul\":4092:4159   */\n      tag_68\n      jump\t// in\n    tag_142:\n        /* \"#utility.yul\":4082:4159   */\n      swap2\n      pop\n        /* \"#utility.yul\":4037:4169   */\n      pop\n        /* \"#utility.yul\":3203:4176   */\n      swap3\n      swap6\n      swap2\n      swap5\n      pop\n      swap3\n      pop\n      jump\t// out\n        /* \"#utility.yul\":4182:4511   */\n    tag_12:\n        /* \"#utility.yul\":4241:4247   */\n      0x00\n        /* \"#utility.yul\":4290:4292   */\n      0x20\n        /* \"#utility.yul\":4278:4287   */\n      dup3\n        /* \"#utility.yul\":4269:4276   */\n      dup5\n        /* \"#utility.yul\":4265:4288   */\n      sub\n        /* \"#utility.yul\":4261:4293   */\n      slt\n        /* \"#utility.yul\":4258:4377   */\n      iszero\n      tag_144\n      jumpi\n        /* \"#utility.yul\":4296:4375   */\n      tag_145\n      tag_52\n      jump\t// in\n    tag_145:\n        /* \"#utility.yul\":4258:4377   */\n    tag_144:\n        /* \"#utility.yul\":4416:4417   */\n      0x00\n        /* \"#utility.yul\":4441:4494   */\n      tag_146\n        /* \"#utility.yul\":4486:4493   */\n      dup5\n        /* \"#utility.yul\":4477:4483   */\n      dup3\n        /* \"#utility.yul\":4466:4475   */\n      dup6\n        /* \"#utility.yul\":4462:4484   */\n      add\n        /* \"#utility.yul\":4441:4494   */\n      tag_56\n      jump\t// in\n    tag_146:\n        /* \"#utility.yul\":4431:4494   */\n      swap2\n      pop\n        /* \"#utility.yul\":4387:4504   */\n      pop\n        /* \"#utility.yul\":4182:4511   */\n      swap3\n      swap2\n      pop\n      pop\n      jump\t// out\n        /* \"#utility.yul\":4517:4635   */\n    tag_69:\n        /* \"#utility.yul\":4604:4628   */\n      tag_148\n        /* \"#utility.yul\":4622:4627   */\n      dup2\n        /* \"#utility.yul\":4604:4628   */\n      tag_54\n      jump\t// in\n    tag_148:\n        /* \"#utility.yul\":4599:4602   */\n      dup3\n        /* \"#utility.yul\":4592:4629   */\n      mstore\n        /* \"#utility.yul\":4517:4635   */\n      pop\n      pop\n      jump\t// out\n        /* \"#utility.yul\":4641:4740   */\n    tag_70:\n        /* \"#utility.yul\":4693:4699   */\n      0x00\n        /* \"#utility.yul\":4727:4732   */\n      dup2\n        /* \"#utility.yul\":4721:4733   */\n      mload\n        /* \"#utility.yul\":4711:4733   */\n      swap1\n      pop\n        /* \"#utility.yul\":4641:4740   */\n      swap2\n      swap1\n      pop\n      jump\t// out\n        /* \"#utility.yul\":4746:4915   */\n    tag_71:\n        /* \"#utility.yul\":4830:4841   */\n      0x00\n        /* \"#utility.yul\":4864:4870   */\n      dup3\n        /* \"#utility.yul\":4859:4862   */\n      dup3\n        /* \"#utility.yul\":4852:4871   */\n      mstore\n        /* \"#utility.yul\":4904:4908   */\n      0x20\n        /* \"#utility.yul\":4899:4902   */\n      dup3\n        /* \"#utility.yul\":4895:4909   */\n      add\n        /* \"#utility.yul\":4880:4909   */\n      swap1\n      pop\n        /* \"#utility.yul\":4746:4915   */\n      swap3\n      swap2\n      pop\n      pop\n      jump\t// out\n        /* \"#utility.yul\":4921:5060   */\n    tag_72:\n        /* \"#utility.yul\":5010:5016   */\n      dup3\n        /* \"#utility.yul\":5005:5008   */\n      dup2\n        /* \"#utility.yul\":5000:5003   */\n      dup4\n        /* \"#utility.yul\":4994:5017   */\n      mcopy\n        /* \"#utility.yul\":5051:5052   */\n      0x00\n        /* \"#utility.yul\":5042:5048   */\n      dup4\n        /* \"#utility.yul\":5037:5040   */\n      dup4\n        /* \"#utility.yul\":5033:5049   */\n      add\n        /* \"#utility.yul\":5026:5053   */\n      mstore\n        /* \"#utility.yul\":4921:5060   */\n      pop\n      pop\n      pop\n      jump\t// out\n        /* \"#utility.yul\":5066:5443   */\n    tag_73:\n        /* \"#utility.yul\":5154:5157   */\n      0x00\n        /* \"#utility.yul\":5182:5221   */\n      tag_153\n        /* \"#utility.yul\":5215:5220   */\n      dup3\n        /* \"#utility.yul\":5182:5221   */\n      tag_70\n      jump\t// in\n    tag_153:\n        /* \"#utility.yul\":5237:5308   */\n      tag_154\n        /* \"#utility.yul\":5301:5307   */\n      dup2\n        /* \"#utility.yul\":5296:5299   */\n      dup6\n        /* \"#utility.yul\":5237:5308   */\n      tag_71\n      jump\t// in\n    tag_154:\n        /* \"#utility.yul\":5230:5308   */\n      swap4\n      pop\n        /* \"#utility.yul\":5317:5382   */\n      tag_155\n        /* \"#utility.yul\":5375:5381   */\n      dup2\n        /* \"#utility.yul\":5370:5373   */\n      dup6\n        /* \"#utility.yul\":5363:5367   */\n      0x20\n        /* \"#utility.yul\":5356:5361   */\n      dup7\n        /* \"#utility.yul\":5352:5368   */\n      add\n        /* \"#utility.yul\":5317:5382   */\n      tag_72\n      jump\t// in\n    tag_155:\n        /* \"#utility.yul\":5407:5436   */\n      tag_156\n        /* \"#utility.yul\":5429:5435   */\n      dup2\n        /* \"#utility.yul\":5407:5436   */\n      tag_59\n      jump\t// in\n    tag_156:\n        /* \"#utility.yul\":5402:5405   */\n      dup5\n        /* \"#utility.yul\":5398:5437   */\n      add\n        /* \"#utility.yul\":5391:5437   */\n      swap2\n      pop\n        /* \"#utility.yul\":5158:5443   */\n      pop\n        /* \"#utility.yul\":5066:5443   */\n      swap3\n      swap2\n      pop\n      pop\n      jump\t// out\n        /* \"#utility.yul\":5449:5629   */\n    tag_23:\n        /* \"#utility.yul\":5497:5574   */\n      0x4e487b7100000000000000000000000000000000000000000000000000000000\n        /* \"#utility.yul\":5494:5495   */\n      0x00\n        /* \"#utility.yul\":5487:5575   */\n      mstore\n        /* \"#utility.yul\":5594:5598   */\n      0x21\n        /* \"#utility.yul\":5591:5592   */\n      0x04\n        /* \"#utility.yul\":5584:5599   */\n      mstore\n        /* \"#utility.yul\":5618:5622   */\n      0x24\n        /* \"#utility.yul\":5615:5616   */\n      0x00\n        /* \"#utility.yul\":5608:5623   */\n      revert\n        /* \"#utility.yul\":5635:5754   */\n    tag_74:\n        /* \"#utility.yul\":5722:5723   */\n      0x03\n        /* \"#utility.yul\":5715:5720   */\n      dup2\n        /* \"#utility.yul\":5712:5724   */\n      lt\n        /* \"#utility.yul\":5702:5748   */\n      tag_159\n      jumpi\n        /* \"#utility.yul\":5728:5746   */\n      tag_160\n      tag_23\n      jump\t// in\n    tag_160:\n        /* \"#utility.yul\":5702:5748   */\n    tag_159:\n        /* \"#utility.yul\":5635:5754   */\n      pop\n      jump\t// out\n        /* \"#utility.yul\":5760:5899   */\n    tag_75:\n        /* \"#utility.yul\":5811:5818   */\n      0x00\n        /* \"#utility.yul\":5840:5845   */\n      dup2\n        /* \"#utility.yul\":5829:5845   */\n      swap1\n      pop\n        /* \"#utility.yul\":5846:5893   */\n      tag_162\n        /* \"#utility.yul\":5887:5892   */\n      dup3\n        /* \"#utility.yul\":5846:5893   */\n      tag_74\n      jump\t// in\n    tag_162:\n        /* \"#utility.yul\":5760:5899   */\n      swap2\n      swap1\n      pop\n      jump\t// out\n        /* \"#utility.yul\":5905:6044   */\n    tag_76:\n        /* \"#utility.yul\":5967:5976   */\n      0x00\n        /* \"#utility.yul\":6000:6038   */\n      tag_164\n        /* \"#utility.yul\":6032:6037   */\n      dup3\n        /* \"#utility.yul\":6000:6038   */\n      tag_75\n      jump\t// in\n    tag_164:\n        /* \"#utility.yul\":5987:6038   */\n      swap1\n      pop\n        /* \"#utility.yul\":5905:6044   */\n      swap2\n      swap1\n      pop\n      jump\t// out\n        /* \"#utility.yul\":6050:6205   */\n    tag_77:\n        /* \"#utility.yul\":6149:6198   */\n      tag_166\n        /* \"#utility.yul\":6192:6197   */\n      dup2\n        /* \"#utility.yul\":6149:6198   */\n      tag_76\n      jump\t// in\n    tag_166:\n        /* \"#utility.yul\":6144:6147   */\n      dup3\n        /* \"#utility.yul\":6137:6199   */\n      mstore\n        /* \"#utility.yul\":6050:6205   */\n      pop\n      pop\n      jump\t// out\n        /* \"#utility.yul\":6211:6879   */\n    tag_15:\n        /* \"#utility.yul\":6420:6424   */\n      0x00\n        /* \"#utility.yul\":6458:6461   */\n      0x80\n        /* \"#utility.yul\":6447:6456   */\n      dup3\n        /* \"#utility.yul\":6443:6462   */\n      add\n        /* \"#utility.yul\":6435:6462   */\n      swap1\n      pop\n        /* \"#utility.yul\":6472:6543   */\n      tag_168\n        /* \"#utility.yul\":6540:6541   */\n      0x00\n        /* \"#utility.yul\":6529:6538   */\n      dup4\n        /* \"#utility.yul\":6525:6542   */\n      add\n        /* \"#utility.yul\":6516:6522   */\n      dup8\n        /* \"#utility.yul\":6472:6543   */\n      tag_69\n      jump\t// in\n    tag_168:\n        /* \"#utility.yul\":6590:6599   */\n      dup2\n        /* \"#utility.yul\":6584:6588   */\n      dup2\n        /* \"#utility.yul\":6580:6600   */\n      sub\n        /* \"#utility.yul\":6575:6577   */\n      0x20\n        /* \"#utility.yul\":6564:6573   */\n      dup4\n        /* \"#utility.yul\":6560:6578   */\n      add\n        /* \"#utility.yul\":6553:6601   */\n      mstore\n        /* \"#utility.yul\":6618:6696   */\n      tag_169\n        /* \"#utility.yul\":6691:6695   */\n      dup2\n        /* \"#utility.yul\":6682:6688   */\n      dup7\n        /* \"#utility.yul\":6618:6696   */\n      tag_73\n      jump\t// in\n    tag_169:\n        /* \"#utility.yul\":6610:6696   */\n      swap1\n      pop\n        /* \"#utility.yul\":6706:6778   */\n      tag_170\n        /* \"#utility.yul\":6774:6776   */\n      0x40\n        /* \"#utility.yul\":6763:6772   */\n      dup4\n        /* \"#utility.yul\":6759:6777   */\n      add\n        /* \"#utility.yul\":6750:6756   */\n      dup6\n        /* \"#utility.yul\":6706:6778   */\n      tag_69\n      jump\t// in\n    tag_170:\n        /* \"#utility.yul\":6788:6872   */\n      tag_171\n        /* \"#utility.yul\":6868:6870   */\n      0x60\n        /* \"#utility.yul\":6857:6866   */\n      dup4\n        /* \"#utility.yul\":6853:6871   */\n      add\n        /* \"#utility.yul\":6844:6850   */\n      dup5\n        /* \"#utility.yul\":6788:6872   */\n      tag_77\n      jump\t// in\n    tag_171:\n        /* \"#utility.yul\":6211:6879   */\n      swap6\n      swap5\n      pop\n      pop\n      pop\n      pop\n      pop\n      jump\t// out\n        /* \"#utility.yul\":6885:7065   */\n    tag_78:\n        /* \"#utility.yul\":6933:7010   */\n      0x4e487b7100000000000000000000000000000000000000000000000000000000\n        /* \"#utility.yul\":6930:6931   */\n      0x00\n        /* \"#utility.yul\":6923:7011   */\n      mstore\n        /* \"#utility.yul\":7030:7034   */\n      0x22\n        /* \"#utility.yul\":7027:7028   */\n      0x04\n        /* \"#utility.yul\":7020:7035   */\n      mstore\n        /* \"#utility.yul\":7054:7058   */\n      0x24\n        /* \"#utility.yul\":7051:7052   */\n      0x00\n        /* \"#utility.yul\":7044:7059   */\n      revert\n        /* \"#utility.yul\":7071:7391   */\n    tag_32:\n        /* \"#utility.yul\":7115:7121   */\n      0x00\n        /* \"#utility.yul\":7152:7153   */\n      0x02\n        /* \"#utility.yul\":7146:7150   */\n      dup3\n        /* \"#utility.yul\":7142:7154   */\n      div\n        /* \"#utility.yul\":7132:7154   */\n      swap1\n      pop\n        /* \"#utility.yul\":7199:7200   */\n      0x01\n        /* \"#utility.yul\":7193:7197   */\n      dup3\n        /* \"#utility.yul\":7189:7201   */\n      and\n        /* \"#utility.yul\":7220:7238   */\n      dup1\n        /* \"#utility.yul\":7210:7291   */\n      tag_174\n      jumpi\n        /* \"#utility.yul\":7276:7280   */\n      0x7f\n        /* \"#utility.yul\":7268:7274   */\n      dup3\n        /* \"#utility.yul\":7264:7281   */\n      and\n        /* \"#utility.yul\":7254:7281   */\n      swap2\n      pop\n        /* \"#utility.yul\":7210:7291   */\n    tag_174:\n        /* \"#utility.yul\":7338:7340   */\n      0x20\n        /* \"#utility.yul\":7330:7336   */\n      dup3\n        /* \"#utility.yul\":7327:7341   */\n      lt\n        /* \"#utility.yul\":7307:7325   */\n      dup2\n        /* \"#utility.yul\":7304:7342   */\n      sub\n        /* \"#utility.yul\":7301:7385   */\n      tag_175\n      jumpi\n        /* \"#utility.yul\":7357:7375   */\n      tag_176\n      tag_78\n      jump\t// in\n    tag_176:\n        /* \"#utility.yul\":7301:7385   */\n    tag_175:\n        /* \"#utility.yul\":7122:7391   */\n      pop\n        /* \"#utility.yul\":7071:7391   */\n      swap2\n      swap1\n      pop\n      jump\t// out\n        /* \"#utility.yul\":7397:7538   */\n    tag_79:\n        /* \"#utility.yul\":7446:7450   */\n      0x00\n        /* \"#utility.yul\":7469:7472   */\n      dup2\n        /* \"#utility.yul\":7461:7472   */\n      swap1\n      pop\n        /* \"#utility.yul\":7492:7495   */\n      dup2\n        /* \"#utility.yul\":7489:7490   */\n      0x00\n        /* \"#utility.yul\":7482:7496   */\n      mstore\n        /* \"#utility.yul\":7526:7530   */\n      0x20\n        /* \"#utility.yul\":7523:7524   */\n      0x00\n        /* \"#utility.yul\":7513:7531   */\n      keccak256\n        /* \"#utility.yul\":7505:7531   */\n      swap1\n      pop\n        /* \"#utility.yul\":7397:7538   */\n      swap2\n      swap1\n      pop\n      jump\t// out\n        /* \"#utility.yul\":7544:7637   */\n    tag_80:\n        /* \"#utility.yul\":7581:7587   */\n      0x00\n        /* \"#utility.yul\":7628:7630   */\n      0x20\n        /* \"#utility.yul\":7623:7625   */\n      0x1f\n        /* \"#utility.yul\":7616:7621   */\n      dup4\n        /* \"#utility.yul\":7612:7626   */\n      add\n        /* \"#utility.yul\":7608:7631   */\n      div\n        /* \"#utility.yul\":7598:7631   */\n      swap1\n      pop\n        /* \"#utility.yul\":7544:7637   */\n      swap2\n      swap1\n      pop\n      jump\t// out\n        /* \"#utility.yul\":7643:7750   */\n    tag_81:\n        /* \"#utility.yul\":7687:7695   */\n      0x00\n        /* \"#utility.yul\":7737:7742   */\n      dup3\n        /* \"#utility.yul\":7731:7735   */\n      dup3\n        /* \"#utility.yul\":7727:7743   */\n      shl\n        /* \"#utility.yul\":7706:7743   */\n      swap1\n      pop\n        /* \"#utility.yul\":7643:7750   */\n      swap3\n      swap2\n      pop\n      pop\n      jump\t// out\n        /* \"#utility.yul\":7756:8149   */\n    tag_82:\n        /* \"#utility.yul\":7825:7831   */\n      0x00\n        /* \"#utility.yul\":7875:7876   */\n      0x08\n        /* \"#utility.yul\":7863:7873   */\n      dup4\n        /* \"#utility.yul\":7859:7877   */\n      mul\n        /* \"#utility.yul\":7898:7995   */\n      tag_181\n        /* \"#utility.yul\":7928:7994   */\n      0xffffffffffffffffffffffffffffffffffffffffffffffffffffffffffffffff\n        /* \"#utility.yul\":7917:7926   */\n      dup3\n        /* \"#utility.yul\":7898:7995   */\n      tag_81\n      jump\t// in\n    tag_181:\n        /* \"#utility.yul\":8016:8055   */\n      tag_182\n        /* \"#utility.yul\":8046:8054   */\n      dup7\n        /* \"#utility.yul\":8035:8044   */\n      dup4\n        /* \"#utility.yul\":8016:8055   */\n      tag_81\n      jump\t// in\n    tag_182:\n        /* \"#utility.yul\":8004:8055   */\n      swap6\n      pop\n        /* \"#utility.yul\":8088:8092   */\n      dup1\n        /* \"#utility.yul\":8084:8093   */\n      not\n        /* \"#utility.yul\":8077:8082   */\n      dup5\n        /* \"#utility.yul\":8073:8094   */\n      and\n        /* \"#utility.yul\":8064:8094   */\n      swap4\n      pop\n        /* \"#utility.yul\":8137:8141   */\n      dup1\n        /* \"#utility.yul\":8127:8135   */\n      dup7\n        /* \"#utility.yul\":8123:8142   */\n      and\n        /* \"#utility.yul\":8116:8121   */\n      dup5\n        /* \"#utility.yul\":8113:8143   */\n      or\n        /* \"#utility.yul\":8103:8143   */\n      swap3\n      pop\n        /* \"#utility.yul\":7832:8149   */\n      pop\n      pop\n        /* \"#utility.yul\":7756:8149   */\n      swap4\n      swap3\n      pop\n      pop\n      pop\n      jump\t// out\n        /* \"#utility.yul\":8155:8215   */\n    tag_83:\n        /* \"#utility.yul\":8183:8186   */\n      0x00\n        /* \"#utility.yul\":8204:8209   */\n      dup2\n        /* \"#utility.yul\":8197:8209   */\n      swap1\n      pop\n        /* \"#utility.yul\":8155:8215   */\n      swap2\n      swap1\n      pop\n      jump\t// out\n        /* \"#utility.yul\":8221:8363   */\n    tag_84:\n        /* \"#utility.yul\":8271:8280   */\n      0x00\n        /* \"#utility.yul\":8304:8357   */\n      tag_185\n        /* \"#utility.yul\":8322:8356   */\n      tag_186\n        /* \"#utility.yul\":8331:8355   */\n      tag_187\n        /* \"#utility.yul\":8349:8354   */\n      dup5\n        /* \"#utility.yul\":8331:8355   */\n      tag_54\n      jump\t// in\n    tag_187:\n        /* \"#utility.yul\":8322:8356   */\n      tag_83\n      jump\t// in\n    tag_186:\n        /* \"#utility.yul\":8304:8357   */\n      tag_54\n      jump\t// in\n    tag_185:\n        /* \"#utility.yul\":8291:8357   */\n      swap1\n      pop\n        /* \"#utility.yul\":8221:8363   */\n      swap2\n      swap1\n      pop\n      jump\t// out\n        /* \"#utility.yul\":8369:8444   */\n    tag_85:\n        /* \"#utility.yul\":8412:8415   */\n      0x00\n        /* \"#utility.yul\":8433:8438   */\n      dup2\n        /* \"#utility.yul\":8426:8438   */\n      swap1\n      pop\n        /* \"#utility.yul\":8369:8444   */\n      swap2\n      swap1\n      pop\n      jump\t// out\n        /* \"#utility.yul\":8450:8719   */\n    tag_86:\n        /* \"#utility.yul\":8560:8599   */\n      tag_190\n        /* \"#utility.yul\":8591:8598   */\n      dup4\n        /* \"#utility.yul\":8560:8599   */\n      tag_84\n      jump\t// in\n    tag_190:\n        /* \"#utility.yul\":8621:8712   */\n      tag_191\n        /* \"#utility.yul\":8670:8711   */\n      tag_192\n        /* \"#utility.yul\":8694:8710   */\n      dup3\n        /* \"#utility.yul\":8670:8711   */\n      tag_85\n      jump\t// in\n    tag_192:\n        /* \"#utility.yul\":8662:8668   */\n      dup5\n        /* \"#utility.yul\":8655:8659   */\n      dup5\n        /* \"#utility.yul\":8649:8660   */\n      sload\n        /* \"#utility.yul\":8621:8712   */\n      tag_82\n      jump\t// in\n    tag_191:\n        /* \"#utility.yul\":8615:8619   */\n      dup3\n        /* \"#utility.yul\":8608:8713   */\n      sstore\n        /* \"#utility.yul\":8526:8719   */\n      pop\n        /* \"#utility.yul\":8450:8719   */\n      pop\n      pop\n      pop\n      jump\t// out\n        /* \"#utility.yul\":8725:8798   */\n    tag_87:\n        /* \"#utility.yul\":8770:8773   */\n      0x00\n        /* \"#utility.yul\":8791:8792   */\n      0x00\n        /* \"#utility.yul\":8784:8792   */\n      swap1\n      pop\n        /* \"#utility.yul\":8725:8798   */\n      swap1\n      jump\t// out\n        /* \"#utility.yul\":8804:8993   */\n    tag_88:\n        /* \"#utility.yul\":8881:8913   */\n      tag_195\n      tag_87\n      jump\t// in\n    tag_195:\n        /* \"#utility.yul\":8922:8987   */\n      tag_196\n        /* \"#utility.yul\":8980:8986   */\n      dup2\n        /* \"#utility.yul\":8972:8978   */\n      dup5\n        /* \"#utility.yul\":8966:8970   */\n      dup5\n        /* \"#utility.yul\":8922:8987   */\n      tag_86\n      jump\t// in\n    tag_196:\n        /* \"#utility.yul\":8857:8993   */\n      pop\n        /* \"#utility.yul\":8804:8993   */\n      pop\n      pop\n      jump\t// out\n        /* \"#utility.yul\":8999:9185   */\n    tag_89:\n        /* \"#utility.yul\":9059:9179   */\n    tag_198:\n        /* \"#utility.yul\":9076:9079   */\n      dup2\n        /* \"#utility.yul\":9069:9074   */\n      dup2\n        /* \"#utility.yul\":9066:9080   */\n      lt\n        /* \"#utility.yul\":9059:9179   */\n      iszero\n      tag_200\n      jumpi\n        /* \"#utility.yul\":9130:9169   */\n      tag_201\n        /* \"#utility.yul\":9167:9168   */\n      0x00\n        /* \"#utility.yul\":9160:9165   */\n      dup3\n        /* \"#utility.yul\":9130:9169   */\n      tag_88\n      jump\t// in\n    tag_201:\n        /* \"#utility.yul\":9103:9104   */\n      0x01\n        /* \"#utility.yul\":9096:9101   */\n      dup2\n        /* \"#utility.yul\":9092:9105   */\n      add\n        /* \"#utility.yul\":9083:9105   */\n      swap1\n      pop\n        /* \"#utility.yul\":9059:9179   */\n      jump(tag_198)\n    tag_200:\n        /* \"#utility.yul\":8999:9185   */\n      pop\n      pop\n      jump\t// out\n        /* \"#utility.yul\":9191:9734   */\n    tag_90:\n        /* \"#utility.yul\":9292:9294   */\n      0x1f\n        /* \"#utility.yul\":9287:9290   */\n      dup3\n        /* \"#utility.yul\":9284:9295   */\n      gt\n        /* \"#utility.yul\":9281:9727   */\n      iszero\n      tag_203\n      jumpi\n        /* \"#utility.yul\":9326:9364   */\n      tag_204\n        /* \"#utility.yul\":9358:9363   */\n      dup2\n        /* \"#utility.yul\":9326:9364   */\n      tag_79\n      jump\t// in\n    tag_204:\n        /* \"#utility.yul\":9410:9439   */\n      tag_205\n        /* \"#utility.yul\":9428:9438   */\n      dup5\n        /* \"#utility.yul\":9410:9439   */\n      tag_80\n      jump\t// in\n    tag_205:\n        /* \"#utility.yul\":9400:9408   */\n      dup2\n        /* \"#utility.yul\":9396:9440   */\n      add\n        /* \"#utility.yul\":9593:9595   */\n      0x20\n        /* \"#utility.yul\":9581:9591   */\n      dup6\n        /* \"#utility.yul\":9578:9596   */\n      lt\n        /* \"#utility.yul\":9575:9624   */\n      iszero\n      tag_206\n      jumpi\n        /* \"#utility.yul\":9614:9622   */\n      dup2\n        /* \"#utility.yul\":9599:9622   */\n      swap1\n      pop\n        /* \"#utility.yul\":9575:9624   */\n    tag_206:\n        /* \"#utility.yul\":9637:9717   */\n      tag_207\n        /* \"#utility.yul\":9693:9715   */\n      tag_208\n        /* \"#utility.yul\":9711:9714   */\n      dup6\n        /* \"#utility.yul\":9693:9715   */\n      tag_80\n      jump\t// in\n    tag_208:\n        /* \"#utility.yul\":9683:9691   */\n      dup4\n        /* \"#utility.yul\":9679:9716   */\n      add\n        /* \"#utility.yul\":9666:9677   */\n      dup3\n        /* \"#utility.yul\":9637:9717   */\n      tag_89\n      jump\t// in\n    tag_207:\n        /* \"#utility.yul\":9296:9727   */\n      pop\n      pop\n        /* \"#utility.yul\":9281:9727   */\n    tag_203:\n        /* \"#utility.yul\":9191:9734   */\n      pop\n      pop\n      pop\n      jump\t// out\n        /* \"#utility.yul\":9740:9857   */\n    tag_91:\n        /* \"#utility.yul\":9794:9802   */\n      0x00\n        /* \"#utility.yul\":9844:9849   */\n      dup3\n        /* \"#utility.yul\":9838:9842   */\n      dup3\n        /* \"#utility.yul\":9834:9850   */\n      shr\n        /* \"#utility.yul\":9813:9850   */\n      swap1\n      pop\n        /* \"#utility.yul\":9740:9857   */\n      swap3\n      swap2\n      pop\n      pop\n      jump\t// out\n        /* \"#utility.yul\":9863:10032   */\n    tag_92:\n        /* \"#utility.yul\":9907:9913   */\n      0x00\n        /* \"#utility.yul\":9940:9991   */\n      tag_211\n        /* \"#utility.yul\":9988:9989   */\n      0x00\n        /* \"#utility.yul\":9984:9990   */\n      not\n        /* \"#utility.yul\":9976:9981   */\n      dup5\n        /* \"#utility.yul\":9973:9974   */\n      0x08\n        /* \"#utility.yul\":9969:9982   */\n      mul\n        /* \"#utility.yul\":9940:9991   */\n      tag_91\n      jump\t// in\n    tag_211:\n        /* \"#utility.yul\":9936:9992   */\n      not\n        /* \"#utility.yul\":10021:10025   */\n      dup1\n        /* \"#utility.yul\":10015:10019   */\n      dup4\n        /* \"#utility.yul\":10011:10026   */\n      and\n        /* \"#utility.yul\":10001:10026   */\n      swap2\n      pop\n        /* \"#utility.yul\":9914:10032   */\n      pop\n        /* \"#utility.yul\":9863:10032   */\n      swap3\n      swap2\n      pop\n      pop\n      jump\t// out\n        /* \"#utility.yul\":10037:10332   */\n    tag_93:\n        /* \"#utility.yul\":10113:10117   */\n      0x00\n        /* \"#utility.yul\":10259:10288   */\n      tag_213\n        /* \"#utility.yul\":10284:10287   */\n      dup4\n        /* \"#utility.yul\":10278:10282   */\n      dup4\n        /* \"#utility.yul\":10259:10288   */\n      tag_92\n      jump\t// in\n    tag_213:\n        /* \"#utility.yul\":10251:10288   */\n      swap2\n      pop\n        /* \"#utility.yul\":10321:10324   */\n      dup3\n        /* \"#utility.yul\":10318:10319   */\n      0x02\n        /* \"#utility.yul\":10314:10325   */\n      mul\n        /* \"#utility.yul\":10308:10312   */\n      dup3\n        /* \"#utility.yul\":10305:10326   */\n      or\n        /* \"#utility.yul\":10297:10326   */\n      swap1\n      pop\n        /* \"#utility.yul\":10037:10332   */\n      swap3\n      swap2\n      pop\n      pop\n      jump\t// out\n        /* \"#utility.yul\":10337:11732   */\n    tag_26:\n        /* \"#utility.yul\":10454:10491   */\n      tag_215\n        /* \"#utility.yul\":10487:10490   */\n      dup3\n        /* \"#utility.yul\":10454:10491   */\n      tag_70\n      jump\t// in\n    tag_215:\n        /* \"#utility.yul\":10556:10574   */\n      0xffffffffffffffff\n        /* \"#utility.yul\":10548:10554   */\n      dup2\n        /* \"#utility.yul\":10545:10575   */\n      gt\n        /* \"#utility.yul\":10542:10598   */\n      iszero\n      tag_216\n      jumpi\n        /* \"#utility.yul\":10578:10596   */\n      tag_217\n      tag_60\n      jump\t// in\n    tag_217:\n        /* \"#utility.yul\":10542:10598   */\n    tag_216:\n        /* \"#utility.yul\":10622:10660   */\n      tag_218\n        /* \"#utility.yul\":10654:10658   */\n      dup3\n        /* \"#utility.yul\":10648:10659   */\n      sload\n        /* \"#utility.yul\":10622:10660   */\n      tag_32\n      jump\t// in\n    tag_218:\n        /* \"#utility.yul\":10707:10774   */\n      tag_219\n        /* \"#utility.yul\":10767:10773   */\n      dup3\n        /* \"#utility.yul\":10759:10765   */\n      dup3\n        /* \"#utility.yul\":10753:10757   */\n      dup6\n        /* \"#utility.yul\":10707:10774   */\n      tag_90\n      jump\t// in\n    tag_219:\n        /* \"#utility.yul\":10801:10802   */\n      0x00\n        /* \"#utility.yul\":10825:10829   */\n      0x20\n        /* \"#utility.yul\":10812:10829   */\n      swap1\n      pop\n        /* \"#utility.yul\":10857:10859   */\n      0x1f\n        /* \"#utility.yul\":10849:10855   */\n      dup4\n        /* \"#utility.yul\":10846:10860   */\n      gt\n        /* \"#utility.yul\":10874:10875   */\n      0x01\n        /* \"#utility.yul\":10869:11487   */\n      dup2\n      eq\n      tag_221\n      jumpi\n        /* \"#utility.yul\":11531:11532   */\n      0x00\n        /* \"#utility.yul\":11548:11554   */\n      dup5\n        /* \"#utility.yul\":11545:11622   */\n      iszero\n      tag_222\n      jumpi\n        /* \"#utility.yul\":11597:11606   */\n      dup3\n        /* \"#utility.yul\":11592:11595   */\n      dup8\n        /* \"#utility.yul\":11588:11607   */\n      add\n        /* \"#utility.yul\":11582:11608   */\n      mload\n        /* \"#utility.yul\":11573:11608   */\n      swap1\n      pop\n        /* \"#utility.yul\":11545:11622   */\n    tag_222:\n        /* \"#utility.yul\":11648:11715   */\n      tag_223\n        /* \"#utility.yul\":11708:11714   */\n      dup6\n        /* \"#utility.yul\":11701:11706   */\n      dup3\n        /* \"#utility.yul\":11648:11715   */\n      tag_93\n      jump\t// in\n    tag_223:\n        /* \"#utility.yul\":11642:11646   */\n      dup7\n        /* \"#utility.yul\":11635:11716   */\n      sstore\n        /* \"#utility.yul\":11504:11726   */\n      pop\n        /* \"#utility.yul\":10839:11726   */\n      jump(tag_220)\n        /* \"#utility.yul\":10869:11487   */\n    tag_221:\n        /* \"#utility.yul\":10921:10925   */\n      0x1f\n        /* \"#utility.yul\":10917:10926   */\n      not\n        /* \"#utility.yul\":10909:10915   */\n      dup5\n        /* \"#utility.yul\":10905:10927   */\n      and\n        /* \"#utility.yul\":10955:10992   */\n      tag_224\n        /* \"#utility.yul\":10987:10991   */\n      dup7\n        /* \"#utility.yul\":10955:10992   */\n      tag_79\n      jump\t// in\n    tag_224:\n        /* \"#utility.yul\":11014:11015   */\n      0x00\n        /* \"#utility.yul\":11028:11236   */\n    tag_225:\n        /* \"#utility.yul\":11042:11049   */\n      dup3\n        /* \"#utility.yul\":11039:11040   */\n      dup2\n        /* \"#utility.yul\":11036:11050   */\n      lt\n        /* \"#utility.yul\":11028:11236   */\n      iszero\n      tag_227\n      jumpi\n        /* \"#utility.yul\":11121:11130   */\n      dup5\n        /* \"#utility.yul\":11116:11119   */\n      dup10\n        /* \"#utility.yul\":11112:11131   */\n      add\n        /* \"#utility.yul\":11106:11132   */\n      mload\n        /* \"#utility.yul\":11098:11104   */\n      dup3\n        /* \"#utility.yul\":11091:11133   */\n      sstore\n        /* \"#utility.yul\":11172:11173   */\n      0x01\n        /* \"#utility.yul\":11164:11170   */\n      dup3\n        /* \"#utility.yul\":11160:11174   */\n      add\n        /* \"#utility.yul\":11150:11174   */\n      swap2\n      pop\n        /* \"#utility.yul\":11219:11221   */\n      0x20\n        /* \"#utility.yul\":11208:11217   */\n      dup6\n        /* \"#utility.yul\":11204:11222   */\n      add\n        /* \"#utility.yul\":11191:11222   */\n      swap5\n      pop\n        /* \"#utility.yul\":11065:11069   */\n      0x20\n        /* \"#utility.yul\":11062:11063   */\n      dup2\n        /* \"#utility.yul\":11058:11070   */\n      add\n        /* \"#utility.yul\":11053:11070   */\n      swap1\n      pop\n        /* \"#utility.yul\":11028:11236   */\n      jump(tag_225)\n    tag_227:\n        /* \"#utility.yul\":11264:11270   */\n      dup7\n        /* \"#utility.yul\":11255:11262   */\n      dup4\n        /* \"#utility.yul\":11252:11271   */\n      lt\n        /* \"#utility.yul\":11249:11428   */\n      iszero\n      tag_228\n      jumpi\n        /* \"#utility.yul\":11322:11331   */\n      dup5\n        /* \"#utility.yul\":11317:11320   */\n      dup10\n        /* \"#utility.yul\":11313:11332   */\n      add\n        /* \"#utility.yul\":11307:11333   */\n      mload\n        /* \"#utility.yul\":11365:11413   */\n      tag_229\n        /* \"#utility.yul\":11407:11411   */\n      0x1f\n        /* \"#utility.yul\":11399:11405   */\n      dup10\n        /* \"#utility.yul\":11395:11412   */\n      and\n        /* \"#utility.yul\":11384:11393   */\n      dup3\n        /* \"#utility.yul\":11365:11413   */\n      tag_92\n      jump\t// in\n    tag_229:\n        /* \"#utility.yul\":11357:11363   */\n      dup4\n        /* \"#utility.yul\":11350:11414   */\n      sstore\n        /* \"#utility.yul\":11272:11428   */\n      pop\n        /* \"#utility.yul\":11249:11428   */\n    tag_228:\n        /* \"#utility.yul\":11474:11475   */\n      0x01\n        /* \"#utility.yul\":11470:11471   */\n      0x02\n        /* \"#utility.yul\":11462:11468   */\n      dup9\n        /* \"#utility.yul\":11458:11472   */\n      mul\n        /* \"#utility.yul\":11454:11476   */\n      add\n        /* \"#utility.yul\":11448:11452   */\n      dup9\n        /* \"#utility.yul\":11441:11477   */\n      sstore\n        /* \"#utility.yul\":10876:11487   */\n      pop\n      pop\n      pop\n        /* \"#utility.yul\":10839:11726   */\n    tag_220:\n      pop\n        /* \"#utility.yul\":10429:11732   */\n      pop\n      pop\n      pop\n        /* \"#utility.yul\":10337:11732   */\n      pop\n      pop\n      jump\t// out\n        /* \"#utility.yul\":11738:11918   */\n    tag_40:\n        /* \"#utility.yul\":11786:11863   */\n      0x4e487b7100000000000000000000000000000000000000000000000000000000\n        /* \"#utility.yul\":11783:11784   */\n      0x00\n        /* \"#utility.yul\":11776:11864   */\n      mstore\n        /* \"#utility.yul\":11883:11887   */\n      0x32\n        /* \"#utility.yul\":11880:11881   */\n      0x04\n        /* \"#utility.yul\":11873:11888   */\n      mstore\n        /* \"#utility.yul\":11907:11911   */\n      0x24\n        /* \"#utility.yul\":11904:11905   */\n      0x00\n        /* \"#utility.yul\":11897:11912   */\n      revert\n\n    auxdata: 0xa2646970667358221220268ccfc3be3403aa3ea4ccc7a66c0dcf16df9faa97d3078d76c5647ceaf9a3bd64736f6c634300081f0033\n}\n",
				"bytecode": {
					"linkReferences": {},
					"object": "6080604052348015600e575f5ffd5b50610a258061001c5f395ff3fe608060405234801561000f575f5ffd5b506004361061003f575f3560e01c80630450f0b41461004357806306ead22e1461005f578063642f916314610092575b5f5ffd5b61005d6004803603810190610058919061051f565b6100c5565b005b6100796004803603810190610074919061059f565b61017e565b60405161008994939291906106ac565b60405180910390f35b6100ac60048036038101906100a7919061059f565b61024a565b6040516100bc94939291906106ac565b60405180910390f35b5f60405180608001604052808681526020018581526020018481526020018360028111156100f6576100f5610639565b5b815250908060018154018082558091505060019003905f5260205f2090600402015f909190919091505f820151815f0155602082015181600101908161013c91906108f3565b50604082015181600201556060820151816003015f6101000a81548160ff0219169083600281111561017157610170610639565b5b0217905550505050505050565b5f818154811061018c575f80fd5b905f5260205f2090600402015f91509050805f0154908060010180546101b190610723565b80601f01602080910402602001604051908101604052809291908181526020018280546101dd90610723565b80156102285780601f106101ff57610100808354040283529160200191610228565b820191905f5260205f20905b81548152906001019060200180831161020b57829003601f168201915b505050505090806002015490806003015f9054906101000a900460ff16905084565b5f60605f5f5f5f8681548110610263576102626109c2565b5b905f5260205f2090600402016040518060800160405290815f820154815260200160018201805461029390610723565b80601f01602080910402602001604051908101604052809291908181526020018280546102bf90610723565b801561030a5780601f106102e15761010080835404028352916020019161030a565b820191905f5260205f20905b8154815290600101906020018083116102ed57829003601f168201915b5050505050815260200160028201548152602001600382015f9054906101000a900460ff16600281111561034157610340610639565b5b600281111561035357610352610639565b5b815250509050805f01518160200151826040015183606001519450945094509450509193509193565b5f604051905090565b5f5ffd5b5f5ffd5b5f819050919050565b61039f8161038d565b81146103a9575f5ffd5b50565b5f813590506103ba81610396565b92915050565b5f5ffd5b5f5ffd5b5f601f19601f8301169050919050565b7f4e487b71000000000000000000000000000000000000000000000000000000005f52604160045260245ffd5b61040e826103c8565b810181811067ffffffffffffffff8211171561042d5761042c6103d8565b5b80604052505050565b5f61043f61037c565b905061044b8282610405565b919050565b5f67ffffffffffffffff82111561046a576104696103d8565b5b610473826103c8565b9050602081019050919050565b828183375f83830152505050565b5f6104a061049b84610450565b610436565b9050828152602081018484840111156104bc576104bb6103c4565b5b6104c7848285610480565b509392505050565b5f82601f8301126104e3576104e26103c0565b5b81356104f384826020860161048e565b91505092915050565b60038110610508575f5ffd5b50565b5f81359050610519816104fc565b92915050565b5f5f5f5f6080858703121561053757610536610385565b5b5f610544878288016103ac565b945050602085013567ffffffffffffffff81111561056557610564610389565b5b610571878288016104cf565b9350506040610582878288016103ac565b92505060606105938782880161050b565b91505092959194509250565b5f602082840312156105b4576105b3610385565b5b5f6105c1848285016103ac565b91505092915050565b6105d38161038d565b82525050565b5f81519050919050565b5f82825260208201905092915050565b8281835e5f83830152505050565b5f61060b826105d9565b61061581856105e3565b93506106258185602086016105f3565b61062e816103c8565b840191505092915050565b7f4e487b71000000000000000000000000000000000000000000000000000000005f52602160045260245ffd5b6003811061067757610676610639565b5b50565b5f81905061068782610666565b919050565b5f6106968261067a565b9050919050565b6106a68161068c565b82525050565b5f6080820190506106bf5f8301876105ca565b81810360208301526106d18186610601565b90506106e060408301856105ca565b6106ed606083018461069d565b95945050505050565b7f4e487b71000000000000000000000000000000000000000000000000000000005f52602260045260245ffd5b5f600282049050600182168061073a57607f821691505b60208210810361074d5761074c6106f6565b5b50919050565b5f819050815f5260205f209050919050565b5f6020601f8301049050919050565b5f82821b905092915050565b5f600883026107af7fffffffffffffffffffffffffffffffffffffffffffffffffffffffffffffffff82610774565b6107b98683610774565b95508019841693508086168417925050509392505050565b5f819050919050565b5f6107f46107ef6107ea8461038d565b6107d1565b61038d565b9050919050565b5f819050919050565b61080d836107da565b610821610819826107fb565b848454610780565b825550505050565b5f5f905090565b610838610829565b610843818484610804565b505050565b5b818110156108665761085b5f82610830565b600181019050610849565b5050565b601f8211156108ab5761087c81610753565b61088584610765565b81016020851015610894578190505b6108a86108a085610765565b830182610848565b50505b505050565b5f82821c905092915050565b5f6108cb5f19846008026108b0565b1980831691505092915050565b5f6108e383836108bc565b9150826002028217905092915050565b6108fc826105d9565b67ffffffffffffffff811115610915576109146103d8565b5b61091f8254610723565b61092a82828561086a565b5f60209050601f83116001811461095b575f8415610949578287015190505b61095385826108d8565b8655506109ba565b601f19841661096986610753565b5f5b828110156109905784890151825560018201915060208501945060208101905061096b565b868310156109ad57848901516109a9601f8916826108bc565b8355505b6001600288020188555050505b505050505050565b7f4e487b71000000000000000000000000000000000000000000000000000000005f52603260045260245ffdfea2646970667358221220268ccfc3be3403aa3ea4ccc7a66c0dcf16df9faa97d3078d76c5647ceaf9a3bd64736f6c634300081f0033",
					"opcodes": "PUSH1 0x80 PUSH1 0x40 MSTORE CALLVALUE DUP1 ISZERO PUSH1 0xE JUMPI PUSH0 PUSH0 REVERT JUMPDEST POP PUSH2 0xA25 DUP1 PUSH2 0x1C PUSH0 CODECOPY PUSH0 RETURN INVALID PUSH1 0x80 PUSH1 0x40 MSTORE CALLVALUE DUP1 ISZERO PUSH2 0xF JUMPI PUSH0 PUSH0 REVERT JUMPDEST POP PUSH1 0x4 CALLDATASIZE LT PUSH2 0x3F JUMPI PUSH0 CALLDATALOAD PUSH1 0xE0 SHR DUP1 PUSH4 0x450F0B4 EQ PUSH2 0x43 JUMPI DUP1 PUSH4 0x6EAD22E EQ PUSH2 0x5F JUMPI DUP1 PUSH4 0x642F9163 EQ PUSH2 0x92 JUMPI JUMPDEST PUSH0 PUSH0 REVERT JUMPDEST PUSH2 0x5D PUSH1 0x4 DUP1 CALLDATASIZE SUB DUP2 ADD SWAP1 PUSH2 0x58 SWAP2 SWAP1 PUSH2 0x51F JUMP JUMPDEST PUSH2 0xC5 JUMP JUMPDEST STOP JUMPDEST PUSH2 0x79 PUSH1 0x4 DUP1 CALLDATASIZE SUB DUP2 ADD SWAP1 PUSH2 0x74 SWAP2 SWAP1 PUSH2 0x59F JUMP JUMPDEST PUSH2 0x17E JUMP JUMPDEST PUSH1 0x40 MLOAD PUSH2 0x89 SWAP5 SWAP4 SWAP3 SWAP2 SWAP1 PUSH2 0x6AC JUMP JUMPDEST PUSH1 0x40 MLOAD DUP1 SWAP2 SUB SWAP1 RETURN JUMPDEST PUSH2 0xAC PUSH1 0x4 DUP1 CALLDATASIZE SUB DUP2 ADD SWAP1 PUSH2 0xA7 SWAP2 SWAP1 PUSH2 0x59F JUMP JUMPDEST PUSH2 0x24A JUMP JUMPDEST PUSH1 0x40 MLOAD PUSH2 0xBC SWAP5 SWAP4 SWAP3 SWAP2 SWAP1 PUSH2 0x6AC JUMP JUMPDEST PUSH1 0x40 MLOAD DUP1 SWAP2 SUB SWAP1 RETURN JUMPDEST PUSH0 PUSH1 0x40 MLOAD DUP1 PUSH1 0x80 ADD PUSH1 0x40 MSTORE DUP1 DUP7 DUP2 MSTORE PUSH1 0x20 ADD DUP6 DUP2 MSTORE PUSH1 0x20 ADD DUP5 DUP2 MSTORE PUSH1 0x20 ADD DUP4 PUSH1 0x2 DUP2 GT ISZERO PUSH2 0xF6 JUMPI PUSH2 0xF5 PUSH2 0x639 JUMP JUMPDEST JUMPDEST DUP2 MSTORE POP SWAP1 DUP1 PUSH1 0x1 DUP2 SLOAD ADD DUP1 DUP3 SSTORE DUP1 SWAP2 POP POP PUSH1 0x1 SWAP1 SUB SWAP1 PUSH0 MSTORE PUSH1 0x20 PUSH0 KECCAK256 SWAP1 PUSH1 0x4 MUL ADD PUSH0 SWAP1 SWAP2 SWAP1 SWAP2 SWAP1 SWAP2 POP PUSH0 DUP3 ADD MLOAD DUP2 PUSH0 ADD SSTORE PUSH1 0x20 DUP3 ADD MLOAD DUP2 PUSH1 0x1 ADD SWAP1 DUP2 PUSH2 0x13C SWAP2 SWAP1 PUSH2 0x8F3 JUMP JUMPDEST POP PUSH1 0x40 DUP3 ADD MLOAD DUP2 PUSH1 0x2 ADD SSTORE PUSH1 0x60 DUP3 ADD MLOAD DUP2 PUSH1 0x3 ADD PUSH0 PUSH2 0x100 EXP DUP2 SLOAD DUP2 PUSH1 0xFF MUL NOT AND SWAP1 DUP4 PUSH1 0x2 DUP2 GT ISZERO PUSH2 0x171 JUMPI PUSH2 0x170 PUSH2 0x639 JUMP JUMPDEST JUMPDEST MUL OR SWAP1 SSTORE POP POP POP POP POP POP POP JUMP JUMPDEST PUSH0 DUP2 DUP2 SLOAD DUP2 LT PUSH2 0x18C JUMPI PUSH0 DUP1 REVERT JUMPDEST SWAP1 PUSH0 MSTORE PUSH1 0x20 PUSH0 KECCAK256 SWAP1 PUSH1 0x4 MUL ADD PUSH0 SWAP2 POP SWAP1 POP DUP1 PUSH0 ADD SLOAD SWAP1 DUP1 PUSH1 0x1 ADD DUP1 SLOAD PUSH2 0x1B1 SWAP1 PUSH2 0x723 JUMP JUMPDEST DUP1 PUSH1 0x1F ADD PUSH1 0x20 DUP1 SWAP2 DIV MUL PUSH1 0x20 ADD PUSH1 0x40 MLOAD SWAP1 DUP2 ADD PUSH1 0x40 MSTORE DUP1 SWAP3 SWAP2 SWAP1 DUP2 DUP2 MSTORE PUSH1 0x20 ADD DUP3 DUP1 SLOAD PUSH2 0x1DD SWAP1 PUSH2 0x723 JUMP JUMPDEST DUP1 ISZERO PUSH2 0x228 JUMPI DUP1 PUSH1 0x1F LT PUSH2 0x1FF JUMPI PUSH2 0x100 DUP1 DUP4 SLOAD DIV MUL DUP4 MSTORE SWAP2 PUSH1 0x20 ADD SWAP2 PUSH2 0x228 JUMP JUMPDEST DUP3 ADD SWAP2 SWAP1 PUSH0 MSTORE PUSH1 0x20 PUSH0 KECCAK256 SWAP1 JUMPDEST DUP2 SLOAD DUP2 MSTORE SWAP1 PUSH1 0x1 ADD SWAP1 PUSH1 0x20 ADD DUP1 DUP4 GT PUSH2 0x20B JUMPI DUP3 SWAP1 SUB PUSH1 0x1F AND DUP3 ADD SWAP2 JUMPDEST POP POP POP POP POP SWAP1 DUP1 PUSH1 0x2 ADD SLOAD SWAP1 DUP1 PUSH1 0x3 ADD PUSH0 SWAP1 SLOAD SWAP1 PUSH2 0x100 EXP SWAP1 DIV PUSH1 0xFF AND SWAP1 POP DUP5 JUMP JUMPDEST PUSH0 PUSH1 0x60 PUSH0 PUSH0 PUSH0 PUSH0 DUP7 DUP2 SLOAD DUP2 LT PUSH2 0x263 JUMPI PUSH2 0x262 PUSH2 0x9C2 JUMP JUMPDEST JUMPDEST SWAP1 PUSH0 MSTORE PUSH1 0x20 PUSH0 KECCAK256 SWAP1 PUSH1 0x4 MUL ADD PUSH1 0x40 MLOAD DUP1 PUSH1 0x80 ADD PUSH1 0x40 MSTORE SWAP1 DUP2 PUSH0 DUP3 ADD SLOAD DUP2 MSTORE PUSH1 0x20 ADD PUSH1 0x1 DUP3 ADD DUP1 SLOAD PUSH2 0x293 SWAP1 PUSH2 0x723 JUMP JUMPDEST DUP1 PUSH1 0x1F ADD PUSH1 0x20 DUP1 SWAP2 DIV MUL PUSH1 0x20 ADD PUSH1 0x40 MLOAD SWAP1 DUP2 ADD PUSH1 0x40 MSTORE DUP1 SWAP3 SWAP2 SWAP1 DUP2 DUP2 MSTORE PUSH1 0x20 ADD DUP3 DUP1 SLOAD PUSH2 0x2BF SWAP1 PUSH2 0x723 JUMP JUMPDEST DUP1 ISZERO PUSH2 0x30A JUMPI DUP1 PUSH1 0x1F LT PUSH2 0x2E1 JUMPI PUSH2 0x100 DUP1 DUP4 SLOAD DIV MUL DUP4 MSTORE SWAP2 PUSH1 0x20 ADD SWAP2 PUSH2 0x30A JUMP JUMPDEST DUP3 ADD SWAP2 SWAP1 PUSH0 MSTORE PUSH1 0x20 PUSH0 KECCAK256 SWAP1 JUMPDEST DUP2 SLOAD DUP2 MSTORE SWAP1 PUSH1 0x1 ADD SWAP1 PUSH1 0x20 ADD DUP1 DUP4 GT PUSH2 0x2ED JUMPI DUP3 SWAP1 SUB PUSH1 0x1F AND DUP3 ADD SWAP2 JUMPDEST POP POP POP POP POP DUP2 MSTORE PUSH1 0x20 ADD PUSH1 0x2 DUP3 ADD SLOAD DUP2 MSTORE PUSH1 0x20 ADD PUSH1 0x3 DUP3 ADD PUSH0 SWAP1 SLOAD SWAP1 PUSH2 0x100 EXP SWAP1 DIV PUSH1 0xFF AND PUSH1 0x2 DUP2 GT ISZERO PUSH2 0x341 JUMPI PUSH2 0x340 PUSH2 0x639 JUMP JUMPDEST JUMPDEST PUSH1 0x2 DUP2 GT ISZERO PUSH2 0x353 JUMPI PUSH2 0x352 PUSH2 0x639 JUMP JUMPDEST JUMPDEST DUP2 MSTORE POP POP SWAP1 POP DUP1 PUSH0 ADD MLOAD DUP2 PUSH1 0x20 ADD MLOAD DUP3 PUSH1 0x40 ADD MLOAD DUP4 PUSH1 0x60 ADD MLOAD SWAP5 POP SWAP5 POP SWAP5 POP SWAP5 POP POP SWAP2 SWAP4 POP SWAP2 SWAP4 JUMP JUMPDEST PUSH0 PUSH1 0x40 MLOAD SWAP1 POP SWAP1 JUMP JUMPDEST PUSH0 PUSH0 REVERT JUMPDEST PUSH0 PUSH0 REVERT JUMPDEST PUSH0 DUP2 SWAP1 POP SWAP2 SWAP1 POP JUMP JUMPDEST PUSH2 0x39F DUP2 PUSH2 0x38D JUMP JUMPDEST DUP2 EQ PUSH2 0x3A9 JUMPI PUSH0 PUSH0 REVERT JUMPDEST POP JUMP JUMPDEST PUSH0 DUP2 CALLDATALOAD SWAP1 POP PUSH2 0x3BA DUP2 PUSH2 0x396 JUMP JUMPDEST SWAP3 SWAP2 POP POP JUMP JUMPDEST PUSH0 PUSH0 REVERT JUMPDEST PUSH0 PUSH0 REVERT JUMPDEST PUSH0 PUSH1 0x1F NOT PUSH1 0x1F DUP4 ADD AND SWAP1 POP SWAP2 SWAP1 POP JUMP JUMPDEST PUSH32 0x4E487B7100000000000000000000000000000000000000000000000000000000 PUSH0 MSTORE PUSH1 0x41 PUSH1 0x4 MSTORE PUSH1 0x24 PUSH0 REVERT JUMPDEST PUSH2 0x40E DUP3 PUSH2 0x3C8 JUMP JUMPDEST DUP2 ADD DUP2 DUP2 LT PUSH8 0xFFFFFFFFFFFFFFFF DUP3 GT OR ISZERO PUSH2 0x42D JUMPI PUSH2 0x42C PUSH2 0x3D8 JUMP JUMPDEST JUMPDEST DUP1 PUSH1 0x40 MSTORE POP POP POP JUMP JUMPDEST PUSH0 PUSH2 0x43F PUSH2 0x37C JUMP JUMPDEST SWAP1 POP PUSH2 0x44B DUP3 DUP3 PUSH2 0x405 JUMP JUMPDEST SWAP2 SWAP1 POP JUMP JUMPDEST PUSH0 PUSH8 0xFFFFFFFFFFFFFFFF DUP3 GT ISZERO PUSH2 0x46A JUMPI PUSH2 0x469 PUSH2 0x3D8 JUMP JUMPDEST JUMPDEST PUSH2 0x473 DUP3 PUSH2 0x3C8 JUMP JUMPDEST SWAP1 POP PUSH1 0x20 DUP2 ADD SWAP1 POP SWAP2 SWAP1 POP JUMP JUMPDEST DUP3 DUP2 DUP4 CALLDATACOPY PUSH0 DUP4 DUP4 ADD MSTORE POP POP POP JUMP JUMPDEST PUSH0 PUSH2 0x4A0 PUSH2 0x49B DUP5 PUSH2 0x450 JUMP JUMPDEST PUSH2 0x436 JUMP JUMPDEST SWAP1 POP DUP3 DUP2 MSTORE PUSH1 0x20 DUP2 ADD DUP5 DUP5 DUP5 ADD GT ISZERO PUSH2 0x4BC JUMPI PUSH2 0x4BB PUSH2 0x3C4 JUMP JUMPDEST JUMPDEST PUSH2 0x4C7 DUP5 DUP3 DUP6 PUSH2 0x480 JUMP JUMPDEST POP SWAP4 SWAP3 POP POP POP JUMP JUMPDEST PUSH0 DUP3 PUSH1 0x1F DUP4 ADD SLT PUSH2 0x4E3 JUMPI PUSH2 0x4E2 PUSH2 0x3C0 JUMP JUMPDEST JUMPDEST DUP2 CALLDATALOAD PUSH2 0x4F3 DUP5 DUP3 PUSH1 0x20 DUP7 ADD PUSH2 0x48E JUMP JUMPDEST SWAP2 POP POP SWAP3 SWAP2 POP POP JUMP JUMPDEST PUSH1 0x3 DUP2 LT PUSH2 0x508 JUMPI PUSH0 PUSH0 REVERT JUMPDEST POP JUMP JUMPDEST PUSH0 DUP2 CALLDATALOAD SWAP1 POP PUSH2 0x519 DUP2 PUSH2 0x4FC JUMP JUMPDEST SWAP3 SWAP2 POP POP JUMP JUMPDEST PUSH0 PUSH0 PUSH0 PUSH0 PUSH1 0x80 DUP6 DUP8 SUB SLT ISZERO PUSH2 0x537 JUMPI PUSH2 0x536 PUSH2 0x385 JUMP JUMPDEST JUMPDEST PUSH0 PUSH2 0x544 DUP8 DUP3 DUP9 ADD PUSH2 0x3AC JUMP JUMPDEST SWAP5 POP POP PUSH1 0x20 DUP6 ADD CALLDATALOAD PUSH8 0xFFFFFFFFFFFFFFFF DUP2 GT ISZERO PUSH2 0x565 JUMPI PUSH2 0x564 PUSH2 0x389 JUMP JUMPDEST JUMPDEST PUSH2 0x571 DUP8 DUP3 DUP9 ADD PUSH2 0x4CF JUMP JUMPDEST SWAP4 POP POP PUSH1 0x40 PUSH2 0x582 DUP8 DUP3 DUP9 ADD PUSH2 0x3AC JUMP JUMPDEST SWAP3 POP POP PUSH1 0x60 PUSH2 0x593 DUP8 DUP3 DUP9 ADD PUSH2 0x50B JUMP JUMPDEST SWAP2 POP POP SWAP3 SWAP6 SWAP2 SWAP5 POP SWAP3 POP JUMP JUMPDEST PUSH0 PUSH1 0x20 DUP3 DUP5 SUB SLT ISZERO PUSH2 0x5B4 JUMPI PUSH2 0x5B3 PUSH2 0x385 JUMP JUMPDEST JUMPDEST PUSH0 PUSH2 0x5C1 DUP5 DUP3 DUP6 ADD PUSH2 0x3AC JUMP JUMPDEST SWAP2 POP POP SWAP3 SWAP2 POP POP JUMP JUMPDEST PUSH2 0x5D3 DUP2 PUSH2 0x38D JUMP JUMPDEST DUP3 MSTORE POP POP JUMP JUMPDEST PUSH0 DUP2 MLOAD SWAP1 POP SWAP2 SWAP1 POP JUMP JUMPDEST PUSH0 DUP3 DUP3 MSTORE PUSH1 0x20 DUP3 ADD SWAP1 POP SWAP3 SWAP2 POP POP JUMP JUMPDEST DUP3 DUP2 DUP4 MCOPY PUSH0 DUP4 DUP4 ADD MSTORE POP POP POP JUMP JUMPDEST PUSH0 PUSH2 0x60B DUP3 PUSH2 0x5D9 JUMP JUMPDEST PUSH2 0x615 DUP2 DUP6 PUSH2 0x5E3 JUMP JUMPDEST SWAP4 POP PUSH2 0x625 DUP2 DUP6 PUSH1 0x20 DUP7 ADD PUSH2 0x5F3 JUMP JUMPDEST PUSH2 0x62E DUP2 PUSH2 0x3C8 JUMP JUMPDEST DUP5 ADD SWAP2 POP POP SWAP3 SWAP2 POP POP JUMP JUMPDEST PUSH32 0x4E487B7100000000000000000000000000000000000000000000000000000000 PUSH0 MSTORE PUSH1 0x21 PUSH1 0x4 MSTORE PUSH1 0x24 PUSH0 REVERT JUMPDEST PUSH1 0x3 DUP2 LT PUSH2 0x677 JUMPI PUSH2 0x676 PUSH2 0x639 JUMP JUMPDEST JUMPDEST POP JUMP JUMPDEST PUSH0 DUP2 SWAP1 POP PUSH2 0x687 DUP3 PUSH2 0x666 JUMP JUMPDEST SWAP2 SWAP1 POP JUMP JUMPDEST PUSH0 PUSH2 0x696 DUP3 PUSH2 0x67A JUMP JUMPDEST SWAP1 POP SWAP2 SWAP1 POP JUMP JUMPDEST PUSH2 0x6A6 DUP2 PUSH2 0x68C JUMP JUMPDEST DUP3 MSTORE POP POP JUMP JUMPDEST PUSH0 PUSH1 0x80 DUP3 ADD SWAP1 POP PUSH2 0x6BF PUSH0 DUP4 ADD DUP8 PUSH2 0x5CA JUMP JUMPDEST DUP2 DUP2 SUB PUSH1 0x20 DUP4 ADD MSTORE PUSH2 0x6D1 DUP2 DUP7 PUSH2 0x601 JUMP JUMPDEST SWAP1 POP PUSH2 0x6E0 PUSH1 0x40 DUP4 ADD DUP6 PUSH2 0x5CA JUMP JUMPDEST PUSH2 0x6ED PUSH1 0x60 DUP4 ADD DUP5 PUSH2 0x69D JUMP JUMPDEST SWAP6 SWAP5 POP POP POP POP POP JUMP JUMPDEST PUSH32 0x4E487B7100000000000000000000000000000000000000000000000000000000 PUSH0 MSTORE PUSH1 0x22 PUSH1 0x4 MSTORE PUSH1 0x24 PUSH0 REVERT JUMPDEST PUSH0 PUSH1 0x2 DUP3 DIV SWAP1 POP PUSH1 0x1 DUP3 AND DUP1 PUSH2 0x73A JUMPI PUSH1 0x7F DUP3 AND SWAP2 POP JUMPDEST PUSH1 0x20 DUP3 LT DUP2 SUB PUSH2 0x74D JUMPI PUSH2 0x74C PUSH2 0x6F6 JUMP JUMPDEST JUMPDEST POP SWAP2 SWAP1 POP JUMP JUMPDEST PUSH0 DUP2 SWAP1 POP DUP2 PUSH0 MSTORE PUSH1 0x20 PUSH0 KECCAK256 SWAP1 POP SWAP2 SWAP1 POP JUMP JUMPDEST PUSH0 PUSH1 0x20 PUSH1 0x1F DUP4 ADD DIV SWAP1 POP SWAP2 SWAP1 POP JUMP JUMPDEST PUSH0 DUP3 DUP3 SHL SWAP1 POP SWAP3 SWAP2 POP POP JUMP JUMPDEST PUSH0 PUSH1 0x8 DUP4 MUL PUSH2 0x7AF PUSH32 0xFFFFFFFFFFFFFFFFFFFFFFFFFFFFFFFFFFFFFFFFFFFFFFFFFFFFFFFFFFFFFFFF DUP3 PUSH2 0x774 JUMP JUMPDEST PUSH2 0x7B9 DUP7 DUP4 PUSH2 0x774 JUMP JUMPDEST SWAP6 POP DUP1 NOT DUP5 AND SWAP4 POP DUP1 DUP7 AND DUP5 OR SWAP3 POP POP POP SWAP4 SWAP3 POP POP POP JUMP JUMPDEST PUSH0 DUP2 SWAP1 POP SWAP2 SWAP1 POP JUMP JUMPDEST PUSH0 PUSH2 0x7F4 PUSH2 0x7EF PUSH2 0x7EA DUP5 PUSH2 0x38D JUMP JUMPDEST PUSH2 0x7D1 JUMP JUMPDEST PUSH2 0x38D JUMP JUMPDEST SWAP1 POP SWAP2 SWAP1 POP JUMP JUMPDEST PUSH0 DUP2 SWAP1 POP SWAP2 SWAP1 POP JUMP JUMPDEST PUSH2 0x80D DUP4 PUSH2 0x7DA JUMP JUMPDEST PUSH2 0x821 PUSH2 0x819 DUP3 PUSH2 0x7FB JUMP JUMPDEST DUP5 DUP5 SLOAD PUSH2 0x780 JUMP JUMPDEST DUP3 SSTORE POP POP POP POP JUMP JUMPDEST PUSH0 PUSH0 SWAP1 POP SWAP1 JUMP JUMPDEST PUSH2 0x838 PUSH2 0x829 JUMP JUMPDEST PUSH2 0x843 DUP2 DUP5 DUP5 PUSH2 0x804 JUMP JUMPDEST POP POP POP JUMP JUMPDEST JUMPDEST DUP2 DUP2 LT ISZERO PUSH2 0x866 JUMPI PUSH2 0x85B PUSH0 DUP3 PUSH2 0x830 JUMP JUMPDEST PUSH1 0x1 DUP2 ADD SWAP1 POP PUSH2 0x849 JUMP JUMPDEST POP POP JUMP JUMPDEST PUSH1 0x1F DUP3 GT ISZERO PUSH2 0x8AB JUMPI PUSH2 0x87C DUP2 PUSH2 0x753 JUMP JUMPDEST PUSH2 0x885 DUP5 PUSH2 0x765 JUMP JUMPDEST DUP2 ADD PUSH1 0x20 DUP6 LT ISZERO PUSH2 0x894 JUMPI DUP2 SWAP1 POP JUMPDEST PUSH2 0x8A8 PUSH2 0x8A0 DUP6 PUSH2 0x765 JUMP JUMPDEST DUP4 ADD DUP3 PUSH2 0x848 JUMP JUMPDEST POP POP JUMPDEST POP POP POP JUMP JUMPDEST PUSH0 DUP3 DUP3 SHR SWAP1 POP SWAP3 SWAP2 POP POP JUMP JUMPDEST PUSH0 PUSH2 0x8CB PUSH0 NOT DUP5 PUSH1 0x8 MUL PUSH2 0x8B0 JUMP JUMPDEST NOT DUP1 DUP4 AND SWAP2 POP POP SWAP3 SWAP2 POP POP JUMP JUMPDEST PUSH0 PUSH2 0x8E3 DUP4 DUP4 PUSH2 0x8BC JUMP JUMPDEST SWAP2 POP DUP3 PUSH1 0x2 MUL DUP3 OR SWAP1 POP SWAP3 SWAP2 POP POP JUMP JUMPDEST PUSH2 0x8FC DUP3 PUSH2 0x5D9 JUMP JUMPDEST PUSH8 0xFFFFFFFFFFFFFFFF DUP2 GT ISZERO PUSH2 0x915 JUMPI PUSH2 0x914 PUSH2 0x3D8 JUMP JUMPDEST JUMPDEST PUSH2 0x91F DUP3 SLOAD PUSH2 0x723 JUMP JUMPDEST PUSH2 0x92A DUP3 DUP3 DUP6 PUSH2 0x86A JUMP JUMPDEST PUSH0 PUSH1 0x20 SWAP1 POP PUSH1 0x1F DUP4 GT PUSH1 0x1 DUP2 EQ PUSH2 0x95B JUMPI PUSH0 DUP5 ISZERO PUSH2 0x949 JUMPI DUP3 DUP8 ADD MLOAD SWAP1 POP JUMPDEST PUSH2 0x953 DUP6 DUP3 PUSH2 0x8D8 JUMP JUMPDEST DUP7 SSTORE POP PUSH2 0x9BA JUMP JUMPDEST PUSH1 0x1F NOT DUP5 AND PUSH2 0x969 DUP7 PUSH2 0x753 JUMP JUMPDEST PUSH0 JUMPDEST DUP3 DUP2 LT ISZERO PUSH2 0x990 JUMPI DUP5 DUP10 ADD MLOAD DUP3 SSTORE PUSH1 0x1 DUP3 ADD SWAP2 POP PUSH1 0x20 DUP6 ADD SWAP5 POP PUSH1 0x20 DUP2 ADD SWAP1 POP PUSH2 0x96B JUMP JUMPDEST DUP7 DUP4 LT ISZERO PUSH2 0x9AD JUMPI DUP5 DUP10 ADD MLOAD PUSH2 0x9A9 PUSH1 0x1F DUP10 AND DUP3 PUSH2 0x8BC JUMP JUMPDEST DUP4 SSTORE POP JUMPDEST PUSH1 0x1 PUSH1 0x2 DUP9 MUL ADD DUP9 SSTORE POP POP POP JUMPDEST POP POP POP POP POP POP JUMP JUMPDEST PUSH32 0x4E487B7100000000000000000000000000000000000000000000000000000000 PUSH0 MSTORE PUSH1 0x32 PUSH1 0x4 MSTORE PUSH1 0x24 PUSH0 REVERT INVALID LOG2 PUSH5 0x6970667358 0x22 SLT KECCAK256 0x26 DUP13 0xCF 0xC3 0xBE CALLVALUE SUB 0xAA RETURNDATACOPY LOG4 0xCC 0xC7 0xA6 PUSH13 0xDCF16DF9FAA97D3078D76C564 PUSH29 0xEAF9A3BD64736F6C634300081F00330000000000000000000000000000 "
				},
				"gasEstimates": {
					"creation": {
						"codeDepositCost": "519400",
						"executionCost": "554",
						"totalCost": "519954"
					},
					"external": {
						"getStudent(uint256)": "infinite",
						"setStudent(uint256,string,uint256,uint8)": "infinite",
						"students(uint256)": "infinite"
					}
				},
				"methodIdentifiers": {
					"getStudent(uint256)": "642f9163",
					"setStudent(uint256,string,uint256,uint8)": "0450f0b4",
					"students(uint256)": "06ead22e"
				}
			},
			"storageLayout": {
				"storage": [
					{
						"astId": 19,
						"contract": "Assignments/enumstructarray.sol:StudentCourse",
						"label": "students",
						"offset": 0,
						"slot": "0",
						"type": "t_array(t_struct(Student)15_storage)dyn_storage"
					}
				],
				"types": {
					"t_array(t_struct(Student)15_storage)dyn_storage": {
						"base": "t_struct(Student)15_storage",
						"encoding": "dynamic_array",
						"label": "struct StudentCourse.Student[]",
						"numberOfBytes": "32"
					},
					"t_enum(CourseStatus)5": {
						"encoding": "inplace",
						"label": "enum StudentCourse.CourseStatus",
						"numberOfBytes": "1"
					},
					"t_string_storage": {
						"encoding": "bytes",
						"label": "string",
						"numberOfBytes": "32"
					},
					"t_struct(Student)15_storage": {
						"encoding": "inplace",
						"label": "struct StudentCourse.Student",
						"members": [
							{
								"astId": 7,
								"contract": "Assignments/enumstructarray.sol:StudentCourse",
								"label": "id",
								"offset": 0,
								"slot": "0",
								"type": "t_uint256"
							},
							{
								"astId": 9,
								"contract": "Assignments/enumstructarray.sol:StudentCourse",
								"label": "name",
								"offset": 0,
								"slot": "1",
								"type": "t_string_storage"
							},
							{
								"astId": 11,
								"contract": "Assignments/enumstructarray.sol:StudentCourse",
								"label": "age",
								"offset": 0,
								"slot": "2",
								"type": "t_uint256"
							},
							{
								"astId": 14,
								"contract": "Assignments/enumstructarray.sol:StudentCourse",
								"label": "status",
								"offset": 0,
								"slot": "3",
								"type": "t_enum(CourseStatus)5"
							}
						],
						"numberOfBytes": "128"
					},
					"t_uint256": {
						"encoding": "inplace",
						"label": "uint256",
						"numberOfBytes": "32"
					}
				}
			},
			"userdoc": {
				"kind": "user",
				"methods": {},
				"version": 1
			}
		}
	}
}