{
	"Assignments/Assignment5(13-03-2026)/2)enum.sol": {
		"manageorder": {
			"abi": [
				{
					"inputs": [],
					"name": "getStatus",
					"outputs": [
						{
							"internalType": "enum manageorder.orderstatus",
							"name": "",
							"type": "uint8"
						}
					],
					"stateMutability": "view",
					"type": "function"
				},
				{
					"inputs": [
						{
							"internalType": "enum manageorder.orderstatus",
							"name": "_status",
							"type": "uint8"
						}
					],
					"name": "setStatus",
					"outputs": [],
					"stateMutability": "nonpayable",
					"type": "function"
				}
			],
			"devdoc": {
				"kind": "dev",
				"methods": {},
				"version": 1
			},
			"evm": {
				"assembly": "    /* \"Assignments/Assignment5(13-03-2026)/2)enum.sol\":452:732  contract manageorder {... */\n  mstore(0x40, 0x80)\n  callvalue\n  dup1\n  iszero\n  tag_1\n  jumpi\n  revert(0x00, 0x00)\ntag_1:\n  pop\n  dataSize(sub_0)\n  dup1\n  dataOffset(sub_0)\n  0x00\n  codecopy\n  0x00\n  return\nstop\n\nsub_0: assembly {\n        /* \"Assignments/Assignment5(13-03-2026)/2)enum.sol\":452:732  contract manageorder {... */\n      mstore(0x40, 0x80)\n      callvalue\n      dup1\n      iszero\n      tag_1\n      jumpi\n      revert(0x00, 0x00)\n    tag_1:\n      pop\n      jumpi(tag_2, lt(calldatasize, 0x04))\n      shr(0xe0, calldataload(0x00))\n      dup1\n      0x2e49d78b\n      eq\n      tag_3\n      jumpi\n      dup1\n      0x4e69d560\n      eq\n      tag_4\n      jumpi\n    tag_2:\n      revert(0x00, 0x00)\n        /* \"Assignments/Assignment5(13-03-2026)/2)enum.sol\":556:638  function setStatus(orderstatus _status) public {... */\n    tag_3:\n      tag_5\n      0x04\n      dup1\n      calldatasize\n      sub\n      dup2\n      add\n      swap1\n      tag_6\n      swap2\n      swap1\n      tag_7\n      jump\t// in\n    tag_6:\n      tag_8\n      jump\t// in\n    tag_5:\n      stop\n        /* \"Assignments/Assignment5(13-03-2026)/2)enum.sol\":644:729  function getStatus() public view returns(orderstatus){... */\n    tag_4:\n      tag_9\n      tag_10\n      jump\t// in\n    tag_9:\n      mload(0x40)\n      tag_11\n      swap2\n      swap1\n      tag_12\n      jump\t// in\n    tag_11:\n      mload(0x40)\n      dup1\n      swap2\n      sub\n      swap1\n      return\n        /* \"Assignments/Assignment5(13-03-2026)/2)enum.sol\":556:638  function setStatus(orderstatus _status) public {... */\n    tag_8:\n        /* \"Assignments/Assignment5(13-03-2026)/2)enum.sol\":623:630  _status */\n      dup1\n        /* \"Assignments/Assignment5(13-03-2026)/2)enum.sol\":614:620  status */\n      0x00\n      0x00\n        /* \"Assignments/Assignment5(13-03-2026)/2)enum.sol\":614:630  status = _status */\n      0x0100\n      exp\n      dup2\n      sload\n      dup2\n      0xff\n      mul\n      not\n      and\n      swap1\n      dup4\n      0x02\n      dup2\n      gt\n      iszero\n      tag_14\n      jumpi\n      tag_15\n      tag_16\n      jump\t// in\n    tag_15:\n    tag_14:\n      mul\n      or\n      swap1\n      sstore\n      pop\n        /* \"Assignments/Assignment5(13-03-2026)/2)enum.sol\":556:638  function setStatus(orderstatus _status) public {... */\n      pop\n      jump\t// out\n        /* \"Assignments/Assignment5(13-03-2026)/2)enum.sol\":644:729  function getStatus() public view returns(orderstatus){... */\n    tag_10:\n        /* \"Assignments/Assignment5(13-03-2026)/2)enum.sol\":685:696  orderstatus */\n      0x00\n        /* \"Assignments/Assignment5(13-03-2026)/2)enum.sol\":715:721  status */\n      0x00\n      0x00\n      swap1\n      sload\n      swap1\n      0x0100\n      exp\n      swap1\n      div\n      0xff\n      and\n        /* \"Assignments/Assignment5(13-03-2026)/2)enum.sol\":708:721  return status */\n      swap1\n      pop\n        /* \"Assignments/Assignment5(13-03-2026)/2)enum.sol\":644:729  function getStatus() public view returns(orderstatus){... */\n      swap1\n      jump\t// out\n        /* \"#utility.yul\":88:205   */\n    tag_19:\n        /* \"#utility.yul\":197:198   */\n      0x00\n        /* \"#utility.yul\":194:195   */\n      0x00\n        /* \"#utility.yul\":187:199   */\n      revert\n        /* \"#utility.yul\":334:446   */\n    tag_21:\n        /* \"#utility.yul\":420:421   */\n      0x03\n        /* \"#utility.yul\":413:418   */\n      dup2\n        /* \"#utility.yul\":410:422   */\n      lt\n        /* \"#utility.yul\":400:440   */\n      tag_32\n      jumpi\n        /* \"#utility.yul\":436:437   */\n      0x00\n        /* \"#utility.yul\":433:434   */\n      0x00\n        /* \"#utility.yul\":426:438   */\n      revert\n        /* \"#utility.yul\":400:440   */\n    tag_32:\n        /* \"#utility.yul\":334:446   */\n      pop\n      jump\t// out\n        /* \"#utility.yul\":452:617   */\n    tag_22:\n        /* \"#utility.yul\":511:516   */\n      0x00\n        /* \"#utility.yul\":549:555   */\n      dup2\n        /* \"#utility.yul\":536:556   */\n      calldataload\n        /* \"#utility.yul\":527:556   */\n      swap1\n      pop\n        /* \"#utility.yul\":565:611   */\n      tag_34\n        /* \"#utility.yul\":605:610   */\n      dup2\n        /* \"#utility.yul\":565:611   */\n      tag_21\n      jump\t// in\n    tag_34:\n        /* \"#utility.yul\":452:617   */\n      swap3\n      swap2\n      pop\n      pop\n      jump\t// out\n        /* \"#utility.yul\":623:978   */\n    tag_7:\n        /* \"#utility.yul\":695:701   */\n      0x00\n        /* \"#utility.yul\":744:746   */\n      0x20\n        /* \"#utility.yul\":732:741   */\n      dup3\n        /* \"#utility.yul\":723:730   */\n      dup5\n        /* \"#utility.yul\":719:742   */\n      sub\n        /* \"#utility.yul\":715:747   */\n      slt\n        /* \"#utility.yul\":712:831   */\n      iszero\n      tag_36\n      jumpi\n        /* \"#utility.yul\":750:829   */\n      tag_37\n      tag_19\n      jump\t// in\n    tag_37:\n        /* \"#utility.yul\":712:831   */\n    tag_36:\n        /* \"#utility.yul\":870:871   */\n      0x00\n        /* \"#utility.yul\":895:961   */\n      tag_38\n        /* \"#utility.yul\":953:960   */\n      dup5\n        /* \"#utility.yul\":944:950   */\n      dup3\n        /* \"#utility.yul\":933:942   */\n      dup6\n        /* \"#utility.yul\":929:951   */\n      add\n        /* \"#utility.yul\":895:961   */\n      tag_22\n      jump\t// in\n    tag_38:\n        /* \"#utility.yul\":885:961   */\n      swap2\n      pop\n        /* \"#utility.yul\":841:971   */\n      pop\n        /* \"#utility.yul\":623:978   */\n      swap3\n      swap2\n      pop\n      pop\n      jump\t// out\n        /* \"#utility.yul\":984:1164   */\n    tag_16:\n        /* \"#utility.yul\":1032:1109   */\n      0x4e487b7100000000000000000000000000000000000000000000000000000000\n        /* \"#utility.yul\":1029:1030   */\n      0x00\n        /* \"#utility.yul\":1022:1110   */\n      mstore\n        /* \"#utility.yul\":1129:1133   */\n      0x21\n        /* \"#utility.yul\":1126:1127   */\n      0x04\n        /* \"#utility.yul\":1119:1134   */\n      mstore\n        /* \"#utility.yul\":1153:1157   */\n      0x24\n        /* \"#utility.yul\":1150:1151   */\n      0x00\n        /* \"#utility.yul\":1143:1158   */\n      revert\n        /* \"#utility.yul\":1170:1288   */\n    tag_23:\n        /* \"#utility.yul\":1256:1257   */\n      0x03\n        /* \"#utility.yul\":1249:1254   */\n      dup2\n        /* \"#utility.yul\":1246:1258   */\n      lt\n        /* \"#utility.yul\":1236:1282   */\n      tag_41\n      jumpi\n        /* \"#utility.yul\":1262:1280   */\n      tag_42\n      tag_16\n      jump\t// in\n    tag_42:\n        /* \"#utility.yul\":1236:1282   */\n    tag_41:\n        /* \"#utility.yul\":1170:1288   */\n      pop\n      jump\t// out\n        /* \"#utility.yul\":1294:1431   */\n    tag_24:\n        /* \"#utility.yul\":1344:1351   */\n      0x00\n        /* \"#utility.yul\":1373:1378   */\n      dup2\n        /* \"#utility.yul\":1362:1378   */\n      swap1\n      pop\n        /* \"#utility.yul\":1379:1425   */\n      tag_44\n        /* \"#utility.yul\":1419:1424   */\n      dup3\n        /* \"#utility.yul\":1379:1425   */\n      tag_23\n      jump\t// in\n    tag_44:\n        /* \"#utility.yul\":1294:1431   */\n      swap2\n      swap1\n      pop\n      jump\t// out\n        /* \"#utility.yul\":1437:1574   */\n    tag_25:\n        /* \"#utility.yul\":1498:1507   */\n      0x00\n        /* \"#utility.yul\":1531:1568   */\n      tag_46\n        /* \"#utility.yul\":1562:1567   */\n      dup3\n        /* \"#utility.yul\":1531:1568   */\n      tag_24\n      jump\t// in\n    tag_46:\n        /* \"#utility.yul\":1518:1568   */\n      swap1\n      pop\n        /* \"#utility.yul\":1437:1574   */\n      swap2\n      swap1\n      pop\n      jump\t// out\n        /* \"#utility.yul\":1580:1733   */\n    tag_26:\n        /* \"#utility.yul\":1678:1726   */\n      tag_48\n        /* \"#utility.yul\":1720:1725   */\n      dup2\n        /* \"#utility.yul\":1678:1726   */\n      tag_25\n      jump\t// in\n    tag_48:\n        /* \"#utility.yul\":1673:1676   */\n      dup3\n        /* \"#utility.yul\":1666:1727   */\n      mstore\n        /* \"#utility.yul\":1580:1733   */\n      pop\n      pop\n      jump\t// out\n        /* \"#utility.yul\":1739:1983   */\n    tag_12:\n        /* \"#utility.yul\":1843:1847   */\n      0x00\n        /* \"#utility.yul\":1881:1883   */\n      0x20\n        /* \"#utility.yul\":1870:1879   */\n      dup3\n        /* \"#utility.yul\":1866:1884   */\n      add\n        /* \"#utility.yul\":1858:1884   */\n      swap1\n      pop\n        /* \"#utility.yul\":1894:1976   */\n      tag_50\n        /* \"#utility.yul\":1973:1974   */\n      0x00\n        /* \"#utility.yul\":1962:1971   */\n      dup4\n        /* \"#utility.yul\":1958:1975   */\n      add\n        /* \"#utility.yul\":1949:1955   */\n      dup5\n        /* \"#utility.yul\":1894:1976   */\n      tag_26\n      jump\t// in\n    tag_50:\n        /* \"#utility.yul\":1739:1983   */\n      swap3\n      swap2\n      pop\n      pop\n      jump\t// out\n\n    auxdata: 0xa2646970667358221220522840b8bc73e73f8c707631a2299a033e0098ae0929f059a5b57cebf46ded2264736f6c634300081f0033\n}\n",
				"bytecode": {
					"linkReferences": {},
					"object": "6080604052348015600e575f5ffd5b506101c58061001c5f395ff3fe608060405234801561000f575f5ffd5b5060043610610034575f3560e01c80632e49d78b146100385780634e69d56014610054575b5f5ffd5b610052600480360381019061004d91906100d8565b610072565b005b61005c61009d565b6040516100699190610176565b60405180910390f35b805f5f6101000a81548160ff0219169083600281111561009557610094610103565b5b021790555050565b5f5f5f9054906101000a900460ff16905090565b5f5ffd5b600381106100c1575f5ffd5b50565b5f813590506100d2816100b5565b92915050565b5f602082840312156100ed576100ec6100b1565b5b5f6100fa848285016100c4565b91505092915050565b7f4e487b71000000000000000000000000000000000000000000000000000000005f52602160045260245ffd5b6003811061014157610140610103565b5b50565b5f81905061015182610130565b919050565b5f61016082610144565b9050919050565b61017081610156565b82525050565b5f6020820190506101895f830184610167565b9291505056fea2646970667358221220522840b8bc73e73f8c707631a2299a033e0098ae0929f059a5b57cebf46ded2264736f6c634300081f0033",
					"opcodes": "PUSH1 0x80 PUSH1 0x40 MSTORE CALLVALUE DUP1 ISZERO PUSH1 0xE JUMPI PUSH0 PUSH0 REVERT JUMPDEST POP PUSH2 0x1C5 DUP1 PUSH2 0x1C PUSH0 CODECOPY PUSH0 RETURN INVALID PUSH1 0x80 PUSH1 0x40 MSTORE CALLVALUE DUP1 ISZERO PUSH2 0xF JUMPI PUSH0 PUSH0 REVERT JUMPDEST POP PUSH1 0x4 CALLDATASIZE LT PUSH2 0x34 JUMPI PUSH0 CALLDATALOAD PUSH1 0xE0 SHR DUP1 PUSH4 0x2E49D78B EQ PUSH2 0x38 JUMPI DUP1 PUSH4 0x4E69D560 EQ PUSH2 0x54 JUMPI JUMPDEST PUSH0 PUSH0 REVERT JUMPDEST PUSH2 0x52 PUSH1 0x4 DUP1 CALLDATASIZE SUB DUP2 ADD SWAP1 PUSH2 0x4D SWAP2 SWAP1 PUSH2 0xD8 JUMP JUMPDEST PUSH2 0x72 JUMP JUMPDEST STOP JUMPDEST PUSH2 0x5C PUSH2 0x9D JUMP JUMPDEST PUSH1 0x40 MLOAD PUSH2 0x69 SWAP2 SWAP1 PUSH2 0x176 JUMP JUMPDEST PUSH1 0x40 MLOAD DUP1 SWAP2 SUB SWAP1 RETURN JUMPDEST DUP1 PUSH0 PUSH0 PUSH2 0x100 EXP DUP2 SLOAD DUP2 PUSH1 0xFF MUL NOT AND SWAP1 DUP4 PUSH1 0x2 DUP2 GT ISZERO PUSH2 0x95 JUMPI PUSH2 0x94 PUSH2 0x103 JUMP JUMPDEST JUMPDEST MUL OR SWAP1 SSTORE POP POP JUMP JUMPDEST PUSH0 PUSH0 PUSH0 SWAP1 SLOAD SWAP1 PUSH2 0x100 EXP SWAP1 DIV PUSH1 0xFF AND SWAP1 POP SWAP1 JUMP JUMPDEST PUSH0 PUSH0 REVERT JUMPDEST PUSH1 0x3 DUP2 LT PUSH2 0xC1 JUMPI PUSH0 PUSH0 REVERT JUMPDEST POP JUMP JUMPDEST PUSH0 DUP2 CALLDATALOAD SWAP1 POP PUSH2 0xD2 DUP2 PUSH2 0xB5 JUMP JUMPDEST SWAP3 SWAP2 POP POP JUMP JUMPDEST PUSH0 PUSH1 0x20 DUP3 DUP5 SUB SLT ISZERO PUSH2 0xED JUMPI PUSH2 0xEC PUSH2 0xB1 JUMP JUMPDEST JUMPDEST PUSH0 PUSH2 0xFA DUP5 DUP3 DUP6 ADD PUSH2 0xC4 JUMP JUMPDEST SWAP2 POP POP SWAP3 SWAP2 POP POP JUMP JUMPDEST PUSH32 0x4E487B7100000000000000000000000000000000000000000000000000000000 PUSH0 MSTORE PUSH1 0x21 PUSH1 0x4 MSTORE PUSH1 0x24 PUSH0 REVERT JUMPDEST PUSH1 0x3 DUP2 LT PUSH2 0x141 JUMPI PUSH2 0x140 PUSH2 0x103 JUMP JUMPDEST JUMPDEST POP JUMP JUMPDEST PUSH0 DUP2 SWAP1 POP PUSH2 0x151 DUP3 PUSH2 0x130 JUMP JUMPDEST SWAP2 SWAP1 POP JUMP JUMPDEST PUSH0 PUSH2 0x160 DUP3 PUSH2 0x144 JUMP JUMPDEST SWAP1 POP SWAP2 SWAP1 POP JUMP JUMPDEST PUSH2 0x170 DUP2 PUSH2 0x156 JUMP JUMPDEST DUP3 MSTORE POP POP JUMP JUMPDEST PUSH0 PUSH1 0x20 DUP3 ADD SWAP1 POP PUSH2 0x189 PUSH0 DUP4 ADD DUP5 PUSH2 0x167 JUMP JUMPDEST SWAP3 SWAP2 POP POP JUMP INVALID LOG2 PUSH5 0x6970667358 0x22 SLT KECCAK256 MSTORE 0x28 BLOCKHASH 0xB8 0xBC PUSH20 0xE73F8C707631A2299A033E0098AE0929F059A5B5 PUSH29 0xEBF46DED2264736F6C634300081F003300000000000000000000000000 "
				},
				"gasEstimates": {
					"creation": {
						"codeDepositCost": "90600",
						"executionCost": "139",
						"totalCost": "90739"
					},
					"external": {
						"getStatus()": "2560",
						"setStatus(uint8)": "24622"
					}
				},
				"methodIdentifiers": {
					"getStatus()": "4e69d560",
					"setStatus(uint8)": "2e49d78b"
				}
			},
			"storageLayout": {
				"storage": [
					{
						"astId": 8,
						"contract": "Assignments/Assignment5(13-03-2026)/2)enum.sol:manageorder",
						"label": "status",
						"offset": 0,
						"slot": "0",
						"type": "t_enum(orderstatus)5"
					}
				],
				"types": {
					"t_enum(orderstatus)5": {
						"encoding": "inplace",
						"label": "enum manageorder.orderstatus",
						"numberOfBytes": "1"
					}
				}
			},
			"userdoc": {
				"kind": "user",
				"methods": {},
				"version": 1
			}
		}
	}
}