{
	"Assignments/3)struct.sol": {
		"studentdetails": {
			"abi": [
				{
					"inputs": [],
					"name": "getStudent",
					"outputs": [
						{
							"internalType": "uint256",
							"name": "",
							"type": "uint256"
						},
						{
							"internalType": "string",
							"name": "",
							"type": "string"
						},
						{
							"internalType": "uint256",
							"name": "",
							"type": "uint256"
						}
					],
					"stateMutability": "view",
					"type": "function"
				},
				{
					"inputs": [
						{
							"internalType": "uint256",
							"name": "_id",
							"type": "uint256"
						},
						{
							"internalType": "string",
							"name": "_name",
							"type": "string"
						},
						{
							"internalType": "uint256",
							"name": "_age",
							"type": "uint256"
						}
					],
					"name": "setstudent",
					"outputs": [],
					"stateMutability": "nonpayable",
					"type": "function"
				},
				{
					"inputs": [],
					"name": "students",
					"outputs": [
						{
							"internalType": "uint256",
							"name": "id",
							"type": "uint256"
						},
						{
							"internalType": "string",
							"name": "name",
							"type": "string"
						},
						{
							"internalType": "uint256",
							"name": "age",
							"type": "uint256"
						}
					],
					"stateMutability": "view",
					"type": "function"
				}
			],
			"devdoc": {
				"kind": "dev",
				"methods": {},
				"version": 1
			},
			"evm": {
				"assembly": "    /* \"Assignments/3)struct.sol\":423:857  contract studentdetails {... */\n  mstore(0x40, 0x80)\n  callvalue\n  dup1\n  iszero\n  tag_1\n  jumpi\n  revert(0x00, 0x00)\ntag_1:\n  pop\n  dataSize(sub_0)\n  dup1\n  dataOffset(sub_0)\n  0x00\n  codecopy\n  0x00\n  return\nstop\n\nsub_0: assembly {\n        /* \"Assignments/3)struct.sol\":423:857  contract studentdetails {... */\n      mstore(0x40, 0x80)\n      callvalue\n      dup1\n      iszero\n      tag_1\n      jumpi\n      revert(0x00, 0x00)\n    tag_1:\n      pop\n      jumpi(tag_2, lt(calldatasize, 0x04))\n      shr(0xe0, calldataload(0x00))\n      dup1\n      0x5661f2f8\n      eq\n      tag_3\n      jumpi\n      dup1\n      0xb439548d\n      eq\n      tag_4\n      jumpi\n      dup1\n      0xecf944f8\n      eq\n      tag_5\n      jumpi\n    tag_2:\n      revert(0x00, 0x00)\n        /* \"Assignments/3)struct.sol\":579:705  function setstudent(uint256 _id,string memory _name,uint256 _age) public {... */\n    tag_3:\n      tag_6\n      0x04\n      dup1\n      calldatasize\n      sub\n      dup2\n      add\n      swap1\n      tag_7\n      swap2\n      swap1\n      tag_8\n      jump\t// in\n    tag_7:\n      tag_9\n      jump\t// in\n    tag_6:\n      stop\n        /* \"Assignments/3)struct.sol\":711:850  function getStudent() public view returns (uint256,string memory,uint256){... */\n    tag_4:\n      tag_10\n      tag_11\n      jump\t// in\n    tag_10:\n      mload(0x40)\n      tag_12\n      swap4\n      swap3\n      swap2\n      swap1\n      tag_13\n      jump\t// in\n    tag_12:\n      mload(0x40)\n      dup1\n      swap2\n      sub\n      swap1\n      return\n        /* \"Assignments/3)struct.sol\":549:572  Student public students */\n    tag_5:\n      tag_14\n      tag_15\n      jump\t// in\n    tag_14:\n      mload(0x40)\n      tag_16\n      swap4\n      swap3\n      swap2\n      swap1\n      tag_13\n      jump\t// in\n    tag_16:\n      mload(0x40)\n      dup1\n      swap2\n      sub\n      swap1\n      return\n        /* \"Assignments/3)struct.sol\":579:705  function setstudent(uint256 _id,string memory _name,uint256 _age) public {... */\n    tag_9:\n        /* \"Assignments/3)struct.sol\":674:697  Student(_id,_name,_age) */\n      mload(0x40)\n      dup1\n      0x60\n      add\n      0x40\n      mstore\n      dup1\n        /* \"Assignments/3)struct.sol\":682:685  _id */\n      dup5\n        /* \"Assignments/3)struct.sol\":674:697  Student(_id,_name,_age) */\n      dup2\n      mstore\n      0x20\n      add\n        /* \"Assignments/3)struct.sol\":686:691  _name */\n      dup4\n        /* \"Assignments/3)struct.sol\":674:697  Student(_id,_name,_age) */\n      dup2\n      mstore\n      0x20\n      add\n        /* \"Assignments/3)struct.sol\":692:696  _age */\n      dup3\n        /* \"Assignments/3)struct.sol\":674:697  Student(_id,_name,_age) */\n      dup2\n      mstore\n      pop\n        /* \"Assignments/3)struct.sol\":663:671  students */\n      0x00\n        /* \"Assignments/3)struct.sol\":663:697  students = Student(_id,_name,_age) */\n      0x00\n      dup3\n      add\n      mload\n      dup2\n      0x00\n      add\n      sstore\n      0x20\n      dup3\n      add\n      mload\n      dup2\n      0x01\n      add\n      swap1\n      dup2\n      tag_18\n      swap2\n      swap1\n      tag_19\n      jump\t// in\n    tag_18:\n      pop\n      0x40\n      dup3\n      add\n      mload\n      dup2\n      0x02\n      add\n      sstore\n      swap1\n      pop\n      pop\n        /* \"Assignments/3)struct.sol\":579:705  function setstudent(uint256 _id,string memory _name,uint256 _age) public {... */\n      pop\n      pop\n      pop\n      jump\t// out\n        /* \"Assignments/3)struct.sol\":711:850  function getStudent() public view returns (uint256,string memory,uint256){... */\n    tag_11:\n        /* \"Assignments/3)struct.sol\":754:761  uint256 */\n      0x00\n        /* \"Assignments/3)struct.sol\":762:775  string memory */\n      0x60\n        /* \"Assignments/3)struct.sol\":776:783  uint256 */\n      0x00\n        /* \"Assignments/3)struct.sol\":803:811  students */\n      0x00\n        /* \"Assignments/3)struct.sol\":803:814  students.id */\n      0x00\n      add\n      sload\n        /* \"Assignments/3)struct.sol\":815:823  students */\n      0x00\n        /* \"Assignments/3)struct.sol\":815:828  students.name */\n      0x01\n      add\n        /* \"Assignments/3)struct.sol\":829:837  students */\n      0x00\n        /* \"Assignments/3)struct.sol\":829:841  students.age */\n      0x02\n      add\n      sload\n        /* \"Assignments/3)struct.sol\":795:842  return (students.id,students.name,students.age) */\n      dup2\n      dup1\n      sload\n      tag_21\n      swap1\n      tag_22\n      jump\t// in\n    tag_21:\n      dup1\n      0x1f\n      add\n      0x20\n      dup1\n      swap2\n      div\n      mul\n      0x20\n      add\n      mload(0x40)\n      swap1\n      dup2\n      add\n      0x40\n      mstore\n      dup1\n      swap3\n      swap2\n      swap1\n      dup2\n      dup2\n      mstore\n      0x20\n      add\n      dup3\n      dup1\n      sload\n      tag_23\n      swap1\n      tag_22\n      jump\t// in\n    tag_23:\n      dup1\n      iszero\n      tag_24\n      jumpi\n      dup1\n      0x1f\n      lt\n      tag_25\n      jumpi\n      0x0100\n      dup1\n      dup4\n      sload\n      div\n      mul\n      dup4\n      mstore\n      swap2\n      0x20\n      add\n      swap2\n      jump(tag_24)\n    tag_25:\n      dup3\n      add\n      swap2\n      swap1\n      0x00\n      mstore\n      keccak256(0x00, 0x20)\n      swap1\n    tag_26:\n      dup2\n      sload\n      dup2\n      mstore\n      swap1\n      0x01\n      add\n      swap1\n      0x20\n      add\n      dup1\n      dup4\n      gt\n      tag_26\n      jumpi\n      dup3\n      swap1\n      sub\n      0x1f\n      and\n      dup3\n      add\n      swap2\n    tag_24:\n      pop\n      pop\n      pop\n      pop\n      pop\n      swap2\n      pop\n      swap3\n      pop\n      swap3\n      pop\n      swap3\n      pop\n        /* \"Assignments/3)struct.sol\":711:850  function getStudent() public view returns (uint256,string memory,uint256){... */\n      swap1\n      swap2\n      swap3\n      jump\t// out\n        /* \"Assignments/3)struct.sol\":549:572  Student public students */\n    tag_15:\n      0x00\n      dup1\n      0x00\n      add\n      sload\n      swap1\n      dup1\n      0x01\n      add\n      dup1\n      sload\n      tag_27\n      swap1\n      tag_22\n      jump\t// in\n    tag_27:\n      dup1\n      0x1f\n      add\n      0x20\n      dup1\n      swap2\n      div\n      mul\n      0x20\n      add\n      mload(0x40)\n      swap1\n      dup2\n      add\n      0x40\n      mstore\n      dup1\n      swap3\n      swap2\n      swap1\n      dup2\n      dup2\n      mstore\n      0x20\n      add\n      dup3\n      dup1\n      sload\n      tag_28\n      swap1\n      tag_22\n      jump\t// in\n    tag_28:\n      dup1\n      iszero\n      tag_29\n      jumpi\n      dup1\n      0x1f\n      lt\n      tag_30\n      jumpi\n      0x0100\n      dup1\n      dup4\n      sload\n      div\n      mul\n      dup4\n      mstore\n      swap2\n      0x20\n      add\n      swap2\n      jump(tag_29)\n    tag_30:\n      dup3\n      add\n      swap2\n      swap1\n      0x00\n      mstore\n      keccak256(0x00, 0x20)\n      swap1\n    tag_31:\n      dup2\n      sload\n      dup2\n      mstore\n      swap1\n      0x01\n      add\n      swap1\n      0x20\n      add\n      dup1\n      dup4\n      gt\n      tag_31\n      jumpi\n      dup3\n      swap1\n      sub\n      0x1f\n      and\n      dup3\n      add\n      swap2\n    tag_29:\n      pop\n      pop\n      pop\n      pop\n      pop\n      swap1\n      dup1\n      0x02\n      add\n      sload\n      swap1\n      pop\n      dup4\n      jump\t// out\n        /* \"#utility.yul\":7:82   */\n    tag_32:\n        /* \"#utility.yul\":40:46   */\n      0x00\n        /* \"#utility.yul\":73:75   */\n      0x40\n        /* \"#utility.yul\":67:76   */\n      mload\n        /* \"#utility.yul\":57:76   */\n      swap1\n      pop\n        /* \"#utility.yul\":7:82   */\n      swap1\n      jump\t// out\n        /* \"#utility.yul\":88:205   */\n    tag_33:\n        /* \"#utility.yul\":197:198   */\n      0x00\n        /* \"#utility.yul\":194:195   */\n      0x00\n        /* \"#utility.yul\":187:199   */\n      revert\n        /* \"#utility.yul\":211:328   */\n    tag_34:\n        /* \"#utility.yul\":320:321   */\n      0x00\n        /* \"#utility.yul\":317:318   */\n      0x00\n        /* \"#utility.yul\":310:322   */\n      revert\n        /* \"#utility.yul\":334:411   */\n    tag_35:\n        /* \"#utility.yul\":371:378   */\n      0x00\n        /* \"#utility.yul\":400:405   */\n      dup2\n        /* \"#utility.yul\":389:405   */\n      swap1\n      pop\n        /* \"#utility.yul\":334:411   */\n      swap2\n      swap1\n      pop\n      jump\t// out\n        /* \"#utility.yul\":417:539   */\n    tag_36:\n        /* \"#utility.yul\":490:514   */\n      tag_75\n        /* \"#utility.yul\":508:513   */\n      dup2\n        /* \"#utility.yul\":490:514   */\n      tag_35\n      jump\t// in\n    tag_75:\n        /* \"#utility.yul\":483:488   */\n      dup2\n        /* \"#utility.yul\":480:515   */\n      eq\n        /* \"#utility.yul\":470:533   */\n      tag_76\n      jumpi\n        /* \"#utility.yul\":529:530   */\n      0x00\n        /* \"#utility.yul\":526:527   */\n      0x00\n        /* \"#utility.yul\":519:531   */\n      revert\n        /* \"#utility.yul\":470:533   */\n    tag_76:\n        /* \"#utility.yul\":417:539   */\n      pop\n      jump\t// out\n        /* \"#utility.yul\":545:684   */\n    tag_37:\n        /* \"#utility.yul\":591:596   */\n      0x00\n        /* \"#utility.yul\":629:635   */\n      dup2\n        /* \"#utility.yul\":616:636   */\n      calldataload\n        /* \"#utility.yul\":607:636   */\n      swap1\n      pop\n        /* \"#utility.yul\":645:678   */\n      tag_78\n        /* \"#utility.yul\":672:677   */\n      dup2\n        /* \"#utility.yul\":645:678   */\n      tag_36\n      jump\t// in\n    tag_78:\n        /* \"#utility.yul\":545:684   */\n      swap3\n      swap2\n      pop\n      pop\n      jump\t// out\n        /* \"#utility.yul\":690:807   */\n    tag_38:\n        /* \"#utility.yul\":799:800   */\n      0x00\n        /* \"#utility.yul\":796:797   */\n      0x00\n        /* \"#utility.yul\":789:801   */\n      revert\n        /* \"#utility.yul\":813:930   */\n    tag_39:\n        /* \"#utility.yul\":922:923   */\n      0x00\n        /* \"#utility.yul\":919:920   */\n      0x00\n        /* \"#utility.yul\":912:924   */\n      revert\n        /* \"#utility.yul\":936:1038   */\n    tag_40:\n        /* \"#utility.yul\":977:983   */\n      0x00\n        /* \"#utility.yul\":1028:1030   */\n      0x1f\n        /* \"#utility.yul\":1024:1031   */\n      not\n        /* \"#utility.yul\":1019:1021   */\n      0x1f\n        /* \"#utility.yul\":1012:1017   */\n      dup4\n        /* \"#utility.yul\":1008:1022   */\n      add\n        /* \"#utility.yul\":1004:1032   */\n      and\n        /* \"#utility.yul\":994:1032   */\n      swap1\n      pop\n        /* \"#utility.yul\":936:1038   */\n      swap2\n      swap1\n      pop\n      jump\t// out\n        /* \"#utility.yul\":1044:1224   */\n    tag_41:\n        /* \"#utility.yul\":1092:1169   */\n      0x4e487b7100000000000000000000000000000000000000000000000000000000\n        /* \"#utility.yul\":1089:1090   */\n      0x00\n        /* \"#utility.yul\":1082:1170   */\n      mstore\n        /* \"#utility.yul\":1189:1193   */\n      0x41\n        /* \"#utility.yul\":1186:1187   */\n      0x04\n        /* \"#utility.yul\":1179:1194   */\n      mstore\n        /* \"#utility.yul\":1213:1217   */\n      0x24\n        /* \"#utility.yul\":1210:1211   */\n      0x00\n        /* \"#utility.yul\":1203:1218   */\n      revert\n        /* \"#utility.yul\":1230:1511   */\n    tag_42:\n        /* \"#utility.yul\":1313:1340   */\n      tag_84\n        /* \"#utility.yul\":1335:1339   */\n      dup3\n        /* \"#utility.yul\":1313:1340   */\n      tag_40\n      jump\t// in\n    tag_84:\n        /* \"#utility.yul\":1305:1311   */\n      dup2\n        /* \"#utility.yul\":1301:1341   */\n      add\n        /* \"#utility.yul\":1443:1449   */\n      dup2\n        /* \"#utility.yul\":1431:1441   */\n      dup2\n        /* \"#utility.yul\":1428:1450   */\n      lt\n        /* \"#utility.yul\":1407:1425   */\n      0xffffffffffffffff\n        /* \"#utility.yul\":1395:1405   */\n      dup3\n        /* \"#utility.yul\":1392:1426   */\n      gt\n        /* \"#utility.yul\":1389:1451   */\n      or\n        /* \"#utility.yul\":1386:1474   */\n      iszero\n      tag_85\n      jumpi\n        /* \"#utility.yul\":1454:1472   */\n      tag_86\n      tag_41\n      jump\t// in\n    tag_86:\n        /* \"#utility.yul\":1386:1474   */\n    tag_85:\n        /* \"#utility.yul\":1494:1504   */\n      dup1\n        /* \"#utility.yul\":1490:1492   */\n      0x40\n        /* \"#utility.yul\":1483:1505   */\n      mstore\n        /* \"#utility.yul\":1273:1511   */\n      pop\n        /* \"#utility.yul\":1230:1511   */\n      pop\n      pop\n      jump\t// out\n        /* \"#utility.yul\":1517:1646   */\n    tag_43:\n        /* \"#utility.yul\":1551:1557   */\n      0x00\n        /* \"#utility.yul\":1578:1598   */\n      tag_88\n      tag_32\n      jump\t// in\n    tag_88:\n        /* \"#utility.yul\":1568:1598   */\n      swap1\n      pop\n        /* \"#utility.yul\":1607:1640   */\n      tag_89\n        /* \"#utility.yul\":1635:1639   */\n      dup3\n        /* \"#utility.yul\":1627:1633   */\n      dup3\n        /* \"#utility.yul\":1607:1640   */\n      tag_42\n      jump\t// in\n    tag_89:\n        /* \"#utility.yul\":1517:1646   */\n      swap2\n      swap1\n      pop\n      jump\t// out\n        /* \"#utility.yul\":1652:1960   */\n    tag_44:\n        /* \"#utility.yul\":1714:1718   */\n      0x00\n        /* \"#utility.yul\":1804:1822   */\n      0xffffffffffffffff\n        /* \"#utility.yul\":1796:1802   */\n      dup3\n        /* \"#utility.yul\":1793:1823   */\n      gt\n        /* \"#utility.yul\":1790:1846   */\n      iszero\n      tag_91\n      jumpi\n        /* \"#utility.yul\":1826:1844   */\n      tag_92\n      tag_41\n      jump\t// in\n    tag_92:\n        /* \"#utility.yul\":1790:1846   */\n    tag_91:\n        /* \"#utility.yul\":1864:1893   */\n      tag_93\n        /* \"#utility.yul\":1886:1892   */\n      dup3\n        /* \"#utility.yul\":1864:1893   */\n      tag_40\n      jump\t// in\n    tag_93:\n        /* \"#utility.yul\":1856:1893   */\n      swap1\n      pop\n        /* \"#utility.yul\":1948:1952   */\n      0x20\n        /* \"#utility.yul\":1942:1946   */\n      dup2\n        /* \"#utility.yul\":1938:1953   */\n      add\n        /* \"#utility.yul\":1930:1953   */\n      swap1\n      pop\n        /* \"#utility.yul\":1652:1960   */\n      swap2\n      swap1\n      pop\n      jump\t// out\n        /* \"#utility.yul\":1966:2114   */\n    tag_45:\n        /* \"#utility.yul\":2064:2070   */\n      dup3\n        /* \"#utility.yul\":2059:2062   */\n      dup2\n        /* \"#utility.yul\":2054:2057   */\n      dup4\n        /* \"#utility.yul\":2041:2071   */\n      calldatacopy\n        /* \"#utility.yul\":2105:2106   */\n      0x00\n        /* \"#utility.yul\":2096:2102   */\n      dup4\n        /* \"#utility.yul\":2091:2094   */\n      dup4\n        /* \"#utility.yul\":2087:2103   */\n      add\n        /* \"#utility.yul\":2080:2107   */\n      mstore\n        /* \"#utility.yul\":1966:2114   */\n      pop\n      pop\n      pop\n      jump\t// out\n        /* \"#utility.yul\":2120:2545   */\n    tag_46:\n        /* \"#utility.yul\":2198:2203   */\n      0x00\n        /* \"#utility.yul\":2223:2289   */\n      tag_96\n        /* \"#utility.yul\":2239:2288   */\n      tag_97\n        /* \"#utility.yul\":2281:2287   */\n      dup5\n        /* \"#utility.yul\":2239:2288   */\n      tag_44\n      jump\t// in\n    tag_97:\n        /* \"#utility.yul\":2223:2289   */\n      tag_43\n      jump\t// in\n    tag_96:\n        /* \"#utility.yul\":2214:2289   */\n      swap1\n      pop\n        /* \"#utility.yul\":2312:2318   */\n      dup3\n        /* \"#utility.yul\":2305:2310   */\n      dup2\n        /* \"#utility.yul\":2298:2319   */\n      mstore\n        /* \"#utility.yul\":2350:2354   */\n      0x20\n        /* \"#utility.yul\":2343:2348   */\n      dup2\n        /* \"#utility.yul\":2339:2355   */\n      add\n        /* \"#utility.yul\":2388:2391   */\n      dup5\n        /* \"#utility.yul\":2379:2385   */\n      dup5\n        /* \"#utility.yul\":2374:2377   */\n      dup5\n        /* \"#utility.yul\":2370:2386   */\n      add\n        /* \"#utility.yul\":2367:2392   */\n      gt\n        /* \"#utility.yul\":2364:2476   */\n      iszero\n      tag_98\n      jumpi\n        /* \"#utility.yul\":2395:2474   */\n      tag_99\n      tag_39\n      jump\t// in\n    tag_99:\n        /* \"#utility.yul\":2364:2476   */\n    tag_98:\n        /* \"#utility.yul\":2485:2539   */\n      tag_100\n        /* \"#utility.yul\":2532:2538   */\n      dup5\n        /* \"#utility.yul\":2527:2530   */\n      dup3\n        /* \"#utility.yul\":2522:2525   */\n      dup6\n        /* \"#utility.yul\":2485:2539   */\n      tag_45\n      jump\t// in\n    tag_100:\n        /* \"#utility.yul\":2204:2545   */\n      pop\n        /* \"#utility.yul\":2120:2545   */\n      swap4\n      swap3\n      pop\n      pop\n      pop\n      jump\t// out\n        /* \"#utility.yul\":2565:2905   */\n    tag_47:\n        /* \"#utility.yul\":2621:2626   */\n      0x00\n        /* \"#utility.yul\":2670:2673   */\n      dup3\n        /* \"#utility.yul\":2663:2667   */\n      0x1f\n        /* \"#utility.yul\":2655:2661   */\n      dup4\n        /* \"#utility.yul\":2651:2668   */\n      add\n        /* \"#utility.yul\":2647:2674   */\n      slt\n        /* \"#utility.yul\":2637:2759   */\n      tag_102\n      jumpi\n        /* \"#utility.yul\":2678:2757   */\n      tag_103\n      tag_38\n      jump\t// in\n    tag_103:\n        /* \"#utility.yul\":2637:2759   */\n    tag_102:\n        /* \"#utility.yul\":2795:2801   */\n      dup2\n        /* \"#utility.yul\":2782:2802   */\n      calldataload\n        /* \"#utility.yul\":2820:2899   */\n      tag_104\n        /* \"#utility.yul\":2895:2898   */\n      dup5\n        /* \"#utility.yul\":2887:2893   */\n      dup3\n        /* \"#utility.yul\":2880:2884   */\n      0x20\n        /* \"#utility.yul\":2872:2878   */\n      dup7\n        /* \"#utility.yul\":2868:2885   */\n      add\n        /* \"#utility.yul\":2820:2899   */\n      tag_46\n      jump\t// in\n    tag_104:\n        /* \"#utility.yul\":2811:2899   */\n      swap2\n      pop\n        /* \"#utility.yul\":2627:2905   */\n      pop\n        /* \"#utility.yul\":2565:2905   */\n      swap3\n      swap2\n      pop\n      pop\n      jump\t// out\n        /* \"#utility.yul\":2911:3710   */\n    tag_8:\n        /* \"#utility.yul\":2998:3004   */\n      0x00\n        /* \"#utility.yul\":3006:3012   */\n      0x00\n        /* \"#utility.yul\":3014:3020   */\n      0x00\n        /* \"#utility.yul\":3063:3065   */\n      0x60\n        /* \"#utility.yul\":3051:3060   */\n      dup5\n        /* \"#utility.yul\":3042:3049   */\n      dup7\n        /* \"#utility.yul\":3038:3061   */\n      sub\n        /* \"#utility.yul\":3034:3066   */\n      slt\n        /* \"#utility.yul\":3031:3150   */\n      iszero\n      tag_106\n      jumpi\n        /* \"#utility.yul\":3069:3148   */\n      tag_107\n      tag_33\n      jump\t// in\n    tag_107:\n        /* \"#utility.yul\":3031:3150   */\n    tag_106:\n        /* \"#utility.yul\":3189:3190   */\n      0x00\n        /* \"#utility.yul\":3214:3267   */\n      tag_108\n        /* \"#utility.yul\":3259:3266   */\n      dup7\n        /* \"#utility.yul\":3250:3256   */\n      dup3\n        /* \"#utility.yul\":3239:3248   */\n      dup8\n        /* \"#utility.yul\":3235:3257   */\n      add\n        /* \"#utility.yul\":3214:3267   */\n      tag_37\n      jump\t// in\n    tag_108:\n        /* \"#utility.yul\":3204:3267   */\n      swap4\n      pop\n        /* \"#utility.yul\":3160:3277   */\n      pop\n        /* \"#utility.yul\":3344:3346   */\n      0x20\n        /* \"#utility.yul\":3333:3342   */\n      dup5\n        /* \"#utility.yul\":3329:3347   */\n      add\n        /* \"#utility.yul\":3316:3348   */\n      calldataload\n        /* \"#utility.yul\":3375:3393   */\n      0xffffffffffffffff\n        /* \"#utility.yul\":3367:3373   */\n      dup2\n        /* \"#utility.yul\":3364:3394   */\n      gt\n        /* \"#utility.yul\":3361:3478   */\n      iszero\n      tag_109\n      jumpi\n        /* \"#utility.yul\":3397:3476   */\n      tag_110\n      tag_34\n      jump\t// in\n    tag_110:\n        /* \"#utility.yul\":3361:3478   */\n    tag_109:\n        /* \"#utility.yul\":3502:3565   */\n      tag_111\n        /* \"#utility.yul\":3557:3564   */\n      dup7\n        /* \"#utility.yul\":3548:3554   */\n      dup3\n        /* \"#utility.yul\":3537:3546   */\n      dup8\n        /* \"#utility.yul\":3533:3555   */\n      add\n        /* \"#utility.yul\":3502:3565   */\n      tag_47\n      jump\t// in\n    tag_111:\n        /* \"#utility.yul\":3492:3565   */\n      swap3\n      pop\n        /* \"#utility.yul\":3287:3575   */\n      pop\n        /* \"#utility.yul\":3614:3616   */\n      0x40\n        /* \"#utility.yul\":3640:3693   */\n      tag_112\n        /* \"#utility.yul\":3685:3692   */\n      dup7\n        /* \"#utility.yul\":3676:3682   */\n      dup3\n        /* \"#utility.yul\":3665:3674   */\n      dup8\n        /* \"#utility.yul\":3661:3683   */\n      add\n        /* \"#utility.yul\":3640:3693   */\n      tag_37\n      jump\t// in\n    tag_112:\n        /* \"#utility.yul\":3630:3693   */\n      swap2\n      pop\n        /* \"#utility.yul\":3585:3703   */\n      pop\n        /* \"#utility.yul\":2911:3710   */\n      swap3\n      pop\n      swap3\n      pop\n      swap3\n      jump\t// out\n        /* \"#utility.yul\":3716:3834   */\n    tag_48:\n        /* \"#utility.yul\":3803:3827   */\n      tag_114\n        /* \"#utility.yul\":3821:3826   */\n      dup2\n        /* \"#utility.yul\":3803:3827   */\n      tag_35\n      jump\t// in\n    tag_114:\n        /* \"#utility.yul\":3798:3801   */\n      dup3\n        /* \"#utility.yul\":3791:3828   */\n      mstore\n        /* \"#utility.yul\":3716:3834   */\n      pop\n      pop\n      jump\t// out\n        /* \"#utility.yul\":3840:3939   */\n    tag_49:\n        /* \"#utility.yul\":3892:3898   */\n      0x00\n        /* \"#utility.yul\":3926:3931   */\n      dup2\n        /* \"#utility.yul\":3920:3932   */\n      mload\n        /* \"#utility.yul\":3910:3932   */\n      swap1\n      pop\n        /* \"#utility.yul\":3840:3939   */\n      swap2\n      swap1\n      pop\n      jump\t// out\n        /* \"#utility.yul\":3945:4114   */\n    tag_50:\n        /* \"#utility.yul\":4029:4040   */\n      0x00\n        /* \"#utility.yul\":4063:4069   */\n      dup3\n        /* \"#utility.yul\":4058:4061   */\n      dup3\n        /* \"#utility.yul\":4051:4070   */\n      mstore\n        /* \"#utility.yul\":4103:4107   */\n      0x20\n        /* \"#utility.yul\":4098:4101   */\n      dup3\n        /* \"#utility.yul\":4094:4108   */\n      add\n        /* \"#utility.yul\":4079:4108   */\n      swap1\n      pop\n        /* \"#utility.yul\":3945:4114   */\n      swap3\n      swap2\n      pop\n      pop\n      jump\t// out\n        /* \"#utility.yul\":4120:4259   */\n    tag_51:\n        /* \"#utility.yul\":4209:4215   */\n      dup3\n        /* \"#utility.yul\":4204:4207   */\n      dup2\n        /* \"#utility.yul\":4199:4202   */\n      dup4\n        /* \"#utility.yul\":4193:4216   */\n      mcopy\n        /* \"#utility.yul\":4250:4251   */\n      0x00\n        /* \"#utility.yul\":4241:4247   */\n      dup4\n        /* \"#utility.yul\":4236:4239   */\n      dup4\n        /* \"#utility.yul\":4232:4248   */\n      add\n        /* \"#utility.yul\":4225:4252   */\n      mstore\n        /* \"#utility.yul\":4120:4259   */\n      pop\n      pop\n      pop\n      jump\t// out\n        /* \"#utility.yul\":4265:4642   */\n    tag_52:\n        /* \"#utility.yul\":4353:4356   */\n      0x00\n        /* \"#utility.yul\":4381:4420   */\n      tag_119\n        /* \"#utility.yul\":4414:4419   */\n      dup3\n        /* \"#utility.yul\":4381:4420   */\n      tag_49\n      jump\t// in\n    tag_119:\n        /* \"#utility.yul\":4436:4507   */\n      tag_120\n        /* \"#utility.yul\":4500:4506   */\n      dup2\n        /* \"#utility.yul\":4495:4498   */\n      dup6\n        /* \"#utility.yul\":4436:4507   */\n      tag_50\n      jump\t// in\n    tag_120:\n        /* \"#utility.yul\":4429:4507   */\n      swap4\n      pop\n        /* \"#utility.yul\":4516:4581   */\n      tag_121\n        /* \"#utility.yul\":4574:4580   */\n      dup2\n        /* \"#utility.yul\":4569:4572   */\n      dup6\n        /* \"#utility.yul\":4562:4566   */\n      0x20\n        /* \"#utility.yul\":4555:4560   */\n      dup7\n        /* \"#utility.yul\":4551:4567   */\n      add\n        /* \"#utility.yul\":4516:4581   */\n      tag_51\n      jump\t// in\n    tag_121:\n        /* \"#utility.yul\":4606:4635   */\n      tag_122\n        /* \"#utility.yul\":4628:4634   */\n      dup2\n        /* \"#utility.yul\":4606:4635   */\n      tag_40\n      jump\t// in\n    tag_122:\n        /* \"#utility.yul\":4601:4604   */\n      dup5\n        /* \"#utility.yul\":4597:4636   */\n      add\n        /* \"#utility.yul\":4590:4636   */\n      swap2\n      pop\n        /* \"#utility.yul\":4357:4642   */\n      pop\n        /* \"#utility.yul\":4265:4642   */\n      swap3\n      swap2\n      pop\n      pop\n      jump\t// out\n        /* \"#utility.yul\":4648:5181   */\n    tag_13:\n        /* \"#utility.yul\":4817:4821   */\n      0x00\n        /* \"#utility.yul\":4855:4857   */\n      0x60\n        /* \"#utility.yul\":4844:4853   */\n      dup3\n        /* \"#utility.yul\":4840:4858   */\n      add\n        /* \"#utility.yul\":4832:4858   */\n      swap1\n      pop\n        /* \"#utility.yul\":4868:4939   */\n      tag_124\n        /* \"#utility.yul\":4936:4937   */\n      0x00\n        /* \"#utility.yul\":4925:4934   */\n      dup4\n        /* \"#utility.yul\":4921:4938   */\n      add\n        /* \"#utility.yul\":4912:4918   */\n      dup7\n        /* \"#utility.yul\":4868:4939   */\n      tag_48\n      jump\t// in\n    tag_124:\n        /* \"#utility.yul\":4986:4995   */\n      dup2\n        /* \"#utility.yul\":4980:4984   */\n      dup2\n        /* \"#utility.yul\":4976:4996   */\n      sub\n        /* \"#utility.yul\":4971:4973   */\n      0x20\n        /* \"#utility.yul\":4960:4969   */\n      dup4\n        /* \"#utility.yul\":4956:4974   */\n      add\n        /* \"#utility.yul\":4949:4997   */\n      mstore\n        /* \"#utility.yul\":5014:5092   */\n      tag_125\n        /* \"#utility.yul\":5087:5091   */\n      dup2\n        /* \"#utility.yul\":5078:5084   */\n      dup6\n        /* \"#utility.yul\":5014:5092   */\n      tag_52\n      jump\t// in\n    tag_125:\n        /* \"#utility.yul\":5006:5092   */\n      swap1\n      pop\n        /* \"#utility.yul\":5102:5174   */\n      tag_126\n        /* \"#utility.yul\":5170:5172   */\n      0x40\n        /* \"#utility.yul\":5159:5168   */\n      dup4\n        /* \"#utility.yul\":5155:5173   */\n      add\n        /* \"#utility.yul\":5146:5152   */\n      dup5\n        /* \"#utility.yul\":5102:5174   */\n      tag_48\n      jump\t// in\n    tag_126:\n        /* \"#utility.yul\":4648:5181   */\n      swap5\n      swap4\n      pop\n      pop\n      pop\n      pop\n      jump\t// out\n        /* \"#utility.yul\":5187:5367   */\n    tag_53:\n        /* \"#utility.yul\":5235:5312   */\n      0x4e487b7100000000000000000000000000000000000000000000000000000000\n        /* \"#utility.yul\":5232:5233   */\n      0x00\n        /* \"#utility.yul\":5225:5313   */\n      mstore\n        /* \"#utility.yul\":5332:5336   */\n      0x22\n        /* \"#utility.yul\":5329:5330   */\n      0x04\n        /* \"#utility.yul\":5322:5337   */\n      mstore\n        /* \"#utility.yul\":5356:5360   */\n      0x24\n        /* \"#utility.yul\":5353:5354   */\n      0x00\n        /* \"#utility.yul\":5346:5361   */\n      revert\n        /* \"#utility.yul\":5373:5693   */\n    tag_22:\n        /* \"#utility.yul\":5417:5423   */\n      0x00\n        /* \"#utility.yul\":5454:5455   */\n      0x02\n        /* \"#utility.yul\":5448:5452   */\n      dup3\n        /* \"#utility.yul\":5444:5456   */\n      div\n        /* \"#utility.yul\":5434:5456   */\n      swap1\n      pop\n        /* \"#utility.yul\":5501:5502   */\n      0x01\n        /* \"#utility.yul\":5495:5499   */\n      dup3\n        /* \"#utility.yul\":5491:5503   */\n      and\n        /* \"#utility.yul\":5522:5540   */\n      dup1\n        /* \"#utility.yul\":5512:5593   */\n      tag_129\n      jumpi\n        /* \"#utility.yul\":5578:5582   */\n      0x7f\n        /* \"#utility.yul\":5570:5576   */\n      dup3\n        /* \"#utility.yul\":5566:5583   */\n      and\n        /* \"#utility.yul\":5556:5583   */\n      swap2\n      pop\n        /* \"#utility.yul\":5512:5593   */\n    tag_129:\n        /* \"#utility.yul\":5640:5642   */\n      0x20\n        /* \"#utility.yul\":5632:5638   */\n      dup3\n        /* \"#utility.yul\":5629:5643   */\n      lt\n        /* \"#utility.yul\":5609:5627   */\n      dup2\n        /* \"#utility.yul\":5606:5644   */\n      sub\n        /* \"#utility.yul\":5603:5687   */\n      tag_130\n      jumpi\n        /* \"#utility.yul\":5659:5677   */\n      tag_131\n      tag_53\n      jump\t// in\n    tag_131:\n        /* \"#utility.yul\":5603:5687   */\n    tag_130:\n        /* \"#utility.yul\":5424:5693   */\n      pop\n        /* \"#utility.yul\":5373:5693   */\n      swap2\n      swap1\n      pop\n      jump\t// out\n        /* \"#utility.yul\":5699:5840   */\n    tag_54:\n        /* \"#utility.yul\":5748:5752   */\n      0x00\n        /* \"#utility.yul\":5771:5774   */\n      dup2\n        /* \"#utility.yul\":5763:5774   */\n      swap1\n      pop\n        /* \"#utility.yul\":5794:5797   */\n      dup2\n        /* \"#utility.yul\":5791:5792   */\n      0x00\n        /* \"#utility.yul\":5784:5798   */\n      mstore\n        /* \"#utility.yul\":5828:5832   */\n      0x20\n        /* \"#utility.yul\":5825:5826   */\n      0x00\n        /* \"#utility.yul\":5815:5833   */\n      keccak256\n        /* \"#utility.yul\":5807:5833   */\n      swap1\n      pop\n        /* \"#utility.yul\":5699:5840   */\n      swap2\n      swap1\n      pop\n      jump\t// out\n        /* \"#utility.yul\":5846:5939   */\n    tag_55:\n        /* \"#utility.yul\":5883:5889   */\n      0x00\n        /* \"#utility.yul\":5930:5932   */\n      0x20\n        /* \"#utility.yul\":5925:5927   */\n      0x1f\n        /* \"#utility.yul\":5918:5923   */\n      dup4\n        /* \"#utility.yul\":5914:5928   */\n      add\n        /* \"#utility.yul\":5910:5933   */\n      div\n        /* \"#utility.yul\":5900:5933   */\n      swap1\n      pop\n        /* \"#utility.yul\":5846:5939   */\n      swap2\n      swap1\n      pop\n      jump\t// out\n        /* \"#utility.yul\":5945:6052   */\n    tag_56:\n        /* \"#utility.yul\":5989:5997   */\n      0x00\n        /* \"#utility.yul\":6039:6044   */\n      dup3\n        /* \"#utility.yul\":6033:6037   */\n      dup3\n        /* \"#utility.yul\":6029:6045   */\n      shl\n        /* \"#utility.yul\":6008:6045   */\n      swap1\n      pop\n        /* \"#utility.yul\":5945:6052   */\n      swap3\n      swap2\n      pop\n      pop\n      jump\t// out\n        /* \"#utility.yul\":6058:6451   */\n    tag_57:\n        /* \"#utility.yul\":6127:6133   */\n      0x00\n        /* \"#utility.yul\":6177:6178   */\n      0x08\n        /* \"#utility.yul\":6165:6175   */\n      dup4\n        /* \"#utility.yul\":6161:6179   */\n      mul\n        /* \"#utility.yul\":6200:6297   */\n      tag_136\n        /* \"#utility.yul\":6230:6296   */\n      0xffffffffffffffffffffffffffffffffffffffffffffffffffffffffffffffff\n        /* \"#utility.yul\":6219:6228   */\n      dup3\n        /* \"#utility.yul\":6200:6297   */\n      tag_56\n      jump\t// in\n    tag_136:\n        /* \"#utility.yul\":6318:6357   */\n      tag_137\n        /* \"#utility.yul\":6348:6356   */\n      dup7\n        /* \"#utility.yul\":6337:6346   */\n      dup4\n        /* \"#utility.yul\":6318:6357   */\n      tag_56\n      jump\t// in\n    tag_137:\n        /* \"#utility.yul\":6306:6357   */\n      swap6\n      pop\n        /* \"#utility.yul\":6390:6394   */\n      dup1\n        /* \"#utility.yul\":6386:6395   */\n      not\n        /* \"#utility.yul\":6379:6384   */\n      dup5\n        /* \"#utility.yul\":6375:6396   */\n      and\n        /* \"#utility.yul\":6366:6396   */\n      swap4\n      pop\n        /* \"#utility.yul\":6439:6443   */\n      dup1\n        /* \"#utility.yul\":6429:6437   */\n      dup7\n        /* \"#utility.yul\":6425:6444   */\n      and\n        /* \"#utility.yul\":6418:6423   */\n      dup5\n        /* \"#utility.yul\":6415:6445   */\n      or\n        /* \"#utility.yul\":6405:6445   */\n      swap3\n      pop\n        /* \"#utility.yul\":6134:6451   */\n      pop\n      pop\n        /* \"#utility.yul\":6058:6451   */\n      swap4\n      swap3\n      pop\n      pop\n      pop\n      jump\t// out\n        /* \"#utility.yul\":6457:6517   */\n    tag_58:\n        /* \"#utility.yul\":6485:6488   */\n      0x00\n        /* \"#utility.yul\":6506:6511   */\n      dup2\n        /* \"#utility.yul\":6499:6511   */\n      swap1\n      pop\n        /* \"#utility.yul\":6457:6517   */\n      swap2\n      swap1\n      pop\n      jump\t// out\n        /* \"#utility.yul\":6523:6665   */\n    tag_59:\n        /* \"#utility.yul\":6573:6582   */\n      0x00\n        /* \"#utility.yul\":6606:6659   */\n      tag_140\n        /* \"#utility.yul\":6624:6658   */\n      tag_141\n        /* \"#utility.yul\":6633:6657   */\n      tag_142\n        /* \"#utility.yul\":6651:6656   */\n      dup5\n        /* \"#utility.yul\":6633:6657   */\n      tag_35\n      jump\t// in\n    tag_142:\n        /* \"#utility.yul\":6624:6658   */\n      tag_58\n      jump\t// in\n    tag_141:\n        /* \"#utility.yul\":6606:6659   */\n      tag_35\n      jump\t// in\n    tag_140:\n        /* \"#utility.yul\":6593:6659   */\n      swap1\n      pop\n        /* \"#utility.yul\":6523:6665   */\n      swap2\n      swap1\n      pop\n      jump\t// out\n        /* \"#utility.yul\":6671:6746   */\n    tag_60:\n        /* \"#utility.yul\":6714:6717   */\n      0x00\n        /* \"#utility.yul\":6735:6740   */\n      dup2\n        /* \"#utility.yul\":6728:6740   */\n      swap1\n      pop\n        /* \"#utility.yul\":6671:6746   */\n      swap2\n      swap1\n      pop\n      jump\t// out\n        /* \"#utility.yul\":6752:7021   */\n    tag_61:\n        /* \"#utility.yul\":6862:6901   */\n      tag_145\n        /* \"#utility.yul\":6893:6900   */\n      dup4\n        /* \"#utility.yul\":6862:6901   */\n      tag_59\n      jump\t// in\n    tag_145:\n        /* \"#utility.yul\":6923:7014   */\n      tag_146\n        /* \"#utility.yul\":6972:7013   */\n      tag_147\n        /* \"#utility.yul\":6996:7012   */\n      dup3\n        /* \"#utility.yul\":6972:7013   */\n      tag_60\n      jump\t// in\n    tag_147:\n        /* \"#utility.yul\":6964:6970   */\n      dup5\n        /* \"#utility.yul\":6957:6961   */\n      dup5\n        /* \"#utility.yul\":6951:6962   */\n      sload\n        /* \"#utility.yul\":6923:7014   */\n      tag_57\n      jump\t// in\n    tag_146:\n        /* \"#utility.yul\":6917:6921   */\n      dup3\n        /* \"#utility.yul\":6910:7015   */\n      sstore\n        /* \"#utility.yul\":6828:7021   */\n      pop\n        /* \"#utility.yul\":6752:7021   */\n      pop\n      pop\n      pop\n      jump\t// out\n        /* \"#utility.yul\":7027:7100   */\n    tag_62:\n        /* \"#utility.yul\":7072:7075   */\n      0x00\n        /* \"#utility.yul\":7093:7094   */\n      0x00\n        /* \"#utility.yul\":7086:7094   */\n      swap1\n      pop\n        /* \"#utility.yul\":7027:7100   */\n      swap1\n      jump\t// out\n        /* \"#utility.yul\":7106:7295   */\n    tag_63:\n        /* \"#utility.yul\":7183:7215   */\n      tag_150\n      tag_62\n      jump\t// in\n    tag_150:\n        /* \"#utility.yul\":7224:7289   */\n      tag_151\n        /* \"#utility.yul\":7282:7288   */\n      dup2\n        /* \"#utility.yul\":7274:7280   */\n      dup5\n        /* \"#utility.yul\":7268:7272   */\n      dup5\n        /* \"#utility.yul\":7224:7289   */\n      tag_61\n      jump\t// in\n    tag_151:\n        /* \"#utility.yul\":7159:7295   */\n      pop\n        /* \"#utility.yul\":7106:7295   */\n      pop\n      pop\n      jump\t// out\n        /* \"#utility.yul\":7301:7487   */\n    tag_64:\n        /* \"#utility.yul\":7361:7481   */\n    tag_153:\n        /* \"#utility.yul\":7378:7381   */\n      dup2\n        /* \"#utility.yul\":7371:7376   */\n      dup2\n        /* \"#utility.yul\":7368:7382   */\n      lt\n        /* \"#utility.yul\":7361:7481   */\n      iszero\n      tag_155\n      jumpi\n        /* \"#utility.yul\":7432:7471   */\n      tag_156\n        /* \"#utility.yul\":7469:7470   */\n      0x00\n        /* \"#utility.yul\":7462:7467   */\n      dup3\n        /* \"#utility.yul\":7432:7471   */\n      tag_63\n      jump\t// in\n    tag_156:\n        /* \"#utility.yul\":7405:7406   */\n      0x01\n        /* \"#utility.yul\":7398:7403   */\n      dup2\n        /* \"#utility.yul\":7394:7407   */\n      add\n        /* \"#utility.yul\":7385:7407   */\n      swap1\n      pop\n        /* \"#utility.yul\":7361:7481   */\n      jump(tag_153)\n    tag_155:\n        /* \"#utility.yul\":7301:7487   */\n      pop\n      pop\n      jump\t// out\n        /* \"#utility.yul\":7493:8036   */\n    tag_65:\n        /* \"#utility.yul\":7594:7596   */\n      0x1f\n        /* \"#utility.yul\":7589:7592   */\n      dup3\n        /* \"#utility.yul\":7586:7597   */\n      gt\n        /* \"#utility.yul\":7583:8029   */\n      iszero\n      tag_158\n      jumpi\n        /* \"#utility.yul\":7628:7666   */\n      tag_159\n        /* \"#utility.yul\":7660:7665   */\n      dup2\n        /* \"#utility.yul\":7628:7666   */\n      tag_54\n      jump\t// in\n    tag_159:\n        /* \"#utility.yul\":7712:7741   */\n      tag_160\n        /* \"#utility.yul\":7730:7740   */\n      dup5\n        /* \"#utility.yul\":7712:7741   */\n      tag_55\n      jump\t// in\n    tag_160:\n        /* \"#utility.yul\":7702:7710   */\n      dup2\n        /* \"#utility.yul\":7698:7742   */\n      add\n        /* \"#utility.yul\":7895:7897   */\n      0x20\n        /* \"#utility.yul\":7883:7893   */\n      dup6\n        /* \"#utility.yul\":7880:7898   */\n      lt\n        /* \"#utility.yul\":7877:7926   */\n      iszero\n      tag_161\n      jumpi\n        /* \"#utility.yul\":7916:7924   */\n      dup2\n        /* \"#utility.yul\":7901:7924   */\n      swap1\n      pop\n        /* \"#utility.yul\":7877:7926   */\n    tag_161:\n        /* \"#utility.yul\":7939:8019   */\n      tag_162\n        /* \"#utility.yul\":7995:8017   */\n      tag_163\n        /* \"#utility.yul\":8013:8016   */\n      dup6\n        /* \"#utility.yul\":7995:8017   */\n      tag_55\n      jump\t// in\n    tag_163:\n        /* \"#utility.yul\":7985:7993   */\n      dup4\n        /* \"#utility.yul\":7981:8018   */\n      add\n        /* \"#utility.yul\":7968:7979   */\n      dup3\n        /* \"#utility.yul\":7939:8019   */\n      tag_64\n      jump\t// in\n    tag_162:\n        /* \"#utility.yul\":7598:8029   */\n      pop\n      pop\n        /* \"#utility.yul\":7583:8029   */\n    tag_158:\n        /* \"#utility.yul\":7493:8036   */\n      pop\n      pop\n      pop\n      jump\t// out\n        /* \"#utility.yul\":8042:8159   */\n    tag_66:\n        /* \"#utility.yul\":8096:8104   */\n      0x00\n        /* \"#utility.yul\":8146:8151   */\n      dup3\n        /* \"#utility.yul\":8140:8144   */\n      dup3\n        /* \"#utility.yul\":8136:8152   */\n      shr\n        /* \"#utility.yul\":8115:8152   */\n      swap1\n      pop\n        /* \"#utility.yul\":8042:8159   */\n      swap3\n      swap2\n      pop\n      pop\n      jump\t// out\n        /* \"#utility.yul\":8165:8334   */\n    tag_67:\n        /* \"#utility.yul\":8209:8215   */\n      0x00\n        /* \"#utility.yul\":8242:8293   */\n      tag_166\n        /* \"#utility.yul\":8290:8291   */\n      0x00\n        /* \"#utility.yul\":8286:8292   */\n      not\n        /* \"#utility.yul\":8278:8283   */\n      dup5\n        /* \"#utility.yul\":8275:8276   */\n      0x08\n        /* \"#utility.yul\":8271:8284   */\n      mul\n        /* \"#utility.yul\":8242:8293   */\n      tag_66\n      jump\t// in\n    tag_166:\n        /* \"#utility.yul\":8238:8294   */\n      not\n        /* \"#utility.yul\":8323:8327   */\n      dup1\n        /* \"#utility.yul\":8317:8321   */\n      dup4\n        /* \"#utility.yul\":8313:8328   */\n      and\n        /* \"#utility.yul\":8303:8328   */\n      swap2\n      pop\n        /* \"#utility.yul\":8216:8334   */\n      pop\n        /* \"#utility.yul\":8165:8334   */\n      swap3\n      swap2\n      pop\n      pop\n      jump\t// out\n        /* \"#utility.yul\":8339:8634   */\n    tag_68:\n        /* \"#utility.yul\":8415:8419   */\n      0x00\n        /* \"#utility.yul\":8561:8590   */\n      tag_168\n        /* \"#utility.yul\":8586:8589   */\n      dup4\n        /* \"#utility.yul\":8580:8584   */\n      dup4\n        /* \"#utility.yul\":8561:8590   */\n      tag_67\n      jump\t// in\n    tag_168:\n        /* \"#utility.yul\":8553:8590   */\n      swap2\n      pop\n        /* \"#utility.yul\":8623:8626   */\n      dup3\n        /* \"#utility.yul\":8620:8621   */\n      0x02\n        /* \"#utility.yul\":8616:8627   */\n      mul\n        /* \"#utility.yul\":8610:8614   */\n      dup3\n        /* \"#utility.yul\":8607:8628   */\n      or\n        /* \"#utility.yul\":8599:8628   */\n      swap1\n      pop\n        /* \"#utility.yul\":8339:8634   */\n      swap3\n      swap2\n      pop\n      pop\n      jump\t// out\n        /* \"#utility.yul\":8639:10034   */\n    tag_19:\n        /* \"#utility.yul\":8756:8793   */\n      tag_170\n        /* \"#utility.yul\":8789:8792   */\n      dup3\n        /* \"#utility.yul\":8756:8793   */\n      tag_49\n      jump\t// in\n    tag_170:\n        /* \"#utility.yul\":8858:8876   */\n      0xffffffffffffffff\n        /* \"#utility.yul\":8850:8856   */\n      dup2\n        /* \"#utility.yul\":8847:8877   */\n      gt\n        /* \"#utility.yul\":8844:8900   */\n      iszero\n      tag_171\n      jumpi\n        /* \"#utility.yul\":8880:8898   */\n      tag_172\n      tag_41\n      jump\t// in\n    tag_172:\n        /* \"#utility.yul\":8844:8900   */\n    tag_171:\n        /* \"#utility.yul\":8924:8962   */\n      tag_173\n        /* \"#utility.yul\":8956:8960   */\n      dup3\n        /* \"#utility.yul\":8950:8961   */\n      sload\n        /* \"#utility.yul\":8924:8962   */\n      tag_22\n      jump\t// in\n    tag_173:\n        /* \"#utility.yul\":9009:9076   */\n      tag_174\n        /* \"#utility.yul\":9069:9075   */\n      dup3\n        /* \"#utility.yul\":9061:9067   */\n      dup3\n        /* \"#utility.yul\":9055:9059   */\n      dup6\n        /* \"#utility.yul\":9009:9076   */\n      tag_65\n      jump\t// in\n    tag_174:\n        /* \"#utility.yul\":9103:9104   */\n      0x00\n        /* \"#utility.yul\":9127:9131   */\n      0x20\n        /* \"#utility.yul\":9114:9131   */\n      swap1\n      pop\n        /* \"#utility.yul\":9159:9161   */\n      0x1f\n        /* \"#utility.yul\":9151:9157   */\n      dup4\n        /* \"#utility.yul\":9148:9162   */\n      gt\n        /* \"#utility.yul\":9176:9177   */\n      0x01\n        /* \"#utility.yul\":9171:9789   */\n      dup2\n      eq\n      tag_176\n      jumpi\n        /* \"#utility.yul\":9833:9834   */\n      0x00\n        /* \"#utility.yul\":9850:9856   */\n      dup5\n        /* \"#utility.yul\":9847:9924   */\n      iszero\n      tag_177\n      jumpi\n        /* \"#utility.yul\":9899:9908   */\n      dup3\n        /* \"#utility.yul\":9894:9897   */\n      dup8\n        /* \"#utility.yul\":9890:9909   */\n      add\n        /* \"#utility.yul\":9884:9910   */\n      mload\n        /* \"#utility.yul\":9875:9910   */\n      swap1\n      pop\n        /* \"#utility.yul\":9847:9924   */\n    tag_177:\n        /* \"#utility.yul\":9950:10017   */\n      tag_178\n        /* \"#utility.yul\":10010:10016   */\n      dup6\n        /* \"#utility.yul\":10003:10008   */\n      dup3\n        /* \"#utility.yul\":9950:10017   */\n      tag_68\n      jump\t// in\n    tag_178:\n        /* \"#utility.yul\":9944:9948   */\n      dup7\n        /* \"#utility.yul\":9937:10018   */\n      sstore\n        /* \"#utility.yul\":9806:10028   */\n      pop\n        /* \"#utility.yul\":9141:10028   */\n      jump(tag_175)\n        /* \"#utility.yul\":9171:9789   */\n    tag_176:\n        /* \"#utility.yul\":9223:9227   */\n      0x1f\n        /* \"#utility.yul\":9219:9228   */\n      not\n        /* \"#utility.yul\":9211:9217   */\n      dup5\n        /* \"#utility.yul\":9207:9229   */\n      and\n        /* \"#utility.yul\":9257:9294   */\n      tag_179\n        /* \"#utility.yul\":9289:9293   */\n      dup7\n        /* \"#utility.yul\":9257:9294   */\n      tag_54\n      jump\t// in\n    tag_179:\n        /* \"#utility.yul\":9316:9317   */\n      0x00\n        /* \"#utility.yul\":9330:9538   */\n    tag_180:\n        /* \"#utility.yul\":9344:9351   */\n      dup3\n        /* \"#utility.yul\":9341:9342   */\n      dup2\n        /* \"#utility.yul\":9338:9352   */\n      lt\n        /* \"#utility.yul\":9330:9538   */\n      iszero\n      tag_182\n      jumpi\n        /* \"#utility.yul\":9423:9432   */\n      dup5\n        /* \"#utility.yul\":9418:9421   */\n      dup10\n        /* \"#utility.yul\":9414:9433   */\n      add\n        /* \"#utility.yul\":9408:9434   */\n      mload\n        /* \"#utility.yul\":9400:9406   */\n      dup3\n        /* \"#utility.yul\":9393:9435   */\n      sstore\n        /* \"#utility.yul\":9474:9475   */\n      0x01\n        /* \"#utility.yul\":9466:9472   */\n      dup3\n        /* \"#utility.yul\":9462:9476   */\n      add\n        /* \"#utility.yul\":9452:9476   */\n      swap2\n      pop\n        /* \"#utility.yul\":9521:9523   */\n      0x20\n        /* \"#utility.yul\":9510:9519   */\n      dup6\n        /* \"#utility.yul\":9506:9524   */\n      add\n        /* \"#utility.yul\":9493:9524   */\n      swap5\n      pop\n        /* \"#utility.yul\":9367:9371   */\n      0x20\n        /* \"#utility.yul\":9364:9365   */\n      dup2\n        /* \"#utility.yul\":9360:9372   */\n      add\n        /* \"#utility.yul\":9355:9372   */\n      swap1\n      pop\n        /* \"#utility.yul\":9330:9538   */\n      jump(tag_180)\n    tag_182:\n        /* \"#utility.yul\":9566:9572   */\n      dup7\n        /* \"#utility.yul\":9557:9564   */\n      dup4\n        /* \"#utility.yul\":9554:9573   */\n      lt\n        /* \"#utility.yul\":9551:9730   */\n      iszero\n      tag_183\n      jumpi\n        /* \"#utility.yul\":9624:9633   */\n      dup5\n        /* \"#utility.yul\":9619:9622   */\n      dup10\n        /* \"#utility.yul\":9615:9634   */\n      add\n        /* \"#utility.yul\":9609:9635   */\n      mload\n        /* \"#utility.yul\":9667:9715   */\n      tag_184\n        /* \"#utility.yul\":9709:9713   */\n      0x1f\n        /* \"#utility.yul\":9701:9707   */\n      dup10\n        /* \"#utility.yul\":9697:9714   */\n      and\n        /* \"#utility.yul\":9686:9695   */\n      dup3\n        /* \"#utility.yul\":9667:9715   */\n      tag_67\n      jump\t// in\n    tag_184:\n        /* \"#utility.yul\":9659:9665   */\n      dup4\n        /* \"#utility.yul\":9652:9716   */\n      sstore\n        /* \"#utility.yul\":9574:9730   */\n      pop\n        /* \"#utility.yul\":9551:9730   */\n    tag_183:\n        /* \"#utility.yul\":9776:9777   */\n      0x01\n        /* \"#utility.yul\":9772:9773   */\n      0x02\n        /* \"#utility.yul\":9764:9770   */\n      dup9\n        /* \"#utility.yul\":9760:9774   */\n      mul\n        /* \"#utility.yul\":9756:9778   */\n      add\n        /* \"#utility.yul\":9750:9754   */\n      dup9\n        /* \"#utility.yul\":9743:9779   */\n      sstore\n        /* \"#utility.yul\":9178:9789   */\n      pop\n      pop\n      pop\n        /* \"#utility.yul\":9141:10028   */\n    tag_175:\n      pop\n        /* \"#utility.yul\":8731:10034   */\n      pop\n      pop\n      pop\n        /* \"#utility.yul\":8639:10034   */\n      pop\n      pop\n      jump\t// out\n\n    auxdata: 0xa2646970667358221220c41d7075df7fb6c41acbc3df01be0a80c18b8da05e15d3e7c75d5aee35d7f8ca64736f6c634300081f0033\n}\n",
				"bytecode": {
					"linkReferences": {},
					"object": "6080604052348015600e575f5ffd5b506107c68061001c5f395ff3fe608060405234801561000f575f5ffd5b506004361061003f575f3560e01c80635661f2f814610043578063b439548d1461005f578063ecf944f81461007f575b5f5ffd5b61005d600480360381019061005891906103ad565b61009f565b005b6100676100eb565b60405161007693929190610488565b60405180910390f35b610087610191565b60405161009693929190610488565b60405180910390f35b6040518060600160405280848152602001838152602001828152505f5f820151815f015560208201518160010190816100d891906106c1565b5060408201518160020155905050505050565b5f60605f5f5f01545f6001015f60020154818054610108906104f1565b80601f0160208091040260200160405190810160405280929190818152602001828054610134906104f1565b801561017f5780601f106101565761010080835404028352916020019161017f565b820191905f5260205f20905b81548152906001019060200180831161016257829003601f168201915b50505050509150925092509250909192565b5f805f0154908060010180546101a6906104f1565b80601f01602080910402602001604051908101604052809291908181526020018280546101d2906104f1565b801561021d5780601f106101f45761010080835404028352916020019161021d565b820191905f5260205f20905b81548152906001019060200180831161020057829003601f168201915b5050505050908060020154905083565b5f604051905090565b5f5ffd5b5f5ffd5b5f819050919050565b6102508161023e565b811461025a575f5ffd5b50565b5f8135905061026b81610247565b92915050565b5f5ffd5b5f5ffd5b5f601f19601f8301169050919050565b7f4e487b71000000000000000000000000000000000000000000000000000000005f52604160045260245ffd5b6102bf82610279565b810181811067ffffffffffffffff821117156102de576102dd610289565b5b80604052505050565b5f6102f061022d565b90506102fc82826102b6565b919050565b5f67ffffffffffffffff82111561031b5761031a610289565b5b61032482610279565b9050602081019050919050565b828183375f83830152505050565b5f61035161034c84610301565b6102e7565b90508281526020810184848401111561036d5761036c610275565b5b610378848285610331565b509392505050565b5f82601f83011261039457610393610271565b5b81356103a484826020860161033f565b91505092915050565b5f5f5f606084860312156103c4576103c3610236565b5b5f6103d18682870161025d565b935050602084013567ffffffffffffffff8111156103f2576103f161023a565b5b6103fe86828701610380565b925050604061040f8682870161025d565b9150509250925092565b6104228161023e565b82525050565b5f81519050919050565b5f82825260208201905092915050565b8281835e5f83830152505050565b5f61045a82610428565b6104648185610432565b9350610474818560208601610442565b61047d81610279565b840191505092915050565b5f60608201905061049b5f830186610419565b81810360208301526104ad8185610450565b90506104bc6040830184610419565b949350505050565b7f4e487b71000000000000000000000000000000000000000000000000000000005f52602260045260245ffd5b5f600282049050600182168061050857607f821691505b60208210810361051b5761051a6104c4565b5b50919050565b5f819050815f5260205f209050919050565b5f6020601f8301049050919050565b5f82821b905092915050565b5f6008830261057d7fffffffffffffffffffffffffffffffffffffffffffffffffffffffffffffffff82610542565b6105878683610542565b95508019841693508086168417925050509392505050565b5f819050919050565b5f6105c26105bd6105b88461023e565b61059f565b61023e565b9050919050565b5f819050919050565b6105db836105a8565b6105ef6105e7826105c9565b84845461054e565b825550505050565b5f5f905090565b6106066105f7565b6106118184846105d2565b505050565b5b81811015610634576106295f826105fe565b600181019050610617565b5050565b601f8211156106795761064a81610521565b61065384610533565b81016020851015610662578190505b61067661066e85610533565b830182610616565b50505b505050565b5f82821c905092915050565b5f6106995f198460080261067e565b1980831691505092915050565b5f6106b1838361068a565b9150826002028217905092915050565b6106ca82610428565b67ffffffffffffffff8111156106e3576106e2610289565b5b6106ed82546104f1565b6106f8828285610638565b5f60209050601f831160018114610729575f8415610717578287015190505b61072185826106a6565b865550610788565b601f19841661073786610521565b5f5b8281101561075e57848901518255600182019150602085019450602081019050610739565b8683101561077b5784890151610777601f89168261068a565b8355505b6001600288020188555050505b50505050505056fea2646970667358221220c41d7075df7fb6c41acbc3df01be0a80c18b8da05e15d3e7c75d5aee35d7f8ca64736f6c634300081f0033",
					"opcodes": "PUSH1 0x80 PUSH1 0x40 MSTORE CALLVALUE DUP1 ISZERO PUSH1 0xE JUMPI PUSH0 PUSH0 REVERT JUMPDEST POP PUSH2 0x7C6 DUP1 PUSH2 0x1C PUSH0 CODECOPY PUSH0 RETURN INVALID PUSH1 0x80 PUSH1 0x40 MSTORE CALLVALUE DUP1 ISZERO PUSH2 0xF JUMPI PUSH0 PUSH0 REVERT JUMPDEST POP PUSH1 0x4 CALLDATASIZE LT PUSH2 0x3F JUMPI PUSH0 CALLDATALOAD PUSH1 0xE0 SHR DUP1 PUSH4 0x5661F2F8 EQ PUSH2 0x43 JUMPI DUP1 PUSH4 0xB439548D EQ PUSH2 0x5F JUMPI DUP1 PUSH4 0xECF944F8 EQ PUSH2 0x7F JUMPI JUMPDEST PUSH0 PUSH0 REVERT JUMPDEST PUSH2 0x5D PUSH1 0x4 DUP1 CALLDATASIZE SUB DUP2 ADD SWAP1 PUSH2 0x58 SWAP2 SWAP1 PUSH2 0x3AD JUMP JUMPDEST PUSH2 0x9F JUMP JUMPDEST STOP JUMPDEST PUSH2 0x67 PUSH2 0xEB JUMP JUMPDEST PUSH1 0x40 MLOAD PUSH2 0x76 SWAP4 SWAP3 SWAP2 SWAP1 PUSH2 0x488 JUMP JUMPDEST PUSH1 0x40 MLOAD DUP1 SWAP2 SUB SWAP1 RETURN JUMPDEST PUSH2 0x87 PUSH2 0x191 JUMP JUMPDEST PUSH1 0x40 MLOAD PUSH2 0x96 SWAP4 SWAP3 SWAP2 SWAP1 PUSH2 0x488 JUMP JUMPDEST PUSH1 0x40 MLOAD DUP1 SWAP2 SUB SWAP1 RETURN JUMPDEST PUSH1 0x40 MLOAD DUP1 PUSH1 0x60 ADD PUSH1 0x40 MSTORE DUP1 DUP5 DUP2 MSTORE PUSH1 0x20 ADD DUP4 DUP2 MSTORE PUSH1 0x20 ADD DUP3 DUP2 MSTORE POP PUSH0 PUSH0 DUP3 ADD MLOAD DUP2 PUSH0 ADD SSTORE PUSH1 0x20 DUP3 ADD MLOAD DUP2 PUSH1 0x1 ADD SWAP1 DUP2 PUSH2 0xD8 SWAP2 SWAP1 PUSH2 0x6C1 JUMP JUMPDEST POP PUSH1 0x40 DUP3 ADD MLOAD DUP2 PUSH1 0x2 ADD SSTORE SWAP1 POP POP POP POP POP JUMP JUMPDEST PUSH0 PUSH1 0x60 PUSH0 PUSH0 PUSH0 ADD SLOAD PUSH0 PUSH1 0x1 ADD PUSH0 PUSH1 0x2 ADD SLOAD DUP2 DUP1 SLOAD PUSH2 0x108 SWAP1 PUSH2 0x4F1 JUMP JUMPDEST DUP1 PUSH1 0x1F ADD PUSH1 0x20 DUP1 SWAP2 DIV MUL PUSH1 0x20 ADD PUSH1 0x40 MLOAD SWAP1 DUP2 ADD PUSH1 0x40 MSTORE DUP1 SWAP3 SWAP2 SWAP1 DUP2 DUP2 MSTORE PUSH1 0x20 ADD DUP3 DUP1 SLOAD PUSH2 0x134 SWAP1 PUSH2 0x4F1 JUMP JUMPDEST DUP1 ISZERO PUSH2 0x17F JUMPI DUP1 PUSH1 0x1F LT PUSH2 0x156 JUMPI PUSH2 0x100 DUP1 DUP4 SLOAD DIV MUL DUP4 MSTORE SWAP2 PUSH1 0x20 ADD SWAP2 PUSH2 0x17F JUMP JUMPDEST DUP3 ADD SWAP2 SWAP1 PUSH0 MSTORE PUSH1 0x20 PUSH0 KECCAK256 SWAP1 JUMPDEST DUP2 SLOAD DUP2 MSTORE SWAP1 PUSH1 0x1 ADD SWAP1 PUSH1 0x20 ADD DUP1 DUP4 GT PUSH2 0x162 JUMPI DUP3 SWAP1 SUB PUSH1 0x1F AND DUP3 ADD SWAP2 JUMPDEST POP POP POP POP POP SWAP2 POP SWAP3 POP SWAP3 POP SWAP3 POP SWAP1 SWAP2 SWAP3 JUMP JUMPDEST PUSH0 DUP1 PUSH0 ADD SLOAD SWAP1 DUP1 PUSH1 0x1 ADD DUP1 SLOAD PUSH2 0x1A6 SWAP1 PUSH2 0x4F1 JUMP JUMPDEST DUP1 PUSH1 0x1F ADD PUSH1 0x20 DUP1 SWAP2 DIV MUL PUSH1 0x20 ADD PUSH1 0x40 MLOAD SWAP1 DUP2 ADD PUSH1 0x40 MSTORE DUP1 SWAP3 SWAP2 SWAP1 DUP2 DUP2 MSTORE PUSH1 0x20 ADD DUP3 DUP1 SLOAD PUSH2 0x1D2 SWAP1 PUSH2 0x4F1 JUMP JUMPDEST DUP1 ISZERO PUSH2 0x21D JUMPI DUP1 PUSH1 0x1F LT PUSH2 0x1F4 JUMPI PUSH2 0x100 DUP1 DUP4 SLOAD DIV MUL DUP4 MSTORE SWAP2 PUSH1 0x20 ADD SWAP2 PUSH2 0x21D JUMP JUMPDEST DUP3 ADD SWAP2 SWAP1 PUSH0 MSTORE PUSH1 0x20 PUSH0 KECCAK256 SWAP1 JUMPDEST DUP2 SLOAD DUP2 MSTORE SWAP1 PUSH1 0x1 ADD SWAP1 PUSH1 0x20 ADD DUP1 DUP4 GT PUSH2 0x200 JUMPI DUP3 SWAP1 SUB PUSH1 0x1F AND DUP3 ADD SWAP2 JUMPDEST POP POP POP POP POP SWAP1 DUP1 PUSH1 0x2 ADD SLOAD SWAP1 POP DUP4 JUMP JUMPDEST PUSH0 PUSH1 0x40 MLOAD SWAP1 POP SWAP1 JUMP JUMPDEST PUSH0 PUSH0 REVERT JUMPDEST PUSH0 PUSH0 REVERT JUMPDEST PUSH0 DUP2 SWAP1 POP SWAP2 SWAP1 POP JUMP JUMPDEST PUSH2 0x250 DUP2 PUSH2 0x23E JUMP JUMPDEST DUP2 EQ PUSH2 0x25A JUMPI PUSH0 PUSH0 REVERT JUMPDEST POP JUMP JUMPDEST PUSH0 DUP2 CALLDATALOAD SWAP1 POP PUSH2 0x26B DUP2 PUSH2 0x247 JUMP JUMPDEST SWAP3 SWAP2 POP POP JUMP JUMPDEST PUSH0 PUSH0 REVERT JUMPDEST PUSH0 PUSH0 REVERT JUMPDEST PUSH0 PUSH1 0x1F NOT PUSH1 0x1F DUP4 ADD AND SWAP1 POP SWAP2 SWAP1 POP JUMP JUMPDEST PUSH32 0x4E487B7100000000000000000000000000000000000000000000000000000000 PUSH0 MSTORE PUSH1 0x41 PUSH1 0x4 MSTORE PUSH1 0x24 PUSH0 REVERT JUMPDEST PUSH2 0x2BF DUP3 PUSH2 0x279 JUMP JUMPDEST DUP2 ADD DUP2 DUP2 LT PUSH8 0xFFFFFFFFFFFFFFFF DUP3 GT OR ISZERO PUSH2 0x2DE JUMPI PUSH2 0x2DD PUSH2 0x289 JUMP JUMPDEST JUMPDEST DUP1 PUSH1 0x40 MSTORE POP POP POP JUMP JUMPDEST PUSH0 PUSH2 0x2F0 PUSH2 0x22D JUMP JUMPDEST SWAP1 POP PUSH2 0x2FC DUP3 DUP3 PUSH2 0x2B6 JUMP JUMPDEST SWAP2 SWAP1 POP JUMP JUMPDEST PUSH0 PUSH8 0xFFFFFFFFFFFFFFFF DUP3 GT ISZERO PUSH2 0x31B JUMPI PUSH2 0x31A PUSH2 0x289 JUMP JUMPDEST JUMPDEST PUSH2 0x324 DUP3 PUSH2 0x279 JUMP JUMPDEST SWAP1 POP PUSH1 0x20 DUP2 ADD SWAP1 POP SWAP2 SWAP1 POP JUMP JUMPDEST DUP3 DUP2 DUP4 CALLDATACOPY PUSH0 DUP4 DUP4 ADD MSTORE POP POP POP JUMP JUMPDEST PUSH0 PUSH2 0x351 PUSH2 0x34C DUP5 PUSH2 0x301 JUMP JUMPDEST PUSH2 0x2E7 JUMP JUMPDEST SWAP1 POP DUP3 DUP2 MSTORE PUSH1 0x20 DUP2 ADD DUP5 DUP5 DUP5 ADD GT ISZERO PUSH2 0x36D JUMPI PUSH2 0x36C PUSH2 0x275 JUMP JUMPDEST JUMPDEST PUSH2 0x378 DUP5 DUP3 DUP6 PUSH2 0x331 JUMP JUMPDEST POP SWAP4 SWAP3 POP POP POP JUMP JUMPDEST PUSH0 DUP3 PUSH1 0x1F DUP4 ADD SLT PUSH2 0x394 JUMPI PUSH2 0x393 PUSH2 0x271 JUMP JUMPDEST JUMPDEST DUP2 CALLDATALOAD PUSH2 0x3A4 DUP5 DUP3 PUSH1 0x20 DUP7 ADD PUSH2 0x33F JUMP JUMPDEST SWAP2 POP POP SWAP3 SWAP2 POP POP JUMP JUMPDEST PUSH0 PUSH0 PUSH0 PUSH1 0x60 DUP5 DUP7 SUB SLT ISZERO PUSH2 0x3C4 JUMPI PUSH2 0x3C3 PUSH2 0x236 JUMP JUMPDEST JUMPDEST PUSH0 PUSH2 0x3D1 DUP7 DUP3 DUP8 ADD PUSH2 0x25D JUMP JUMPDEST SWAP4 POP POP PUSH1 0x20 DUP5 ADD CALLDATALOAD PUSH8 0xFFFFFFFFFFFFFFFF DUP2 GT ISZERO PUSH2 0x3F2 JUMPI PUSH2 0x3F1 PUSH2 0x23A JUMP JUMPDEST JUMPDEST PUSH2 0x3FE DUP7 DUP3 DUP8 ADD PUSH2 0x380 JUMP JUMPDEST SWAP3 POP POP PUSH1 0x40 PUSH2 0x40F DUP7 DUP3 DUP8 ADD PUSH2 0x25D JUMP JUMPDEST SWAP2 POP POP SWAP3 POP SWAP3 POP SWAP3 JUMP JUMPDEST PUSH2 0x422 DUP2 PUSH2 0x23E JUMP JUMPDEST DUP3 MSTORE POP POP JUMP JUMPDEST PUSH0 DUP2 MLOAD SWAP1 POP SWAP2 SWAP1 POP JUMP JUMPDEST PUSH0 DUP3 DUP3 MSTORE PUSH1 0x20 DUP3 ADD SWAP1 POP SWAP3 SWAP2 POP POP JUMP JUMPDEST DUP3 DUP2 DUP4 MCOPY PUSH0 DUP4 DUP4 ADD MSTORE POP POP POP JUMP JUMPDEST PUSH0 PUSH2 0x45A DUP3 PUSH2 0x428 JUMP JUMPDEST PUSH2 0x464 DUP2 DUP6 PUSH2 0x432 JUMP JUMPDEST SWAP4 POP PUSH2 0x474 DUP2 DUP6 PUSH1 0x20 DUP7 ADD PUSH2 0x442 JUMP JUMPDEST PUSH2 0x47D DUP2 PUSH2 0x279 JUMP JUMPDEST DUP5 ADD SWAP2 POP POP SWAP3 SWAP2 POP POP JUMP JUMPDEST PUSH0 PUSH1 0x60 DUP3 ADD SWAP1 POP PUSH2 0x49B PUSH0 DUP4 ADD DUP7 PUSH2 0x419 JUMP JUMPDEST DUP2 DUP2 SUB PUSH1 0x20 DUP4 ADD MSTORE PUSH2 0x4AD DUP2 DUP6 PUSH2 0x450 JUMP JUMPDEST SWAP1 POP PUSH2 0x4BC PUSH1 0x40 DUP4 ADD DUP5 PUSH2 0x419 JUMP JUMPDEST SWAP5 SWAP4 POP POP POP POP JUMP JUMPDEST PUSH32 0x4E487B7100000000000000000000000000000000000000000000000000000000 PUSH0 MSTORE PUSH1 0x22 PUSH1 0x4 MSTORE PUSH1 0x24 PUSH0 REVERT JUMPDEST PUSH0 PUSH1 0x2 DUP3 DIV SWAP1 POP PUSH1 0x1 DUP3 AND DUP1 PUSH2 0x508 JUMPI PUSH1 0x7F DUP3 AND SWAP2 POP JUMPDEST PUSH1 0x20 DUP3 LT DUP2 SUB PUSH2 0x51B JUMPI PUSH2 0x51A PUSH2 0x4C4 JUMP JUMPDEST JUMPDEST POP SWAP2 SWAP1 POP JUMP JUMPDEST PUSH0 DUP2 SWAP1 POP DUP2 PUSH0 MSTORE PUSH1 0x20 PUSH0 KECCAK256 SWAP1 POP SWAP2 SWAP1 POP JUMP JUMPDEST PUSH0 PUSH1 0x20 PUSH1 0x1F DUP4 ADD DIV SWAP1 POP SWAP2 SWAP1 POP JUMP JUMPDEST PUSH0 DUP3 DUP3 SHL SWAP1 POP SWAP3 SWAP2 POP POP JUMP JUMPDEST PUSH0 PUSH1 0x8 DUP4 MUL PUSH2 0x57D PUSH32 0xFFFFFFFFFFFFFFFFFFFFFFFFFFFFFFFFFFFFFFFFFFFFFFFFFFFFFFFFFFFFFFFF DUP3 PUSH2 0x542 JUMP JUMPDEST PUSH2 0x587 DUP7 DUP4 PUSH2 0x542 JUMP JUMPDEST SWAP6 POP DUP1 NOT DUP5 AND SWAP4 POP DUP1 DUP7 AND DUP5 OR SWAP3 POP POP POP SWAP4 SWAP3 POP POP POP JUMP JUMPDEST PUSH0 DUP2 SWAP1 POP SWAP2 SWAP1 POP JUMP JUMPDEST PUSH0 PUSH2 0x5C2 PUSH2 0x5BD PUSH2 0x5B8 DUP5 PUSH2 0x23E JUMP JUMPDEST PUSH2 0x59F JUMP JUMPDEST PUSH2 0x23E JUMP JUMPDEST SWAP1 POP SWAP2 SWAP1 POP JUMP JUMPDEST PUSH0 DUP2 SWAP1 POP SWAP2 SWAP1 POP JUMP JUMPDEST PUSH2 0x5DB DUP4 PUSH2 0x5A8 JUMP JUMPDEST PUSH2 0x5EF PUSH2 0x5E7 DUP3 PUSH2 0x5C9 JUMP JUMPDEST DUP5 DUP5 SLOAD PUSH2 0x54E JUMP JUMPDEST DUP3 SSTORE POP POP POP POP JUMP JUMPDEST PUSH0 PUSH0 SWAP1 POP SWAP1 JUMP JUMPDEST PUSH2 0x606 PUSH2 0x5F7 JUMP JUMPDEST PUSH2 0x611 DUP2 DUP5 DUP5 PUSH2 0x5D2 JUMP JUMPDEST POP POP POP JUMP JUMPDEST JUMPDEST DUP2 DUP2 LT ISZERO PUSH2 0x634 JUMPI PUSH2 0x629 PUSH0 DUP3 PUSH2 0x5FE JUMP JUMPDEST PUSH1 0x1 DUP2 ADD SWAP1 POP PUSH2 0x617 JUMP JUMPDEST POP POP JUMP JUMPDEST PUSH1 0x1F DUP3 GT ISZERO PUSH2 0x679 JUMPI PUSH2 0x64A DUP2 PUSH2 0x521 JUMP JUMPDEST PUSH2 0x653 DUP5 PUSH2 0x533 JUMP JUMPDEST DUP2 ADD PUSH1 0x20 DUP6 LT ISZERO PUSH2 0x662 JUMPI DUP2 SWAP1 POP JUMPDEST PUSH2 0x676 PUSH2 0x66E DUP6 PUSH2 0x533 JUMP JUMPDEST DUP4 ADD DUP3 PUSH2 0x616 JUMP JUMPDEST POP POP JUMPDEST POP POP POP JUMP JUMPDEST PUSH0 DUP3 DUP3 SHR SWAP1 POP SWAP3 SWAP2 POP POP JUMP JUMPDEST PUSH0 PUSH2 0x699 PUSH0 NOT DUP5 PUSH1 0x8 MUL PUSH2 0x67E JUMP JUMPDEST NOT DUP1 DUP4 AND SWAP2 POP POP SWAP3 SWAP2 POP POP JUMP JUMPDEST PUSH0 PUSH2 0x6B1 DUP4 DUP4 PUSH2 0x68A JUMP JUMPDEST SWAP2 POP DUP3 PUSH1 0x2 MUL DUP3 OR SWAP1 POP SWAP3 SWAP2 POP POP JUMP JUMPDEST PUSH2 0x6CA DUP3 PUSH2 0x428 JUMP JUMPDEST PUSH8 0xFFFFFFFFFFFFFFFF DUP2 GT ISZERO PUSH2 0x6E3 JUMPI PUSH2 0x6E2 PUSH2 0x289 JUMP JUMPDEST JUMPDEST PUSH2 0x6ED DUP3 SLOAD PUSH2 0x4F1 JUMP JUMPDEST PUSH2 0x6F8 DUP3 DUP3 DUP6 PUSH2 0x638 JUMP JUMPDEST PUSH0 PUSH1 0x20 SWAP1 POP PUSH1 0x1F DUP4 GT PUSH1 0x1 DUP2 EQ PUSH2 0x729 JUMPI PUSH0 DUP5 ISZERO PUSH2 0x717 JUMPI DUP3 DUP8 ADD MLOAD SWAP1 POP JUMPDEST PUSH2 0x721 DUP6 DUP3 PUSH2 0x6A6 JUMP JUMPDEST DUP7 SSTORE POP PUSH2 0x788 JUMP JUMPDEST PUSH1 0x1F NOT DUP5 AND PUSH2 0x737 DUP7 PUSH2 0x521 JUMP JUMPDEST PUSH0 JUMPDEST DUP3 DUP2 LT ISZERO PUSH2 0x75E JUMPI DUP5 DUP10 ADD MLOAD DUP3 SSTORE PUSH1 0x1 DUP3 ADD SWAP2 POP PUSH1 0x20 DUP6 ADD SWAP5 POP PUSH1 0x20 DUP2 ADD SWAP1 POP PUSH2 0x739 JUMP JUMPDEST DUP7 DUP4 LT ISZERO PUSH2 0x77B JUMPI DUP5 DUP10 ADD MLOAD PUSH2 0x777 PUSH1 0x1F DUP10 AND DUP3 PUSH2 0x68A JUMP JUMPDEST DUP4 SSTORE POP JUMPDEST PUSH1 0x1 PUSH1 0x2 DUP9 MUL ADD DUP9 SSTORE POP POP POP JUMPDEST POP POP POP POP POP POP JUMP INVALID LOG2 PUSH5 0x6970667358 0x22 SLT KECCAK256 0xC4 SAR PUSH17 0x75DF7FB6C41ACBC3DF01BE0A80C18B8DA0 MCOPY ISZERO 0xD3 SWAPN 0xC7 TSTORE GAS RETURNCONTRACT 0x35 0xD7 EXTCALL 0xCA PUSH5 0x736F6C6343 STOP ADDMOD 0x1F STOP CALLER "
				},
				"gasEstimates": {
					"creation": {
						"codeDepositCost": "398000",
						"executionCost": "434",
						"totalCost": "398434"
					},
					"external": {
						"getStudent()": "infinite",
						"setstudent(uint256,string,uint256)": "infinite",
						"students()": "infinite"
					}
				},
				"methodIdentifiers": {
					"getStudent()": "b439548d",
					"setstudent(uint256,string,uint256)": "5661f2f8",
					"students()": "ecf944f8"
				}
			},
			"storageLayout": {
				"storage": [
					{
						"astId": 11,
						"contract": "Assignments/3)struct.sol:studentdetails",
						"label": "students",
						"offset": 0,
						"slot": "0",
						"type": "t_struct(Student)8_storage"
					}
				],
				"types": {
					"t_string_storage": {
						"encoding": "bytes",
						"label": "string",
						"numberOfBytes": "32"
					},
					"t_struct(Student)8_storage": {
						"encoding": "inplace",
						"label": "struct studentdetails.Student",
						"members": [
							{
								"astId": 3,
								"contract": "Assignments/3)struct.sol:studentdetails",
								"label": "id",
								"offset": 0,
								"slot": "0",
								"type": "t_uint256"
							},
							{
								"astId": 5,
								"contract": "Assignments/3)struct.sol:studentdetails",
								"label": "name",
								"offset": 0,
								"slot": "1",
								"type": "t_string_storage"
							},
							{
								"astId": 7,
								"contract": "Assignments/3)struct.sol:studentdetails",
								"label": "age",
								"offset": 0,
								"slot": "2",
								"type": "t_uint256"
							}
						],
						"numberOfBytes": "96"
					},
					"t_uint256": {
						"encoding": "inplace",
						"label": "uint256",
						"numberOfBytes": "32"
					}
				}
			},
			"userdoc": {
				"kind": "user",
				"methods": {},
				"version": 1
			}
		}
	}
}