{
	"Assignments/Assignment6(20-03-2026)/3)crud.sol": {
		"employeedetails": {
			"abi": [
				{
					"inputs": [
						{
							"internalType": "uint256",
							"name": "_id",
							"type": "uint256"
						}
					],
					"name": "Reademployyedetails",
					"outputs": [
						{
							"internalType": "uint256",
							"name": "",
							"type": "uint256"
						},
						{
							"internalType": "string",
							"name": "",
							"type": "string"
						},
						{
							"internalType": "uint256",
							"name": "",
							"type": "uint256"
						}
					],
					"stateMutability": "view",
					"type": "function"
				},
				{
					"inputs": [
						{
							"internalType": "uint256",
							"name": "_id",
							"type": "uint256"
						},
						{
							"internalType": "string",
							"name": "_name",
							"type": "string"
						},
						{
							"internalType": "uint256",
							"name": "_salary",
							"type": "uint256"
						}
					],
					"name": "createemployeedetails",
					"outputs": [],
					"stateMutability": "nonpayable",
					"type": "function"
				},
				{
					"inputs": [
						{
							"internalType": "uint256",
							"name": "_id",
							"type": "uint256"
						}
					],
					"name": "deleteemployeedetails",
					"outputs": [],
					"stateMutability": "nonpayable",
					"type": "function"
				},
				{
					"inputs": [
						{
							"internalType": "uint256",
							"name": "_id",
							"type": "uint256"
						},
						{
							"internalType": "string",
							"name": "_name",
							"type": "string"
						},
						{
							"internalType": "uint256",
							"name": "_salary",
							"type": "uint256"
						}
					],
					"name": "updateemployeedetails",
					"outputs": [],
					"stateMutability": "nonpayable",
					"type": "function"
				}
			],
			"devdoc": {
				"kind": "dev",
				"methods": {},
				"version": 1
			},
			"evm": {
				"assembly": "    /* \"Assignments/Assignment6(20-03-2026)/3)crud.sol\":225:1066  contract employeedetails{... */\n  mstore(0x40, 0x80)\n  callvalue\n  dup1\n  iszero\n  tag_1\n  jumpi\n  revert(0x00, 0x00)\ntag_1:\n  pop\n  dataSize(sub_0)\n  dup1\n  dataOffset(sub_0)\n  0x00\n  codecopy\n  0x00\n  return\nstop\n\nsub_0: assembly {\n        /* \"Assignments/Assignment6(20-03-2026)/3)crud.sol\":225:1066  contract employeedetails{... */\n      mstore(0x40, 0x80)\n      callvalue\n      dup1\n      iszero\n      tag_1\n      jumpi\n      revert(0x00, 0x00)\n    tag_1:\n      pop\n      jumpi(tag_2, lt(calldatasize, 0x04))\n      shr(0xe0, calldataload(0x00))\n      dup1\n      0x9bd0e1bd\n      eq\n      tag_3\n      jumpi\n      dup1\n      0x9c04cfb6\n      eq\n      tag_4\n      jumpi\n      dup1\n      0xa79e0dc9\n      eq\n      tag_5\n      jumpi\n      dup1\n      0xe4adeda5\n      eq\n      tag_6\n      jumpi\n    tag_2:\n      revert(0x00, 0x00)\n        /* \"Assignments/Assignment6(20-03-2026)/3)crud.sol\":592:770  function Reademployyedetails(uint _id) public view returns (uint,string memory, uint){... */\n    tag_3:\n      tag_7\n      0x04\n      dup1\n      calldatasize\n      sub\n      dup2\n      add\n      swap1\n      tag_8\n      swap2\n      swap1\n      tag_9\n      jump\t// in\n    tag_8:\n      tag_10\n      jump\t// in\n    tag_7:\n      mload(0x40)\n      tag_11\n      swap4\n      swap3\n      swap2\n      swap1\n      tag_12\n      jump\t// in\n    tag_11:\n      mload(0x40)\n      dup1\n      swap2\n      sub\n      swap1\n      return\n        /* \"Assignments/Assignment6(20-03-2026)/3)crud.sol\":422:563  function createemployeedetails(uint _id,string memory _name,uint _salary)public {... */\n    tag_4:\n      tag_13\n      0x04\n      dup1\n      calldatasize\n      sub\n      dup2\n      add\n      swap1\n      tag_14\n      swap2\n      swap1\n      tag_15\n      jump\t// in\n    tag_14:\n      tag_16\n      jump\t// in\n    tag_13:\n      stop\n        /* \"Assignments/Assignment6(20-03-2026)/3)crud.sol\":801:945  function updateemployeedetails(uint _id,string memory _name, uint _salary)public {... */\n    tag_5:\n      tag_17\n      0x04\n      dup1\n      calldatasize\n      sub\n      dup2\n      add\n      swap1\n      tag_18\n      swap2\n      swap1\n      tag_15\n      jump\t// in\n    tag_18:\n      tag_19\n      jump\t// in\n    tag_17:\n      stop\n        /* \"Assignments/Assignment6(20-03-2026)/3)crud.sol\":976:1063  function deleteemployeedetails(uint _id)public {... */\n    tag_6:\n      tag_20\n      0x04\n      dup1\n      calldatasize\n      sub\n      dup2\n      add\n      swap1\n      tag_21\n      swap2\n      swap1\n      tag_9\n      jump\t// in\n    tag_21:\n      tag_22\n      jump\t// in\n    tag_20:\n      stop\n        /* \"Assignments/Assignment6(20-03-2026)/3)crud.sol\":592:770  function Reademployyedetails(uint _id) public view returns (uint,string memory, uint){... */\n    tag_10:\n        /* \"Assignments/Assignment6(20-03-2026)/3)crud.sol\":652:656  uint */\n      0x00\n        /* \"Assignments/Assignment6(20-03-2026)/3)crud.sol\":657:670  string memory */\n      0x60\n        /* \"Assignments/Assignment6(20-03-2026)/3)crud.sol\":672:676  uint */\n      0x00\n        /* \"Assignments/Assignment6(20-03-2026)/3)crud.sol\":688:705  employee memory e */\n      0x00\n        /* \"Assignments/Assignment6(20-03-2026)/3)crud.sol\":708:717  employees */\n      0x00\n        /* \"Assignments/Assignment6(20-03-2026)/3)crud.sol\":708:722  employees[_id] */\n      0x00\n        /* \"Assignments/Assignment6(20-03-2026)/3)crud.sol\":718:721  _id */\n      dup7\n        /* \"Assignments/Assignment6(20-03-2026)/3)crud.sol\":708:722  employees[_id] */\n      dup2\n      mstore\n      0x20\n      add\n      swap1\n      dup2\n      mstore\n      0x20\n      add\n      0x00\n      keccak256\n        /* \"Assignments/Assignment6(20-03-2026)/3)crud.sol\":688:722  employee memory e = employees[_id] */\n      mload(0x40)\n      dup1\n      0x60\n      add\n      0x40\n      mstore\n      swap1\n      dup2\n      0x00\n      dup3\n      add\n      sload\n      dup2\n      mstore\n      0x20\n      add\n      0x01\n      dup3\n      add\n      dup1\n      sload\n      tag_24\n      swap1\n      tag_25\n      jump\t// in\n    tag_24:\n      dup1\n      0x1f\n      add\n      0x20\n      dup1\n      swap2\n      div\n      mul\n      0x20\n      add\n      mload(0x40)\n      swap1\n      dup2\n      add\n      0x40\n      mstore\n      dup1\n      swap3\n      swap2\n      swap1\n      dup2\n      dup2\n      mstore\n      0x20\n      add\n      dup3\n      dup1\n      sload\n      tag_26\n      swap1\n      tag_25\n      jump\t// in\n    tag_26:\n      dup1\n      iszero\n      tag_27\n      jumpi\n      dup1\n      0x1f\n      lt\n      tag_28\n      jumpi\n      0x0100\n      dup1\n      dup4\n      sload\n      div\n      mul\n      dup4\n      mstore\n      swap2\n      0x20\n      add\n      swap2\n      jump(tag_27)\n    tag_28:\n      dup3\n      add\n      swap2\n      swap1\n      0x00\n      mstore\n      keccak256(0x00, 0x20)\n      swap1\n    tag_29:\n      dup2\n      sload\n      dup2\n      mstore\n      swap1\n      0x01\n      add\n      swap1\n      0x20\n      add\n      dup1\n      dup4\n      gt\n      tag_29\n      jumpi\n      dup3\n      swap1\n      sub\n      0x1f\n      and\n      dup3\n      add\n      swap2\n    tag_27:\n      pop\n      pop\n      pop\n      pop\n      pop\n      dup2\n      mstore\n      0x20\n      add\n      0x02\n      dup3\n      add\n      sload\n      dup2\n      mstore\n      pop\n      pop\n      swap1\n      pop\n        /* \"Assignments/Assignment6(20-03-2026)/3)crud.sol\":741:742  e */\n      dup1\n        /* \"Assignments/Assignment6(20-03-2026)/3)crud.sol\":741:745  e.id */\n      0x00\n      add\n      mload\n        /* \"Assignments/Assignment6(20-03-2026)/3)crud.sol\":746:747  e */\n      dup2\n        /* \"Assignments/Assignment6(20-03-2026)/3)crud.sol\":746:752  e.name */\n      0x20\n      add\n      mload\n        /* \"Assignments/Assignment6(20-03-2026)/3)crud.sol\":753:754  e */\n      dup3\n        /* \"Assignments/Assignment6(20-03-2026)/3)crud.sol\":753:761  e.salary */\n      0x40\n      add\n      mload\n        /* \"Assignments/Assignment6(20-03-2026)/3)crud.sol\":733:762  return (e.id,e.name,e.salary) */\n      swap4\n      pop\n      swap4\n      pop\n      swap4\n      pop\n      pop\n        /* \"Assignments/Assignment6(20-03-2026)/3)crud.sol\":592:770  function Reademployyedetails(uint _id) public view returns (uint,string memory, uint){... */\n      swap2\n      swap4\n      swap1\n      swap3\n      pop\n      jump\t// out\n        /* \"Assignments/Assignment6(20-03-2026)/3)crud.sol\":422:563  function createemployeedetails(uint _id,string memory _name,uint _salary)public {... */\n    tag_16:\n        /* \"Assignments/Assignment6(20-03-2026)/3)crud.sol\":528:555  employee(_id,_name,_salary) */\n      mload(0x40)\n      dup1\n      0x60\n      add\n      0x40\n      mstore\n      dup1\n        /* \"Assignments/Assignment6(20-03-2026)/3)crud.sol\":537:540  _id */\n      dup5\n        /* \"Assignments/Assignment6(20-03-2026)/3)crud.sol\":528:555  employee(_id,_name,_salary) */\n      dup2\n      mstore\n      0x20\n      add\n        /* \"Assignments/Assignment6(20-03-2026)/3)crud.sol\":541:546  _name */\n      dup4\n        /* \"Assignments/Assignment6(20-03-2026)/3)crud.sol\":528:555  employee(_id,_name,_salary) */\n      dup2\n      mstore\n      0x20\n      add\n        /* \"Assignments/Assignment6(20-03-2026)/3)crud.sol\":547:554  _salary */\n      dup3\n        /* \"Assignments/Assignment6(20-03-2026)/3)crud.sol\":528:555  employee(_id,_name,_salary) */\n      dup2\n      mstore\n      pop\n        /* \"Assignments/Assignment6(20-03-2026)/3)crud.sol\":513:522  employees */\n      0x00\n        /* \"Assignments/Assignment6(20-03-2026)/3)crud.sol\":513:527  employees[_id] */\n      0x00\n        /* \"Assignments/Assignment6(20-03-2026)/3)crud.sol\":523:526  _id */\n      dup6\n        /* \"Assignments/Assignment6(20-03-2026)/3)crud.sol\":513:527  employees[_id] */\n      dup2\n      mstore\n      0x20\n      add\n      swap1\n      dup2\n      mstore\n      0x20\n      add\n      0x00\n      keccak256\n        /* \"Assignments/Assignment6(20-03-2026)/3)crud.sol\":513:555  employees[_id]=employee(_id,_name,_salary) */\n      0x00\n      dup3\n      add\n      mload\n      dup2\n      0x00\n      add\n      sstore\n      0x20\n      dup3\n      add\n      mload\n      dup2\n      0x01\n      add\n      swap1\n      dup2\n      tag_31\n      swap2\n      swap1\n      tag_32\n      jump\t// in\n    tag_31:\n      pop\n      0x40\n      dup3\n      add\n      mload\n      dup2\n      0x02\n      add\n      sstore\n      swap1\n      pop\n      pop\n        /* \"Assignments/Assignment6(20-03-2026)/3)crud.sol\":422:563  function createemployeedetails(uint _id,string memory _name,uint _salary)public {... */\n      pop\n      pop\n      pop\n      jump\t// out\n        /* \"Assignments/Assignment6(20-03-2026)/3)crud.sol\":801:945  function updateemployeedetails(uint _id,string memory _name, uint _salary)public {... */\n    tag_19:\n        /* \"Assignments/Assignment6(20-03-2026)/3)crud.sol\":910:937  employee(_id,_name,_salary) */\n      mload(0x40)\n      dup1\n      0x60\n      add\n      0x40\n      mstore\n      dup1\n        /* \"Assignments/Assignment6(20-03-2026)/3)crud.sol\":919:922  _id */\n      dup5\n        /* \"Assignments/Assignment6(20-03-2026)/3)crud.sol\":910:937  employee(_id,_name,_salary) */\n      dup2\n      mstore\n      0x20\n      add\n        /* \"Assignments/Assignment6(20-03-2026)/3)crud.sol\":923:928  _name */\n      dup4\n        /* \"Assignments/Assignment6(20-03-2026)/3)crud.sol\":910:937  employee(_id,_name,_salary) */\n      dup2\n      mstore\n      0x20\n      add\n        /* \"Assignments/Assignment6(20-03-2026)/3)crud.sol\":929:936  _salary */\n      dup3\n        /* \"Assignments/Assignment6(20-03-2026)/3)crud.sol\":910:937  employee(_id,_name,_salary) */\n      dup2\n      mstore\n      pop\n        /* \"Assignments/Assignment6(20-03-2026)/3)crud.sol\":893:902  employees */\n      0x00\n        /* \"Assignments/Assignment6(20-03-2026)/3)crud.sol\":893:907  employees[_id] */\n      0x00\n        /* \"Assignments/Assignment6(20-03-2026)/3)crud.sol\":903:906  _id */\n      dup6\n        /* \"Assignments/Assignment6(20-03-2026)/3)crud.sol\":893:907  employees[_id] */\n      dup2\n      mstore\n      0x20\n      add\n      swap1\n      dup2\n      mstore\n      0x20\n      add\n      0x00\n      keccak256\n        /* \"Assignments/Assignment6(20-03-2026)/3)crud.sol\":893:937  employees[_id] = employee(_id,_name,_salary) */\n      0x00\n      dup3\n      add\n      mload\n      dup2\n      0x00\n      add\n      sstore\n      0x20\n      dup3\n      add\n      mload\n      dup2\n      0x01\n      add\n      swap1\n      dup2\n      tag_34\n      swap2\n      swap1\n      tag_32\n      jump\t// in\n    tag_34:\n      pop\n      0x40\n      dup3\n      add\n      mload\n      dup2\n      0x02\n      add\n      sstore\n      swap1\n      pop\n      pop\n        /* \"Assignments/Assignment6(20-03-2026)/3)crud.sol\":801:945  function updateemployeedetails(uint _id,string memory _name, uint _salary)public {... */\n      pop\n      pop\n      pop\n      jump\t// out\n        /* \"Assignments/Assignment6(20-03-2026)/3)crud.sol\":976:1063  function deleteemployeedetails(uint _id)public {... */\n    tag_22:\n        /* \"Assignments/Assignment6(20-03-2026)/3)crud.sol\":1041:1050  employees */\n      0x00\n        /* \"Assignments/Assignment6(20-03-2026)/3)crud.sol\":1041:1055  employees[_id] */\n      0x00\n        /* \"Assignments/Assignment6(20-03-2026)/3)crud.sol\":1051:1054  _id */\n      dup3\n        /* \"Assignments/Assignment6(20-03-2026)/3)crud.sol\":1041:1055  employees[_id] */\n      dup2\n      mstore\n      0x20\n      add\n      swap1\n      dup2\n      mstore\n      0x20\n      add\n      0x00\n      keccak256\n      0x00\n        /* \"Assignments/Assignment6(20-03-2026)/3)crud.sol\":1034:1055  delete employees[_id] */\n      0x00\n      dup3\n      add\n      0x00\n      swap1\n      sstore\n      0x01\n      dup3\n      add\n      0x00\n      tag_36\n      swap2\n      swap1\n      tag_37\n      jump\t// in\n    tag_36:\n      0x02\n      dup3\n      add\n      0x00\n      swap1\n      sstore\n      pop\n      pop\n        /* \"Assignments/Assignment6(20-03-2026)/3)crud.sol\":976:1063  function deleteemployeedetails(uint _id)public {... */\n      pop\n      jump\t// out\n    tag_37:\n      pop\n      dup1\n      sload\n      tag_38\n      swap1\n      tag_25\n      jump\t// in\n    tag_38:\n      0x00\n      dup3\n      sstore\n      dup1\n      0x1f\n      lt\n      tag_40\n      jumpi\n      pop\n      jump(tag_39)\n    tag_40:\n      0x1f\n      add\n      0x20\n      swap1\n      div\n      swap1\n      0x00\n      mstore\n      keccak256(0x00, 0x20)\n      swap1\n      dup2\n      add\n      swap1\n      tag_41\n      swap2\n      swap1\n      tag_42\n      jump\t// in\n    tag_41:\n    tag_39:\n      pop\n      jump\t// out\n    tag_42:\n    tag_43:\n      dup1\n      dup3\n      gt\n      iszero\n      tag_44\n      jumpi\n      0x00\n      dup2\n      0x00\n      swap1\n      sstore\n      pop\n      0x01\n      add\n      jump(tag_43)\n    tag_44:\n      pop\n      swap1\n      jump\t// out\n        /* \"#utility.yul\":7:82   */\n    tag_45:\n        /* \"#utility.yul\":40:46   */\n      0x00\n        /* \"#utility.yul\":73:75   */\n      0x40\n        /* \"#utility.yul\":67:76   */\n      mload\n        /* \"#utility.yul\":57:76   */\n      swap1\n      pop\n        /* \"#utility.yul\":7:82   */\n      swap1\n      jump\t// out\n        /* \"#utility.yul\":88:205   */\n    tag_46:\n        /* \"#utility.yul\":197:198   */\n      0x00\n        /* \"#utility.yul\":194:195   */\n      0x00\n        /* \"#utility.yul\":187:199   */\n      revert\n        /* \"#utility.yul\":211:328   */\n    tag_47:\n        /* \"#utility.yul\":320:321   */\n      0x00\n        /* \"#utility.yul\":317:318   */\n      0x00\n        /* \"#utility.yul\":310:322   */\n      revert\n        /* \"#utility.yul\":334:411   */\n    tag_48:\n        /* \"#utility.yul\":371:378   */\n      0x00\n        /* \"#utility.yul\":400:405   */\n      dup2\n        /* \"#utility.yul\":389:405   */\n      swap1\n      pop\n        /* \"#utility.yul\":334:411   */\n      swap2\n      swap1\n      pop\n      jump\t// out\n        /* \"#utility.yul\":417:539   */\n    tag_49:\n        /* \"#utility.yul\":490:514   */\n      tag_88\n        /* \"#utility.yul\":508:513   */\n      dup2\n        /* \"#utility.yul\":490:514   */\n      tag_48\n      jump\t// in\n    tag_88:\n        /* \"#utility.yul\":483:488   */\n      dup2\n        /* \"#utility.yul\":480:515   */\n      eq\n        /* \"#utility.yul\":470:533   */\n      tag_89\n      jumpi\n        /* \"#utility.yul\":529:530   */\n      0x00\n        /* \"#utility.yul\":526:527   */\n      0x00\n        /* \"#utility.yul\":519:531   */\n      revert\n        /* \"#utility.yul\":470:533   */\n    tag_89:\n        /* \"#utility.yul\":417:539   */\n      pop\n      jump\t// out\n        /* \"#utility.yul\":545:684   */\n    tag_50:\n        /* \"#utility.yul\":591:596   */\n      0x00\n        /* \"#utility.yul\":629:635   */\n      dup2\n        /* \"#utility.yul\":616:636   */\n      calldataload\n        /* \"#utility.yul\":607:636   */\n      swap1\n      pop\n        /* \"#utility.yul\":645:678   */\n      tag_91\n        /* \"#utility.yul\":672:677   */\n      dup2\n        /* \"#utility.yul\":645:678   */\n      tag_49\n      jump\t// in\n    tag_91:\n        /* \"#utility.yul\":545:684   */\n      swap3\n      swap2\n      pop\n      pop\n      jump\t// out\n        /* \"#utility.yul\":690:1019   */\n    tag_9:\n        /* \"#utility.yul\":749:755   */\n      0x00\n        /* \"#utility.yul\":798:800   */\n      0x20\n        /* \"#utility.yul\":786:795   */\n      dup3\n        /* \"#utility.yul\":777:784   */\n      dup5\n        /* \"#utility.yul\":773:796   */\n      sub\n        /* \"#utility.yul\":769:801   */\n      slt\n        /* \"#utility.yul\":766:885   */\n      iszero\n      tag_93\n      jumpi\n        /* \"#utility.yul\":804:883   */\n      tag_94\n      tag_46\n      jump\t// in\n    tag_94:\n        /* \"#utility.yul\":766:885   */\n    tag_93:\n        /* \"#utility.yul\":924:925   */\n      0x00\n        /* \"#utility.yul\":949:1002   */\n      tag_95\n        /* \"#utility.yul\":994:1001   */\n      dup5\n        /* \"#utility.yul\":985:991   */\n      dup3\n        /* \"#utility.yul\":974:983   */\n      dup6\n        /* \"#utility.yul\":970:992   */\n      add\n        /* \"#utility.yul\":949:1002   */\n      tag_50\n      jump\t// in\n    tag_95:\n        /* \"#utility.yul\":939:1002   */\n      swap2\n      pop\n        /* \"#utility.yul\":895:1012   */\n      pop\n        /* \"#utility.yul\":690:1019   */\n      swap3\n      swap2\n      pop\n      pop\n      jump\t// out\n        /* \"#utility.yul\":1025:1143   */\n    tag_51:\n        /* \"#utility.yul\":1112:1136   */\n      tag_97\n        /* \"#utility.yul\":1130:1135   */\n      dup2\n        /* \"#utility.yul\":1112:1136   */\n      tag_48\n      jump\t// in\n    tag_97:\n        /* \"#utility.yul\":1107:1110   */\n      dup3\n        /* \"#utility.yul\":1100:1137   */\n      mstore\n        /* \"#utility.yul\":1025:1143   */\n      pop\n      pop\n      jump\t// out\n        /* \"#utility.yul\":1149:1248   */\n    tag_52:\n        /* \"#utility.yul\":1201:1207   */\n      0x00\n        /* \"#utility.yul\":1235:1240   */\n      dup2\n        /* \"#utility.yul\":1229:1241   */\n      mload\n        /* \"#utility.yul\":1219:1241   */\n      swap1\n      pop\n        /* \"#utility.yul\":1149:1248   */\n      swap2\n      swap1\n      pop\n      jump\t// out\n        /* \"#utility.yul\":1254:1423   */\n    tag_53:\n        /* \"#utility.yul\":1338:1349   */\n      0x00\n        /* \"#utility.yul\":1372:1378   */\n      dup3\n        /* \"#utility.yul\":1367:1370   */\n      dup3\n        /* \"#utility.yul\":1360:1379   */\n      mstore\n        /* \"#utility.yul\":1412:1416   */\n      0x20\n        /* \"#utility.yul\":1407:1410   */\n      dup3\n        /* \"#utility.yul\":1403:1417   */\n      add\n        /* \"#utility.yul\":1388:1417   */\n      swap1\n      pop\n        /* \"#utility.yul\":1254:1423   */\n      swap3\n      swap2\n      pop\n      pop\n      jump\t// out\n        /* \"#utility.yul\":1429:1568   */\n    tag_54:\n        /* \"#utility.yul\":1518:1524   */\n      dup3\n        /* \"#utility.yul\":1513:1516   */\n      dup2\n        /* \"#utility.yul\":1508:1511   */\n      dup4\n        /* \"#utility.yul\":1502:1525   */\n      mcopy\n        /* \"#utility.yul\":1559:1560   */\n      0x00\n        /* \"#utility.yul\":1550:1556   */\n      dup4\n        /* \"#utility.yul\":1545:1548   */\n      dup4\n        /* \"#utility.yul\":1541:1557   */\n      add\n        /* \"#utility.yul\":1534:1561   */\n      mstore\n        /* \"#utility.yul\":1429:1568   */\n      pop\n      pop\n      pop\n      jump\t// out\n        /* \"#utility.yul\":1574:1676   */\n    tag_55:\n        /* \"#utility.yul\":1615:1621   */\n      0x00\n        /* \"#utility.yul\":1666:1668   */\n      0x1f\n        /* \"#utility.yul\":1662:1669   */\n      not\n        /* \"#utility.yul\":1657:1659   */\n      0x1f\n        /* \"#utility.yul\":1650:1655   */\n      dup4\n        /* \"#utility.yul\":1646:1660   */\n      add\n        /* \"#utility.yul\":1642:1670   */\n      and\n        /* \"#utility.yul\":1632:1670   */\n      swap1\n      pop\n        /* \"#utility.yul\":1574:1676   */\n      swap2\n      swap1\n      pop\n      jump\t// out\n        /* \"#utility.yul\":1682:2059   */\n    tag_56:\n        /* \"#utility.yul\":1770:1773   */\n      0x00\n        /* \"#utility.yul\":1798:1837   */\n      tag_103\n        /* \"#utility.yul\":1831:1836   */\n      dup3\n        /* \"#utility.yul\":1798:1837   */\n      tag_52\n      jump\t// in\n    tag_103:\n        /* \"#utility.yul\":1853:1924   */\n      tag_104\n        /* \"#utility.yul\":1917:1923   */\n      dup2\n        /* \"#utility.yul\":1912:1915   */\n      dup6\n        /* \"#utility.yul\":1853:1924   */\n      tag_53\n      jump\t// in\n    tag_104:\n        /* \"#utility.yul\":1846:1924   */\n      swap4\n      pop\n        /* \"#utility.yul\":1933:1998   */\n      tag_105\n        /* \"#utility.yul\":1991:1997   */\n      dup2\n        /* \"#utility.yul\":1986:1989   */\n      dup6\n        /* \"#utility.yul\":1979:1983   */\n      0x20\n        /* \"#utility.yul\":1972:1977   */\n      dup7\n        /* \"#utility.yul\":1968:1984   */\n      add\n        /* \"#utility.yul\":1933:1998   */\n      tag_54\n      jump\t// in\n    tag_105:\n        /* \"#utility.yul\":2023:2052   */\n      tag_106\n        /* \"#utility.yul\":2045:2051   */\n      dup2\n        /* \"#utility.yul\":2023:2052   */\n      tag_55\n      jump\t// in\n    tag_106:\n        /* \"#utility.yul\":2018:2021   */\n      dup5\n        /* \"#utility.yul\":2014:2053   */\n      add\n        /* \"#utility.yul\":2007:2053   */\n      swap2\n      pop\n        /* \"#utility.yul\":1774:2059   */\n      pop\n        /* \"#utility.yul\":1682:2059   */\n      swap3\n      swap2\n      pop\n      pop\n      jump\t// out\n        /* \"#utility.yul\":2065:2598   */\n    tag_12:\n        /* \"#utility.yul\":2234:2238   */\n      0x00\n        /* \"#utility.yul\":2272:2274   */\n      0x60\n        /* \"#utility.yul\":2261:2270   */\n      dup3\n        /* \"#utility.yul\":2257:2275   */\n      add\n        /* \"#utility.yul\":2249:2275   */\n      swap1\n      pop\n        /* \"#utility.yul\":2285:2356   */\n      tag_108\n        /* \"#utility.yul\":2353:2354   */\n      0x00\n        /* \"#utility.yul\":2342:2351   */\n      dup4\n        /* \"#utility.yul\":2338:2355   */\n      add\n        /* \"#utility.yul\":2329:2335   */\n      dup7\n        /* \"#utility.yul\":2285:2356   */\n      tag_51\n      jump\t// in\n    tag_108:\n        /* \"#utility.yul\":2403:2412   */\n      dup2\n        /* \"#utility.yul\":2397:2401   */\n      dup2\n        /* \"#utility.yul\":2393:2413   */\n      sub\n        /* \"#utility.yul\":2388:2390   */\n      0x20\n        /* \"#utility.yul\":2377:2386   */\n      dup4\n        /* \"#utility.yul\":2373:2391   */\n      add\n        /* \"#utility.yul\":2366:2414   */\n      mstore\n        /* \"#utility.yul\":2431:2509   */\n      tag_109\n        /* \"#utility.yul\":2504:2508   */\n      dup2\n        /* \"#utility.yul\":2495:2501   */\n      dup6\n        /* \"#utility.yul\":2431:2509   */\n      tag_56\n      jump\t// in\n    tag_109:\n        /* \"#utility.yul\":2423:2509   */\n      swap1\n      pop\n        /* \"#utility.yul\":2519:2591   */\n      tag_110\n        /* \"#utility.yul\":2587:2589   */\n      0x40\n        /* \"#utility.yul\":2576:2585   */\n      dup4\n        /* \"#utility.yul\":2572:2590   */\n      add\n        /* \"#utility.yul\":2563:2569   */\n      dup5\n        /* \"#utility.yul\":2519:2591   */\n      tag_51\n      jump\t// in\n    tag_110:\n        /* \"#utility.yul\":2065:2598   */\n      swap5\n      swap4\n      pop\n      pop\n      pop\n      pop\n      jump\t// out\n        /* \"#utility.yul\":2604:2721   */\n    tag_57:\n        /* \"#utility.yul\":2713:2714   */\n      0x00\n        /* \"#utility.yul\":2710:2711   */\n      0x00\n        /* \"#utility.yul\":2703:2715   */\n      revert\n        /* \"#utility.yul\":2727:2844   */\n    tag_58:\n        /* \"#utility.yul\":2836:2837   */\n      0x00\n        /* \"#utility.yul\":2833:2834   */\n      0x00\n        /* \"#utility.yul\":2826:2838   */\n      revert\n        /* \"#utility.yul\":2850:3030   */\n    tag_59:\n        /* \"#utility.yul\":2898:2975   */\n      0x4e487b7100000000000000000000000000000000000000000000000000000000\n        /* \"#utility.yul\":2895:2896   */\n      0x00\n        /* \"#utility.yul\":2888:2976   */\n      mstore\n        /* \"#utility.yul\":2995:2999   */\n      0x41\n        /* \"#utility.yul\":2992:2993   */\n      0x04\n        /* \"#utility.yul\":2985:3000   */\n      mstore\n        /* \"#utility.yul\":3019:3023   */\n      0x24\n        /* \"#utility.yul\":3016:3017   */\n      0x00\n        /* \"#utility.yul\":3009:3024   */\n      revert\n        /* \"#utility.yul\":3036:3317   */\n    tag_60:\n        /* \"#utility.yul\":3119:3146   */\n      tag_115\n        /* \"#utility.yul\":3141:3145   */\n      dup3\n        /* \"#utility.yul\":3119:3146   */\n      tag_55\n      jump\t// in\n    tag_115:\n        /* \"#utility.yul\":3111:3117   */\n      dup2\n        /* \"#utility.yul\":3107:3147   */\n      add\n        /* \"#utility.yul\":3249:3255   */\n      dup2\n        /* \"#utility.yul\":3237:3247   */\n      dup2\n        /* \"#utility.yul\":3234:3256   */\n      lt\n        /* \"#utility.yul\":3213:3231   */\n      0xffffffffffffffff\n        /* \"#utility.yul\":3201:3211   */\n      dup3\n        /* \"#utility.yul\":3198:3232   */\n      gt\n        /* \"#utility.yul\":3195:3257   */\n      or\n        /* \"#utility.yul\":3192:3280   */\n      iszero\n      tag_116\n      jumpi\n        /* \"#utility.yul\":3260:3278   */\n      tag_117\n      tag_59\n      jump\t// in\n    tag_117:\n        /* \"#utility.yul\":3192:3280   */\n    tag_116:\n        /* \"#utility.yul\":3300:3310   */\n      dup1\n        /* \"#utility.yul\":3296:3298   */\n      0x40\n        /* \"#utility.yul\":3289:3311   */\n      mstore\n        /* \"#utility.yul\":3079:3317   */\n      pop\n        /* \"#utility.yul\":3036:3317   */\n      pop\n      pop\n      jump\t// out\n        /* \"#utility.yul\":3323:3452   */\n    tag_61:\n        /* \"#utility.yul\":3357:3363   */\n      0x00\n        /* \"#utility.yul\":3384:3404   */\n      tag_119\n      tag_45\n      jump\t// in\n    tag_119:\n        /* \"#utility.yul\":3374:3404   */\n      swap1\n      pop\n        /* \"#utility.yul\":3413:3446   */\n      tag_120\n        /* \"#utility.yul\":3441:3445   */\n      dup3\n        /* \"#utility.yul\":3433:3439   */\n      dup3\n        /* \"#utility.yul\":3413:3446   */\n      tag_60\n      jump\t// in\n    tag_120:\n        /* \"#utility.yul\":3323:3452   */\n      swap2\n      swap1\n      pop\n      jump\t// out\n        /* \"#utility.yul\":3458:3766   */\n    tag_62:\n        /* \"#utility.yul\":3520:3524   */\n      0x00\n        /* \"#utility.yul\":3610:3628   */\n      0xffffffffffffffff\n        /* \"#utility.yul\":3602:3608   */\n      dup3\n        /* \"#utility.yul\":3599:3629   */\n      gt\n        /* \"#utility.yul\":3596:3652   */\n      iszero\n      tag_122\n      jumpi\n        /* \"#utility.yul\":3632:3650   */\n      tag_123\n      tag_59\n      jump\t// in\n    tag_123:\n        /* \"#utility.yul\":3596:3652   */\n    tag_122:\n        /* \"#utility.yul\":3670:3699   */\n      tag_124\n        /* \"#utility.yul\":3692:3698   */\n      dup3\n        /* \"#utility.yul\":3670:3699   */\n      tag_55\n      jump\t// in\n    tag_124:\n        /* \"#utility.yul\":3662:3699   */\n      swap1\n      pop\n        /* \"#utility.yul\":3754:3758   */\n      0x20\n        /* \"#utility.yul\":3748:3752   */\n      dup2\n        /* \"#utility.yul\":3744:3759   */\n      add\n        /* \"#utility.yul\":3736:3759   */\n      swap1\n      pop\n        /* \"#utility.yul\":3458:3766   */\n      swap2\n      swap1\n      pop\n      jump\t// out\n        /* \"#utility.yul\":3772:3920   */\n    tag_63:\n        /* \"#utility.yul\":3870:3876   */\n      dup3\n        /* \"#utility.yul\":3865:3868   */\n      dup2\n        /* \"#utility.yul\":3860:3863   */\n      dup4\n        /* \"#utility.yul\":3847:3877   */\n      calldatacopy\n        /* \"#utility.yul\":3911:3912   */\n      0x00\n        /* \"#utility.yul\":3902:3908   */\n      dup4\n        /* \"#utility.yul\":3897:3900   */\n      dup4\n        /* \"#utility.yul\":3893:3909   */\n      add\n        /* \"#utility.yul\":3886:3913   */\n      mstore\n        /* \"#utility.yul\":3772:3920   */\n      pop\n      pop\n      pop\n      jump\t// out\n        /* \"#utility.yul\":3926:4351   */\n    tag_64:\n        /* \"#utility.yul\":4004:4009   */\n      0x00\n        /* \"#utility.yul\":4029:4095   */\n      tag_127\n        /* \"#utility.yul\":4045:4094   */\n      tag_128\n        /* \"#utility.yul\":4087:4093   */\n      dup5\n        /* \"#utility.yul\":4045:4094   */\n      tag_62\n      jump\t// in\n    tag_128:\n        /* \"#utility.yul\":4029:4095   */\n      tag_61\n      jump\t// in\n    tag_127:\n        /* \"#utility.yul\":4020:4095   */\n      swap1\n      pop\n        /* \"#utility.yul\":4118:4124   */\n      dup3\n        /* \"#utility.yul\":4111:4116   */\n      dup2\n        /* \"#utility.yul\":4104:4125   */\n      mstore\n        /* \"#utility.yul\":4156:4160   */\n      0x20\n        /* \"#utility.yul\":4149:4154   */\n      dup2\n        /* \"#utility.yul\":4145:4161   */\n      add\n        /* \"#utility.yul\":4194:4197   */\n      dup5\n        /* \"#utility.yul\":4185:4191   */\n      dup5\n        /* \"#utility.yul\":4180:4183   */\n      dup5\n        /* \"#utility.yul\":4176:4192   */\n      add\n        /* \"#utility.yul\":4173:4198   */\n      gt\n        /* \"#utility.yul\":4170:4282   */\n      iszero\n      tag_129\n      jumpi\n        /* \"#utility.yul\":4201:4280   */\n      tag_130\n      tag_58\n      jump\t// in\n    tag_130:\n        /* \"#utility.yul\":4170:4282   */\n    tag_129:\n        /* \"#utility.yul\":4291:4345   */\n      tag_131\n        /* \"#utility.yul\":4338:4344   */\n      dup5\n        /* \"#utility.yul\":4333:4336   */\n      dup3\n        /* \"#utility.yul\":4328:4331   */\n      dup6\n        /* \"#utility.yul\":4291:4345   */\n      tag_63\n      jump\t// in\n    tag_131:\n        /* \"#utility.yul\":4010:4351   */\n      pop\n        /* \"#utility.yul\":3926:4351   */\n      swap4\n      swap3\n      pop\n      pop\n      pop\n      jump\t// out\n        /* \"#utility.yul\":4371:4711   */\n    tag_65:\n        /* \"#utility.yul\":4427:4432   */\n      0x00\n        /* \"#utility.yul\":4476:4479   */\n      dup3\n        /* \"#utility.yul\":4469:4473   */\n      0x1f\n        /* \"#utility.yul\":4461:4467   */\n      dup4\n        /* \"#utility.yul\":4457:4474   */\n      add\n        /* \"#utility.yul\":4453:4480   */\n      slt\n        /* \"#utility.yul\":4443:4565   */\n      tag_133\n      jumpi\n        /* \"#utility.yul\":4484:4563   */\n      tag_134\n      tag_57\n      jump\t// in\n    tag_134:\n        /* \"#utility.yul\":4443:4565   */\n    tag_133:\n        /* \"#utility.yul\":4601:4607   */\n      dup2\n        /* \"#utility.yul\":4588:4608   */\n      calldataload\n        /* \"#utility.yul\":4626:4705   */\n      tag_135\n        /* \"#utility.yul\":4701:4704   */\n      dup5\n        /* \"#utility.yul\":4693:4699   */\n      dup3\n        /* \"#utility.yul\":4686:4690   */\n      0x20\n        /* \"#utility.yul\":4678:4684   */\n      dup7\n        /* \"#utility.yul\":4674:4691   */\n      add\n        /* \"#utility.yul\":4626:4705   */\n      tag_64\n      jump\t// in\n    tag_135:\n        /* \"#utility.yul\":4617:4705   */\n      swap2\n      pop\n        /* \"#utility.yul\":4433:4711   */\n      pop\n        /* \"#utility.yul\":4371:4711   */\n      swap3\n      swap2\n      pop\n      pop\n      jump\t// out\n        /* \"#utility.yul\":4717:5516   */\n    tag_15:\n        /* \"#utility.yul\":4804:4810   */\n      0x00\n        /* \"#utility.yul\":4812:4818   */\n      0x00\n        /* \"#utility.yul\":4820:4826   */\n      0x00\n        /* \"#utility.yul\":4869:4871   */\n      0x60\n        /* \"#utility.yul\":4857:4866   */\n      dup5\n        /* \"#utility.yul\":4848:4855   */\n      dup7\n        /* \"#utility.yul\":4844:4867   */\n      sub\n        /* \"#utility.yul\":4840:4872   */\n      slt\n        /* \"#utility.yul\":4837:4956   */\n      iszero\n      tag_137\n      jumpi\n        /* \"#utility.yul\":4875:4954   */\n      tag_138\n      tag_46\n      jump\t// in\n    tag_138:\n        /* \"#utility.yul\":4837:4956   */\n    tag_137:\n        /* \"#utility.yul\":4995:4996   */\n      0x00\n        /* \"#utility.yul\":5020:5073   */\n      tag_139\n        /* \"#utility.yul\":5065:5072   */\n      dup7\n        /* \"#utility.yul\":5056:5062   */\n      dup3\n        /* \"#utility.yul\":5045:5054   */\n      dup8\n        /* \"#utility.yul\":5041:5063   */\n      add\n        /* \"#utility.yul\":5020:5073   */\n      tag_50\n      jump\t// in\n    tag_139:\n        /* \"#utility.yul\":5010:5073   */\n      swap4\n      pop\n        /* \"#utility.yul\":4966:5083   */\n      pop\n        /* \"#utility.yul\":5150:5152   */\n      0x20\n        /* \"#utility.yul\":5139:5148   */\n      dup5\n        /* \"#utility.yul\":5135:5153   */\n      add\n        /* \"#utility.yul\":5122:5154   */\n      calldataload\n        /* \"#utility.yul\":5181:5199   */\n      0xffffffffffffffff\n        /* \"#utility.yul\":5173:5179   */\n      dup2\n        /* \"#utility.yul\":5170:5200   */\n      gt\n        /* \"#utility.yul\":5167:5284   */\n      iszero\n      tag_140\n      jumpi\n        /* \"#utility.yul\":5203:5282   */\n      tag_141\n      tag_47\n      jump\t// in\n    tag_141:\n        /* \"#utility.yul\":5167:5284   */\n    tag_140:\n        /* \"#utility.yul\":5308:5371   */\n      tag_142\n        /* \"#utility.yul\":5363:5370   */\n      dup7\n        /* \"#utility.yul\":5354:5360   */\n      dup3\n        /* \"#utility.yul\":5343:5352   */\n      dup8\n        /* \"#utility.yul\":5339:5361   */\n      add\n        /* \"#utility.yul\":5308:5371   */\n      tag_65\n      jump\t// in\n    tag_142:\n        /* \"#utility.yul\":5298:5371   */\n      swap3\n      pop\n        /* \"#utility.yul\":5093:5381   */\n      pop\n        /* \"#utility.yul\":5420:5422   */\n      0x40\n        /* \"#utility.yul\":5446:5499   */\n      tag_143\n        /* \"#utility.yul\":5491:5498   */\n      dup7\n        /* \"#utility.yul\":5482:5488   */\n      dup3\n        /* \"#utility.yul\":5471:5480   */\n      dup8\n        /* \"#utility.yul\":5467:5489   */\n      add\n        /* \"#utility.yul\":5446:5499   */\n      tag_50\n      jump\t// in\n    tag_143:\n        /* \"#utility.yul\":5436:5499   */\n      swap2\n      pop\n        /* \"#utility.yul\":5391:5509   */\n      pop\n        /* \"#utility.yul\":4717:5516   */\n      swap3\n      pop\n      swap3\n      pop\n      swap3\n      jump\t// out\n        /* \"#utility.yul\":5522:5702   */\n    tag_66:\n        /* \"#utility.yul\":5570:5647   */\n      0x4e487b7100000000000000000000000000000000000000000000000000000000\n        /* \"#utility.yul\":5567:5568   */\n      0x00\n        /* \"#utility.yul\":5560:5648   */\n      mstore\n        /* \"#utility.yul\":5667:5671   */\n      0x22\n        /* \"#utility.yul\":5664:5665   */\n      0x04\n        /* \"#utility.yul\":5657:5672   */\n      mstore\n        /* \"#utility.yul\":5691:5695   */\n      0x24\n        /* \"#utility.yul\":5688:5689   */\n      0x00\n        /* \"#utility.yul\":5681:5696   */\n      revert\n        /* \"#utility.yul\":5708:6028   */\n    tag_25:\n        /* \"#utility.yul\":5752:5758   */\n      0x00\n        /* \"#utility.yul\":5789:5790   */\n      0x02\n        /* \"#utility.yul\":5783:5787   */\n      dup3\n        /* \"#utility.yul\":5779:5791   */\n      div\n        /* \"#utility.yul\":5769:5791   */\n      swap1\n      pop\n        /* \"#utility.yul\":5836:5837   */\n      0x01\n        /* \"#utility.yul\":5830:5834   */\n      dup3\n        /* \"#utility.yul\":5826:5838   */\n      and\n        /* \"#utility.yul\":5857:5875   */\n      dup1\n        /* \"#utility.yul\":5847:5928   */\n      tag_146\n      jumpi\n        /* \"#utility.yul\":5913:5917   */\n      0x7f\n        /* \"#utility.yul\":5905:5911   */\n      dup3\n        /* \"#utility.yul\":5901:5918   */\n      and\n        /* \"#utility.yul\":5891:5918   */\n      swap2\n      pop\n        /* \"#utility.yul\":5847:5928   */\n    tag_146:\n        /* \"#utility.yul\":5975:5977   */\n      0x20\n        /* \"#utility.yul\":5967:5973   */\n      dup3\n        /* \"#utility.yul\":5964:5978   */\n      lt\n        /* \"#utility.yul\":5944:5962   */\n      dup2\n        /* \"#utility.yul\":5941:5979   */\n      sub\n        /* \"#utility.yul\":5938:6022   */\n      tag_147\n      jumpi\n        /* \"#utility.yul\":5994:6012   */\n      tag_148\n      tag_66\n      jump\t// in\n    tag_148:\n        /* \"#utility.yul\":5938:6022   */\n    tag_147:\n        /* \"#utility.yul\":5759:6028   */\n      pop\n        /* \"#utility.yul\":5708:6028   */\n      swap2\n      swap1\n      pop\n      jump\t// out\n        /* \"#utility.yul\":6034:6175   */\n    tag_67:\n        /* \"#utility.yul\":6083:6087   */\n      0x00\n        /* \"#utility.yul\":6106:6109   */\n      dup2\n        /* \"#utility.yul\":6098:6109   */\n      swap1\n      pop\n        /* \"#utility.yul\":6129:6132   */\n      dup2\n        /* \"#utility.yul\":6126:6127   */\n      0x00\n        /* \"#utility.yul\":6119:6133   */\n      mstore\n        /* \"#utility.yul\":6163:6167   */\n      0x20\n        /* \"#utility.yul\":6160:6161   */\n      0x00\n        /* \"#utility.yul\":6150:6168   */\n      keccak256\n        /* \"#utility.yul\":6142:6168   */\n      swap1\n      pop\n        /* \"#utility.yul\":6034:6175   */\n      swap2\n      swap1\n      pop\n      jump\t// out\n        /* \"#utility.yul\":6181:6274   */\n    tag_68:\n        /* \"#utility.yul\":6218:6224   */\n      0x00\n        /* \"#utility.yul\":6265:6267   */\n      0x20\n        /* \"#utility.yul\":6260:6262   */\n      0x1f\n        /* \"#utility.yul\":6253:6258   */\n      dup4\n        /* \"#utility.yul\":6249:6263   */\n      add\n        /* \"#utility.yul\":6245:6268   */\n      div\n        /* \"#utility.yul\":6235:6268   */\n      swap1\n      pop\n        /* \"#utility.yul\":6181:6274   */\n      swap2\n      swap1\n      pop\n      jump\t// out\n        /* \"#utility.yul\":6280:6387   */\n    tag_69:\n        /* \"#utility.yul\":6324:6332   */\n      0x00\n        /* \"#utility.yul\":6374:6379   */\n      dup3\n        /* \"#utility.yul\":6368:6372   */\n      dup3\n        /* \"#utility.yul\":6364:6380   */\n      shl\n        /* \"#utility.yul\":6343:6380   */\n      swap1\n      pop\n        /* \"#utility.yul\":6280:6387   */\n      swap3\n      swap2\n      pop\n      pop\n      jump\t// out\n        /* \"#utility.yul\":6393:6786   */\n    tag_70:\n        /* \"#utility.yul\":6462:6468   */\n      0x00\n        /* \"#utility.yul\":6512:6513   */\n      0x08\n        /* \"#utility.yul\":6500:6510   */\n      dup4\n        /* \"#utility.yul\":6496:6514   */\n      mul\n        /* \"#utility.yul\":6535:6632   */\n      tag_153\n        /* \"#utility.yul\":6565:6631   */\n      0xffffffffffffffffffffffffffffffffffffffffffffffffffffffffffffffff\n        /* \"#utility.yul\":6554:6563   */\n      dup3\n        /* \"#utility.yul\":6535:6632   */\n      tag_69\n      jump\t// in\n    tag_153:\n        /* \"#utility.yul\":6653:6692   */\n      tag_154\n        /* \"#utility.yul\":6683:6691   */\n      dup7\n        /* \"#utility.yul\":6672:6681   */\n      dup4\n        /* \"#utility.yul\":6653:6692   */\n      tag_69\n      jump\t// in\n    tag_154:\n        /* \"#utility.yul\":6641:6692   */\n      swap6\n      pop\n        /* \"#utility.yul\":6725:6729   */\n      dup1\n        /* \"#utility.yul\":6721:6730   */\n      not\n        /* \"#utility.yul\":6714:6719   */\n      dup5\n        /* \"#utility.yul\":6710:6731   */\n      and\n        /* \"#utility.yul\":6701:6731   */\n      swap4\n      pop\n        /* \"#utility.yul\":6774:6778   */\n      dup1\n        /* \"#utility.yul\":6764:6772   */\n      dup7\n        /* \"#utility.yul\":6760:6779   */\n      and\n        /* \"#utility.yul\":6753:6758   */\n      dup5\n        /* \"#utility.yul\":6750:6780   */\n      or\n        /* \"#utility.yul\":6740:6780   */\n      swap3\n      pop\n        /* \"#utility.yul\":6469:6786   */\n      pop\n      pop\n        /* \"#utility.yul\":6393:6786   */\n      swap4\n      swap3\n      pop\n      pop\n      pop\n      jump\t// out\n        /* \"#utility.yul\":6792:6852   */\n    tag_71:\n        /* \"#utility.yul\":6820:6823   */\n      0x00\n        /* \"#utility.yul\":6841:6846   */\n      dup2\n        /* \"#utility.yul\":6834:6846   */\n      swap1\n      pop\n        /* \"#utility.yul\":6792:6852   */\n      swap2\n      swap1\n      pop\n      jump\t// out\n        /* \"#utility.yul\":6858:7000   */\n    tag_72:\n        /* \"#utility.yul\":6908:6917   */\n      0x00\n        /* \"#utility.yul\":6941:6994   */\n      tag_157\n        /* \"#utility.yul\":6959:6993   */\n      tag_158\n        /* \"#utility.yul\":6968:6992   */\n      tag_159\n        /* \"#utility.yul\":6986:6991   */\n      dup5\n        /* \"#utility.yul\":6968:6992   */\n      tag_48\n      jump\t// in\n    tag_159:\n        /* \"#utility.yul\":6959:6993   */\n      tag_71\n      jump\t// in\n    tag_158:\n        /* \"#utility.yul\":6941:6994   */\n      tag_48\n      jump\t// in\n    tag_157:\n        /* \"#utility.yul\":6928:6994   */\n      swap1\n      pop\n        /* \"#utility.yul\":6858:7000   */\n      swap2\n      swap1\n      pop\n      jump\t// out\n        /* \"#utility.yul\":7006:7081   */\n    tag_73:\n        /* \"#utility.yul\":7049:7052   */\n      0x00\n        /* \"#utility.yul\":7070:7075   */\n      dup2\n        /* \"#utility.yul\":7063:7075   */\n      swap1\n      pop\n        /* \"#utility.yul\":7006:7081   */\n      swap2\n      swap1\n      pop\n      jump\t// out\n        /* \"#utility.yul\":7087:7356   */\n    tag_74:\n        /* \"#utility.yul\":7197:7236   */\n      tag_162\n        /* \"#utility.yul\":7228:7235   */\n      dup4\n        /* \"#utility.yul\":7197:7236   */\n      tag_72\n      jump\t// in\n    tag_162:\n        /* \"#utility.yul\":7258:7349   */\n      tag_163\n        /* \"#utility.yul\":7307:7348   */\n      tag_164\n        /* \"#utility.yul\":7331:7347   */\n      dup3\n        /* \"#utility.yul\":7307:7348   */\n      tag_73\n      jump\t// in\n    tag_164:\n        /* \"#utility.yul\":7299:7305   */\n      dup5\n        /* \"#utility.yul\":7292:7296   */\n      dup5\n        /* \"#utility.yul\":7286:7297   */\n      sload\n        /* \"#utility.yul\":7258:7349   */\n      tag_70\n      jump\t// in\n    tag_163:\n        /* \"#utility.yul\":7252:7256   */\n      dup3\n        /* \"#utility.yul\":7245:7350   */\n      sstore\n        /* \"#utility.yul\":7163:7356   */\n      pop\n        /* \"#utility.yul\":7087:7356   */\n      pop\n      pop\n      pop\n      jump\t// out\n        /* \"#utility.yul\":7362:7435   */\n    tag_75:\n        /* \"#utility.yul\":7407:7410   */\n      0x00\n        /* \"#utility.yul\":7428:7429   */\n      0x00\n        /* \"#utility.yul\":7421:7429   */\n      swap1\n      pop\n        /* \"#utility.yul\":7362:7435   */\n      swap1\n      jump\t// out\n        /* \"#utility.yul\":7441:7630   */\n    tag_76:\n        /* \"#utility.yul\":7518:7550   */\n      tag_167\n      tag_75\n      jump\t// in\n    tag_167:\n        /* \"#utility.yul\":7559:7624   */\n      tag_168\n        /* \"#utility.yul\":7617:7623   */\n      dup2\n        /* \"#utility.yul\":7609:7615   */\n      dup5\n        /* \"#utility.yul\":7603:7607   */\n      dup5\n        /* \"#utility.yul\":7559:7624   */\n      tag_74\n      jump\t// in\n    tag_168:\n        /* \"#utility.yul\":7494:7630   */\n      pop\n        /* \"#utility.yul\":7441:7630   */\n      pop\n      pop\n      jump\t// out\n        /* \"#utility.yul\":7636:7822   */\n    tag_77:\n        /* \"#utility.yul\":7696:7816   */\n    tag_170:\n        /* \"#utility.yul\":7713:7716   */\n      dup2\n        /* \"#utility.yul\":7706:7711   */\n      dup2\n        /* \"#utility.yul\":7703:7717   */\n      lt\n        /* \"#utility.yul\":7696:7816   */\n      iszero\n      tag_172\n      jumpi\n        /* \"#utility.yul\":7767:7806   */\n      tag_173\n        /* \"#utility.yul\":7804:7805   */\n      0x00\n        /* \"#utility.yul\":7797:7802   */\n      dup3\n        /* \"#utility.yul\":7767:7806   */\n      tag_76\n      jump\t// in\n    tag_173:\n        /* \"#utility.yul\":7740:7741   */\n      0x01\n        /* \"#utility.yul\":7733:7738   */\n      dup2\n        /* \"#utility.yul\":7729:7742   */\n      add\n        /* \"#utility.yul\":7720:7742   */\n      swap1\n      pop\n        /* \"#utility.yul\":7696:7816   */\n      jump(tag_170)\n    tag_172:\n        /* \"#utility.yul\":7636:7822   */\n      pop\n      pop\n      jump\t// out\n        /* \"#utility.yul\":7828:8371   */\n    tag_78:\n        /* \"#utility.yul\":7929:7931   */\n      0x1f\n        /* \"#utility.yul\":7924:7927   */\n      dup3\n        /* \"#utility.yul\":7921:7932   */\n      gt\n        /* \"#utility.yul\":7918:8364   */\n      iszero\n      tag_175\n      jumpi\n        /* \"#utility.yul\":7963:8001   */\n      tag_176\n        /* \"#utility.yul\":7995:8000   */\n      dup2\n        /* \"#utility.yul\":7963:8001   */\n      tag_67\n      jump\t// in\n    tag_176:\n        /* \"#utility.yul\":8047:8076   */\n      tag_177\n        /* \"#utility.yul\":8065:8075   */\n      dup5\n        /* \"#utility.yul\":8047:8076   */\n      tag_68\n      jump\t// in\n    tag_177:\n        /* \"#utility.yul\":8037:8045   */\n      dup2\n        /* \"#utility.yul\":8033:8077   */\n      add\n        /* \"#utility.yul\":8230:8232   */\n      0x20\n        /* \"#utility.yul\":8218:8228   */\n      dup6\n        /* \"#utility.yul\":8215:8233   */\n      lt\n        /* \"#utility.yul\":8212:8261   */\n      iszero\n      tag_178\n      jumpi\n        /* \"#utility.yul\":8251:8259   */\n      dup2\n        /* \"#utility.yul\":8236:8259   */\n      swap1\n      pop\n        /* \"#utility.yul\":8212:8261   */\n    tag_178:\n        /* \"#utility.yul\":8274:8354   */\n      tag_179\n        /* \"#utility.yul\":8330:8352   */\n      tag_180\n        /* \"#utility.yul\":8348:8351   */\n      dup6\n        /* \"#utility.yul\":8330:8352   */\n      tag_68\n      jump\t// in\n    tag_180:\n        /* \"#utility.yul\":8320:8328   */\n      dup4\n        /* \"#utility.yul\":8316:8353   */\n      add\n        /* \"#utility.yul\":8303:8314   */\n      dup3\n        /* \"#utility.yul\":8274:8354   */\n      tag_77\n      jump\t// in\n    tag_179:\n        /* \"#utility.yul\":7933:8364   */\n      pop\n      pop\n        /* \"#utility.yul\":7918:8364   */\n    tag_175:\n        /* \"#utility.yul\":7828:8371   */\n      pop\n      pop\n      pop\n      jump\t// out\n        /* \"#utility.yul\":8377:8494   */\n    tag_79:\n        /* \"#utility.yul\":8431:8439   */\n      0x00\n        /* \"#utility.yul\":8481:8486   */\n      dup3\n        /* \"#utility.yul\":8475:8479   */\n      dup3\n        /* \"#utility.yul\":8471:8487   */\n      shr\n        /* \"#utility.yul\":8450:8487   */\n      swap1\n      pop\n        /* \"#utility.yul\":8377:8494   */\n      swap3\n      swap2\n      pop\n      pop\n      jump\t// out\n        /* \"#utility.yul\":8500:8669   */\n    tag_80:\n        /* \"#utility.yul\":8544:8550   */\n      0x00\n        /* \"#utility.yul\":8577:8628   */\n      tag_183\n        /* \"#utility.yul\":8625:8626   */\n      0x00\n        /* \"#utility.yul\":8621:8627   */\n      not\n        /* \"#utility.yul\":8613:8618   */\n      dup5\n        /* \"#utility.yul\":8610:8611   */\n      0x08\n        /* \"#utility.yul\":8606:8619   */\n      mul\n        /* \"#utility.yul\":8577:8628   */\n      tag_79\n      jump\t// in\n    tag_183:\n        /* \"#utility.yul\":8573:8629   */\n      not\n        /* \"#utility.yul\":8658:8662   */\n      dup1\n        /* \"#utility.yul\":8652:8656   */\n      dup4\n        /* \"#utility.yul\":8648:8663   */\n      and\n        /* \"#utility.yul\":8638:8663   */\n      swap2\n      pop\n        /* \"#utility.yul\":8551:8669   */\n      pop\n        /* \"#utility.yul\":8500:8669   */\n      swap3\n      swap2\n      pop\n      pop\n      jump\t// out\n        /* \"#utility.yul\":8674:8969   */\n    tag_81:\n        /* \"#utility.yul\":8750:8754   */\n      0x00\n        /* \"#utility.yul\":8896:8925   */\n      tag_185\n        /* \"#utility.yul\":8921:8924   */\n      dup4\n        /* \"#utility.yul\":8915:8919   */\n      dup4\n        /* \"#utility.yul\":8896:8925   */\n      tag_80\n      jump\t// in\n    tag_185:\n        /* \"#utility.yul\":8888:8925   */\n      swap2\n      pop\n        /* \"#utility.yul\":8958:8961   */\n      dup3\n        /* \"#utility.yul\":8955:8956   */\n      0x02\n        /* \"#utility.yul\":8951:8962   */\n      mul\n        /* \"#utility.yul\":8945:8949   */\n      dup3\n        /* \"#utility.yul\":8942:8963   */\n      or\n        /* \"#utility.yul\":8934:8963   */\n      swap1\n      pop\n        /* \"#utility.yul\":8674:8969   */\n      swap3\n      swap2\n      pop\n      pop\n      jump\t// out\n        /* \"#utility.yul\":8974:10369   */\n    tag_32:\n        /* \"#utility.yul\":9091:9128   */\n      tag_187\n        /* \"#utility.yul\":9124:9127   */\n      dup3\n        /* \"#utility.yul\":9091:9128   */\n      tag_52\n      jump\t// in\n    tag_187:\n        /* \"#utility.yul\":9193:9211   */\n      0xffffffffffffffff\n        /* \"#utility.yul\":9185:9191   */\n      dup2\n        /* \"#utility.yul\":9182:9212   */\n      gt\n        /* \"#utility.yul\":9179:9235   */\n      iszero\n      tag_188\n      jumpi\n        /* \"#utility.yul\":9215:9233   */\n      tag_189\n      tag_59\n      jump\t// in\n    tag_189:\n        /* \"#utility.yul\":9179:9235   */\n    tag_188:\n        /* \"#utility.yul\":9259:9297   */\n      tag_190\n        /* \"#utility.yul\":9291:9295   */\n      dup3\n        /* \"#utility.yul\":9285:9296   */\n      sload\n        /* \"#utility.yul\":9259:9297   */\n      tag_25\n      jump\t// in\n    tag_190:\n        /* \"#utility.yul\":9344:9411   */\n      tag_191\n        /* \"#utility.yul\":9404:9410   */\n      dup3\n        /* \"#utility.yul\":9396:9402   */\n      dup3\n        /* \"#utility.yul\":9390:9394   */\n      dup6\n        /* \"#utility.yul\":9344:9411   */\n      tag_78\n      jump\t// in\n    tag_191:\n        /* \"#utility.yul\":9438:9439   */\n      0x00\n        /* \"#utility.yul\":9462:9466   */\n      0x20\n        /* \"#utility.yul\":9449:9466   */\n      swap1\n      pop\n        /* \"#utility.yul\":9494:9496   */\n      0x1f\n        /* \"#utility.yul\":9486:9492   */\n      dup4\n        /* \"#utility.yul\":9483:9497   */\n      gt\n        /* \"#utility.yul\":9511:9512   */\n      0x01\n        /* \"#utility.yul\":9506:10124   */\n      dup2\n      eq\n      tag_193\n      jumpi\n        /* \"#utility.yul\":10168:10169   */\n      0x00\n        /* \"#utility.yul\":10185:10191   */\n      dup5\n        /* \"#utility.yul\":10182:10259   */\n      iszero\n      tag_194\n      jumpi\n        /* \"#utility.yul\":10234:10243   */\n      dup3\n        /* \"#utility.yul\":10229:10232   */\n      dup8\n        /* \"#utility.yul\":10225:10244   */\n      add\n        /* \"#utility.yul\":10219:10245   */\n      mload\n        /* \"#utility.yul\":10210:10245   */\n      swap1\n      pop\n        /* \"#utility.yul\":10182:10259   */\n    tag_194:\n        /* \"#utility.yul\":10285:10352   */\n      tag_195\n        /* \"#utility.yul\":10345:10351   */\n      dup6\n        /* \"#utility.yul\":10338:10343   */\n      dup3\n        /* \"#utility.yul\":10285:10352   */\n      tag_81\n      jump\t// in\n    tag_195:\n        /* \"#utility.yul\":10279:10283   */\n      dup7\n        /* \"#utility.yul\":10272:10353   */\n      sstore\n        /* \"#utility.yul\":10141:10363   */\n      pop\n        /* \"#utility.yul\":9476:10363   */\n      jump(tag_192)\n        /* \"#utility.yul\":9506:10124   */\n    tag_193:\n        /* \"#utility.yul\":9558:9562   */\n      0x1f\n        /* \"#utility.yul\":9554:9563   */\n      not\n        /* \"#utility.yul\":9546:9552   */\n      dup5\n        /* \"#utility.yul\":9542:9564   */\n      and\n        /* \"#utility.yul\":9592:9629   */\n      tag_196\n        /* \"#utility.yul\":9624:9628   */\n      dup7\n        /* \"#utility.yul\":9592:9629   */\n      tag_67\n      jump\t// in\n    tag_196:\n        /* \"#utility.yul\":9651:9652   */\n      0x00\n        /* \"#utility.yul\":9665:9873   */\n    tag_197:\n        /* \"#utility.yul\":9679:9686   */\n      dup3\n        /* \"#utility.yul\":9676:9677   */\n      dup2\n        /* \"#utility.yul\":9673:9687   */\n      lt\n        /* \"#utility.yul\":9665:9873   */\n      iszero\n      tag_199\n      jumpi\n        /* \"#utility.yul\":9758:9767   */\n      dup5\n        /* \"#utility.yul\":9753:9756   */\n      dup10\n        /* \"#utility.yul\":9749:9768   */\n      add\n        /* \"#utility.yul\":9743:9769   */\n      mload\n        /* \"#utility.yul\":9735:9741   */\n      dup3\n        /* \"#utility.yul\":9728:9770   */\n      sstore\n        /* \"#utility.yul\":9809:9810   */\n      0x01\n        /* \"#utility.yul\":9801:9807   */\n      dup3\n        /* \"#utility.yul\":9797:9811   */\n      add\n        /* \"#utility.yul\":9787:9811   */\n      swap2\n      pop\n        /* \"#utility.yul\":9856:9858   */\n      0x20\n        /* \"#utility.yul\":9845:9854   */\n      dup6\n        /* \"#utility.yul\":9841:9859   */\n      add\n        /* \"#utility.yul\":9828:9859   */\n      swap5\n      pop\n        /* \"#utility.yul\":9702:9706   */\n      0x20\n        /* \"#utility.yul\":9699:9700   */\n      dup2\n        /* \"#utility.yul\":9695:9707   */\n      add\n        /* \"#utility.yul\":9690:9707   */\n      swap1\n      pop\n        /* \"#utility.yul\":9665:9873   */\n      jump(tag_197)\n    tag_199:\n        /* \"#utility.yul\":9901:9907   */\n      dup7\n        /* \"#utility.yul\":9892:9899   */\n      dup4\n        /* \"#utility.yul\":9889:9908   */\n      lt\n        /* \"#utility.yul\":9886:10065   */\n      iszero\n      tag_200\n      jumpi\n        /* \"#utility.yul\":9959:9968   */\n      dup5\n        /* \"#utility.yul\":9954:9957   */\n      dup10\n        /* \"#utility.yul\":9950:9969   */\n      add\n        /* \"#utility.yul\":9944:9970   */\n      mload\n        /* \"#utility.yul\":10002:10050   */\n      tag_201\n        /* \"#utility.yul\":10044:10048   */\n      0x1f\n        /* \"#utility.yul\":10036:10042   */\n      dup10\n        /* \"#utility.yul\":10032:10049   */\n      and\n        /* \"#utility.yul\":10021:10030   */\n      dup3\n        /* \"#utility.yul\":10002:10050   */\n      tag_80\n      jump\t// in\n    tag_201:\n        /* \"#utility.yul\":9994:10000   */\n      dup4\n        /* \"#utility.yul\":9987:10051   */\n      sstore\n        /* \"#utility.yul\":9909:10065   */\n      pop\n        /* \"#utility.yul\":9886:10065   */\n    tag_200:\n        /* \"#utility.yul\":10111:10112   */\n      0x01\n        /* \"#utility.yul\":10107:10108   */\n      0x02\n        /* \"#utility.yul\":10099:10105   */\n      dup9\n        /* \"#utility.yul\":10095:10109   */\n      mul\n        /* \"#utility.yul\":10091:10113   */\n      add\n        /* \"#utility.yul\":10085:10089   */\n      dup9\n        /* \"#utility.yul\":10078:10114   */\n      sstore\n        /* \"#utility.yul\":9513:10124   */\n      pop\n      pop\n      pop\n        /* \"#utility.yul\":9476:10363   */\n    tag_192:\n      pop\n        /* \"#utility.yul\":9066:10369   */\n      pop\n      pop\n      pop\n        /* \"#utility.yul\":8974:10369   */\n      pop\n      pop\n      jump\t// out\n\n    auxdata: 0xa26469706673582212202a0f0c31e85530d68f422dadbda03f5a09b17e9674c8c721a4ca7d294cb4f61464736f6c634300081f0033\n}\n",
				"bytecode": {
					"linkReferences": {},
					"object": "6080604052348015600e575f5ffd5b506108b98061001c5f395ff3fe608060405234801561000f575f5ffd5b506004361061004a575f3560e01c80639bd0e1bd1461004e5780639c04cfb614610080578063a79e0dc91461009c578063e4adeda5146100b8575b5f5ffd5b61006860048036038101906100639190610339565b6100d4565b604051610077939291906103e3565b60405180910390f35b61009a6004803603810190610095919061054b565b6101b5565b005b6100b660048036038101906100b1919061054b565b610210565b005b6100d260048036038101906100cd9190610339565b61026b565b005b5f60605f5f5f5f8681526020019081526020015f206040518060600160405290815f820154815260200160018201805461010d906105e4565b80601f0160208091040260200160405190810160405280929190818152602001828054610139906105e4565b80156101845780601f1061015b57610100808354040283529160200191610184565b820191905f5260205f20905b81548152906001019060200180831161016757829003601f168201915b505050505081526020016002820154815250509050805f015181602001518260400151935093509350509193909250565b6040518060600160405280848152602001838152602001828152505f5f8581526020019081526020015f205f820151815f015560208201518160010190816101fd91906107b4565b5060408201518160020155905050505050565b6040518060600160405280848152602001838152602001828152505f5f8581526020019081526020015f205f820151815f0155602082015181600101908161025891906107b4565b5060408201518160020155905050505050565b5f5f8281526020019081526020015f205f5f82015f9055600182015f610291919061029d565b600282015f9055505050565b5080546102a9906105e4565b5f825580601f106102ba57506102d7565b601f0160209004905f5260205f20908101906102d691906102da565b5b50565b5b808211156102f1575f815f9055506001016102db565b5090565b5f604051905090565b5f5ffd5b5f5ffd5b5f819050919050565b61031881610306565b8114610322575f5ffd5b50565b5f813590506103338161030f565b92915050565b5f6020828403121561034e5761034d6102fe565b5b5f61035b84828501610325565b91505092915050565b61036d81610306565b82525050565b5f81519050919050565b5f82825260208201905092915050565b8281835e5f83830152505050565b5f601f19601f8301169050919050565b5f6103b582610373565b6103bf818561037d565b93506103cf81856020860161038d565b6103d88161039b565b840191505092915050565b5f6060820190506103f65f830186610364565b818103602083015261040881856103ab565b90506104176040830184610364565b949350505050565b5f5ffd5b5f5ffd5b7f4e487b71000000000000000000000000000000000000000000000000000000005f52604160045260245ffd5b61045d8261039b565b810181811067ffffffffffffffff8211171561047c5761047b610427565b5b80604052505050565b5f61048e6102f5565b905061049a8282610454565b919050565b5f67ffffffffffffffff8211156104b9576104b8610427565b5b6104c28261039b565b9050602081019050919050565b828183375f83830152505050565b5f6104ef6104ea8461049f565b610485565b90508281526020810184848401111561050b5761050a610423565b5b6105168482856104cf565b509392505050565b5f82601f8301126105325761053161041f565b5b81356105428482602086016104dd565b91505092915050565b5f5f5f60608486031215610562576105616102fe565b5b5f61056f86828701610325565b935050602084013567ffffffffffffffff8111156105905761058f610302565b5b61059c8682870161051e565b92505060406105ad86828701610325565b9150509250925092565b7f4e487b71000000000000000000000000000000000000000000000000000000005f52602260045260245ffd5b5f60028204905060018216806105fb57607f821691505b60208210810361060e5761060d6105b7565b5b50919050565b5f819050815f5260205f209050919050565b5f6020601f8301049050919050565b5f82821b905092915050565b5f600883026106707fffffffffffffffffffffffffffffffffffffffffffffffffffffffffffffffff82610635565b61067a8683610635565b95508019841693508086168417925050509392505050565b5f819050919050565b5f6106b56106b06106ab84610306565b610692565b610306565b9050919050565b5f819050919050565b6106ce8361069b565b6106e26106da826106bc565b848454610641565b825550505050565b5f5f905090565b6106f96106ea565b6107048184846106c5565b505050565b5b818110156107275761071c5f826106f1565b60018101905061070a565b5050565b601f82111561076c5761073d81610614565b61074684610626565b81016020851015610755578190505b61076961076185610626565b830182610709565b50505b505050565b5f82821c905092915050565b5f61078c5f1984600802610771565b1980831691505092915050565b5f6107a4838361077d565b9150826002028217905092915050565b6107bd82610373565b67ffffffffffffffff8111156107d6576107d5610427565b5b6107e082546105e4565b6107eb82828561072b565b5f60209050601f83116001811461081c575f841561080a578287015190505b6108148582610799565b86555061087b565b601f19841661082a86610614565b5f5b828110156108515784890151825560018201915060208501945060208101905061082c565b8683101561086e578489015161086a601f89168261077d565b8355505b6001600288020188555050505b50505050505056fea26469706673582212202a0f0c31e85530d68f422dadbda03f5a09b17e9674c8c721a4ca7d294cb4f61464736f6c634300081f0033",
					"opcodes": "PUSH1 0x80 PUSH1 0x40 MSTORE CALLVALUE DUP1 ISZERO PUSH1 0xE JUMPI PUSH0 PUSH0 REVERT JUMPDEST POP PUSH2 0x8B9 DUP1 PUSH2 0x1C PUSH0 CODECOPY PUSH0 RETURN INVALID PUSH1 0x80 PUSH1 0x40 MSTORE CALLVALUE DUP1 ISZERO PUSH2 0xF JUMPI PUSH0 PUSH0 REVERT JUMPDEST POP PUSH1 0x4 CALLDATASIZE LT PUSH2 0x4A JUMPI PUSH0 CALLDATALOAD PUSH1 0xE0 SHR DUP1 PUSH4 0x9BD0E1BD EQ PUSH2 0x4E JUMPI DUP1 PUSH4 0x9C04CFB6 EQ PUSH2 0x80 JUMPI DUP1 PUSH4 0xA79E0DC9 EQ PUSH2 0x9C JUMPI DUP1 PUSH4 0xE4ADEDA5 EQ PUSH2 0xB8 JUMPI JUMPDEST PUSH0 PUSH0 REVERT JUMPDEST PUSH2 0x68 PUSH1 0x4 DUP1 CALLDATASIZE SUB DUP2 ADD SWAP1 PUSH2 0x63 SWAP2 SWAP1 PUSH2 0x339 JUMP JUMPDEST PUSH2 0xD4 JUMP JUMPDEST PUSH1 0x40 MLOAD PUSH2 0x77 SWAP4 SWAP3 SWAP2 SWAP1 PUSH2 0x3E3 JUMP JUMPDEST PUSH1 0x40 MLOAD DUP1 SWAP2 SUB SWAP1 RETURN JUMPDEST PUSH2 0x9A PUSH1 0x4 DUP1 CALLDATASIZE SUB DUP2 ADD SWAP1 PUSH2 0x95 SWAP2 SWAP1 PUSH2 0x54B JUMP JUMPDEST PUSH2 0x1B5 JUMP JUMPDEST STOP JUMPDEST PUSH2 0xB6 PUSH1 0x4 DUP1 CALLDATASIZE SUB DUP2 ADD SWAP1 PUSH2 0xB1 SWAP2 SWAP1 PUSH2 0x54B JUMP JUMPDEST PUSH2 0x210 JUMP JUMPDEST STOP JUMPDEST PUSH2 0xD2 PUSH1 0x4 DUP1 CALLDATASIZE SUB DUP2 ADD SWAP1 PUSH2 0xCD SWAP2 SWAP1 PUSH2 0x339 JUMP JUMPDEST PUSH2 0x26B JUMP JUMPDEST STOP JUMPDEST PUSH0 PUSH1 0x60 PUSH0 PUSH0 PUSH0 PUSH0 DUP7 DUP2 MSTORE PUSH1 0x20 ADD SWAP1 DUP2 MSTORE PUSH1 0x20 ADD PUSH0 KECCAK256 PUSH1 0x40 MLOAD DUP1 PUSH1 0x60 ADD PUSH1 0x40 MSTORE SWAP1 DUP2 PUSH0 DUP3 ADD SLOAD DUP2 MSTORE PUSH1 0x20 ADD PUSH1 0x1 DUP3 ADD DUP1 SLOAD PUSH2 0x10D SWAP1 PUSH2 0x5E4 JUMP JUMPDEST DUP1 PUSH1 0x1F ADD PUSH1 0x20 DUP1 SWAP2 DIV MUL PUSH1 0x20 ADD PUSH1 0x40 MLOAD SWAP1 DUP2 ADD PUSH1 0x40 MSTORE DUP1 SWAP3 SWAP2 SWAP1 DUP2 DUP2 MSTORE PUSH1 0x20 ADD DUP3 DUP1 SLOAD PUSH2 0x139 SWAP1 PUSH2 0x5E4 JUMP JUMPDEST DUP1 ISZERO PUSH2 0x184 JUMPI DUP1 PUSH1 0x1F LT PUSH2 0x15B JUMPI PUSH2 0x100 DUP1 DUP4 SLOAD DIV MUL DUP4 MSTORE SWAP2 PUSH1 0x20 ADD SWAP2 PUSH2 0x184 JUMP JUMPDEST DUP3 ADD SWAP2 SWAP1 PUSH0 MSTORE PUSH1 0x20 PUSH0 KECCAK256 SWAP1 JUMPDEST DUP2 SLOAD DUP2 MSTORE SWAP1 PUSH1 0x1 ADD SWAP1 PUSH1 0x20 ADD DUP1 DUP4 GT PUSH2 0x167 JUMPI DUP3 SWAP1 SUB PUSH1 0x1F AND DUP3 ADD SWAP2 JUMPDEST POP POP POP POP POP DUP2 MSTORE PUSH1 0x20 ADD PUSH1 0x2 DUP3 ADD SLOAD DUP2 MSTORE POP POP SWAP1 POP DUP1 PUSH0 ADD MLOAD DUP2 PUSH1 0x20 ADD MLOAD DUP3 PUSH1 0x40 ADD MLOAD SWAP4 POP SWAP4 POP SWAP4 POP POP SWAP2 SWAP4 SWAP1 SWAP3 POP JUMP JUMPDEST PUSH1 0x40 MLOAD DUP1 PUSH1 0x60 ADD PUSH1 0x40 MSTORE DUP1 DUP5 DUP2 MSTORE PUSH1 0x20 ADD DUP4 DUP2 MSTORE PUSH1 0x20 ADD DUP3 DUP2 MSTORE POP PUSH0 PUSH0 DUP6 DUP2 MSTORE PUSH1 0x20 ADD SWAP1 DUP2 MSTORE PUSH1 0x20 ADD PUSH0 KECCAK256 PUSH0 DUP3 ADD MLOAD DUP2 PUSH0 ADD SSTORE PUSH1 0x20 DUP3 ADD MLOAD DUP2 PUSH1 0x1 ADD SWAP1 DUP2 PUSH2 0x1FD SWAP2 SWAP1 PUSH2 0x7B4 JUMP JUMPDEST POP PUSH1 0x40 DUP3 ADD MLOAD DUP2 PUSH1 0x2 ADD SSTORE SWAP1 POP POP POP POP POP JUMP JUMPDEST PUSH1 0x40 MLOAD DUP1 PUSH1 0x60 ADD PUSH1 0x40 MSTORE DUP1 DUP5 DUP2 MSTORE PUSH1 0x20 ADD DUP4 DUP2 MSTORE PUSH1 0x20 ADD DUP3 DUP2 MSTORE POP PUSH0 PUSH0 DUP6 DUP2 MSTORE PUSH1 0x20 ADD SWAP1 DUP2 MSTORE PUSH1 0x20 ADD PUSH0 KECCAK256 PUSH0 DUP3 ADD MLOAD DUP2 PUSH0 ADD SSTORE PUSH1 0x20 DUP3 ADD MLOAD DUP2 PUSH1 0x1 ADD SWAP1 DUP2 PUSH2 0x258 SWAP2 SWAP1 PUSH2 0x7B4 JUMP JUMPDEST POP PUSH1 0x40 DUP3 ADD MLOAD DUP2 PUSH1 0x2 ADD SSTORE SWAP1 POP POP POP POP POP JUMP JUMPDEST PUSH0 PUSH0 DUP3 DUP2 MSTORE PUSH1 0x20 ADD SWAP1 DUP2 MSTORE PUSH1 0x20 ADD PUSH0 KECCAK256 PUSH0 PUSH0 DUP3 ADD PUSH0 SWAP1 SSTORE PUSH1 0x1 DUP3 ADD PUSH0 PUSH2 0x291 SWAP2 SWAP1 PUSH2 0x29D JUMP JUMPDEST PUSH1 0x2 DUP3 ADD PUSH0 SWAP1 SSTORE POP POP POP JUMP JUMPDEST POP DUP1 SLOAD PUSH2 0x2A9 SWAP1 PUSH2 0x5E4 JUMP JUMPDEST PUSH0 DUP3 SSTORE DUP1 PUSH1 0x1F LT PUSH2 0x2BA JUMPI POP PUSH2 0x2D7 JUMP JUMPDEST PUSH1 0x1F ADD PUSH1 0x20 SWAP1 DIV SWAP1 PUSH0 MSTORE PUSH1 0x20 PUSH0 KECCAK256 SWAP1 DUP2 ADD SWAP1 PUSH2 0x2D6 SWAP2 SWAP1 PUSH2 0x2DA JUMP JUMPDEST JUMPDEST POP JUMP JUMPDEST JUMPDEST DUP1 DUP3 GT ISZERO PUSH2 0x2F1 JUMPI PUSH0 DUP2 PUSH0 SWAP1 SSTORE POP PUSH1 0x1 ADD PUSH2 0x2DB JUMP JUMPDEST POP SWAP1 JUMP JUMPDEST PUSH0 PUSH1 0x40 MLOAD SWAP1 POP SWAP1 JUMP JUMPDEST PUSH0 PUSH0 REVERT JUMPDEST PUSH0 PUSH0 REVERT JUMPDEST PUSH0 DUP2 SWAP1 POP SWAP2 SWAP1 POP JUMP JUMPDEST PUSH2 0x318 DUP2 PUSH2 0x306 JUMP JUMPDEST DUP2 EQ PUSH2 0x322 JUMPI PUSH0 PUSH0 REVERT JUMPDEST POP JUMP JUMPDEST PUSH0 DUP2 CALLDATALOAD SWAP1 POP PUSH2 0x333 DUP2 PUSH2 0x30F JUMP JUMPDEST SWAP3 SWAP2 POP POP JUMP JUMPDEST PUSH0 PUSH1 0x20 DUP3 DUP5 SUB SLT ISZERO PUSH2 0x34E JUMPI PUSH2 0x34D PUSH2 0x2FE JUMP JUMPDEST JUMPDEST PUSH0 PUSH2 0x35B DUP5 DUP3 DUP6 ADD PUSH2 0x325 JUMP JUMPDEST SWAP2 POP POP SWAP3 SWAP2 POP POP JUMP JUMPDEST PUSH2 0x36D DUP2 PUSH2 0x306 JUMP JUMPDEST DUP3 MSTORE POP POP JUMP JUMPDEST PUSH0 DUP2 MLOAD SWAP1 POP SWAP2 SWAP1 POP JUMP JUMPDEST PUSH0 DUP3 DUP3 MSTORE PUSH1 0x20 DUP3 ADD SWAP1 POP SWAP3 SWAP2 POP POP JUMP JUMPDEST DUP3 DUP2 DUP4 MCOPY PUSH0 DUP4 DUP4 ADD MSTORE POP POP POP JUMP JUMPDEST PUSH0 PUSH1 0x1F NOT PUSH1 0x1F DUP4 ADD AND SWAP1 POP SWAP2 SWAP1 POP JUMP JUMPDEST PUSH0 PUSH2 0x3B5 DUP3 PUSH2 0x373 JUMP JUMPDEST PUSH2 0x3BF DUP2 DUP6 PUSH2 0x37D JUMP JUMPDEST SWAP4 POP PUSH2 0x3CF DUP2 DUP6 PUSH1 0x20 DUP7 ADD PUSH2 0x38D JUMP JUMPDEST PUSH2 0x3D8 DUP2 PUSH2 0x39B JUMP JUMPDEST DUP5 ADD SWAP2 POP POP SWAP3 SWAP2 POP POP JUMP JUMPDEST PUSH0 PUSH1 0x60 DUP3 ADD SWAP1 POP PUSH2 0x3F6 PUSH0 DUP4 ADD DUP7 PUSH2 0x364 JUMP JUMPDEST DUP2 DUP2 SUB PUSH1 0x20 DUP4 ADD MSTORE PUSH2 0x408 DUP2 DUP6 PUSH2 0x3AB JUMP JUMPDEST SWAP1 POP PUSH2 0x417 PUSH1 0x40 DUP4 ADD DUP5 PUSH2 0x364 JUMP JUMPDEST SWAP5 SWAP4 POP POP POP POP JUMP JUMPDEST PUSH0 PUSH0 REVERT JUMPDEST PUSH0 PUSH0 REVERT JUMPDEST PUSH32 0x4E487B7100000000000000000000000000000000000000000000000000000000 PUSH0 MSTORE PUSH1 0x41 PUSH1 0x4 MSTORE PUSH1 0x24 PUSH0 REVERT JUMPDEST PUSH2 0x45D DUP3 PUSH2 0x39B JUMP JUMPDEST DUP2 ADD DUP2 DUP2 LT PUSH8 0xFFFFFFFFFFFFFFFF DUP3 GT OR ISZERO PUSH2 0x47C JUMPI PUSH2 0x47B PUSH2 0x427 JUMP JUMPDEST JUMPDEST DUP1 PUSH1 0x40 MSTORE POP POP POP JUMP JUMPDEST PUSH0 PUSH2 0x48E PUSH2 0x2F5 JUMP JUMPDEST SWAP1 POP PUSH2 0x49A DUP3 DUP3 PUSH2 0x454 JUMP JUMPDEST SWAP2 SWAP1 POP JUMP JUMPDEST PUSH0 PUSH8 0xFFFFFFFFFFFFFFFF DUP3 GT ISZERO PUSH2 0x4B9 JUMPI PUSH2 0x4B8 PUSH2 0x427 JUMP JUMPDEST JUMPDEST PUSH2 0x4C2 DUP3 PUSH2 0x39B JUMP JUMPDEST SWAP1 POP PUSH1 0x20 DUP2 ADD SWAP1 POP SWAP2 SWAP1 POP JUMP JUMPDEST DUP3 DUP2 DUP4 CALLDATACOPY PUSH0 DUP4 DUP4 ADD MSTORE POP POP POP JUMP JUMPDEST PUSH0 PUSH2 0x4EF PUSH2 0x4EA DUP5 PUSH2 0x49F JUMP JUMPDEST PUSH2 0x485 JUMP JUMPDEST SWAP1 POP DUP3 DUP2 MSTORE PUSH1 0x20 DUP2 ADD DUP5 DUP5 DUP5 ADD GT ISZERO PUSH2 0x50B JUMPI PUSH2 0x50A PUSH2 0x423 JUMP JUMPDEST JUMPDEST PUSH2 0x516 DUP5 DUP3 DUP6 PUSH2 0x4CF JUMP JUMPDEST POP SWAP4 SWAP3 POP POP POP JUMP JUMPDEST PUSH0 DUP3 PUSH1 0x1F DUP4 ADD SLT PUSH2 0x532 JUMPI PUSH2 0x531 PUSH2 0x41F JUMP JUMPDEST JUMPDEST DUP2 CALLDATALOAD PUSH2 0x542 DUP5 DUP3 PUSH1 0x20 DUP7 ADD PUSH2 0x4DD JUMP JUMPDEST SWAP2 POP POP SWAP3 SWAP2 POP POP JUMP JUMPDEST PUSH0 PUSH0 PUSH0 PUSH1 0x60 DUP5 DUP7 SUB SLT ISZERO PUSH2 0x562 JUMPI PUSH2 0x561 PUSH2 0x2FE JUMP JUMPDEST JUMPDEST PUSH0 PUSH2 0x56F DUP7 DUP3 DUP8 ADD PUSH2 0x325 JUMP JUMPDEST SWAP4 POP POP PUSH1 0x20 DUP5 ADD CALLDATALOAD PUSH8 0xFFFFFFFFFFFFFFFF DUP2 GT ISZERO PUSH2 0x590 JUMPI PUSH2 0x58F PUSH2 0x302 JUMP JUMPDEST JUMPDEST PUSH2 0x59C DUP7 DUP3 DUP8 ADD PUSH2 0x51E JUMP JUMPDEST SWAP3 POP POP PUSH1 0x40 PUSH2 0x5AD DUP7 DUP3 DUP8 ADD PUSH2 0x325 JUMP JUMPDEST SWAP2 POP POP SWAP3 POP SWAP3 POP SWAP3 JUMP JUMPDEST PUSH32 0x4E487B7100000000000000000000000000000000000000000000000000000000 PUSH0 MSTORE PUSH1 0x22 PUSH1 0x4 MSTORE PUSH1 0x24 PUSH0 REVERT JUMPDEST PUSH0 PUSH1 0x2 DUP3 DIV SWAP1 POP PUSH1 0x1 DUP3 AND DUP1 PUSH2 0x5FB JUMPI PUSH1 0x7F DUP3 AND SWAP2 POP JUMPDEST PUSH1 0x20 DUP3 LT DUP2 SUB PUSH2 0x60E JUMPI PUSH2 0x60D PUSH2 0x5B7 JUMP JUMPDEST JUMPDEST POP SWAP2 SWAP1 POP JUMP JUMPDEST PUSH0 DUP2 SWAP1 POP DUP2 PUSH0 MSTORE PUSH1 0x20 PUSH0 KECCAK256 SWAP1 POP SWAP2 SWAP1 POP JUMP JUMPDEST PUSH0 PUSH1 0x20 PUSH1 0x1F DUP4 ADD DIV SWAP1 POP SWAP2 SWAP1 POP JUMP JUMPDEST PUSH0 DUP3 DUP3 SHL SWAP1 POP SWAP3 SWAP2 POP POP JUMP JUMPDEST PUSH0 PUSH1 0x8 DUP4 MUL PUSH2 0x670 PUSH32 0xFFFFFFFFFFFFFFFFFFFFFFFFFFFFFFFFFFFFFFFFFFFFFFFFFFFFFFFFFFFFFFFF DUP3 PUSH2 0x635 JUMP JUMPDEST PUSH2 0x67A DUP7 DUP4 PUSH2 0x635 JUMP JUMPDEST SWAP6 POP DUP1 NOT DUP5 AND SWAP4 POP DUP1 DUP7 AND DUP5 OR SWAP3 POP POP POP SWAP4 SWAP3 POP POP POP JUMP JUMPDEST PUSH0 DUP2 SWAP1 POP SWAP2 SWAP1 POP JUMP JUMPDEST PUSH0 PUSH2 0x6B5 PUSH2 0x6B0 PUSH2 0x6AB DUP5 PUSH2 0x306 JUMP JUMPDEST PUSH2 0x692 JUMP JUMPDEST PUSH2 0x306 JUMP JUMPDEST SWAP1 POP SWAP2 SWAP1 POP JUMP JUMPDEST PUSH0 DUP2 SWAP1 POP SWAP2 SWAP1 POP JUMP JUMPDEST PUSH2 0x6CE DUP4 PUSH2 0x69B JUMP JUMPDEST PUSH2 0x6E2 PUSH2 0x6DA DUP3 PUSH2 0x6BC JUMP JUMPDEST DUP5 DUP5 SLOAD PUSH2 0x641 JUMP JUMPDEST DUP3 SSTORE POP POP POP POP JUMP JUMPDEST PUSH0 PUSH0 SWAP1 POP SWAP1 JUMP JUMPDEST PUSH2 0x6F9 PUSH2 0x6EA JUMP JUMPDEST PUSH2 0x704 DUP2 DUP5 DUP5 PUSH2 0x6C5 JUMP JUMPDEST POP POP POP JUMP JUMPDEST JUMPDEST DUP2 DUP2 LT ISZERO PUSH2 0x727 JUMPI PUSH2 0x71C PUSH0 DUP3 PUSH2 0x6F1 JUMP JUMPDEST PUSH1 0x1 DUP2 ADD SWAP1 POP PUSH2 0x70A JUMP JUMPDEST POP POP JUMP JUMPDEST PUSH1 0x1F DUP3 GT ISZERO PUSH2 0x76C JUMPI PUSH2 0x73D DUP2 PUSH2 0x614 JUMP JUMPDEST PUSH2 0x746 DUP5 PUSH2 0x626 JUMP JUMPDEST DUP2 ADD PUSH1 0x20 DUP6 LT ISZERO PUSH2 0x755 JUMPI DUP2 SWAP1 POP JUMPDEST PUSH2 0x769 PUSH2 0x761 DUP6 PUSH2 0x626 JUMP JUMPDEST DUP4 ADD DUP3 PUSH2 0x709 JUMP JUMPDEST POP POP JUMPDEST POP POP POP JUMP JUMPDEST PUSH0 DUP3 DUP3 SHR SWAP1 POP SWAP3 SWAP2 POP POP JUMP JUMPDEST PUSH0 PUSH2 0x78C PUSH0 NOT DUP5 PUSH1 0x8 MUL PUSH2 0x771 JUMP JUMPDEST NOT DUP1 DUP4 AND SWAP2 POP POP SWAP3 SWAP2 POP POP JUMP JUMPDEST PUSH0 PUSH2 0x7A4 DUP4 DUP4 PUSH2 0x77D JUMP JUMPDEST SWAP2 POP DUP3 PUSH1 0x2 MUL DUP3 OR SWAP1 POP SWAP3 SWAP2 POP POP JUMP JUMPDEST PUSH2 0x7BD DUP3 PUSH2 0x373 JUMP JUMPDEST PUSH8 0xFFFFFFFFFFFFFFFF DUP2 GT ISZERO PUSH2 0x7D6 JUMPI PUSH2 0x7D5 PUSH2 0x427 JUMP JUMPDEST JUMPDEST PUSH2 0x7E0 DUP3 SLOAD PUSH2 0x5E4 JUMP JUMPDEST PUSH2 0x7EB DUP3 DUP3 DUP6 PUSH2 0x72B JUMP JUMPDEST PUSH0 PUSH1 0x20 SWAP1 POP PUSH1 0x1F DUP4 GT PUSH1 0x1 DUP2 EQ PUSH2 0x81C JUMPI PUSH0 DUP5 ISZERO PUSH2 0x80A JUMPI DUP3 DUP8 ADD MLOAD SWAP1 POP JUMPDEST PUSH2 0x814 DUP6 DUP3 PUSH2 0x799 JUMP JUMPDEST DUP7 SSTORE POP PUSH2 0x87B JUMP JUMPDEST PUSH1 0x1F NOT DUP5 AND PUSH2 0x82A DUP7 PUSH2 0x614 JUMP JUMPDEST PUSH0 JUMPDEST DUP3 DUP2 LT ISZERO PUSH2 0x851 JUMPI DUP5 DUP10 ADD MLOAD DUP3 SSTORE PUSH1 0x1 DUP3 ADD SWAP2 POP PUSH1 0x20 DUP6 ADD SWAP5 POP PUSH1 0x20 DUP2 ADD SWAP1 POP PUSH2 0x82C JUMP JUMPDEST DUP7 DUP4 LT ISZERO PUSH2 0x86E JUMPI DUP5 DUP10 ADD MLOAD PUSH2 0x86A PUSH1 0x1F DUP10 AND DUP3 PUSH2 0x77D JUMP JUMPDEST DUP4 SSTORE POP JUMPDEST PUSH1 0x1 PUSH1 0x2 DUP9 MUL ADD DUP9 SSTORE POP POP POP JUMPDEST POP POP POP POP POP POP JUMP INVALID LOG2 PUSH5 0x6970667358 0x22 SLT KECCAK256 0x2A 0xF 0xC BALANCE 0xE8 SSTORE ADDRESS 0xD6 DUP16 TIMESTAMP 0x2D 0xAD 0xBD LOG0 EXTCODEHASH GAS MULMOD 0xB1 PUSH31 0x9674C8C721A4CA7D294CB4F61464736F6C634300081F003300000000000000 "
				},
				"gasEstimates": {
					"creation": {
						"codeDepositCost": "446600",
						"executionCost": "478",
						"totalCost": "447078"
					},
					"external": {
						"Reademployyedetails(uint256)": "infinite",
						"createemployeedetails(uint256,string,uint256)": "infinite",
						"deleteemployeedetails(uint256)": "infinite",
						"updateemployeedetails(uint256,string,uint256)": "infinite"
					}
				},
				"methodIdentifiers": {
					"Reademployyedetails(uint256)": "9bd0e1bd",
					"createemployeedetails(uint256,string,uint256)": "9c04cfb6",
					"deleteemployeedetails(uint256)": "e4adeda5",
					"updateemployeedetails(uint256,string,uint256)": "a79e0dc9"
				}
			},
			"storageLayout": {
				"storage": [
					{
						"astId": 13,
						"contract": "Assignments/Assignment6(20-03-2026)/3)crud.sol:employeedetails",
						"label": "employees",
						"offset": 0,
						"slot": "0",
						"type": "t_mapping(t_uint256,t_struct(employee)8_storage)"
					}
				],
				"types": {
					"t_mapping(t_uint256,t_struct(employee)8_storage)": {
						"encoding": "mapping",
						"key": "t_uint256",
						"label": "mapping(uint256 => struct employeedetails.employee)",
						"numberOfBytes": "32",
						"value": "t_struct(employee)8_storage"
					},
					"t_string_storage": {
						"encoding": "bytes",
						"label": "string",
						"numberOfBytes": "32"
					},
					"t_struct(employee)8_storage": {
						"encoding": "inplace",
						"label": "struct employeedetails.employee",
						"members": [
							{
								"astId": 3,
								"contract": "Assignments/Assignment6(20-03-2026)/3)crud.sol:employeedetails",
								"label": "id",
								"offset": 0,
								"slot": "0",
								"type": "t_uint256"
							},
							{
								"astId": 5,
								"contract": "Assignments/Assignment6(20-03-2026)/3)crud.sol:employeedetails",
								"label": "name",
								"offset": 0,
								"slot": "1",
								"type": "t_string_storage"
							},
							{
								"astId": 7,
								"contract": "Assignments/Assignment6(20-03-2026)/3)crud.sol:employeedetails",
								"label": "salary",
								"offset": 0,
								"slot": "2",
								"type": "t_uint256"
							}
						],
						"numberOfBytes": "96"
					},
					"t_uint256": {
						"encoding": "inplace",
						"label": "uint256",
						"numberOfBytes": "32"
					}
				}
			},
			"userdoc": {
				"kind": "user",
				"methods": {},
				"version": 1
			}
		}
	}
}