{
	"Assignments/Assignment6(20-03-2026)/6)acceptreceiveETh.sol": {
		"EtherExample": {
			"abi": [
				{
					"inputs": [
						{
							"internalType": "address payable",
							"name": "_receiver",
							"type": "address"
						}
					],
					"stateMutability": "nonpayable",
					"type": "constructor"
				},
				{
					"inputs": [],
					"name": "acceptEth",
					"outputs": [],
					"stateMutability": "payable",
					"type": "function"
				},
				{
					"inputs": [],
					"name": "getBalance",
					"outputs": [
						{
							"internalType": "uint256",
							"name": "",
							"type": "uint256"
						}
					],
					"stateMutability": "view",
					"type": "function"
				},
				{
					"inputs": [],
					"name": "receiver",
					"outputs": [
						{
							"internalType": "address payable",
							"name": "",
							"type": "address"
						}
					],
					"stateMutability": "view",
					"type": "function"
				},
				{
					"inputs": [],
					"name": "sendEth",
					"outputs": [],
					"stateMutability": "nonpayable",
					"type": "function"
				}
			],
			"devdoc": {
				"kind": "dev",
				"methods": {},
				"version": 1
			},
			"evm": {
				"assembly": "    /* \"Assignments/Assignment6(20-03-2026)/6)acceptreceiveETh.sol\":226:858  contract EtherExample {... */\n  mstore(0x40, 0x80)\n    /* \"Assignments/Assignment6(20-03-2026)/6)acceptreceiveETh.sol\":297:375  constructor(address payable _receiver) {... */\n  callvalue\n  dup1\n  iszero\n  tag_1\n  jumpi\n  revert(0x00, 0x00)\ntag_1:\n  pop\n  mload(0x40)\n  sub(codesize, bytecodeSize)\n  dup1\n  bytecodeSize\n  dup4\n  codecopy\n  dup2\n  dup2\n  add\n  0x40\n  mstore\n  dup2\n  add\n  swap1\n  tag_2\n  swap2\n  swap1\n  tag_3\n  jump\t// in\ntag_2:\n    /* \"Assignments/Assignment6(20-03-2026)/6)acceptreceiveETh.sol\":358:367  _receiver */\n  dup1\n    /* \"Assignments/Assignment6(20-03-2026)/6)acceptreceiveETh.sol\":347:355  receiver */\n  0x00\n  0x00\n    /* \"Assignments/Assignment6(20-03-2026)/6)acceptreceiveETh.sol\":347:367  receiver = _receiver */\n  0x0100\n  exp\n  dup2\n  sload\n  dup2\n  0xffffffffffffffffffffffffffffffffffffffff\n  mul\n  not\n  and\n  swap1\n  dup4\n  0xffffffffffffffffffffffffffffffffffffffff\n  and\n  mul\n  or\n  swap1\n  sstore\n  pop\n    /* \"Assignments/Assignment6(20-03-2026)/6)acceptreceiveETh.sol\":297:375  constructor(address payable _receiver) {... */\n  pop\n    /* \"Assignments/Assignment6(20-03-2026)/6)acceptreceiveETh.sol\":226:858  contract EtherExample {... */\n  jump(tag_6)\n    /* \"#utility.yul\":88:205   */\ntag_8:\n    /* \"#utility.yul\":197:198   */\n  0x00\n    /* \"#utility.yul\":194:195   */\n  0x00\n    /* \"#utility.yul\":187:199   */\n  revert\n    /* \"#utility.yul\":334:460   */\ntag_10:\n    /* \"#utility.yul\":371:378   */\n  0x00\n    /* \"#utility.yul\":411:453   */\n  0xffffffffffffffffffffffffffffffffffffffff\n    /* \"#utility.yul\":404:409   */\n  dup3\n    /* \"#utility.yul\":400:454   */\n  and\n    /* \"#utility.yul\":389:454   */\n  swap1\n  pop\n    /* \"#utility.yul\":334:460   */\n  swap2\n  swap1\n  pop\n  jump\t// out\n    /* \"#utility.yul\":466:570   */\ntag_11:\n    /* \"#utility.yul\":511:518   */\n  0x00\n    /* \"#utility.yul\":540:564   */\n  tag_20\n    /* \"#utility.yul\":558:563   */\n  dup3\n    /* \"#utility.yul\":540:564   */\n  tag_10\n  jump\t// in\ntag_20:\n    /* \"#utility.yul\":529:564   */\n  swap1\n  pop\n    /* \"#utility.yul\":466:570   */\n  swap2\n  swap1\n  pop\n  jump\t// out\n    /* \"#utility.yul\":576:714   */\ntag_12:\n    /* \"#utility.yul\":657:689   */\n  tag_22\n    /* \"#utility.yul\":683:688   */\n  dup2\n    /* \"#utility.yul\":657:689   */\n  tag_11\n  jump\t// in\ntag_22:\n    /* \"#utility.yul\":650:655   */\n  dup2\n    /* \"#utility.yul\":647:690   */\n  eq\n    /* \"#utility.yul\":637:708   */\n  tag_23\n  jumpi\n    /* \"#utility.yul\":704:705   */\n  0x00\n    /* \"#utility.yul\":701:702   */\n  0x00\n    /* \"#utility.yul\":694:706   */\n  revert\n    /* \"#utility.yul\":637:708   */\ntag_23:\n    /* \"#utility.yul\":576:714   */\n  pop\n  jump\t// out\n    /* \"#utility.yul\":720:879   */\ntag_13:\n    /* \"#utility.yul\":785:790   */\n  0x00\n    /* \"#utility.yul\":816:822   */\n  dup2\n    /* \"#utility.yul\":810:823   */\n  mload\n    /* \"#utility.yul\":801:823   */\n  swap1\n  pop\n    /* \"#utility.yul\":832:873   */\n  tag_25\n    /* \"#utility.yul\":867:872   */\n  dup2\n    /* \"#utility.yul\":832:873   */\n  tag_12\n  jump\t// in\ntag_25:\n    /* \"#utility.yul\":720:879   */\n  swap3\n  swap2\n  pop\n  pop\n  jump\t// out\n    /* \"#utility.yul\":885:1252   */\ntag_3:\n    /* \"#utility.yul\":963:969   */\n  0x00\n    /* \"#utility.yul\":1012:1014   */\n  0x20\n    /* \"#utility.yul\":1000:1009   */\n  dup3\n    /* \"#utility.yul\":991:998   */\n  dup5\n    /* \"#utility.yul\":987:1010   */\n  sub\n    /* \"#utility.yul\":983:1015   */\n  slt\n    /* \"#utility.yul\":980:1099   */\n  iszero\n  tag_27\n  jumpi\n    /* \"#utility.yul\":1018:1097   */\n  tag_28\n  tag_8\n  jump\t// in\ntag_28:\n    /* \"#utility.yul\":980:1099   */\ntag_27:\n    /* \"#utility.yul\":1138:1139   */\n  0x00\n    /* \"#utility.yul\":1163:1235   */\n  tag_29\n    /* \"#utility.yul\":1227:1234   */\n  dup5\n    /* \"#utility.yul\":1218:1224   */\n  dup3\n    /* \"#utility.yul\":1207:1216   */\n  dup6\n    /* \"#utility.yul\":1203:1225   */\n  add\n    /* \"#utility.yul\":1163:1235   */\n  tag_13\n  jump\t// in\ntag_29:\n    /* \"#utility.yul\":1153:1235   */\n  swap2\n  pop\n    /* \"#utility.yul\":1109:1245   */\n  pop\n    /* \"#utility.yul\":885:1252   */\n  swap3\n  swap2\n  pop\n  pop\n  jump\t// out\n    /* \"Assignments/Assignment6(20-03-2026)/6)acceptreceiveETh.sol\":226:858  contract EtherExample {... */\ntag_6:\n  dataSize(sub_0)\n  dup1\n  dataOffset(sub_0)\n  0x00\n  codecopy\n  0x00\n  return\nstop\n\nsub_0: assembly {\n        /* \"Assignments/Assignment6(20-03-2026)/6)acceptreceiveETh.sol\":226:858  contract EtherExample {... */\n      mstore(0x40, 0x80)\n      jumpi(tag_1, lt(calldatasize, 0x04))\n      shr(0xe0, calldataload(0x00))\n      dup1\n      0x06e99fef\n      eq\n      tag_2\n      jumpi\n      dup1\n      0x12065fe0\n      eq\n      tag_3\n      jumpi\n      dup1\n      0x82af4b1f\n      eq\n      tag_4\n      jumpi\n      dup1\n      0xf7260d3e\n      eq\n      tag_5\n      jumpi\n    tag_1:\n      revert(0x00, 0x00)\n        /* \"Assignments/Assignment6(20-03-2026)/6)acceptreceiveETh.sol\":604:851  function sendEth() public {... */\n    tag_2:\n      callvalue\n      dup1\n      iszero\n      tag_6\n      jumpi\n      revert(0x00, 0x00)\n    tag_6:\n      pop\n      tag_7\n      tag_8\n      jump\t// in\n    tag_7:\n      stop\n        /* \"Assignments/Assignment6(20-03-2026)/6)acceptreceiveETh.sol\":481:577  function getBalance() public view returns (uint) {... */\n    tag_3:\n      callvalue\n      dup1\n      iszero\n      tag_9\n      jumpi\n      revert(0x00, 0x00)\n    tag_9:\n      pop\n      tag_10\n      tag_11\n      jump\t// in\n    tag_10:\n      mload(0x40)\n      tag_12\n      swap2\n      swap1\n      tag_13\n      jump\t// in\n    tag_12:\n      mload(0x40)\n      dup1\n      swap2\n      sub\n      swap1\n      return\n        /* \"Assignments/Assignment6(20-03-2026)/6)acceptreceiveETh.sol\":404:442  function acceptEth() public payable {} */\n    tag_4:\n      tag_14\n      tag_15\n      jump\t// in\n    tag_14:\n      stop\n        /* \"Assignments/Assignment6(20-03-2026)/6)acceptreceiveETh.sol\":257:288  address payable public receiver */\n    tag_5:\n      callvalue\n      dup1\n      iszero\n      tag_16\n      jumpi\n      revert(0x00, 0x00)\n    tag_16:\n      pop\n      tag_17\n      tag_18\n      jump\t// in\n    tag_17:\n      mload(0x40)\n      tag_19\n      swap2\n      swap1\n      tag_20\n      jump\t// in\n    tag_19:\n      mload(0x40)\n      dup1\n      swap2\n      sub\n      swap1\n      return\n        /* \"Assignments/Assignment6(20-03-2026)/6)acceptreceiveETh.sol\":604:851  function sendEth() public {... */\n    tag_8:\n        /* \"Assignments/Assignment6(20-03-2026)/6)acceptreceiveETh.sol\":641:653  uint balance */\n      0x00\n        /* \"Assignments/Assignment6(20-03-2026)/6)acceptreceiveETh.sol\":656:677  address(this).balance */\n      selfbalance\n        /* \"Assignments/Assignment6(20-03-2026)/6)acceptreceiveETh.sol\":641:677  uint balance = address(this).balance */\n      swap1\n      pop\n        /* \"Assignments/Assignment6(20-03-2026)/6)acceptreceiveETh.sol\":706:707  0 */\n      0x00\n        /* \"Assignments/Assignment6(20-03-2026)/6)acceptreceiveETh.sol\":696:703  balance */\n      dup2\n        /* \"Assignments/Assignment6(20-03-2026)/6)acceptreceiveETh.sol\":696:707  balance > 0 */\n      gt\n        /* \"Assignments/Assignment6(20-03-2026)/6)acceptreceiveETh.sol\":688:732  require(balance > 0, \"No Ether in contract\") */\n      tag_22\n      jumpi\n      mload(0x40)\n      0x08c379a000000000000000000000000000000000000000000000000000000000\n      dup2\n      mstore\n      0x04\n      add\n      tag_23\n      swap1\n      tag_24\n      jump\t// in\n    tag_23:\n      mload(0x40)\n      dup1\n      swap2\n      sub\n      swap1\n      revert\n    tag_22:\n        /* \"Assignments/Assignment6(20-03-2026)/6)acceptreceiveETh.sol\":746:758  bool success */\n      0x00\n        /* \"Assignments/Assignment6(20-03-2026)/6)acceptreceiveETh.sol\":764:772  receiver */\n      0x00\n      0x00\n      swap1\n      sload\n      swap1\n      0x0100\n      exp\n      swap1\n      div\n      0xffffffffffffffffffffffffffffffffffffffff\n      and\n        /* \"Assignments/Assignment6(20-03-2026)/6)acceptreceiveETh.sol\":764:777  receiver.call */\n      0xffffffffffffffffffffffffffffffffffffffff\n      and\n        /* \"Assignments/Assignment6(20-03-2026)/6)acceptreceiveETh.sol\":785:792  balance */\n      dup3\n        /* \"Assignments/Assignment6(20-03-2026)/6)acceptreceiveETh.sol\":764:797  receiver.call{value: balance}(\"\") */\n      mload(0x40)\n      tag_25\n      swap1\n      tag_26\n      jump\t// in\n    tag_25:\n      0x00\n      mload(0x40)\n      dup1\n      dup4\n      sub\n      dup2\n      dup6\n      dup8\n      gas\n      call\n      swap3\n      pop\n      pop\n      pop\n      returndatasize\n      dup1\n      0x00\n      dup2\n      eq\n      tag_29\n      jumpi\n      mload(0x40)\n      swap2\n      pop\n      and(add(returndatasize, 0x3f), not(0x1f))\n      dup3\n      add\n      0x40\n      mstore\n      returndatasize\n      dup3\n      mstore\n      returndatasize\n      0x00\n      0x20\n      dup5\n      add\n      returndatacopy\n      jump(tag_28)\n    tag_29:\n      0x60\n      swap2\n      pop\n    tag_28:\n      pop\n        /* \"Assignments/Assignment6(20-03-2026)/6)acceptreceiveETh.sol\":745:797  (bool success, ) = receiver.call{value: balance}(\"\") */\n      pop\n      swap1\n      pop\n        /* \"Assignments/Assignment6(20-03-2026)/6)acceptreceiveETh.sol\":816:823  success */\n      dup1\n        /* \"Assignments/Assignment6(20-03-2026)/6)acceptreceiveETh.sol\":808:843  require(success, \"Transfer failed\") */\n      tag_30\n      jumpi\n      mload(0x40)\n      0x08c379a000000000000000000000000000000000000000000000000000000000\n      dup2\n      mstore\n      0x04\n      add\n      tag_31\n      swap1\n      tag_32\n      jump\t// in\n    tag_31:\n      mload(0x40)\n      dup1\n      swap2\n      sub\n      swap1\n      revert\n    tag_30:\n        /* \"Assignments/Assignment6(20-03-2026)/6)acceptreceiveETh.sol\":630:851  {... */\n      pop\n      pop\n        /* \"Assignments/Assignment6(20-03-2026)/6)acceptreceiveETh.sol\":604:851  function sendEth() public {... */\n      jump\t// out\n        /* \"Assignments/Assignment6(20-03-2026)/6)acceptreceiveETh.sol\":481:577  function getBalance() public view returns (uint) {... */\n    tag_11:\n        /* \"Assignments/Assignment6(20-03-2026)/6)acceptreceiveETh.sol\":524:528  uint */\n      0x00\n        /* \"Assignments/Assignment6(20-03-2026)/6)acceptreceiveETh.sol\":548:569  address(this).balance */\n      selfbalance\n        /* \"Assignments/Assignment6(20-03-2026)/6)acceptreceiveETh.sol\":541:569  return address(this).balance */\n      swap1\n      pop\n        /* \"Assignments/Assignment6(20-03-2026)/6)acceptreceiveETh.sol\":481:577  function getBalance() public view returns (uint) {... */\n      swap1\n      jump\t// out\n        /* \"Assignments/Assignment6(20-03-2026)/6)acceptreceiveETh.sol\":404:442  function acceptEth() public payable {} */\n    tag_15:\n      jump\t// out\n        /* \"Assignments/Assignment6(20-03-2026)/6)acceptreceiveETh.sol\":257:288  address payable public receiver */\n    tag_18:\n      0x00\n      0x00\n      swap1\n      sload\n      swap1\n      0x0100\n      exp\n      swap1\n      div\n      0xffffffffffffffffffffffffffffffffffffffff\n      and\n      dup2\n      jump\t// out\n        /* \"#utility.yul\":7:84   */\n    tag_35:\n        /* \"#utility.yul\":44:51   */\n      0x00\n        /* \"#utility.yul\":73:78   */\n      dup2\n        /* \"#utility.yul\":62:78   */\n      swap1\n      pop\n        /* \"#utility.yul\":7:84   */\n      swap2\n      swap1\n      pop\n      jump\t// out\n        /* \"#utility.yul\":90:208   */\n    tag_36:\n        /* \"#utility.yul\":177:201   */\n      tag_51\n        /* \"#utility.yul\":195:200   */\n      dup2\n        /* \"#utility.yul\":177:201   */\n      tag_35\n      jump\t// in\n    tag_51:\n        /* \"#utility.yul\":172:175   */\n      dup3\n        /* \"#utility.yul\":165:202   */\n      mstore\n        /* \"#utility.yul\":90:208   */\n      pop\n      pop\n      jump\t// out\n        /* \"#utility.yul\":214:436   */\n    tag_13:\n        /* \"#utility.yul\":307:311   */\n      0x00\n        /* \"#utility.yul\":345:347   */\n      0x20\n        /* \"#utility.yul\":334:343   */\n      dup3\n        /* \"#utility.yul\":330:348   */\n      add\n        /* \"#utility.yul\":322:348   */\n      swap1\n      pop\n        /* \"#utility.yul\":358:429   */\n      tag_53\n        /* \"#utility.yul\":426:427   */\n      0x00\n        /* \"#utility.yul\":415:424   */\n      dup4\n        /* \"#utility.yul\":411:428   */\n      add\n        /* \"#utility.yul\":402:408   */\n      dup5\n        /* \"#utility.yul\":358:429   */\n      tag_36\n      jump\t// in\n    tag_53:\n        /* \"#utility.yul\":214:436   */\n      swap3\n      swap2\n      pop\n      pop\n      jump\t// out\n        /* \"#utility.yul\":442:568   */\n    tag_37:\n        /* \"#utility.yul\":479:486   */\n      0x00\n        /* \"#utility.yul\":519:561   */\n      0xffffffffffffffffffffffffffffffffffffffff\n        /* \"#utility.yul\":512:517   */\n      dup3\n        /* \"#utility.yul\":508:562   */\n      and\n        /* \"#utility.yul\":497:562   */\n      swap1\n      pop\n        /* \"#utility.yul\":442:568   */\n      swap2\n      swap1\n      pop\n      jump\t// out\n        /* \"#utility.yul\":574:678   */\n    tag_38:\n        /* \"#utility.yul\":619:626   */\n      0x00\n        /* \"#utility.yul\":648:672   */\n      tag_56\n        /* \"#utility.yul\":666:671   */\n      dup3\n        /* \"#utility.yul\":648:672   */\n      tag_37\n      jump\t// in\n    tag_56:\n        /* \"#utility.yul\":637:672   */\n      swap1\n      pop\n        /* \"#utility.yul\":574:678   */\n      swap2\n      swap1\n      pop\n      jump\t// out\n        /* \"#utility.yul\":684:826   */\n    tag_39:\n        /* \"#utility.yul\":787:819   */\n      tag_58\n        /* \"#utility.yul\":813:818   */\n      dup2\n        /* \"#utility.yul\":787:819   */\n      tag_38\n      jump\t// in\n    tag_58:\n        /* \"#utility.yul\":782:785   */\n      dup3\n        /* \"#utility.yul\":775:820   */\n      mstore\n        /* \"#utility.yul\":684:826   */\n      pop\n      pop\n      jump\t// out\n        /* \"#utility.yul\":832:1086   */\n    tag_20:\n        /* \"#utility.yul\":941:945   */\n      0x00\n        /* \"#utility.yul\":979:981   */\n      0x20\n        /* \"#utility.yul\":968:977   */\n      dup3\n        /* \"#utility.yul\":964:982   */\n      add\n        /* \"#utility.yul\":956:982   */\n      swap1\n      pop\n        /* \"#utility.yul\":992:1079   */\n      tag_60\n        /* \"#utility.yul\":1076:1077   */\n      0x00\n        /* \"#utility.yul\":1065:1074   */\n      dup4\n        /* \"#utility.yul\":1061:1078   */\n      add\n        /* \"#utility.yul\":1052:1058   */\n      dup5\n        /* \"#utility.yul\":992:1079   */\n      tag_39\n      jump\t// in\n    tag_60:\n        /* \"#utility.yul\":832:1086   */\n      swap3\n      swap2\n      pop\n      pop\n      jump\t// out\n        /* \"#utility.yul\":1092:1261   */\n    tag_40:\n        /* \"#utility.yul\":1176:1187   */\n      0x00\n        /* \"#utility.yul\":1210:1216   */\n      dup3\n        /* \"#utility.yul\":1205:1208   */\n      dup3\n        /* \"#utility.yul\":1198:1217   */\n      mstore\n        /* \"#utility.yul\":1250:1254   */\n      0x20\n        /* \"#utility.yul\":1245:1248   */\n      dup3\n        /* \"#utility.yul\":1241:1255   */\n      add\n        /* \"#utility.yul\":1226:1255   */\n      swap1\n      pop\n        /* \"#utility.yul\":1092:1261   */\n      swap3\n      swap2\n      pop\n      pop\n      jump\t// out\n        /* \"#utility.yul\":1267:1437   */\n    tag_41:\n        /* \"#utility.yul\":1407:1429   */\n      0x4e6f20457468657220696e20636f6e7472616374000000000000000000000000\n        /* \"#utility.yul\":1403:1404   */\n      0x00\n        /* \"#utility.yul\":1395:1401   */\n      dup3\n        /* \"#utility.yul\":1391:1405   */\n      add\n        /* \"#utility.yul\":1384:1430   */\n      mstore\n        /* \"#utility.yul\":1267:1437   */\n      pop\n      jump\t// out\n        /* \"#utility.yul\":1443:1809   */\n    tag_42:\n        /* \"#utility.yul\":1585:1588   */\n      0x00\n        /* \"#utility.yul\":1606:1673   */\n      tag_64\n        /* \"#utility.yul\":1670:1672   */\n      0x14\n        /* \"#utility.yul\":1665:1668   */\n      dup4\n        /* \"#utility.yul\":1606:1673   */\n      tag_40\n      jump\t// in\n    tag_64:\n        /* \"#utility.yul\":1599:1673   */\n      swap2\n      pop\n        /* \"#utility.yul\":1682:1775   */\n      tag_65\n        /* \"#utility.yul\":1771:1774   */\n      dup3\n        /* \"#utility.yul\":1682:1775   */\n      tag_41\n      jump\t// in\n    tag_65:\n        /* \"#utility.yul\":1800:1802   */\n      0x20\n        /* \"#utility.yul\":1795:1798   */\n      dup3\n        /* \"#utility.yul\":1791:1803   */\n      add\n        /* \"#utility.yul\":1784:1803   */\n      swap1\n      pop\n        /* \"#utility.yul\":1443:1809   */\n      swap2\n      swap1\n      pop\n      jump\t// out\n        /* \"#utility.yul\":1815:2234   */\n    tag_24:\n        /* \"#utility.yul\":1981:1985   */\n      0x00\n        /* \"#utility.yul\":2019:2021   */\n      0x20\n        /* \"#utility.yul\":2008:2017   */\n      dup3\n        /* \"#utility.yul\":2004:2022   */\n      add\n        /* \"#utility.yul\":1996:2022   */\n      swap1\n      pop\n        /* \"#utility.yul\":2068:2077   */\n      dup2\n        /* \"#utility.yul\":2062:2066   */\n      dup2\n        /* \"#utility.yul\":2058:2078   */\n      sub\n        /* \"#utility.yul\":2054:2055   */\n      0x00\n        /* \"#utility.yul\":2043:2052   */\n      dup4\n        /* \"#utility.yul\":2039:2056   */\n      add\n        /* \"#utility.yul\":2032:2079   */\n      mstore\n        /* \"#utility.yul\":2096:2227   */\n      tag_67\n        /* \"#utility.yul\":2222:2226   */\n      dup2\n        /* \"#utility.yul\":2096:2227   */\n      tag_42\n      jump\t// in\n    tag_67:\n        /* \"#utility.yul\":2088:2227   */\n      swap1\n      pop\n        /* \"#utility.yul\":1815:2234   */\n      swap2\n      swap1\n      pop\n      jump\t// out\n        /* \"#utility.yul\":2240:2387   */\n    tag_43:\n        /* \"#utility.yul\":2341:2352   */\n      0x00\n        /* \"#utility.yul\":2378:2381   */\n      dup2\n        /* \"#utility.yul\":2363:2381   */\n      swap1\n      pop\n        /* \"#utility.yul\":2240:2387   */\n      swap3\n      swap2\n      pop\n      pop\n      jump\t// out\n        /* \"#utility.yul\":2393:2507   */\n    tag_44:\n      pop\n      jump\t// out\n        /* \"#utility.yul\":2513:2911   */\n    tag_45:\n        /* \"#utility.yul\":2672:2675   */\n      0x00\n        /* \"#utility.yul\":2693:2776   */\n      tag_71\n        /* \"#utility.yul\":2774:2775   */\n      0x00\n        /* \"#utility.yul\":2769:2772   */\n      dup4\n        /* \"#utility.yul\":2693:2776   */\n      tag_43\n      jump\t// in\n    tag_71:\n        /* \"#utility.yul\":2686:2776   */\n      swap2\n      pop\n        /* \"#utility.yul\":2785:2878   */\n      tag_72\n        /* \"#utility.yul\":2874:2877   */\n      dup3\n        /* \"#utility.yul\":2785:2878   */\n      tag_44\n      jump\t// in\n    tag_72:\n        /* \"#utility.yul\":2903:2904   */\n      0x00\n        /* \"#utility.yul\":2898:2901   */\n      dup3\n        /* \"#utility.yul\":2894:2905   */\n      add\n        /* \"#utility.yul\":2887:2905   */\n      swap1\n      pop\n        /* \"#utility.yul\":2513:2911   */\n      swap2\n      swap1\n      pop\n      jump\t// out\n        /* \"#utility.yul\":2917:3296   */\n    tag_26:\n        /* \"#utility.yul\":3101:3104   */\n      0x00\n        /* \"#utility.yul\":3123:3270   */\n      tag_74\n        /* \"#utility.yul\":3266:3269   */\n      dup3\n        /* \"#utility.yul\":3123:3270   */\n      tag_45\n      jump\t// in\n    tag_74:\n        /* \"#utility.yul\":3116:3270   */\n      swap2\n      pop\n        /* \"#utility.yul\":3287:3290   */\n      dup2\n        /* \"#utility.yul\":3280:3290   */\n      swap1\n      pop\n        /* \"#utility.yul\":2917:3296   */\n      swap2\n      swap1\n      pop\n      jump\t// out\n        /* \"#utility.yul\":3302:3467   */\n    tag_46:\n        /* \"#utility.yul\":3442:3459   */\n      0x5472616e73666572206661696c65640000000000000000000000000000000000\n        /* \"#utility.yul\":3438:3439   */\n      0x00\n        /* \"#utility.yul\":3430:3436   */\n      dup3\n        /* \"#utility.yul\":3426:3440   */\n      add\n        /* \"#utility.yul\":3419:3460   */\n      mstore\n        /* \"#utility.yul\":3302:3467   */\n      pop\n      jump\t// out\n        /* \"#utility.yul\":3473:3839   */\n    tag_47:\n        /* \"#utility.yul\":3615:3618   */\n      0x00\n        /* \"#utility.yul\":3636:3703   */\n      tag_77\n        /* \"#utility.yul\":3700:3702   */\n      0x0f\n        /* \"#utility.yul\":3695:3698   */\n      dup4\n        /* \"#utility.yul\":3636:3703   */\n      tag_40\n      jump\t// in\n    tag_77:\n        /* \"#utility.yul\":3629:3703   */\n      swap2\n      pop\n        /* \"#utility.yul\":3712:3805   */\n      tag_78\n        /* \"#utility.yul\":3801:3804   */\n      dup3\n        /* \"#utility.yul\":3712:3805   */\n      tag_46\n      jump\t// in\n    tag_78:\n        /* \"#utility.yul\":3830:3832   */\n      0x20\n        /* \"#utility.yul\":3825:3828   */\n      dup3\n        /* \"#utility.yul\":3821:3833   */\n      add\n        /* \"#utility.yul\":3814:3833   */\n      swap1\n      pop\n        /* \"#utility.yul\":3473:3839   */\n      swap2\n      swap1\n      pop\n      jump\t// out\n        /* \"#utility.yul\":3845:4264   */\n    tag_32:\n        /* \"#utility.yul\":4011:4015   */\n      0x00\n        /* \"#utility.yul\":4049:4051   */\n      0x20\n        /* \"#utility.yul\":4038:4047   */\n      dup3\n        /* \"#utility.yul\":4034:4052   */\n      add\n        /* \"#utility.yul\":4026:4052   */\n      swap1\n      pop\n        /* \"#utility.yul\":4098:4107   */\n      dup2\n        /* \"#utility.yul\":4092:4096   */\n      dup2\n        /* \"#utility.yul\":4088:4108   */\n      sub\n        /* \"#utility.yul\":4084:4085   */\n      0x00\n        /* \"#utility.yul\":4073:4082   */\n      dup4\n        /* \"#utility.yul\":4069:4086   */\n      add\n        /* \"#utility.yul\":4062:4109   */\n      mstore\n        /* \"#utility.yul\":4126:4257   */\n      tag_80\n        /* \"#utility.yul\":4252:4256   */\n      dup2\n        /* \"#utility.yul\":4126:4257   */\n      tag_47\n      jump\t// in\n    tag_80:\n        /* \"#utility.yul\":4118:4257   */\n      swap1\n      pop\n        /* \"#utility.yul\":3845:4264   */\n      swap2\n      swap1\n      pop\n      jump\t// out\n\n    auxdata: 0xa2646970667358221220677e6e8698e8203fd3fc92544d21131e1d877e331dd09c1b5f2319c6877b6b2264736f6c634300081f0033\n}\n",
				"bytecode": {
					"linkReferences": {},
					"object": "608060405234801561000f575f5ffd5b506040516104e13803806104e1833981810160405281019061003191906100d4565b805f5f6101000a81548173ffffffffffffffffffffffffffffffffffffffff021916908373ffffffffffffffffffffffffffffffffffffffff160217905550506100ff565b5f5ffd5b5f73ffffffffffffffffffffffffffffffffffffffff82169050919050565b5f6100a38261007a565b9050919050565b6100b381610099565b81146100bd575f5ffd5b50565b5f815190506100ce816100aa565b92915050565b5f602082840312156100e9576100e8610076565b5b5f6100f6848285016100c0565b91505092915050565b6103d58061010c5f395ff3fe60806040526004361061003e575f3560e01c806306e99fef1461004257806312065fe01461005857806382af4b1f14610082578063f7260d3e1461008c575b5f5ffd5b34801561004d575f5ffd5b506100566100b6565b005b348015610063575f5ffd5b5061006c6101c8565b604051610079919061020d565b60405180910390f35b61008a6101cf565b005b348015610097575f5ffd5b506100a06101d1565b6040516100ad9190610265565b60405180910390f35b5f4790505f81116100fc576040517f08c379a00000000000000000000000000000000000000000000000000000000081526004016100f3906102d8565b60405180910390fd5b5f5f5f9054906101000a900473ffffffffffffffffffffffffffffffffffffffff1673ffffffffffffffffffffffffffffffffffffffff168260405161014190610323565b5f6040518083038185875af1925050503d805f811461017b576040519150601f19603f3d011682016040523d82523d5f602084013e610180565b606091505b50509050806101c4576040517f08c379a00000000000000000000000000000000000000000000000000000000081526004016101bb90610381565b60405180910390fd5b5050565b5f47905090565b565b5f5f9054906101000a900473ffffffffffffffffffffffffffffffffffffffff1681565b5f819050919050565b610207816101f5565b82525050565b5f6020820190506102205f8301846101fe565b92915050565b5f73ffffffffffffffffffffffffffffffffffffffff82169050919050565b5f61024f82610226565b9050919050565b61025f81610245565b82525050565b5f6020820190506102785f830184610256565b92915050565b5f82825260208201905092915050565b7f4e6f20457468657220696e20636f6e74726163740000000000000000000000005f82015250565b5f6102c260148361027e565b91506102cd8261028e565b602082019050919050565b5f6020820190508181035f8301526102ef816102b6565b9050919050565b5f81905092915050565b50565b5f61030e5f836102f6565b915061031982610300565b5f82019050919050565b5f61032d82610303565b9150819050919050565b7f5472616e73666572206661696c656400000000000000000000000000000000005f82015250565b5f61036b600f8361027e565b915061037682610337565b602082019050919050565b5f6020820190508181035f8301526103988161035f565b905091905056fea2646970667358221220677e6e8698e8203fd3fc92544d21131e1d877e331dd09c1b5f2319c6877b6b2264736f6c634300081f0033",
					"opcodes": "PUSH1 0x80 PUSH1 0x40 MSTORE CALLVALUE DUP1 ISZERO PUSH2 0xF JUMPI PUSH0 PUSH0 REVERT JUMPDEST POP PUSH1 0x40 MLOAD PUSH2 0x4E1 CODESIZE SUB DUP1 PUSH2 0x4E1 DUP4 CODECOPY DUP2 DUP2 ADD PUSH1 0x40 MSTORE DUP2 ADD SWAP1 PUSH2 0x31 SWAP2 SWAP1 PUSH2 0xD4 JUMP JUMPDEST DUP1 PUSH0 PUSH0 PUSH2 0x100 EXP DUP2 SLOAD DUP2 PUSH20 0xFFFFFFFFFFFFFFFFFFFFFFFFFFFFFFFFFFFFFFFF MUL NOT AND SWAP1 DUP4 PUSH20 0xFFFFFFFFFFFFFFFFFFFFFFFFFFFFFFFFFFFFFFFF AND MUL OR SWAP1 SSTORE POP POP PUSH2 0xFF JUMP JUMPDEST PUSH0 PUSH0 REVERT JUMPDEST PUSH0 PUSH20 0xFFFFFFFFFFFFFFFFFFFFFFFFFFFFFFFFFFFFFFFF DUP3 AND SWAP1 POP SWAP2 SWAP1 POP JUMP JUMPDEST PUSH0 PUSH2 0xA3 DUP3 PUSH2 0x7A JUMP JUMPDEST SWAP1 POP SWAP2 SWAP1 POP JUMP JUMPDEST PUSH2 0xB3 DUP2 PUSH2 0x99 JUMP JUMPDEST DUP2 EQ PUSH2 0xBD JUMPI PUSH0 PUSH0 REVERT JUMPDEST POP JUMP JUMPDEST PUSH0 DUP2 MLOAD SWAP1 POP PUSH2 0xCE DUP2 PUSH2 0xAA JUMP JUMPDEST SWAP3 SWAP2 POP POP JUMP JUMPDEST PUSH0 PUSH1 0x20 DUP3 DUP5 SUB SLT ISZERO PUSH2 0xE9 JUMPI PUSH2 0xE8 PUSH2 0x76 JUMP JUMPDEST JUMPDEST PUSH0 PUSH2 0xF6 DUP5 DUP3 DUP6 ADD PUSH2 0xC0 JUMP JUMPDEST SWAP2 POP POP SWAP3 SWAP2 POP POP JUMP JUMPDEST PUSH2 0x3D5 DUP1 PUSH2 0x10C PUSH0 CODECOPY PUSH0 RETURN INVALID PUSH1 0x80 PUSH1 0x40 MSTORE PUSH1 0x4 CALLDATASIZE LT PUSH2 0x3E JUMPI PUSH0 CALLDATALOAD PUSH1 0xE0 SHR DUP1 PUSH4 0x6E99FEF EQ PUSH2 0x42 JUMPI DUP1 PUSH4 0x12065FE0 EQ PUSH2 0x58 JUMPI DUP1 PUSH4 0x82AF4B1F EQ PUSH2 0x82 JUMPI DUP1 PUSH4 0xF7260D3E EQ PUSH2 0x8C JUMPI JUMPDEST PUSH0 PUSH0 REVERT JUMPDEST CALLVALUE DUP1 ISZERO PUSH2 0x4D JUMPI PUSH0 PUSH0 REVERT JUMPDEST POP PUSH2 0x56 PUSH2 0xB6 JUMP JUMPDEST STOP JUMPDEST CALLVALUE DUP1 ISZERO PUSH2 0x63 JUMPI PUSH0 PUSH0 REVERT JUMPDEST POP PUSH2 0x6C PUSH2 0x1C8 JUMP JUMPDEST PUSH1 0x40 MLOAD PUSH2 0x79 SWAP2 SWAP1 PUSH2 0x20D JUMP JUMPDEST PUSH1 0x40 MLOAD DUP1 SWAP2 SUB SWAP1 RETURN JUMPDEST PUSH2 0x8A PUSH2 0x1CF JUMP JUMPDEST STOP JUMPDEST CALLVALUE DUP1 ISZERO PUSH2 0x97 JUMPI PUSH0 PUSH0 REVERT JUMPDEST POP PUSH2 0xA0 PUSH2 0x1D1 JUMP JUMPDEST PUSH1 0x40 MLOAD PUSH2 0xAD SWAP2 SWAP1 PUSH2 0x265 JUMP JUMPDEST PUSH1 0x40 MLOAD DUP1 SWAP2 SUB SWAP1 RETURN JUMPDEST PUSH0 SELFBALANCE SWAP1 POP PUSH0 DUP2 GT PUSH2 0xFC JUMPI PUSH1 0x40 MLOAD PUSH32 0x8C379A000000000000000000000000000000000000000000000000000000000 DUP2 MSTORE PUSH1 0x4 ADD PUSH2 0xF3 SWAP1 PUSH2 0x2D8 JUMP JUMPDEST PUSH1 0x40 MLOAD DUP1 SWAP2 SUB SWAP1 REVERT JUMPDEST PUSH0 PUSH0 PUSH0 SWAP1 SLOAD SWAP1 PUSH2 0x100 EXP SWAP1 DIV PUSH20 0xFFFFFFFFFFFFFFFFFFFFFFFFFFFFFFFFFFFFFFFF AND PUSH20 0xFFFFFFFFFFFFFFFFFFFFFFFFFFFFFFFFFFFFFFFF AND DUP3 PUSH1 0x40 MLOAD PUSH2 0x141 SWAP1 PUSH2 0x323 JUMP JUMPDEST PUSH0 PUSH1 0x40 MLOAD DUP1 DUP4 SUB DUP2 DUP6 DUP8 GAS CALL SWAP3 POP POP POP RETURNDATASIZE DUP1 PUSH0 DUP2 EQ PUSH2 0x17B JUMPI PUSH1 0x40 MLOAD SWAP2 POP PUSH1 0x1F NOT PUSH1 0x3F RETURNDATASIZE ADD AND DUP3 ADD PUSH1 0x40 MSTORE RETURNDATASIZE DUP3 MSTORE RETURNDATASIZE PUSH0 PUSH1 0x20 DUP5 ADD RETURNDATACOPY PUSH2 0x180 JUMP JUMPDEST PUSH1 0x60 SWAP2 POP JUMPDEST POP POP SWAP1 POP DUP1 PUSH2 0x1C4 JUMPI PUSH1 0x40 MLOAD PUSH32 0x8C379A000000000000000000000000000000000000000000000000000000000 DUP2 MSTORE PUSH1 0x4 ADD PUSH2 0x1BB SWAP1 PUSH2 0x381 JUMP JUMPDEST PUSH1 0x40 MLOAD DUP1 SWAP2 SUB SWAP1 REVERT JUMPDEST POP POP JUMP JUMPDEST PUSH0 SELFBALANCE SWAP1 POP SWAP1 JUMP JUMPDEST JUMP JUMPDEST PUSH0 PUSH0 SWAP1 SLOAD SWAP1 PUSH2 0x100 EXP SWAP1 DIV PUSH20 0xFFFFFFFFFFFFFFFFFFFFFFFFFFFFFFFFFFFFFFFF AND DUP2 JUMP JUMPDEST PUSH0 DUP2 SWAP1 POP SWAP2 SWAP1 POP JUMP JUMPDEST PUSH2 0x207 DUP2 PUSH2 0x1F5 JUMP JUMPDEST DUP3 MSTORE POP POP JUMP JUMPDEST PUSH0 PUSH1 0x20 DUP3 ADD SWAP1 POP PUSH2 0x220 PUSH0 DUP4 ADD DUP5 PUSH2 0x1FE JUMP JUMPDEST SWAP3 SWAP2 POP POP JUMP JUMPDEST PUSH0 PUSH20 0xFFFFFFFFFFFFFFFFFFFFFFFFFFFFFFFFFFFFFFFF DUP3 AND SWAP1 POP SWAP2 SWAP1 POP JUMP JUMPDEST PUSH0 PUSH2 0x24F DUP3 PUSH2 0x226 JUMP JUMPDEST SWAP1 POP SWAP2 SWAP1 POP JUMP JUMPDEST PUSH2 0x25F DUP2 PUSH2 0x245 JUMP JUMPDEST DUP3 MSTORE POP POP JUMP JUMPDEST PUSH0 PUSH1 0x20 DUP3 ADD SWAP1 POP PUSH2 0x278 PUSH0 DUP4 ADD DUP5 PUSH2 0x256 JUMP JUMPDEST SWAP3 SWAP2 POP POP JUMP JUMPDEST PUSH0 DUP3 DUP3 MSTORE PUSH1 0x20 DUP3 ADD SWAP1 POP SWAP3 SWAP2 POP POP JUMP JUMPDEST PUSH32 0x4E6F20457468657220696E20636F6E7472616374000000000000000000000000 PUSH0 DUP3 ADD MSTORE POP JUMP JUMPDEST PUSH0 PUSH2 0x2C2 PUSH1 0x14 DUP4 PUSH2 0x27E JUMP JUMPDEST SWAP2 POP PUSH2 0x2CD DUP3 PUSH2 0x28E JUMP JUMPDEST PUSH1 0x20 DUP3 ADD SWAP1 POP SWAP2 SWAP1 POP JUMP JUMPDEST PUSH0 PUSH1 0x20 DUP3 ADD SWAP1 POP DUP2 DUP2 SUB PUSH0 DUP4 ADD MSTORE PUSH2 0x2EF DUP2 PUSH2 0x2B6 JUMP JUMPDEST SWAP1 POP SWAP2 SWAP1 POP JUMP JUMPDEST PUSH0 DUP2 SWAP1 POP SWAP3 SWAP2 POP POP JUMP JUMPDEST POP JUMP JUMPDEST PUSH0 PUSH2 0x30E PUSH0 DUP4 PUSH2 0x2F6 JUMP JUMPDEST SWAP2 POP PUSH2 0x319 DUP3 PUSH2 0x300 JUMP JUMPDEST PUSH0 DUP3 ADD SWAP1 POP SWAP2 SWAP1 POP JUMP JUMPDEST PUSH0 PUSH2 0x32D DUP3 PUSH2 0x303 JUMP JUMPDEST SWAP2 POP DUP2 SWAP1 POP SWAP2 SWAP1 POP JUMP JUMPDEST PUSH32 0x5472616E73666572206661696C65640000000000000000000000000000000000 PUSH0 DUP3 ADD MSTORE POP JUMP JUMPDEST PUSH0 PUSH2 0x36B PUSH1 0xF DUP4 PUSH2 0x27E JUMP JUMPDEST SWAP2 POP PUSH2 0x376 DUP3 PUSH2 0x337 JUMP JUMPDEST PUSH1 0x20 DUP3 ADD SWAP1 POP SWAP2 SWAP1 POP JUMP JUMPDEST PUSH0 PUSH1 0x20 DUP3 ADD SWAP1 POP DUP2 DUP2 SUB PUSH0 DUP4 ADD MSTORE PUSH2 0x398 DUP2 PUSH2 0x35F JUMP JUMPDEST SWAP1 POP SWAP2 SWAP1 POP JUMP INVALID LOG2 PUSH5 0x6970667358 0x22 SLT KECCAK256 PUSH8 0x7E6E8698E8203FD3 0xFC SWAP3 SLOAD 0x4D 0x21 SGT CLZ SAR DUP8 PUSH31 0x331DD09C1B5F2319C6877B6B2264736F6C634300081F003300000000000000 "
				},
				"gasEstimates": {
					"creation": {
						"codeDepositCost": "196200",
						"executionCost": "infinite",
						"totalCost": "infinite"
					},
					"external": {
						"acceptEth()": "141",
						"getBalance()": "334",
						"receiver()": "2551",
						"sendEth()": "infinite"
					}
				},
				"methodIdentifiers": {
					"acceptEth()": "82af4b1f",
					"getBalance()": "12065fe0",
					"receiver()": "f7260d3e",
					"sendEth()": "06e99fef"
				}
			},
			"storageLayout": {
				"storage": [
					{
						"astId": 3,
						"contract": "Assignments/Assignment6(20-03-2026)/6)acceptreceiveETh.sol:EtherExample",
						"label": "receiver",
						"offset": 0,
						"slot": "0",
						"type": "t_address_payable"
					}
				],
				"types": {
					"t_address_payable": {
						"encoding": "inplace",
						"label": "address payable",
						"numberOfBytes": "20"
					}
				}
			},
			"userdoc": {
				"kind": "user",
				"methods": {},
				"version": 1
			}
		}
	}
}