{
	"Assignments/1)enum.sol": {
		"OrderTracking": {
			"abi": [
				{
					"inputs": [],
					"name": "getStatus",
					"outputs": [
						{
							"internalType": "enum OrderTracking.OrderStatus",
							"name": "",
							"type": "uint8"
						}
					],
					"stateMutability": "view",
					"type": "function"
				},
				{
					"inputs": [],
					"name": "orderStatus",
					"outputs": [
						{
							"internalType": "enum OrderTracking.OrderStatus",
							"name": "",
							"type": "uint8"
						}
					],
					"stateMutability": "view",
					"type": "function"
				},
				{
					"inputs": [
						{
							"internalType": "enum OrderTracking.OrderStatus",
							"name": "_status",
							"type": "uint8"
						}
					],
					"name": "setStatus",
					"outputs": [],
					"stateMutability": "nonpayable",
					"type": "function"
				}
			],
			"devdoc": {
				"kind": "dev",
				"methods": {},
				"version": 1
			},
			"evm": {
				"assembly": "    /* \"Assignments/1)enum.sol\":60:562  contract OrderTracking {... */\n  mstore(0x40, 0x80)\n  callvalue\n  dup1\n  iszero\n  tag_1\n  jumpi\n  revert(0x00, 0x00)\ntag_1:\n  pop\n  dataSize(sub_0)\n  dup1\n  dataOffset(sub_0)\n  0x00\n  codecopy\n  0x00\n  return\nstop\n\nsub_0: assembly {\n        /* \"Assignments/1)enum.sol\":60:562  contract OrderTracking {... */\n      mstore(0x40, 0x80)\n      callvalue\n      dup1\n      iszero\n      tag_1\n      jumpi\n      revert(0x00, 0x00)\n    tag_1:\n      pop\n      jumpi(tag_2, lt(calldatasize, 0x04))\n      shr(0xe0, calldataload(0x00))\n      dup1\n      0x2728e28b\n      eq\n      tag_3\n      jumpi\n      dup1\n      0x2e49d78b\n      eq\n      tag_4\n      jumpi\n      dup1\n      0x4e69d560\n      eq\n      tag_5\n      jumpi\n    tag_2:\n      revert(0x00, 0x00)\n        /* \"Assignments/1)enum.sol\":240:270  OrderStatus public orderStatus */\n    tag_3:\n      tag_6\n      tag_7\n      jump\t// in\n    tag_6:\n      mload(0x40)\n      tag_8\n      swap2\n      swap1\n      tag_9\n      jump\t// in\n    tag_8:\n      mload(0x40)\n      dup1\n      swap2\n      sub\n      swap1\n      return\n        /* \"Assignments/1)enum.sol\":324:411  function setStatus(OrderStatus _status) public {... */\n    tag_4:\n      tag_10\n      0x04\n      dup1\n      calldatasize\n      sub\n      dup2\n      add\n      swap1\n      tag_11\n      swap2\n      swap1\n      tag_12\n      jump\t// in\n    tag_11:\n      tag_13\n      jump\t// in\n    tag_10:\n      stop\n        /* \"Assignments/1)enum.sol\":465:557  function getStatus() public view returns (OrderStatus) {... */\n    tag_5:\n      tag_14\n      tag_15\n      jump\t// in\n    tag_14:\n      mload(0x40)\n      tag_16\n      swap2\n      swap1\n      tag_9\n      jump\t// in\n    tag_16:\n      mload(0x40)\n      dup1\n      swap2\n      sub\n      swap1\n      return\n        /* \"Assignments/1)enum.sol\":240:270  OrderStatus public orderStatus */\n    tag_7:\n      0x00\n      0x00\n      swap1\n      sload\n      swap1\n      0x0100\n      exp\n      swap1\n      div\n      0xff\n      and\n      dup2\n      jump\t// out\n        /* \"Assignments/1)enum.sol\":324:411  function setStatus(OrderStatus _status) public {... */\n    tag_13:\n        /* \"Assignments/1)enum.sol\":396:403  _status */\n      dup1\n        /* \"Assignments/1)enum.sol\":382:393  orderStatus */\n      0x00\n      0x00\n        /* \"Assignments/1)enum.sol\":382:403  orderStatus = _status */\n      0x0100\n      exp\n      dup2\n      sload\n      dup2\n      0xff\n      mul\n      not\n      and\n      swap1\n      dup4\n      0x02\n      dup2\n      gt\n      iszero\n      tag_18\n      jumpi\n      tag_19\n      tag_20\n      jump\t// in\n    tag_19:\n    tag_18:\n      mul\n      or\n      swap1\n      sstore\n      pop\n        /* \"Assignments/1)enum.sol\":324:411  function setStatus(OrderStatus _status) public {... */\n      pop\n      jump\t// out\n        /* \"Assignments/1)enum.sol\":465:557  function getStatus() public view returns (OrderStatus) {... */\n    tag_15:\n        /* \"Assignments/1)enum.sol\":507:518  OrderStatus */\n      0x00\n        /* \"Assignments/1)enum.sol\":538:549  orderStatus */\n      0x00\n      0x00\n      swap1\n      sload\n      swap1\n      0x0100\n      exp\n      swap1\n      div\n      0xff\n      and\n        /* \"Assignments/1)enum.sol\":531:549  return orderStatus */\n      swap1\n      pop\n        /* \"Assignments/1)enum.sol\":465:557  function getStatus() public view returns (OrderStatus) {... */\n      swap1\n      jump\t// out\n        /* \"#utility.yul\":7:187   */\n    tag_20:\n        /* \"#utility.yul\":55:132   */\n      0x4e487b7100000000000000000000000000000000000000000000000000000000\n        /* \"#utility.yul\":52:53   */\n      0x00\n        /* \"#utility.yul\":45:133   */\n      mstore\n        /* \"#utility.yul\":152:156   */\n      0x21\n        /* \"#utility.yul\":149:150   */\n      0x04\n        /* \"#utility.yul\":142:157   */\n      mstore\n        /* \"#utility.yul\":176:180   */\n      0x24\n        /* \"#utility.yul\":173:174   */\n      0x00\n        /* \"#utility.yul\":166:181   */\n      revert\n        /* \"#utility.yul\":193:311   */\n    tag_22:\n        /* \"#utility.yul\":279:280   */\n      0x03\n        /* \"#utility.yul\":272:277   */\n      dup2\n        /* \"#utility.yul\":269:281   */\n      lt\n        /* \"#utility.yul\":259:305   */\n      tag_34\n      jumpi\n        /* \"#utility.yul\":285:303   */\n      tag_35\n      tag_20\n      jump\t// in\n    tag_35:\n        /* \"#utility.yul\":259:305   */\n    tag_34:\n        /* \"#utility.yul\":193:311   */\n      pop\n      jump\t// out\n        /* \"#utility.yul\":317:454   */\n    tag_23:\n        /* \"#utility.yul\":367:374   */\n      0x00\n        /* \"#utility.yul\":396:401   */\n      dup2\n        /* \"#utility.yul\":385:401   */\n      swap1\n      pop\n        /* \"#utility.yul\":402:448   */\n      tag_37\n        /* \"#utility.yul\":442:447   */\n      dup3\n        /* \"#utility.yul\":402:448   */\n      tag_22\n      jump\t// in\n    tag_37:\n        /* \"#utility.yul\":317:454   */\n      swap2\n      swap1\n      pop\n      jump\t// out\n        /* \"#utility.yul\":460:597   */\n    tag_24:\n        /* \"#utility.yul\":521:530   */\n      0x00\n        /* \"#utility.yul\":554:591   */\n      tag_39\n        /* \"#utility.yul\":585:590   */\n      dup3\n        /* \"#utility.yul\":554:591   */\n      tag_23\n      jump\t// in\n    tag_39:\n        /* \"#utility.yul\":541:591   */\n      swap1\n      pop\n        /* \"#utility.yul\":460:597   */\n      swap2\n      swap1\n      pop\n      jump\t// out\n        /* \"#utility.yul\":603:756   */\n    tag_25:\n        /* \"#utility.yul\":701:749   */\n      tag_41\n        /* \"#utility.yul\":743:748   */\n      dup2\n        /* \"#utility.yul\":701:749   */\n      tag_24\n      jump\t// in\n    tag_41:\n        /* \"#utility.yul\":696:699   */\n      dup3\n        /* \"#utility.yul\":689:750   */\n      mstore\n        /* \"#utility.yul\":603:756   */\n      pop\n      pop\n      jump\t// out\n        /* \"#utility.yul\":762:1006   */\n    tag_9:\n        /* \"#utility.yul\":866:870   */\n      0x00\n        /* \"#utility.yul\":904:906   */\n      0x20\n        /* \"#utility.yul\":893:902   */\n      dup3\n        /* \"#utility.yul\":889:907   */\n      add\n        /* \"#utility.yul\":881:907   */\n      swap1\n      pop\n        /* \"#utility.yul\":917:999   */\n      tag_43\n        /* \"#utility.yul\":996:997   */\n      0x00\n        /* \"#utility.yul\":985:994   */\n      dup4\n        /* \"#utility.yul\":981:998   */\n      add\n        /* \"#utility.yul\":972:978   */\n      dup5\n        /* \"#utility.yul\":917:999   */\n      tag_25\n      jump\t// in\n    tag_43:\n        /* \"#utility.yul\":762:1006   */\n      swap3\n      swap2\n      pop\n      pop\n      jump\t// out\n        /* \"#utility.yul\":1093:1210   */\n    tag_27:\n        /* \"#utility.yul\":1202:1203   */\n      0x00\n        /* \"#utility.yul\":1199:1200   */\n      0x00\n        /* \"#utility.yul\":1192:1204   */\n      revert\n        /* \"#utility.yul\":1339:1451   */\n    tag_29:\n        /* \"#utility.yul\":1425:1426   */\n      0x03\n        /* \"#utility.yul\":1418:1423   */\n      dup2\n        /* \"#utility.yul\":1415:1427   */\n      lt\n        /* \"#utility.yul\":1405:1445   */\n      tag_48\n      jumpi\n        /* \"#utility.yul\":1441:1442   */\n      0x00\n        /* \"#utility.yul\":1438:1439   */\n      0x00\n        /* \"#utility.yul\":1431:1443   */\n      revert\n        /* \"#utility.yul\":1405:1445   */\n    tag_48:\n        /* \"#utility.yul\":1339:1451   */\n      pop\n      jump\t// out\n        /* \"#utility.yul\":1457:1622   */\n    tag_30:\n        /* \"#utility.yul\":1516:1521   */\n      0x00\n        /* \"#utility.yul\":1554:1560   */\n      dup2\n        /* \"#utility.yul\":1541:1561   */\n      calldataload\n        /* \"#utility.yul\":1532:1561   */\n      swap1\n      pop\n        /* \"#utility.yul\":1570:1616   */\n      tag_50\n        /* \"#utility.yul\":1610:1615   */\n      dup2\n        /* \"#utility.yul\":1570:1616   */\n      tag_29\n      jump\t// in\n    tag_50:\n        /* \"#utility.yul\":1457:1622   */\n      swap3\n      swap2\n      pop\n      pop\n      jump\t// out\n        /* \"#utility.yul\":1628:1983   */\n    tag_12:\n        /* \"#utility.yul\":1700:1706   */\n      0x00\n        /* \"#utility.yul\":1749:1751   */\n      0x20\n        /* \"#utility.yul\":1737:1746   */\n      dup3\n        /* \"#utility.yul\":1728:1735   */\n      dup5\n        /* \"#utility.yul\":1724:1747   */\n      sub\n        /* \"#utility.yul\":1720:1752   */\n      slt\n        /* \"#utility.yul\":1717:1836   */\n      iszero\n      tag_52\n      jumpi\n        /* \"#utility.yul\":1755:1834   */\n      tag_53\n      tag_27\n      jump\t// in\n    tag_53:\n        /* \"#utility.yul\":1717:1836   */\n    tag_52:\n        /* \"#utility.yul\":1875:1876   */\n      0x00\n        /* \"#utility.yul\":1900:1966   */\n      tag_54\n        /* \"#utility.yul\":1958:1965   */\n      dup5\n        /* \"#utility.yul\":1949:1955   */\n      dup3\n        /* \"#utility.yul\":1938:1947   */\n      dup6\n        /* \"#utility.yul\":1934:1956   */\n      add\n        /* \"#utility.yul\":1900:1966   */\n      tag_30\n      jump\t// in\n    tag_54:\n        /* \"#utility.yul\":1890:1966   */\n      swap2\n      pop\n        /* \"#utility.yul\":1846:1976   */\n      pop\n        /* \"#utility.yul\":1628:1983   */\n      swap3\n      swap2\n      pop\n      pop\n      jump\t// out\n\n    auxdata: 0xa2646970667358221220529b91b8afaf2585684c53542d45e8908fd48ed0fb89000b88fb46d6de70b36f64736f6c634300081f0033\n}\n",
				"bytecode": {
					"linkReferences": {},
					"object": "6080604052348015600e575f5ffd5b506101ff8061001c5f395ff3fe608060405234801561000f575f5ffd5b506004361061003f575f3560e01c80632728e28b146100435780632e49d78b146100615780634e69d5601461007d575b5f5ffd5b61004b61009b565b604051610058919061015e565b60405180910390f35b61007b6004803603810190610076919061019e565b6100ac565b005b6100856100d7565b604051610092919061015e565b60405180910390f35b5f5f9054906101000a900460ff1681565b805f5f6101000a81548160ff021916908360028111156100cf576100ce6100eb565b5b021790555050565b5f5f5f9054906101000a900460ff16905090565b7f4e487b71000000000000000000000000000000000000000000000000000000005f52602160045260245ffd5b60038110610129576101286100eb565b5b50565b5f81905061013982610118565b919050565b5f6101488261012c565b9050919050565b6101588161013e565b82525050565b5f6020820190506101715f83018461014f565b92915050565b5f5ffd5b60038110610187575f5ffd5b50565b5f813590506101988161017b565b92915050565b5f602082840312156101b3576101b2610177565b5b5f6101c08482850161018a565b9150509291505056fea2646970667358221220529b91b8afaf2585684c53542d45e8908fd48ed0fb89000b88fb46d6de70b36f64736f6c634300081f0033",
					"opcodes": "PUSH1 0x80 PUSH1 0x40 MSTORE CALLVALUE DUP1 ISZERO PUSH1 0xE JUMPI PUSH0 PUSH0 REVERT JUMPDEST POP PUSH2 0x1FF DUP1 PUSH2 0x1C PUSH0 CODECOPY PUSH0 RETURN INVALID PUSH1 0x80 PUSH1 0x40 MSTORE CALLVALUE DUP1 ISZERO PUSH2 0xF JUMPI PUSH0 PUSH0 REVERT JUMPDEST POP PUSH1 0x4 CALLDATASIZE LT PUSH2 0x3F JUMPI PUSH0 CALLDATALOAD PUSH1 0xE0 SHR DUP1 PUSH4 0x2728E28B EQ PUSH2 0x43 JUMPI DUP1 PUSH4 0x2E49D78B EQ PUSH2 0x61 JUMPI DUP1 PUSH4 0x4E69D560 EQ PUSH2 0x7D JUMPI JUMPDEST PUSH0 PUSH0 REVERT JUMPDEST PUSH2 0x4B PUSH2 0x9B JUMP JUMPDEST PUSH1 0x40 MLOAD PUSH2 0x58 SWAP2 SWAP1 PUSH2 0x15E JUMP JUMPDEST PUSH1 0x40 MLOAD DUP1 SWAP2 SUB SWAP1 RETURN JUMPDEST PUSH2 0x7B PUSH1 0x4 DUP1 CALLDATASIZE SUB DUP2 ADD SWAP1 PUSH2 0x76 SWAP2 SWAP1 PUSH2 0x19E JUMP JUMPDEST PUSH2 0xAC JUMP JUMPDEST STOP JUMPDEST PUSH2 0x85 PUSH2 0xD7 JUMP JUMPDEST PUSH1 0x40 MLOAD PUSH2 0x92 SWAP2 SWAP1 PUSH2 0x15E JUMP JUMPDEST PUSH1 0x40 MLOAD DUP1 SWAP2 SUB SWAP1 RETURN JUMPDEST PUSH0 PUSH0 SWAP1 SLOAD SWAP1 PUSH2 0x100 EXP SWAP1 DIV PUSH1 0xFF AND DUP2 JUMP JUMPDEST DUP1 PUSH0 PUSH0 PUSH2 0x100 EXP DUP2 SLOAD DUP2 PUSH1 0xFF MUL NOT AND SWAP1 DUP4 PUSH1 0x2 DUP2 GT ISZERO PUSH2 0xCF JUMPI PUSH2 0xCE PUSH2 0xEB JUMP JUMPDEST JUMPDEST MUL OR SWAP1 SSTORE POP POP JUMP JUMPDEST PUSH0 PUSH0 PUSH0 SWAP1 SLOAD SWAP1 PUSH2 0x100 EXP SWAP1 DIV PUSH1 0xFF AND SWAP1 POP SWAP1 JUMP JUMPDEST PUSH32 0x4E487B7100000000000000000000000000000000000000000000000000000000 PUSH0 MSTORE PUSH1 0x21 PUSH1 0x4 MSTORE PUSH1 0x24 PUSH0 REVERT JUMPDEST PUSH1 0x3 DUP2 LT PUSH2 0x129 JUMPI PUSH2 0x128 PUSH2 0xEB JUMP JUMPDEST JUMPDEST POP JUMP JUMPDEST PUSH0 DUP2 SWAP1 POP PUSH2 0x139 DUP3 PUSH2 0x118 JUMP JUMPDEST SWAP2 SWAP1 POP JUMP JUMPDEST PUSH0 PUSH2 0x148 DUP3 PUSH2 0x12C JUMP JUMPDEST SWAP1 POP SWAP2 SWAP1 POP JUMP JUMPDEST PUSH2 0x158 DUP2 PUSH2 0x13E JUMP JUMPDEST DUP3 MSTORE POP POP JUMP JUMPDEST PUSH0 PUSH1 0x20 DUP3 ADD SWAP1 POP PUSH2 0x171 PUSH0 DUP4 ADD DUP5 PUSH2 0x14F JUMP JUMPDEST SWAP3 SWAP2 POP POP JUMP JUMPDEST PUSH0 PUSH0 REVERT JUMPDEST PUSH1 0x3 DUP2 LT PUSH2 0x187 JUMPI PUSH0 PUSH0 REVERT JUMPDEST POP JUMP JUMPDEST PUSH0 DUP2 CALLDATALOAD SWAP1 POP PUSH2 0x198 DUP2 PUSH2 0x17B JUMP JUMPDEST SWAP3 SWAP2 POP POP JUMP JUMPDEST PUSH0 PUSH1 0x20 DUP3 DUP5 SUB SLT ISZERO PUSH2 0x1B3 JUMPI PUSH2 0x1B2 PUSH2 0x177 JUMP JUMPDEST JUMPDEST PUSH0 PUSH2 0x1C0 DUP5 DUP3 DUP6 ADD PUSH2 0x18A JUMP JUMPDEST SWAP2 POP POP SWAP3 SWAP2 POP POP JUMP INVALID LOG2 PUSH5 0x6970667358 0x22 SLT KECCAK256 MSTORE SWAP12 SWAP2 0xB8 0xAF 0xAF 0x25 DUP6 PUSH9 0x4C53542D45E8908FD4 DUP15 0xD0 EXTSTATICCALL DUP10 STOP SIGNEXTEND DUP9 EXTSTATICCALL CHAINID 0xD6 0xDE PUSH17 0xB36F64736F6C634300081F003300000000 "
				},
				"gasEstimates": {
					"creation": {
						"codeDepositCost": "102200",
						"executionCost": "145",
						"totalCost": "102345"
					},
					"external": {
						"getStatus()": "2582",
						"orderStatus()": "2531",
						"setStatus(uint8)": "24644"
					}
				},
				"methodIdentifiers": {
					"getStatus()": "4e69d560",
					"orderStatus()": "2728e28b",
					"setStatus(uint8)": "2e49d78b"
				}
			},
			"storageLayout": {
				"storage": [
					{
						"astId": 8,
						"contract": "Assignments/1)enum.sol:OrderTracking",
						"label": "orderStatus",
						"offset": 0,
						"slot": "0",
						"type": "t_enum(OrderStatus)5"
					}
				],
				"types": {
					"t_enum(OrderStatus)5": {
						"encoding": "inplace",
						"label": "enum OrderTracking.OrderStatus",
						"numberOfBytes": "1"
					}
				}
			},
			"userdoc": {
				"kind": "user",
				"methods": {},
				"version": 1
			}
		}
	}
}