{
	"data": {
		"bytecode": {
			"linkReferences": {},
			"object": "6080604052348015600e575f5ffd5b50610c2d8061001c5f395ff3fe608060405234801561000f575f5ffd5b506004361061003f575f3560e01c8063870f75f6146100435780639f1046d61461005f578063a0acec2514610093575b5f5ffd5b61005d60048036038101906100589190610641565b6100af565b005b610079600480360381019061007491906106f0565b610206565b60405161008a95949392919061080c565b60405180910390f35b6100ad60048036038101906100a8919061086b565b61040f565b005b845f81116100f2576040517f08c379a00000000000000000000000000000000000000000000000000000000081526004016100e9906108fc565b60405180910390fd5b6040518060a001604052808781526020018681526020018581526020018473ffffffffffffffffffffffffffffffffffffffff16815260200183600281111561013e5761013d610799565b5b8152505f5f8881526020019081526020015f205f820151815f0155602082015181600101908161016e9190610b28565b5060408201518160020190816101849190610b28565b506060820151816003015f6101000a81548173ffffffffffffffffffffffffffffffffffffffff021916908373ffffffffffffffffffffffffffffffffffffffff16021790555060808201518160030160146101000a81548160ff021916908360028111156101f6576101f5610799565b5b0217905550905050505050505050565b5f6060805f5f5f5f5f8881526020019081526020015f206040518060a00160405290815f820154815260200160018201805461024190610947565b80601f016020809104026020016040519081016040528092919081815260200182805461026d90610947565b80156102b85780601f1061028f576101008083540402835291602001916102b8565b820191905f5260205f20905b81548152906001019060200180831161029b57829003601f168201915b505050505081526020016002820180546102d190610947565b80601f01602080910402602001604051908101604052809291908181526020018280546102fd90610947565b80156103485780601f1061031f57610100808354040283529160200191610348565b820191905f5260205f20905b81548152906001019060200180831161032b57829003601f168201915b50505050508152602001600382015f9054906101000a900473ffffffffffffffffffffffffffffffffffffffff1673ffffffffffffffffffffffffffffffffffffffff1673ffffffffffffffffffffffffffffffffffffffff1681526020016003820160149054906101000a900460ff1660028111156103cb576103ca610799565b5b60028111156103dd576103dc610799565b5b815250509050805f01518160200151826040015183606001518460800151955095509550955095505091939590929450565b600181908060018154018082558091505060019003905f5260205f20015f9091909190915090816104409190610b28565b5050565b5f604051905090565b5f5ffd5b5f5ffd5b5f819050919050565b61046781610455565b8114610471575f5ffd5b50565b5f813590506104828161045e565b92915050565b5f5ffd5b5f5ffd5b5f601f19601f8301169050919050565b7f4e487b71000000000000000000000000000000000000000000000000000000005f52604160045260245ffd5b6104d682610490565b810181811067ffffffffffffffff821117156104f5576104f46104a0565b5b80604052505050565b5f610507610444565b905061051382826104cd565b919050565b5f67ffffffffffffffff821115610532576105316104a0565b5b61053b82610490565b9050602081019050919050565b828183375f83830152505050565b5f61056861056384610518565b6104fe565b9050828152602081018484840111156105845761058361048c565b5b61058f848285610548565b509392505050565b5f82601f8301126105ab576105aa610488565b5b81356105bb848260208601610556565b91505092915050565b5f73ffffffffffffffffffffffffffffffffffffffff82169050919050565b5f6105ed826105c4565b9050919050565b6105fd816105e3565b8114610607575f5ffd5b50565b5f81359050610618816105f4565b92915050565b6003811061062a575f5ffd5b50565b5f8135905061063b8161061e565b92915050565b5f5f5f5f5f60a0868803121561065a5761065961044d565b5b5f61066788828901610474565b955050602086013567ffffffffffffffff81111561068857610687610451565b5b61069488828901610597565b945050604086013567ffffffffffffffff8111156106b5576106b4610451565b5b6106c188828901610597565b93505060606106d28882890161060a565b92505060806106e38882890161062d565b9150509295509295909350565b5f602082840312156107055761070461044d565b5b5f61071284828501610474565b91505092915050565b61072481610455565b82525050565b5f81519050919050565b5f82825260208201905092915050565b8281835e5f83830152505050565b5f61075c8261072a565b6107668185610734565b9350610776818560208601610744565b61077f81610490565b840191505092915050565b610793816105e3565b82525050565b7f4e487b71000000000000000000000000000000000000000000000000000000005f52602160045260245ffd5b600381106107d7576107d6610799565b5b50565b5f8190506107e7826107c6565b919050565b5f6107f6826107da565b9050919050565b610806816107ec565b82525050565b5f60a08201905061081f5f83018861071b565b81810360208301526108318187610752565b905081810360408301526108458186610752565b9050610854606083018561078a565b61086160808301846107fd565b9695505050505050565b5f602082840312156108805761087f61044d565b5b5f82013567ffffffffffffffff81111561089d5761089c610451565b5b6108a984828501610597565b91505092915050565b7f496e76616c6964207461736b69640000000000000000000000000000000000005f82015250565b5f6108e6600e83610734565b91506108f1826108b2565b602082019050919050565b5f6020820190508181035f830152610913816108da565b9050919050565b7f4e487b71000000000000000000000000000000000000000000000000000000005f52602260045260245ffd5b5f600282049050600182168061095e57607f821691505b6020821081036109715761097061091a565b5b50919050565b5f819050815f5260205f209050919050565b5f6020601f8301049050919050565b5f82821b905092915050565b5f600883026109d37fffffffffffffffffffffffffffffffffffffffffffffffffffffffffffffffff82610998565b6109dd8683610998565b95508019841693508086168417925050509392505050565b5f819050919050565b5f610a18610a13610a0e84610455565b6109f5565b610455565b9050919050565b5f819050919050565b610a31836109fe565b610a45610a3d82610a1f565b8484546109a4565b825550505050565b5f5f905090565b610a5c610a4d565b610a67818484610a28565b505050565b5f5b82811015610a8d57610a825f828401610a54565b600181019050610a6e565b505050565b601f821115610ae05782821115610adf57610aac81610977565b610ab583610989565b610abe85610989565b6020861015610acb575f90505b808301610ada82840382610a6c565b505050505b5b505050565b5f82821c905092915050565b5f610b005f1984600802610ae5565b1980831691505092915050565b5f610b188383610af1565b9150826002028217905092915050565b610b318261072a565b67ffffffffffffffff811115610b4a57610b496104a0565b5b610b548254610947565b610b5f828285610a92565b5f60209050601f831160018114610b90575f8415610b7e578287015190505b610b888582610b0d565b865550610bef565b601f198416610b9e86610977565b5f5b82811015610bc557848901518255600182019150602085019450602081019050610ba0565b86831015610be25784890151610bde601f891682610af1565b8355505b6001600288020188555050505b50505050505056fea264697066735822122045580be4e8185ca01c33d5eb54b63e695cdb256526ec17cbc411dad0f1931be064736f6c63430008220033",
			"opcodes": "PUSH1 0x80 PUSH1 0x40 MSTORE CALLVALUE DUP1 ISZERO PUSH1 0xE JUMPI PUSH0 PUSH0 REVERT JUMPDEST POP PUSH2 0xC2D DUP1 PUSH2 0x1C PUSH0 CODECOPY PUSH0 RETURN INVALID PUSH1 0x80 PUSH1 0x40 MSTORE CALLVALUE DUP1 ISZERO PUSH2 0xF JUMPI PUSH0 PUSH0 REVERT JUMPDEST POP PUSH1 0x4 CALLDATASIZE LT PUSH2 0x3F JUMPI PUSH0 CALLDATALOAD PUSH1 0xE0 SHR DUP1 PUSH4 0x870F75F6 EQ PUSH2 0x43 JUMPI DUP1 PUSH4 0x9F1046D6 EQ PUSH2 0x5F JUMPI DUP1 PUSH4 0xA0ACEC25 EQ PUSH2 0x93 JUMPI JUMPDEST PUSH0 PUSH0 REVERT JUMPDEST PUSH2 0x5D PUSH1 0x4 DUP1 CALLDATASIZE SUB DUP2 ADD SWAP1 PUSH2 0x58 SWAP2 SWAP1 PUSH2 0x641 JUMP JUMPDEST PUSH2 0xAF JUMP JUMPDEST STOP JUMPDEST PUSH2 0x79 PUSH1 0x4 DUP1 CALLDATASIZE SUB DUP2 ADD SWAP1 PUSH2 0x74 SWAP2 SWAP1 PUSH2 0x6F0 JUMP JUMPDEST PUSH2 0x206 JUMP JUMPDEST PUSH1 0x40 MLOAD PUSH2 0x8A SWAP6 SWAP5 SWAP4 SWAP3 SWAP2 SWAP1 PUSH2 0x80C JUMP JUMPDEST PUSH1 0x40 MLOAD DUP1 SWAP2 SUB SWAP1 RETURN JUMPDEST PUSH2 0xAD PUSH1 0x4 DUP1 CALLDATASIZE SUB DUP2 ADD SWAP1 PUSH2 0xA8 SWAP2 SWAP1 PUSH2 0x86B JUMP JUMPDEST PUSH2 0x40F JUMP JUMPDEST STOP JUMPDEST DUP5 PUSH0 DUP2 GT PUSH2 0xF2 JUMPI PUSH1 0x40 MLOAD PUSH32 0x8C379A000000000000000000000000000000000000000000000000000000000 DUP2 MSTORE PUSH1 0x4 ADD PUSH2 0xE9 SWAP1 PUSH2 0x8FC JUMP JUMPDEST PUSH1 0x40 MLOAD DUP1 SWAP2 SUB SWAP1 REVERT JUMPDEST PUSH1 0x40 MLOAD DUP1 PUSH1 0xA0 ADD PUSH1 0x40 MSTORE DUP1 DUP8 DUP2 MSTORE PUSH1 0x20 ADD DUP7 DUP2 MSTORE PUSH1 0x20 ADD DUP6 DUP2 MSTORE PUSH1 0x20 ADD DUP5 PUSH20 0xFFFFFFFFFFFFFFFFFFFFFFFFFFFFFFFFFFFFFFFF AND DUP2 MSTORE PUSH1 0x20 ADD DUP4 PUSH1 0x2 DUP2 GT ISZERO PUSH2 0x13E JUMPI PUSH2 0x13D PUSH2 0x799 JUMP JUMPDEST JUMPDEST DUP2 MSTORE POP PUSH0 PUSH0 DUP9 DUP2 MSTORE PUSH1 0x20 ADD SWAP1 DUP2 MSTORE PUSH1 0x20 ADD PUSH0 KECCAK256 PUSH0 DUP3 ADD MLOAD DUP2 PUSH0 ADD SSTORE PUSH1 0x20 DUP3 ADD MLOAD DUP2 PUSH1 0x1 ADD SWAP1 DUP2 PUSH2 0x16E SWAP2 SWAP1 PUSH2 0xB28 JUMP JUMPDEST POP PUSH1 0x40 DUP3 ADD MLOAD DUP2 PUSH1 0x2 ADD SWAP1 DUP2 PUSH2 0x184 SWAP2 SWAP1 PUSH2 0xB28 JUMP JUMPDEST POP PUSH1 0x60 DUP3 ADD MLOAD DUP2 PUSH1 0x3 ADD PUSH0 PUSH2 0x100 EXP DUP2 SLOAD DUP2 PUSH20 0xFFFFFFFFFFFFFFFFFFFFFFFFFFFFFFFFFFFFFFFF MUL NOT AND SWAP1 DUP4 PUSH20 0xFFFFFFFFFFFFFFFFFFFFFFFFFFFFFFFFFFFFFFFF AND MUL OR SWAP1 SSTORE POP PUSH1 0x80 DUP3 ADD MLOAD DUP2 PUSH1 0x3 ADD PUSH1 0x14 PUSH2 0x100 EXP DUP2 SLOAD DUP2 PUSH1 0xFF MUL NOT AND SWAP1 DUP4 PUSH1 0x2 DUP2 GT ISZERO PUSH2 0x1F6 JUMPI PUSH2 0x1F5 PUSH2 0x799 JUMP JUMPDEST JUMPDEST MUL OR SWAP1 SSTORE POP SWAP1 POP POP POP POP POP POP POP POP JUMP JUMPDEST PUSH0 PUSH1 0x60 DUP1 PUSH0 PUSH0 PUSH0 PUSH0 PUSH0 DUP9 DUP2 MSTORE PUSH1 0x20 ADD SWAP1 DUP2 MSTORE PUSH1 0x20 ADD PUSH0 KECCAK256 PUSH1 0x40 MLOAD DUP1 PUSH1 0xA0 ADD PUSH1 0x40 MSTORE SWAP1 DUP2 PUSH0 DUP3 ADD SLOAD DUP2 MSTORE PUSH1 0x20 ADD PUSH1 0x1 DUP3 ADD DUP1 SLOAD PUSH2 0x241 SWAP1 PUSH2 0x947 JUMP JUMPDEST DUP1 PUSH1 0x1F ADD PUSH1 0x20 DUP1 SWAP2 DIV MUL PUSH1 0x20 ADD PUSH1 0x40 MLOAD SWAP1 DUP2 ADD PUSH1 0x40 MSTORE DUP1 SWAP3 SWAP2 SWAP1 DUP2 DUP2 MSTORE PUSH1 0x20 ADD DUP3 DUP1 SLOAD PUSH2 0x26D SWAP1 PUSH2 0x947 JUMP JUMPDEST DUP1 ISZERO PUSH2 0x2B8 JUMPI DUP1 PUSH1 0x1F LT PUSH2 0x28F JUMPI PUSH2 0x100 DUP1 DUP4 SLOAD DIV MUL DUP4 MSTORE SWAP2 PUSH1 0x20 ADD SWAP2 PUSH2 0x2B8 JUMP JUMPDEST DUP3 ADD SWAP2 SWAP1 PUSH0 MSTORE PUSH1 0x20 PUSH0 KECCAK256 SWAP1 JUMPDEST DUP2 SLOAD DUP2 MSTORE SWAP1 PUSH1 0x1 ADD SWAP1 PUSH1 0x20 ADD DUP1 DUP4 GT PUSH2 0x29B JUMPI DUP3 SWAP1 SUB PUSH1 0x1F AND DUP3 ADD SWAP2 JUMPDEST POP POP POP POP POP DUP2 MSTORE PUSH1 0x20 ADD PUSH1 0x2 DUP3 ADD DUP1 SLOAD PUSH2 0x2D1 SWAP1 PUSH2 0x947 JUMP JUMPDEST DUP1 PUSH1 0x1F ADD PUSH1 0x20 DUP1 SWAP2 DIV MUL PUSH1 0x20 ADD PUSH1 0x40 MLOAD SWAP1 DUP2 ADD PUSH1 0x40 MSTORE DUP1 SWAP3 SWAP2 SWAP1 DUP2 DUP2 MSTORE PUSH1 0x20 ADD DUP3 DUP1 SLOAD PUSH2 0x2FD SWAP1 PUSH2 0x947 JUMP JUMPDEST DUP1 ISZERO PUSH2 0x348 JUMPI DUP1 PUSH1 0x1F LT PUSH2 0x31F JUMPI PUSH2 0x100 DUP1 DUP4 SLOAD DIV MUL DUP4 MSTORE SWAP2 PUSH1 0x20 ADD SWAP2 PUSH2 0x348 JUMP JUMPDEST DUP3 ADD SWAP2 SWAP1 PUSH0 MSTORE PUSH1 0x20 PUSH0 KECCAK256 SWAP1 JUMPDEST DUP2 SLOAD DUP2 MSTORE SWAP1 PUSH1 0x1 ADD SWAP1 PUSH1 0x20 ADD DUP1 DUP4 GT PUSH2 0x32B JUMPI DUP3 SWAP1 SUB PUSH1 0x1F AND DUP3 ADD SWAP2 JUMPDEST POP POP POP POP POP DUP2 MSTORE PUSH1 0x20 ADD PUSH1 0x3 DUP3 ADD PUSH0 SWAP1 SLOAD SWAP1 PUSH2 0x100 EXP SWAP1 DIV PUSH20 0xFFFFFFFFFFFFFFFFFFFFFFFFFFFFFFFFFFFFFFFF AND PUSH20 0xFFFFFFFFFFFFFFFFFFFFFFFFFFFFFFFFFFFFFFFF AND PUSH20 0xFFFFFFFFFFFFFFFFFFFFFFFFFFFFFFFFFFFFFFFF AND DUP2 MSTORE PUSH1 0x20 ADD PUSH1 0x3 DUP3 ADD PUSH1 0x14 SWAP1 SLOAD SWAP1 PUSH2 0x100 EXP SWAP1 DIV PUSH1 0xFF AND PUSH1 0x2 DUP2 GT ISZERO PUSH2 0x3CB JUMPI PUSH2 0x3CA PUSH2 0x799 JUMP JUMPDEST JUMPDEST PUSH1 0x2 DUP2 GT ISZERO PUSH2 0x3DD JUMPI PUSH2 0x3DC PUSH2 0x799 JUMP JUMPDEST JUMPDEST DUP2 MSTORE POP POP SWAP1 POP DUP1 PUSH0 ADD MLOAD DUP2 PUSH1 0x20 ADD MLOAD DUP3 PUSH1 0x40 ADD MLOAD DUP4 PUSH1 0x60 ADD MLOAD DUP5 PUSH1 0x80 ADD MLOAD SWAP6 POP SWAP6 POP SWAP6 POP SWAP6 POP SWAP6 POP POP SWAP2 SWAP4 SWAP6 SWAP1 SWAP3 SWAP5 POP JUMP JUMPDEST PUSH1 0x1 DUP2 SWAP1 DUP1 PUSH1 0x1 DUP2 SLOAD ADD DUP1 DUP3 SSTORE DUP1 SWAP2 POP POP PUSH1 0x1 SWAP1 SUB SWAP1 PUSH0 MSTORE PUSH1 0x20 PUSH0 KECCAK256 ADD PUSH0 SWAP1 SWAP2 SWAP1 SWAP2 SWAP1 SWAP2 POP SWAP1 DUP2 PUSH2 0x440 SWAP2 SWAP1 PUSH2 0xB28 JUMP JUMPDEST POP POP JUMP JUMPDEST PUSH0 PUSH1 0x40 MLOAD SWAP1 POP SWAP1 JUMP JUMPDEST PUSH0 PUSH0 REVERT JUMPDEST PUSH0 PUSH0 REVERT JUMPDEST PUSH0 DUP2 SWAP1 POP SWAP2 SWAP1 POP JUMP JUMPDEST PUSH2 0x467 DUP2 PUSH2 0x455 JUMP JUMPDEST DUP2 EQ PUSH2 0x471 JUMPI PUSH0 PUSH0 REVERT JUMPDEST POP JUMP JUMPDEST PUSH0 DUP2 CALLDATALOAD SWAP1 POP PUSH2 0x482 DUP2 PUSH2 0x45E JUMP JUMPDEST SWAP3 SWAP2 POP POP JUMP JUMPDEST PUSH0 PUSH0 REVERT JUMPDEST PUSH0 PUSH0 REVERT JUMPDEST PUSH0 PUSH1 0x1F NOT PUSH1 0x1F DUP4 ADD AND SWAP1 POP SWAP2 SWAP1 POP JUMP JUMPDEST PUSH32 0x4E487B7100000000000000000000000000000000000000000000000000000000 PUSH0 MSTORE PUSH1 0x41 PUSH1 0x4 MSTORE PUSH1 0x24 PUSH0 REVERT JUMPDEST PUSH2 0x4D6 DUP3 PUSH2 0x490 JUMP JUMPDEST DUP2 ADD DUP2 DUP2 LT PUSH8 0xFFFFFFFFFFFFFFFF DUP3 GT OR ISZERO PUSH2 0x4F5 JUMPI PUSH2 0x4F4 PUSH2 0x4A0 JUMP JUMPDEST JUMPDEST DUP1 PUSH1 0x40 MSTORE POP POP POP JUMP JUMPDEST PUSH0 PUSH2 0x507 PUSH2 0x444 JUMP JUMPDEST SWAP1 POP PUSH2 0x513 DUP3 DUP3 PUSH2 0x4CD JUMP JUMPDEST SWAP2 SWAP1 POP JUMP JUMPDEST PUSH0 PUSH8 0xFFFFFFFFFFFFFFFF DUP3 GT ISZERO PUSH2 0x532 JUMPI PUSH2 0x531 PUSH2 0x4A0 JUMP JUMPDEST JUMPDEST PUSH2 0x53B DUP3 PUSH2 0x490 JUMP JUMPDEST SWAP1 POP PUSH1 0x20 DUP2 ADD SWAP1 POP SWAP2 SWAP1 POP JUMP JUMPDEST DUP3 DUP2 DUP4 CALLDATACOPY PUSH0 DUP4 DUP4 ADD MSTORE POP POP POP JUMP JUMPDEST PUSH0 PUSH2 0x568 PUSH2 0x563 DUP5 PUSH2 0x518 JUMP JUMPDEST PUSH2 0x4FE JUMP JUMPDEST SWAP1 POP DUP3 DUP2 MSTORE PUSH1 0x20 DUP2 ADD DUP5 DUP5 DUP5 ADD GT ISZERO PUSH2 0x584 JUMPI PUSH2 0x583 PUSH2 0x48C JUMP JUMPDEST JUMPDEST PUSH2 0x58F DUP5 DUP3 DUP6 PUSH2 0x548 JUMP JUMPDEST POP SWAP4 SWAP3 POP POP POP JUMP JUMPDEST PUSH0 DUP3 PUSH1 0x1F DUP4 ADD SLT PUSH2 0x5AB JUMPI PUSH2 0x5AA PUSH2 0x488 JUMP JUMPDEST JUMPDEST DUP2 CALLDATALOAD PUSH2 0x5BB DUP5 DUP3 PUSH1 0x20 DUP7 ADD PUSH2 0x556 JUMP JUMPDEST SWAP2 POP POP SWAP3 SWAP2 POP POP JUMP JUMPDEST PUSH0 PUSH20 0xFFFFFFFFFFFFFFFFFFFFFFFFFFFFFFFFFFFFFFFF DUP3 AND SWAP1 POP SWAP2 SWAP1 POP JUMP JUMPDEST PUSH0 PUSH2 0x5ED DUP3 PUSH2 0x5C4 JUMP JUMPDEST SWAP1 POP SWAP2 SWAP1 POP JUMP JUMPDEST PUSH2 0x5FD DUP2 PUSH2 0x5E3 JUMP JUMPDEST DUP2 EQ PUSH2 0x607 JUMPI PUSH0 PUSH0 REVERT JUMPDEST POP JUMP JUMPDEST PUSH0 DUP2 CALLDATALOAD SWAP1 POP PUSH2 0x618 DUP2 PUSH2 0x5F4 JUMP JUMPDEST SWAP3 SWAP2 POP POP JUMP JUMPDEST PUSH1 0x3 DUP2 LT PUSH2 0x62A JUMPI PUSH0 PUSH0 REVERT JUMPDEST POP JUMP JUMPDEST PUSH0 DUP2 CALLDATALOAD SWAP1 POP PUSH2 0x63B DUP2 PUSH2 0x61E JUMP JUMPDEST SWAP3 SWAP2 POP POP JUMP JUMPDEST PUSH0 PUSH0 PUSH0 PUSH0 PUSH0 PUSH1 0xA0 DUP7 DUP9 SUB SLT ISZERO PUSH2 0x65A JUMPI PUSH2 0x659 PUSH2 0x44D JUMP JUMPDEST JUMPDEST PUSH0 PUSH2 0x667 DUP9 DUP3 DUP10 ADD PUSH2 0x474 JUMP JUMPDEST SWAP6 POP POP PUSH1 0x20 DUP7 ADD CALLDATALOAD PUSH8 0xFFFFFFFFFFFFFFFF DUP2 GT ISZERO PUSH2 0x688 JUMPI PUSH2 0x687 PUSH2 0x451 JUMP JUMPDEST JUMPDEST PUSH2 0x694 DUP9 DUP3 DUP10 ADD PUSH2 0x597 JUMP JUMPDEST SWAP5 POP POP PUSH1 0x40 DUP7 ADD CALLDATALOAD PUSH8 0xFFFFFFFFFFFFFFFF DUP2 GT ISZERO PUSH2 0x6B5 JUMPI PUSH2 0x6B4 PUSH2 0x451 JUMP JUMPDEST JUMPDEST PUSH2 0x6C1 DUP9 DUP3 DUP10 ADD PUSH2 0x597 JUMP JUMPDEST SWAP4 POP POP PUSH1 0x60 PUSH2 0x6D2 DUP9 DUP3 DUP10 ADD PUSH2 0x60A JUMP JUMPDEST SWAP3 POP POP PUSH1 0x80 PUSH2 0x6E3 DUP9 DUP3 DUP10 ADD PUSH2 0x62D JUMP JUMPDEST SWAP2 POP POP SWAP3 SWAP6 POP SWAP3 SWAP6 SWAP1 SWAP4 POP JUMP JUMPDEST PUSH0 PUSH1 0x20 DUP3 DUP5 SUB SLT ISZERO PUSH2 0x705 JUMPI PUSH2 0x704 PUSH2 0x44D JUMP JUMPDEST JUMPDEST PUSH0 PUSH2 0x712 DUP5 DUP3 DUP6 ADD PUSH2 0x474 JUMP JUMPDEST SWAP2 POP POP SWAP3 SWAP2 POP POP JUMP JUMPDEST PUSH2 0x724 DUP2 PUSH2 0x455 JUMP JUMPDEST DUP3 MSTORE POP POP JUMP JUMPDEST PUSH0 DUP2 MLOAD SWAP1 POP SWAP2 SWAP1 POP JUMP JUMPDEST PUSH0 DUP3 DUP3 MSTORE PUSH1 0x20 DUP3 ADD SWAP1 POP SWAP3 SWAP2 POP POP JUMP JUMPDEST DUP3 DUP2 DUP4 MCOPY PUSH0 DUP4 DUP4 ADD MSTORE POP POP POP JUMP JUMPDEST PUSH0 PUSH2 0x75C DUP3 PUSH2 0x72A JUMP JUMPDEST PUSH2 0x766 DUP2 DUP6 PUSH2 0x734 JUMP JUMPDEST SWAP4 POP PUSH2 0x776 DUP2 DUP6 PUSH1 0x20 DUP7 ADD PUSH2 0x744 JUMP JUMPDEST PUSH2 0x77F DUP2 PUSH2 0x490 JUMP JUMPDEST DUP5 ADD SWAP2 POP POP SWAP3 SWAP2 POP POP JUMP JUMPDEST PUSH2 0x793 DUP2 PUSH2 0x5E3 JUMP JUMPDEST DUP3 MSTORE POP POP JUMP JUMPDEST PUSH32 0x4E487B7100000000000000000000000000000000000000000000000000000000 PUSH0 MSTORE PUSH1 0x21 PUSH1 0x4 MSTORE PUSH1 0x24 PUSH0 REVERT JUMPDEST PUSH1 0x3 DUP2 LT PUSH2 0x7D7 JUMPI PUSH2 0x7D6 PUSH2 0x799 JUMP JUMPDEST JUMPDEST POP JUMP JUMPDEST PUSH0 DUP2 SWAP1 POP PUSH2 0x7E7 DUP3 PUSH2 0x7C6 JUMP JUMPDEST SWAP2 SWAP1 POP JUMP JUMPDEST PUSH0 PUSH2 0x7F6 DUP3 PUSH2 0x7DA JUMP JUMPDEST SWAP1 POP SWAP2 SWAP1 POP JUMP JUMPDEST PUSH2 0x806 DUP2 PUSH2 0x7EC JUMP JUMPDEST DUP3 MSTORE POP POP JUMP JUMPDEST PUSH0 PUSH1 0xA0 DUP3 ADD SWAP1 POP PUSH2 0x81F PUSH0 DUP4 ADD DUP9 PUSH2 0x71B JUMP JUMPDEST DUP2 DUP2 SUB PUSH1 0x20 DUP4 ADD MSTORE PUSH2 0x831 DUP2 DUP8 PUSH2 0x752 JUMP JUMPDEST SWAP1 POP DUP2 DUP2 SUB PUSH1 0x40 DUP4 ADD MSTORE PUSH2 0x845 DUP2 DUP7 PUSH2 0x752 JUMP JUMPDEST SWAP1 POP PUSH2 0x854 PUSH1 0x60 DUP4 ADD DUP6 PUSH2 0x78A JUMP JUMPDEST PUSH2 0x861 PUSH1 0x80 DUP4 ADD DUP5 PUSH2 0x7FD JUMP JUMPDEST SWAP7 SWAP6 POP POP POP POP POP POP JUMP JUMPDEST PUSH0 PUSH1 0x20 DUP3 DUP5 SUB SLT ISZERO PUSH2 0x880 JUMPI PUSH2 0x87F PUSH2 0x44D JUMP JUMPDEST JUMPDEST PUSH0 DUP3 ADD CALLDATALOAD PUSH8 0xFFFFFFFFFFFFFFFF DUP2 GT ISZERO PUSH2 0x89D JUMPI PUSH2 0x89C PUSH2 0x451 JUMP JUMPDEST JUMPDEST PUSH2 0x8A9 DUP5 DUP3 DUP6 ADD PUSH2 0x597 JUMP JUMPDEST SWAP2 POP POP SWAP3 SWAP2 POP POP JUMP JUMPDEST PUSH32 0x496E76616C6964207461736B6964000000000000000000000000000000000000 PUSH0 DUP3 ADD MSTORE POP JUMP JUMPDEST PUSH0 PUSH2 0x8E6 PUSH1 0xE DUP4 PUSH2 0x734 JUMP JUMPDEST SWAP2 POP PUSH2 0x8F1 DUP3 PUSH2 0x8B2 JUMP JUMPDEST PUSH1 0x20 DUP3 ADD SWAP1 POP SWAP2 SWAP1 POP JUMP JUMPDEST PUSH0 PUSH1 0x20 DUP3 ADD SWAP1 POP DUP2 DUP2 SUB PUSH0 DUP4 ADD MSTORE PUSH2 0x913 DUP2 PUSH2 0x8DA JUMP JUMPDEST SWAP1 POP SWAP2 SWAP1 POP JUMP JUMPDEST PUSH32 0x4E487B7100000000000000000000000000000000000000000000000000000000 PUSH0 MSTORE PUSH1 0x22 PUSH1 0x4 MSTORE PUSH1 0x24 PUSH0 REVERT JUMPDEST PUSH0 PUSH1 0x2 DUP3 DIV SWAP1 POP PUSH1 0x1 DUP3 AND DUP1 PUSH2 0x95E JUMPI PUSH1 0x7F DUP3 AND SWAP2 POP JUMPDEST PUSH1 0x20 DUP3 LT DUP2 SUB PUSH2 0x971 JUMPI PUSH2 0x970 PUSH2 0x91A JUMP JUMPDEST JUMPDEST POP SWAP2 SWAP1 POP JUMP JUMPDEST PUSH0 DUP2 SWAP1 POP DUP2 PUSH0 MSTORE PUSH1 0x20 PUSH0 KECCAK256 SWAP1 POP SWAP2 SWAP1 POP JUMP JUMPDEST PUSH0 PUSH1 0x20 PUSH1 0x1F DUP4 ADD DIV SWAP1 POP SWAP2 SWAP1 POP JUMP JUMPDEST PUSH0 DUP3 DUP3 SHL SWAP1 POP SWAP3 SWAP2 POP POP JUMP JUMPDEST PUSH0 PUSH1 0x8 DUP4 MUL PUSH2 0x9D3 PUSH32 0xFFFFFFFFFFFFFFFFFFFFFFFFFFFFFFFFFFFFFFFFFFFFFFFFFFFFFFFFFFFFFFFF DUP3 PUSH2 0x998 JUMP JUMPDEST PUSH2 0x9DD DUP7 DUP4 PUSH2 0x998 JUMP JUMPDEST SWAP6 POP DUP1 NOT DUP5 AND SWAP4 POP DUP1 DUP7 AND DUP5 OR SWAP3 POP POP POP SWAP4 SWAP3 POP POP POP JUMP JUMPDEST PUSH0 DUP2 SWAP1 POP SWAP2 SWAP1 POP JUMP JUMPDEST PUSH0 PUSH2 0xA18 PUSH2 0xA13 PUSH2 0xA0E DUP5 PUSH2 0x455 JUMP JUMPDEST PUSH2 0x9F5 JUMP JUMPDEST PUSH2 0x455 JUMP JUMPDEST SWAP1 POP SWAP2 SWAP1 POP JUMP JUMPDEST PUSH0 DUP2 SWAP1 POP SWAP2 SWAP1 POP JUMP JUMPDEST PUSH2 0xA31 DUP4 PUSH2 0x9FE JUMP JUMPDEST PUSH2 0xA45 PUSH2 0xA3D DUP3 PUSH2 0xA1F JUMP JUMPDEST DUP5 DUP5 SLOAD PUSH2 0x9A4 JUMP JUMPDEST DUP3 SSTORE POP POP POP POP JUMP JUMPDEST PUSH0 PUSH0 SWAP1 POP SWAP1 JUMP JUMPDEST PUSH2 0xA5C PUSH2 0xA4D JUMP JUMPDEST PUSH2 0xA67 DUP2 DUP5 DUP5 PUSH2 0xA28 JUMP JUMPDEST POP POP POP JUMP JUMPDEST PUSH0 JUMPDEST DUP3 DUP2 LT ISZERO PUSH2 0xA8D JUMPI PUSH2 0xA82 PUSH0 DUP3 DUP5 ADD PUSH2 0xA54 JUMP JUMPDEST PUSH1 0x1 DUP2 ADD SWAP1 POP PUSH2 0xA6E JUMP JUMPDEST POP POP POP JUMP JUMPDEST PUSH1 0x1F DUP3 GT ISZERO PUSH2 0xAE0 JUMPI DUP3 DUP3 GT ISZERO PUSH2 0xADF JUMPI PUSH2 0xAAC DUP2 PUSH2 0x977 JUMP JUMPDEST PUSH2 0xAB5 DUP4 PUSH2 0x989 JUMP JUMPDEST PUSH2 0xABE DUP6 PUSH2 0x989 JUMP JUMPDEST PUSH1 0x20 DUP7 LT ISZERO PUSH2 0xACB JUMPI PUSH0 SWAP1 POP JUMPDEST DUP1 DUP4 ADD PUSH2 0xADA DUP3 DUP5 SUB DUP3 PUSH2 0xA6C JUMP JUMPDEST POP POP POP POP JUMPDEST JUMPDEST POP POP POP JUMP JUMPDEST PUSH0 DUP3 DUP3 SHR SWAP1 POP SWAP3 SWAP2 POP POP JUMP JUMPDEST PUSH0 PUSH2 0xB00 PUSH0 NOT DUP5 PUSH1 0x8 MUL PUSH2 0xAE5 JUMP JUMPDEST NOT DUP1 DUP4 AND SWAP2 POP POP SWAP3 SWAP2 POP POP JUMP JUMPDEST PUSH0 PUSH2 0xB18 DUP4 DUP4 PUSH2 0xAF1 JUMP JUMPDEST SWAP2 POP DUP3 PUSH1 0x2 MUL DUP3 OR SWAP1 POP SWAP3 SWAP2 POP POP JUMP JUMPDEST PUSH2 0xB31 DUP3 PUSH2 0x72A JUMP JUMPDEST PUSH8 0xFFFFFFFFFFFFFFFF DUP2 GT ISZERO PUSH2 0xB4A JUMPI PUSH2 0xB49 PUSH2 0x4A0 JUMP JUMPDEST JUMPDEST PUSH2 0xB54 DUP3 SLOAD PUSH2 0x947 JUMP JUMPDEST PUSH2 0xB5F DUP3 DUP3 DUP6 PUSH2 0xA92 JUMP JUMPDEST PUSH0 PUSH1 0x20 SWAP1 POP PUSH1 0x1F DUP4 GT PUSH1 0x1 DUP2 EQ PUSH2 0xB90 JUMPI PUSH0 DUP5 ISZERO PUSH2 0xB7E JUMPI DUP3 DUP8 ADD MLOAD SWAP1 POP JUMPDEST PUSH2 0xB88 DUP6 DUP3 PUSH2 0xB0D JUMP JUMPDEST DUP7 SSTORE POP PUSH2 0xBEF JUMP JUMPDEST PUSH1 0x1F NOT DUP5 AND PUSH2 0xB9E DUP7 PUSH2 0x977 JUMP JUMPDEST PUSH0 JUMPDEST DUP3 DUP2 LT ISZERO PUSH2 0xBC5 JUMPI DUP5 DUP10 ADD MLOAD DUP3 SSTORE PUSH1 0x1 DUP3 ADD SWAP2 POP PUSH1 0x20 DUP6 ADD SWAP5 POP PUSH1 0x20 DUP2 ADD SWAP1 POP PUSH2 0xBA0 JUMP JUMPDEST DUP7 DUP4 LT ISZERO PUSH2 0xBE2 JUMPI DUP5 DUP10 ADD MLOAD PUSH2 0xBDE PUSH1 0x1F DUP10 AND DUP3 PUSH2 0xAF1 JUMP JUMPDEST DUP4 SSTORE POP JUMPDEST PUSH1 0x1 PUSH1 0x2 DUP9 MUL ADD DUP9 SSTORE POP POP POP JUMPDEST POP POP POP POP POP POP JUMP INVALID LOG2 PUSH5 0x6970667358 0x22 SLT KECCAK256 GASLIMIT PC SIGNEXTEND RETF 0xE8 XOR TLOAD LOG0 SHR CALLER 0xD5 0xEB SLOAD 0xB6 RETURNDATACOPY PUSH10 0x5CDB256526EC17CBC411 0xDA 0xD0 CALL SWAP4 SHL RJUMP 0x6473 PUSH16 0x6C634300082200330000000000000000 "
		},
		"gasEstimates": {
			"creation": {
				"codeDepositCost": "623400",
				"executionCost": "655",
				"totalCost": "624055"
			},
			"external": {
				"addtaskname(string)": "infinite",
				"createtask(uint256,string,string,address,uint8)": "infinite",
				"gettask(uint256)": "infinite"
			}
		},
		"methodIdentifiers": {
			"addtaskname(string)": "a0acec25",
			"createtask(uint256,string,string,address,uint8)": "870f75f6",
			"gettask(uint256)": "9f1046d6"
		}
	},
	"abi": [
		{
			"inputs": [
				{
					"internalType": "string",
					"name": "_tasknames",
					"type": "string"
				}
			],
			"name": "addtaskname",
			"outputs": [],
			"stateMutability": "nonpayable",
			"type": "function"
		},
		{
			"inputs": [
				{
					"internalType": "uint256",
					"name": "_taskid",
					"type": "uint256"
				},
				{
					"internalType": "string",
					"name": "_taskname",
					"type": "string"
				},
				{
					"internalType": "string",
					"name": "_employeename",
					"type": "string"
				},
				{
					"internalType": "address",
					"name": "_employee",
					"type": "address"
				},
				{
					"internalType": "enum Employeetask.Taskstatus",
					"name": "_status",
					"type": "uint8"
				}
			],
			"name": "createtask",
			"outputs": [],
			"stateMutability": "nonpayable",
			"type": "function"
		},
		{
			"inputs": [
				{
					"internalType": "uint256",
					"name": "_taskid",
					"type": "uint256"
				}
			],
			"name": "gettask",
			"outputs": [
				{
					"internalType": "uint256",
					"name": "",
					"type": "uint256"
				},
				{
					"internalType": "string",
					"name": "",
					"type": "string"
				},
				{
					"internalType": "string",
					"name": "",
					"type": "string"
				},
				{
					"internalType": "address",
					"name": "",
					"type": "address"
				},
				{
					"internalType": "enum Employeetask.Taskstatus",
					"name": "",
					"type": "uint8"
				}
			],
			"stateMutability": "view",
			"type": "function"
		}
	]
}