{
	"data": {
		"bytecode": {
			"linkReferences": {},
			"object": "608060405234801561000f575f5ffd5b50600a5f819055506040518060400160405280600781526020017f4f7074696d7573000000000000000000000000000000000000000000000000008152506001908161005b919061029e565b5061036d565b5f81519050919050565b7f4e487b71000000000000000000000000000000000000000000000000000000005f52604160045260245ffd5b7f4e487b71000000000000000000000000000000000000000000000000000000005f52602260045260245ffd5b5f60028204905060018216806100dc57607f821691505b6020821081036100ef576100ee610098565b5b50919050565b5f819050815f5260205f209050919050565b5f6020601f8301049050919050565b5f82821b905092915050565b5f600883026101517fffffffffffffffffffffffffffffffffffffffffffffffffffffffffffffffff82610116565b61015b8683610116565b95508019841693508086168417925050509392505050565b5f819050919050565b5f819050919050565b5f61019f61019a61019584610173565b61017c565b610173565b9050919050565b5f819050919050565b6101b883610185565b6101cc6101c4826101a6565b848454610122565b825550505050565b5f5f905090565b6101e36101d4565b6101ee8184846101af565b505050565b5b81811015610211576102065f826101db565b6001810190506101f4565b5050565b601f82111561025657610227816100f5565b61023084610107565b8101602085101561023f578190505b61025361024b85610107565b8301826101f3565b50505b505050565b5f82821c905092915050565b5f6102765f198460080261025b565b1980831691505092915050565b5f61028e8383610267565b9150826002028217905092915050565b6102a782610061565b67ffffffffffffffff8111156102c0576102bf61006b565b5b6102ca82546100c5565b6102d5828285610215565b5f60209050601f831160018114610306575f84156102f4578287015190505b6102fe8582610283565b865550610365565b601f198416610314866100f5565b5f5b8281101561033b57848901518255600182019150602085019450602081019050610316565b868310156103585784890151610354601f891682610267565b8355505b6001600288020188555050505b505050505050565b6107f58061037a5f395ff3fe608060405234801561000f575f5ffd5b5060043610610060575f3560e01c80630e37008a14610064578063233ec35b14610080578063262a9dff1461009e578063368bb970146100bc57806336f4d1d3146100da578063812c8d5f146100f6575b5f5ffd5b61007e6004803603810190610079919061029d565b610114565b005b61008861011d565b60405161009591906102d7565b60405180910390f35b6100a6610125565b6040516100b391906102d7565b60405180910390f35b6100c461012a565b6040516100d19190610360565b60405180910390f35b6100f460048036038101906100ef91906104ac565b6101ba565b005b6100fe6101cd565b60405161010b9190610360565b60405180910390f35b805f8190555050565b5f5f54905090565b5f5481565b60606001805461013990610520565b80601f016020809104026020016040519081016040528092919081815260200182805461016590610520565b80156101b05780601f10610187576101008083540402835291602001916101b0565b820191905f5260205f20905b81548152906001019060200180831161019357829003601f168201915b5050505050905090565b80600190816101c991906106f0565b5050565b600180546101da90610520565b80601f016020809104026020016040519081016040528092919081815260200182805461020690610520565b80156102515780601f1061022857610100808354040283529160200191610251565b820191905f5260205f20905b81548152906001019060200180831161023457829003601f168201915b505050505081565b5f604051905090565b5f5ffd5b5f5ffd5b5f819050919050565b61027c8161026a565b8114610286575f5ffd5b50565b5f8135905061029781610273565b92915050565b5f602082840312156102b2576102b1610262565b5b5f6102bf84828501610289565b91505092915050565b6102d18161026a565b82525050565b5f6020820190506102ea5f8301846102c8565b92915050565b5f81519050919050565b5f82825260208201905092915050565b8281835e5f83830152505050565b5f601f19601f8301169050919050565b5f610332826102f0565b61033c81856102fa565b935061034c81856020860161030a565b61035581610318565b840191505092915050565b5f6020820190508181035f8301526103788184610328565b905092915050565b5f5ffd5b5f5ffd5b7f4e487b71000000000000000000000000000000000000000000000000000000005f52604160045260245ffd5b6103be82610318565b810181811067ffffffffffffffff821117156103dd576103dc610388565b5b80604052505050565b5f6103ef610259565b90506103fb82826103b5565b919050565b5f67ffffffffffffffff82111561041a57610419610388565b5b61042382610318565b9050602081019050919050565b828183375f83830152505050565b5f61045061044b84610400565b6103e6565b90508281526020810184848401111561046c5761046b610384565b5b610477848285610430565b509392505050565b5f82601f83011261049357610492610380565b5b81356104a384826020860161043e565b91505092915050565b5f602082840312156104c1576104c0610262565b5b5f82013567ffffffffffffffff8111156104de576104dd610266565b5b6104ea8482850161047f565b91505092915050565b7f4e487b71000000000000000000000000000000000000000000000000000000005f52602260045260245ffd5b5f600282049050600182168061053757607f821691505b60208210810361054a576105496104f3565b5b50919050565b5f819050815f5260205f209050919050565b5f6020601f8301049050919050565b5f82821b905092915050565b5f600883026105ac7fffffffffffffffffffffffffffffffffffffffffffffffffffffffffffffffff82610571565b6105b68683610571565b95508019841693508086168417925050509392505050565b5f819050919050565b5f6105f16105ec6105e78461026a565b6105ce565b61026a565b9050919050565b5f819050919050565b61060a836105d7565b61061e610616826105f8565b84845461057d565b825550505050565b5f5f905090565b610635610626565b610640818484610601565b505050565b5b81811015610663576106585f8261062d565b600181019050610646565b5050565b601f8211156106a85761067981610550565b61068284610562565b81016020851015610691578190505b6106a561069d85610562565b830182610645565b50505b505050565b5f82821c905092915050565b5f6106c85f19846008026106ad565b1980831691505092915050565b5f6106e083836106b9565b9150826002028217905092915050565b6106f9826102f0565b67ffffffffffffffff81111561071257610711610388565b5b61071c8254610520565b610727828285610667565b5f60209050601f831160018114610758575f8415610746578287015190505b61075085826106d5565b8655506107b7565b601f19841661076686610550565b5f5b8281101561078d57848901518255600182019150602085019450602081019050610768565b868310156107aa57848901516107a6601f8916826106b9565b8355505b6001600288020188555050505b50505050505056fea2646970667358221220654f9f4411c6a9b91edfe3faca79c4d68accd645ea935db3f81114416bec3f8064736f6c634300081f0033",
			"opcodes": "PUSH1 0x80 PUSH1 0x40 MSTORE CALLVALUE DUP1 ISZERO PUSH2 0xF JUMPI PUSH0 PUSH0 REVERT JUMPDEST POP PUSH1 0xA PUSH0 DUP2 SWAP1 SSTORE POP PUSH1 0x40 MLOAD DUP1 PUSH1 0x40 ADD PUSH1 0x40 MSTORE DUP1 PUSH1 0x7 DUP2 MSTORE PUSH1 0x20 ADD PUSH32 0x4F7074696D757300000000000000000000000000000000000000000000000000 DUP2 MSTORE POP PUSH1 0x1 SWAP1 DUP2 PUSH2 0x5B SWAP2 SWAP1 PUSH2 0x29E JUMP JUMPDEST POP PUSH2 0x36D JUMP JUMPDEST PUSH0 DUP2 MLOAD SWAP1 POP SWAP2 SWAP1 POP JUMP JUMPDEST PUSH32 0x4E487B7100000000000000000000000000000000000000000000000000000000 PUSH0 MSTORE PUSH1 0x41 PUSH1 0x4 MSTORE PUSH1 0x24 PUSH0 REVERT JUMPDEST PUSH32 0x4E487B7100000000000000000000000000000000000000000000000000000000 PUSH0 MSTORE PUSH1 0x22 PUSH1 0x4 MSTORE PUSH1 0x24 PUSH0 REVERT JUMPDEST PUSH0 PUSH1 0x2 DUP3 DIV SWAP1 POP PUSH1 0x1 DUP3 AND DUP1 PUSH2 0xDC JUMPI PUSH1 0x7F DUP3 AND SWAP2 POP JUMPDEST PUSH1 0x20 DUP3 LT DUP2 SUB PUSH2 0xEF JUMPI PUSH2 0xEE PUSH2 0x98 JUMP JUMPDEST JUMPDEST POP SWAP2 SWAP1 POP JUMP JUMPDEST PUSH0 DUP2 SWAP1 POP DUP2 PUSH0 MSTORE PUSH1 0x20 PUSH0 KECCAK256 SWAP1 POP SWAP2 SWAP1 POP JUMP JUMPDEST PUSH0 PUSH1 0x20 PUSH1 0x1F DUP4 ADD DIV SWAP1 POP SWAP2 SWAP1 POP JUMP JUMPDEST PUSH0 DUP3 DUP3 SHL SWAP1 POP SWAP3 SWAP2 POP POP JUMP JUMPDEST PUSH0 PUSH1 0x8 DUP4 MUL PUSH2 0x151 PUSH32 0xFFFFFFFFFFFFFFFFFFFFFFFFFFFFFFFFFFFFFFFFFFFFFFFFFFFFFFFFFFFFFFFF DUP3 PUSH2 0x116 JUMP JUMPDEST PUSH2 0x15B DUP7 DUP4 PUSH2 0x116 JUMP JUMPDEST SWAP6 POP DUP1 NOT DUP5 AND SWAP4 POP DUP1 DUP7 AND DUP5 OR SWAP3 POP POP POP SWAP4 SWAP3 POP POP POP JUMP JUMPDEST PUSH0 DUP2 SWAP1 POP SWAP2 SWAP1 POP JUMP JUMPDEST PUSH0 DUP2 SWAP1 POP SWAP2 SWAP1 POP JUMP JUMPDEST PUSH0 PUSH2 0x19F PUSH2 0x19A PUSH2 0x195 DUP5 PUSH2 0x173 JUMP JUMPDEST PUSH2 0x17C JUMP JUMPDEST PUSH2 0x173 JUMP JUMPDEST SWAP1 POP SWAP2 SWAP1 POP JUMP JUMPDEST PUSH0 DUP2 SWAP1 POP SWAP2 SWAP1 POP JUMP JUMPDEST PUSH2 0x1B8 DUP4 PUSH2 0x185 JUMP JUMPDEST PUSH2 0x1CC PUSH2 0x1C4 DUP3 PUSH2 0x1A6 JUMP JUMPDEST DUP5 DUP5 SLOAD PUSH2 0x122 JUMP JUMPDEST DUP3 SSTORE POP POP POP POP JUMP JUMPDEST PUSH0 PUSH0 SWAP1 POP SWAP1 JUMP JUMPDEST PUSH2 0x1E3 PUSH2 0x1D4 JUMP JUMPDEST PUSH2 0x1EE DUP2 DUP5 DUP5 PUSH2 0x1AF JUMP JUMPDEST POP POP POP JUMP JUMPDEST JUMPDEST DUP2 DUP2 LT ISZERO PUSH2 0x211 JUMPI PUSH2 0x206 PUSH0 DUP3 PUSH2 0x1DB JUMP JUMPDEST PUSH1 0x1 DUP2 ADD SWAP1 POP PUSH2 0x1F4 JUMP JUMPDEST POP POP JUMP JUMPDEST PUSH1 0x1F DUP3 GT ISZERO PUSH2 0x256 JUMPI PUSH2 0x227 DUP2 PUSH2 0xF5 JUMP JUMPDEST PUSH2 0x230 DUP5 PUSH2 0x107 JUMP JUMPDEST DUP2 ADD PUSH1 0x20 DUP6 LT ISZERO PUSH2 0x23F JUMPI DUP2 SWAP1 POP JUMPDEST PUSH2 0x253 PUSH2 0x24B DUP6 PUSH2 0x107 JUMP JUMPDEST DUP4 ADD DUP3 PUSH2 0x1F3 JUMP JUMPDEST POP POP JUMPDEST POP POP POP JUMP JUMPDEST PUSH0 DUP3 DUP3 SHR SWAP1 POP SWAP3 SWAP2 POP POP JUMP JUMPDEST PUSH0 PUSH2 0x276 PUSH0 NOT DUP5 PUSH1 0x8 MUL PUSH2 0x25B JUMP JUMPDEST NOT DUP1 DUP4 AND SWAP2 POP POP SWAP3 SWAP2 POP POP JUMP JUMPDEST PUSH0 PUSH2 0x28E DUP4 DUP4 PUSH2 0x267 JUMP JUMPDEST SWAP2 POP DUP3 PUSH1 0x2 MUL DUP3 OR SWAP1 POP SWAP3 SWAP2 POP POP JUMP JUMPDEST PUSH2 0x2A7 DUP3 PUSH2 0x61 JUMP JUMPDEST PUSH8 0xFFFFFFFFFFFFFFFF DUP2 GT ISZERO PUSH2 0x2C0 JUMPI PUSH2 0x2BF PUSH2 0x6B JUMP JUMPDEST JUMPDEST PUSH2 0x2CA DUP3 SLOAD PUSH2 0xC5 JUMP JUMPDEST PUSH2 0x2D5 DUP3 DUP3 DUP6 PUSH2 0x215 JUMP JUMPDEST PUSH0 PUSH1 0x20 SWAP1 POP PUSH1 0x1F DUP4 GT PUSH1 0x1 DUP2 EQ PUSH2 0x306 JUMPI PUSH0 DUP5 ISZERO PUSH2 0x2F4 JUMPI DUP3 DUP8 ADD MLOAD SWAP1 POP JUMPDEST PUSH2 0x2FE DUP6 DUP3 PUSH2 0x283 JUMP JUMPDEST DUP7 SSTORE POP PUSH2 0x365 JUMP JUMPDEST PUSH1 0x1F NOT DUP5 AND PUSH2 0x314 DUP7 PUSH2 0xF5 JUMP JUMPDEST PUSH0 JUMPDEST DUP3 DUP2 LT ISZERO PUSH2 0x33B JUMPI DUP5 DUP10 ADD MLOAD DUP3 SSTORE PUSH1 0x1 DUP3 ADD SWAP2 POP PUSH1 0x20 DUP6 ADD SWAP5 POP PUSH1 0x20 DUP2 ADD SWAP1 POP PUSH2 0x316 JUMP JUMPDEST DUP7 DUP4 LT ISZERO PUSH2 0x358 JUMPI DUP5 DUP10 ADD MLOAD PUSH2 0x354 PUSH1 0x1F DUP10 AND DUP3 PUSH2 0x267 JUMP JUMPDEST DUP4 SSTORE POP JUMPDEST PUSH1 0x1 PUSH1 0x2 DUP9 MUL ADD DUP9 SSTORE POP POP POP JUMPDEST POP POP POP POP POP POP JUMP JUMPDEST PUSH2 0x7F5 DUP1 PUSH2 0x37A PUSH0 CODECOPY PUSH0 RETURN INVALID PUSH1 0x80 PUSH1 0x40 MSTORE CALLVALUE DUP1 ISZERO PUSH2 0xF JUMPI PUSH0 PUSH0 REVERT JUMPDEST POP PUSH1 0x4 CALLDATASIZE LT PUSH2 0x60 JUMPI PUSH0 CALLDATALOAD PUSH1 0xE0 SHR DUP1 PUSH4 0xE37008A EQ PUSH2 0x64 JUMPI DUP1 PUSH4 0x233EC35B EQ PUSH2 0x80 JUMPI DUP1 PUSH4 0x262A9DFF EQ PUSH2 0x9E JUMPI DUP1 PUSH4 0x368BB970 EQ PUSH2 0xBC JUMPI DUP1 PUSH4 0x36F4D1D3 EQ PUSH2 0xDA JUMPI DUP1 PUSH4 0x812C8D5F EQ PUSH2 0xF6 JUMPI JUMPDEST PUSH0 PUSH0 REVERT JUMPDEST PUSH2 0x7E PUSH1 0x4 DUP1 CALLDATASIZE SUB DUP2 ADD SWAP1 PUSH2 0x79 SWAP2 SWAP1 PUSH2 0x29D JUMP JUMPDEST PUSH2 0x114 JUMP JUMPDEST STOP JUMPDEST PUSH2 0x88 PUSH2 0x11D JUMP JUMPDEST PUSH1 0x40 MLOAD PUSH2 0x95 SWAP2 SWAP1 PUSH2 0x2D7 JUMP JUMPDEST PUSH1 0x40 MLOAD DUP1 SWAP2 SUB SWAP1 RETURN JUMPDEST PUSH2 0xA6 PUSH2 0x125 JUMP JUMPDEST PUSH1 0x40 MLOAD PUSH2 0xB3 SWAP2 SWAP1 PUSH2 0x2D7 JUMP JUMPDEST PUSH1 0x40 MLOAD DUP1 SWAP2 SUB SWAP1 RETURN JUMPDEST PUSH2 0xC4 PUSH2 0x12A JUMP JUMPDEST PUSH1 0x40 MLOAD PUSH2 0xD1 SWAP2 SWAP1 PUSH2 0x360 JUMP JUMPDEST PUSH1 0x40 MLOAD DUP1 SWAP2 SUB SWAP1 RETURN JUMPDEST PUSH2 0xF4 PUSH1 0x4 DUP1 CALLDATASIZE SUB DUP2 ADD SWAP1 PUSH2 0xEF SWAP2 SWAP1 PUSH2 0x4AC JUMP JUMPDEST PUSH2 0x1BA JUMP JUMPDEST STOP JUMPDEST PUSH2 0xFE PUSH2 0x1CD JUMP JUMPDEST PUSH1 0x40 MLOAD PUSH2 0x10B SWAP2 SWAP1 PUSH2 0x360 JUMP JUMPDEST PUSH1 0x40 MLOAD DUP1 SWAP2 SUB SWAP1 RETURN JUMPDEST DUP1 PUSH0 DUP2 SWAP1 SSTORE POP POP JUMP JUMPDEST PUSH0 PUSH0 SLOAD SWAP1 POP SWAP1 JUMP JUMPDEST PUSH0 SLOAD DUP2 JUMP JUMPDEST PUSH1 0x60 PUSH1 0x1 DUP1 SLOAD PUSH2 0x139 SWAP1 PUSH2 0x520 JUMP JUMPDEST DUP1 PUSH1 0x1F ADD PUSH1 0x20 DUP1 SWAP2 DIV MUL PUSH1 0x20 ADD PUSH1 0x40 MLOAD SWAP1 DUP2 ADD PUSH1 0x40 MSTORE DUP1 SWAP3 SWAP2 SWAP1 DUP2 DUP2 MSTORE PUSH1 0x20 ADD DUP3 DUP1 SLOAD PUSH2 0x165 SWAP1 PUSH2 0x520 JUMP JUMPDEST DUP1 ISZERO PUSH2 0x1B0 JUMPI DUP1 PUSH1 0x1F LT PUSH2 0x187 JUMPI PUSH2 0x100 DUP1 DUP4 SLOAD DIV MUL DUP4 MSTORE SWAP2 PUSH1 0x20 ADD SWAP2 PUSH2 0x1B0 JUMP JUMPDEST DUP3 ADD SWAP2 SWAP1 PUSH0 MSTORE PUSH1 0x20 PUSH0 KECCAK256 SWAP1 JUMPDEST DUP2 SLOAD DUP2 MSTORE SWAP1 PUSH1 0x1 ADD SWAP1 PUSH1 0x20 ADD DUP1 DUP4 GT PUSH2 0x193 JUMPI DUP3 SWAP1 SUB PUSH1 0x1F AND DUP3 ADD SWAP2 JUMPDEST POP POP POP POP POP SWAP1 POP SWAP1 JUMP JUMPDEST DUP1 PUSH1 0x1 SWAP1 DUP2 PUSH2 0x1C9 SWAP2 SWAP1 PUSH2 0x6F0 JUMP JUMPDEST POP POP JUMP JUMPDEST PUSH1 0x1 DUP1 SLOAD PUSH2 0x1DA SWAP1 PUSH2 0x520 JUMP JUMPDEST DUP1 PUSH1 0x1F ADD PUSH1 0x20 DUP1 SWAP2 DIV MUL PUSH1 0x20 ADD PUSH1 0x40 MLOAD SWAP1 DUP2 ADD PUSH1 0x40 MSTORE DUP1 SWAP3 SWAP2 SWAP1 DUP2 DUP2 MSTORE PUSH1 0x20 ADD DUP3 DUP1 SLOAD PUSH2 0x206 SWAP1 PUSH2 0x520 JUMP JUMPDEST DUP1 ISZERO PUSH2 0x251 JUMPI DUP1 PUSH1 0x1F LT PUSH2 0x228 JUMPI PUSH2 0x100 DUP1 DUP4 SLOAD DIV MUL DUP4 MSTORE SWAP2 PUSH1 0x20 ADD SWAP2 PUSH2 0x251 JUMP JUMPDEST DUP3 ADD SWAP2 SWAP1 PUSH0 MSTORE PUSH1 0x20 PUSH0 KECCAK256 SWAP1 JUMPDEST DUP2 SLOAD DUP2 MSTORE SWAP1 PUSH1 0x1 ADD SWAP1 PUSH1 0x20 ADD DUP1 DUP4 GT PUSH2 0x234 JUMPI DUP3 SWAP1 SUB PUSH1 0x1F AND DUP3 ADD SWAP2 JUMPDEST POP POP POP POP POP DUP2 JUMP JUMPDEST PUSH0 PUSH1 0x40 MLOAD SWAP1 POP SWAP1 JUMP JUMPDEST PUSH0 PUSH0 REVERT JUMPDEST PUSH0 PUSH0 REVERT JUMPDEST PUSH0 DUP2 SWAP1 POP SWAP2 SWAP1 POP JUMP JUMPDEST PUSH2 0x27C DUP2 PUSH2 0x26A JUMP JUMPDEST DUP2 EQ PUSH2 0x286 JUMPI PUSH0 PUSH0 REVERT JUMPDEST POP JUMP JUMPDEST PUSH0 DUP2 CALLDATALOAD SWAP1 POP PUSH2 0x297 DUP2 PUSH2 0x273 JUMP JUMPDEST SWAP3 SWAP2 POP POP JUMP JUMPDEST PUSH0 PUSH1 0x20 DUP3 DUP5 SUB SLT ISZERO PUSH2 0x2B2 JUMPI PUSH2 0x2B1 PUSH2 0x262 JUMP JUMPDEST JUMPDEST PUSH0 PUSH2 0x2BF DUP5 DUP3 DUP6 ADD PUSH2 0x289 JUMP JUMPDEST SWAP2 POP POP SWAP3 SWAP2 POP POP JUMP JUMPDEST PUSH2 0x2D1 DUP2 PUSH2 0x26A JUMP JUMPDEST DUP3 MSTORE POP POP JUMP JUMPDEST PUSH0 PUSH1 0x20 DUP3 ADD SWAP1 POP PUSH2 0x2EA PUSH0 DUP4 ADD DUP5 PUSH2 0x2C8 JUMP JUMPDEST SWAP3 SWAP2 POP POP JUMP JUMPDEST PUSH0 DUP2 MLOAD SWAP1 POP SWAP2 SWAP1 POP JUMP JUMPDEST PUSH0 DUP3 DUP3 MSTORE PUSH1 0x20 DUP3 ADD SWAP1 POP SWAP3 SWAP2 POP POP JUMP JUMPDEST DUP3 DUP2 DUP4 MCOPY PUSH0 DUP4 DUP4 ADD MSTORE POP POP POP JUMP JUMPDEST PUSH0 PUSH1 0x1F NOT PUSH1 0x1F DUP4 ADD AND SWAP1 POP SWAP2 SWAP1 POP JUMP JUMPDEST PUSH0 PUSH2 0x332 DUP3 PUSH2 0x2F0 JUMP JUMPDEST PUSH2 0x33C DUP2 DUP6 PUSH2 0x2FA JUMP JUMPDEST SWAP4 POP PUSH2 0x34C DUP2 DUP6 PUSH1 0x20 DUP7 ADD PUSH2 0x30A JUMP JUMPDEST PUSH2 0x355 DUP2 PUSH2 0x318 JUMP JUMPDEST DUP5 ADD SWAP2 POP POP SWAP3 SWAP2 POP POP JUMP JUMPDEST PUSH0 PUSH1 0x20 DUP3 ADD SWAP1 POP DUP2 DUP2 SUB PUSH0 DUP4 ADD MSTORE PUSH2 0x378 DUP2 DUP5 PUSH2 0x328 JUMP JUMPDEST SWAP1 POP SWAP3 SWAP2 POP POP JUMP JUMPDEST PUSH0 PUSH0 REVERT JUMPDEST PUSH0 PUSH0 REVERT JUMPDEST PUSH32 0x4E487B7100000000000000000000000000000000000000000000000000000000 PUSH0 MSTORE PUSH1 0x41 PUSH1 0x4 MSTORE PUSH1 0x24 PUSH0 REVERT JUMPDEST PUSH2 0x3BE DUP3 PUSH2 0x318 JUMP JUMPDEST DUP2 ADD DUP2 DUP2 LT PUSH8 0xFFFFFFFFFFFFFFFF DUP3 GT OR ISZERO PUSH2 0x3DD JUMPI PUSH2 0x3DC PUSH2 0x388 JUMP JUMPDEST JUMPDEST DUP1 PUSH1 0x40 MSTORE POP POP POP JUMP JUMPDEST PUSH0 PUSH2 0x3EF PUSH2 0x259 JUMP JUMPDEST SWAP1 POP PUSH2 0x3FB DUP3 DUP3 PUSH2 0x3B5 JUMP JUMPDEST SWAP2 SWAP1 POP JUMP JUMPDEST PUSH0 PUSH8 0xFFFFFFFFFFFFFFFF DUP3 GT ISZERO PUSH2 0x41A JUMPI PUSH2 0x419 PUSH2 0x388 JUMP JUMPDEST JUMPDEST PUSH2 0x423 DUP3 PUSH2 0x318 JUMP JUMPDEST SWAP1 POP PUSH1 0x20 DUP2 ADD SWAP1 POP SWAP2 SWAP1 POP JUMP JUMPDEST DUP3 DUP2 DUP4 CALLDATACOPY PUSH0 DUP4 DUP4 ADD MSTORE POP POP POP JUMP JUMPDEST PUSH0 PUSH2 0x450 PUSH2 0x44B DUP5 PUSH2 0x400 JUMP JUMPDEST PUSH2 0x3E6 JUMP JUMPDEST SWAP1 POP DUP3 DUP2 MSTORE PUSH1 0x20 DUP2 ADD DUP5 DUP5 DUP5 ADD GT ISZERO PUSH2 0x46C JUMPI PUSH2 0x46B PUSH2 0x384 JUMP JUMPDEST JUMPDEST PUSH2 0x477 DUP5 DUP3 DUP6 PUSH2 0x430 JUMP JUMPDEST POP SWAP4 SWAP3 POP POP POP JUMP JUMPDEST PUSH0 DUP3 PUSH1 0x1F DUP4 ADD SLT PUSH2 0x493 JUMPI PUSH2 0x492 PUSH2 0x380 JUMP JUMPDEST JUMPDEST DUP2 CALLDATALOAD PUSH2 0x4A3 DUP5 DUP3 PUSH1 0x20 DUP7 ADD PUSH2 0x43E JUMP JUMPDEST SWAP2 POP POP SWAP3 SWAP2 POP POP JUMP JUMPDEST PUSH0 PUSH1 0x20 DUP3 DUP5 SUB SLT ISZERO PUSH2 0x4C1 JUMPI PUSH2 0x4C0 PUSH2 0x262 JUMP JUMPDEST JUMPDEST PUSH0 DUP3 ADD CALLDATALOAD PUSH8 0xFFFFFFFFFFFFFFFF DUP2 GT ISZERO PUSH2 0x4DE JUMPI PUSH2 0x4DD PUSH2 0x266 JUMP JUMPDEST JUMPDEST PUSH2 0x4EA DUP5 DUP3 DUP6 ADD PUSH2 0x47F JUMP JUMPDEST SWAP2 POP POP SWAP3 SWAP2 POP POP JUMP JUMPDEST PUSH32 0x4E487B7100000000000000000000000000000000000000000000000000000000 PUSH0 MSTORE PUSH1 0x22 PUSH1 0x4 MSTORE PUSH1 0x24 PUSH0 REVERT JUMPDEST PUSH0 PUSH1 0x2 DUP3 DIV SWAP1 POP PUSH1 0x1 DUP3 AND DUP1 PUSH2 0x537 JUMPI PUSH1 0x7F DUP3 AND SWAP2 POP JUMPDEST PUSH1 0x20 DUP3 LT DUP2 SUB PUSH2 0x54A JUMPI PUSH2 0x549 PUSH2 0x4F3 JUMP JUMPDEST JUMPDEST POP SWAP2 SWAP1 POP JUMP JUMPDEST PUSH0 DUP2 SWAP1 POP DUP2 PUSH0 MSTORE PUSH1 0x20 PUSH0 KECCAK256 SWAP1 POP SWAP2 SWAP1 POP JUMP JUMPDEST PUSH0 PUSH1 0x20 PUSH1 0x1F DUP4 ADD DIV SWAP1 POP SWAP2 SWAP1 POP JUMP JUMPDEST PUSH0 DUP3 DUP3 SHL SWAP1 POP SWAP3 SWAP2 POP POP JUMP JUMPDEST PUSH0 PUSH1 0x8 DUP4 MUL PUSH2 0x5AC PUSH32 0xFFFFFFFFFFFFFFFFFFFFFFFFFFFFFFFFFFFFFFFFFFFFFFFFFFFFFFFFFFFFFFFF DUP3 PUSH2 0x571 JUMP JUMPDEST PUSH2 0x5B6 DUP7 DUP4 PUSH2 0x571 JUMP JUMPDEST SWAP6 POP DUP1 NOT DUP5 AND SWAP4 POP DUP1 DUP7 AND DUP5 OR SWAP3 POP POP POP SWAP4 SWAP3 POP POP POP JUMP JUMPDEST PUSH0 DUP2 SWAP1 POP SWAP2 SWAP1 POP JUMP JUMPDEST PUSH0 PUSH2 0x5F1 PUSH2 0x5EC PUSH2 0x5E7 DUP5 PUSH2 0x26A JUMP JUMPDEST PUSH2 0x5CE JUMP JUMPDEST PUSH2 0x26A JUMP JUMPDEST SWAP1 POP SWAP2 SWAP1 POP JUMP JUMPDEST PUSH0 DUP2 SWAP1 POP SWAP2 SWAP1 POP JUMP JUMPDEST PUSH2 0x60A DUP4 PUSH2 0x5D7 JUMP JUMPDEST PUSH2 0x61E PUSH2 0x616 DUP3 PUSH2 0x5F8 JUMP JUMPDEST DUP5 DUP5 SLOAD PUSH2 0x57D JUMP JUMPDEST DUP3 SSTORE POP POP POP POP JUMP JUMPDEST PUSH0 PUSH0 SWAP1 POP SWAP1 JUMP JUMPDEST PUSH2 0x635 PUSH2 0x626 JUMP JUMPDEST PUSH2 0x640 DUP2 DUP5 DUP5 PUSH2 0x601 JUMP JUMPDEST POP POP POP JUMP JUMPDEST JUMPDEST DUP2 DUP2 LT ISZERO PUSH2 0x663 JUMPI PUSH2 0x658 PUSH0 DUP3 PUSH2 0x62D JUMP JUMPDEST PUSH1 0x1 DUP2 ADD SWAP1 POP PUSH2 0x646 JUMP JUMPDEST POP POP JUMP JUMPDEST PUSH1 0x1F DUP3 GT ISZERO PUSH2 0x6A8 JUMPI PUSH2 0x679 DUP2 PUSH2 0x550 JUMP JUMPDEST PUSH2 0x682 DUP5 PUSH2 0x562 JUMP JUMPDEST DUP2 ADD PUSH1 0x20 DUP6 LT ISZERO PUSH2 0x691 JUMPI DUP2 SWAP1 POP JUMPDEST PUSH2 0x6A5 PUSH2 0x69D DUP6 PUSH2 0x562 JUMP JUMPDEST DUP4 ADD DUP3 PUSH2 0x645 JUMP JUMPDEST POP POP JUMPDEST POP POP POP JUMP JUMPDEST PUSH0 DUP3 DUP3 SHR SWAP1 POP SWAP3 SWAP2 POP POP JUMP JUMPDEST PUSH0 PUSH2 0x6C8 PUSH0 NOT DUP5 PUSH1 0x8 MUL PUSH2 0x6AD JUMP JUMPDEST NOT DUP1 DUP4 AND SWAP2 POP POP SWAP3 SWAP2 POP POP JUMP JUMPDEST PUSH0 PUSH2 0x6E0 DUP4 DUP4 PUSH2 0x6B9 JUMP JUMPDEST SWAP2 POP DUP3 PUSH1 0x2 MUL DUP3 OR SWAP1 POP SWAP3 SWAP2 POP POP JUMP JUMPDEST PUSH2 0x6F9 DUP3 PUSH2 0x2F0 JUMP JUMPDEST PUSH8 0xFFFFFFFFFFFFFFFF DUP2 GT ISZERO PUSH2 0x712 JUMPI PUSH2 0x711 PUSH2 0x388 JUMP JUMPDEST JUMPDEST PUSH2 0x71C DUP3 SLOAD PUSH2 0x520 JUMP JUMPDEST PUSH2 0x727 DUP3 DUP3 DUP6 PUSH2 0x667 JUMP JUMPDEST PUSH0 PUSH1 0x20 SWAP1 POP PUSH1 0x1F DUP4 GT PUSH1 0x1 DUP2 EQ PUSH2 0x758 JUMPI PUSH0 DUP5 ISZERO PUSH2 0x746 JUMPI DUP3 DUP8 ADD MLOAD SWAP1 POP JUMPDEST PUSH2 0x750 DUP6 DUP3 PUSH2 0x6D5 JUMP JUMPDEST DUP7 SSTORE POP PUSH2 0x7B7 JUMP JUMPDEST PUSH1 0x1F NOT DUP5 AND PUSH2 0x766 DUP7 PUSH2 0x550 JUMP JUMPDEST PUSH0 JUMPDEST DUP3 DUP2 LT ISZERO PUSH2 0x78D JUMPI DUP5 DUP10 ADD MLOAD DUP3 SSTORE PUSH1 0x1 DUP3 ADD SWAP2 POP PUSH1 0x20 DUP6 ADD SWAP5 POP PUSH1 0x20 DUP2 ADD SWAP1 POP PUSH2 0x768 JUMP JUMPDEST DUP7 DUP4 LT ISZERO PUSH2 0x7AA JUMPI DUP5 DUP10 ADD MLOAD PUSH2 0x7A6 PUSH1 0x1F DUP10 AND DUP3 PUSH2 0x6B9 JUMP JUMPDEST DUP4 SSTORE POP JUMPDEST PUSH1 0x1 PUSH1 0x2 DUP9 MUL ADD DUP9 SSTORE POP POP POP JUMPDEST POP POP POP POP POP POP JUMP INVALID LOG2 PUSH5 0x6970667358 0x22 SLT KECCAK256 PUSH6 0x4F9F4411C6A9 0xB9 CLZ 0xDF CALLF 0xFACA PUSH26 0xC4D68ACCD645EA935DB3F81114416BEC3F8064736F6C63430008 0x1F STOP CALLER "
		},
		"gasEstimates": {
			"creation": {
				"codeDepositCost": "407400",
				"executionCost": "infinite",
				"totalCost": "infinite"
			},
			"external": {
				"age()": "2446",
				"getAge(uint256)": "22492",
				"getschool(string)": "infinite",
				"school()": "infinite",
				"setage()": "2431",
				"setschool()": "infinite"
			}
		},
		"methodIdentifiers": {
			"age()": "262a9dff",
			"getAge(uint256)": "0e37008a",
			"getschool(string)": "36f4d1d3",
			"school()": "812c8d5f",
			"setage()": "233ec35b",
			"setschool()": "368bb970"
		}
	},
	"abi": [
		{
			"inputs": [],
			"stateMutability": "nonpayable",
			"type": "constructor"
		},
		{
			"inputs": [],
			"name": "age",
			"outputs": [
				{
					"internalType": "uint256",
					"name": "",
					"type": "uint256"
				}
			],
			"stateMutability": "view",
			"type": "function"
		},
		{
			"inputs": [
				{
					"internalType": "uint256",
					"name": "_newage",
					"type": "uint256"
				}
			],
			"name": "getAge",
			"outputs": [],
			"stateMutability": "nonpayable",
			"type": "function"
		},
		{
			"inputs": [
				{
					"internalType": "string",
					"name": "_newschool",
					"type": "string"
				}
			],
			"name": "getschool",
			"outputs": [],
			"stateMutability": "nonpayable",
			"type": "function"
		},
		{
			"inputs": [],
			"name": "school",
			"outputs": [
				{
					"internalType": "string",
					"name": "",
					"type": "string"
				}
			],
			"stateMutability": "view",
			"type": "function"
		},
		{
			"inputs": [],
			"name": "setage",
			"outputs": [
				{
					"internalType": "uint256",
					"name": "",
					"type": "uint256"
				}
			],
			"stateMutability": "view",
			"type": "function"
		},
		{
			"inputs": [],
			"name": "setschool",
			"outputs": [
				{
					"internalType": "string",
					"name": "",
					"type": "string"
				}
			],
			"stateMutability": "view",
			"type": "function"
		}
	]
}