{
	"data": {
		"bytecode": {
			"linkReferences": {},
			"object": "6080604052348015600e575f5ffd5b50610ae08061001c5f395ff3fe608060405234801561000f575f5ffd5b506004361061003f575f3560e01c80638805f0f414610043578063a7cc158214610075578063c7ef6bfb14610091575b5f5ffd5b61005d60048036038101906100589190610608565b6100c3565b60405161006c939291906106c7565b60405180910390f35b61008f600480360381019061008a9190610734565b610238565b005b6100ab60048036038101906100a69190610608565b610372565b6040516100ba939291906106c7565b60405180910390f35b60605f60605f5f856040516100d891906107c8565b90815260200160405180910390206040518060600160405290815f820180546101009061080b565b80601f016020809104026020016040519081016040528092919081815260200182805461012c9061080b565b80156101775780601f1061014e57610100808354040283529160200191610177565b820191905f5260205f20905b81548152906001019060200180831161015a57829003601f168201915b505050505081526020016001820154815260200160028201805461019a9061080b565b80601f01602080910402602001604051908101604052809291908181526020018280546101c69061080b565b80156102115780601f106101e857610100808354040283529160200191610211565b820191905f5260205f20905b8154815290600101906020018083116101f457829003601f168201915b5050505050815250509050805f015181602001518260400151935093509350509193909250565b60606050821061027f576040518060400160405280600b81526020017f44697374696e6374696f6e00000000000000000000000000000000000000000081525090506102fe565b603c82106102c4576040518060400160405280600481526020017f506173730000000000000000000000000000000000000000000000000000000081525090506102fd565b6040518060400160405280600481526020017f4661696c0000000000000000000000000000000000000000000000000000000081525090505b5b6040518060600160405280848152602001838152602001828152505f8460405161032891906107c8565b90815260200160405180910390205f820151815f01908161034991906109db565b5060208201518160010155604082015181600201908161036991906109db565b50905050505050565b5f818051602081018201805184825260208301602085012081835280955050505050505f91509050805f0180546103a89061080b565b80601f01602080910402602001604051908101604052809291908181526020018280546103d49061080b565b801561041f5780601f106103f65761010080835404028352916020019161041f565b820191905f5260205f20905b81548152906001019060200180831161040257829003601f168201915b50505050509080600101549080600201805461043a9061080b565b80601f01602080910402602001604051908101604052809291908181526020018280546104669061080b565b80156104b15780601f10610488576101008083540402835291602001916104b1565b820191905f5260205f20905b81548152906001019060200180831161049457829003601f168201915b5050505050905083565b5f604051905090565b5f5ffd5b5f5ffd5b5f5ffd5b5f5ffd5b5f601f19601f8301169050919050565b7f4e487b71000000000000000000000000000000000000000000000000000000005f52604160045260245ffd5b61051a826104d4565b810181811067ffffffffffffffff82111715610539576105386104e4565b5b80604052505050565b5f61054b6104bb565b90506105578282610511565b919050565b5f67ffffffffffffffff821115610576576105756104e4565b5b61057f826104d4565b9050602081019050919050565b828183375f83830152505050565b5f6105ac6105a78461055c565b610542565b9050828152602081018484840111156105c8576105c76104d0565b5b6105d384828561058c565b509392505050565b5f82601f8301126105ef576105ee6104cc565b5b81356105ff84826020860161059a565b91505092915050565b5f6020828403121561061d5761061c6104c4565b5b5f82013567ffffffffffffffff81111561063a576106396104c8565b5b610646848285016105db565b91505092915050565b5f81519050919050565b5f82825260208201905092915050565b8281835e5f83830152505050565b5f6106818261064f565b61068b8185610659565b935061069b818560208601610669565b6106a4816104d4565b840191505092915050565b5f819050919050565b6106c1816106af565b82525050565b5f6060820190508181035f8301526106df8186610677565b90506106ee60208301856106b8565b81810360408301526107008184610677565b9050949350505050565b610713816106af565b811461071d575f5ffd5b50565b5f8135905061072e8161070a565b92915050565b5f5f6040838503121561074a576107496104c4565b5b5f83013567ffffffffffffffff811115610767576107666104c8565b5b610773858286016105db565b925050602061078485828601610720565b9150509250929050565b5f81905092915050565b5f6107a28261064f565b6107ac818561078e565b93506107bc818560208601610669565b80840191505092915050565b5f6107d38284610798565b915081905092915050565b7f4e487b71000000000000000000000000000000000000000000000000000000005f52602260045260245ffd5b5f600282049050600182168061082257607f821691505b602082108103610835576108346107de565b5b50919050565b5f819050815f5260205f209050919050565b5f6020601f8301049050919050565b5f82821b905092915050565b5f600883026108977fffffffffffffffffffffffffffffffffffffffffffffffffffffffffffffffff8261085c565b6108a1868361085c565b95508019841693508086168417925050509392505050565b5f819050919050565b5f6108dc6108d76108d2846106af565b6108b9565b6106af565b9050919050565b5f819050919050565b6108f5836108c2565b610909610901826108e3565b848454610868565b825550505050565b5f5f905090565b610920610911565b61092b8184846108ec565b505050565b5b8181101561094e576109435f82610918565b600181019050610931565b5050565b601f821115610993576109648161083b565b61096d8461084d565b8101602085101561097c578190505b6109906109888561084d565b830182610930565b50505b505050565b5f82821c905092915050565b5f6109b35f1984600802610998565b1980831691505092915050565b5f6109cb83836109a4565b9150826002028217905092915050565b6109e48261064f565b67ffffffffffffffff8111156109fd576109fc6104e4565b5b610a07825461080b565b610a12828285610952565b5f60209050601f831160018114610a43575f8415610a31578287015190505b610a3b85826109c0565b865550610aa2565b601f198416610a518661083b565b5f5b82811015610a7857848901518255600182019150602085019450602081019050610a53565b86831015610a955784890151610a91601f8916826109a4565b8355505b6001600288020188555050505b50505050505056fea26469706673582212204beb948a69689db23347e61384925c5a203232b7c5a39f2f4f09a0566cd80b9564736f6c634300081f0033",
			"opcodes": "PUSH1 0x80 PUSH1 0x40 MSTORE CALLVALUE DUP1 ISZERO PUSH1 0xE JUMPI PUSH0 PUSH0 REVERT JUMPDEST POP PUSH2 0xAE0 DUP1 PUSH2 0x1C PUSH0 CODECOPY PUSH0 RETURN INVALID PUSH1 0x80 PUSH1 0x40 MSTORE CALLVALUE DUP1 ISZERO PUSH2 0xF JUMPI PUSH0 PUSH0 REVERT JUMPDEST POP PUSH1 0x4 CALLDATASIZE LT PUSH2 0x3F JUMPI PUSH0 CALLDATALOAD PUSH1 0xE0 SHR DUP1 PUSH4 0x8805F0F4 EQ PUSH2 0x43 JUMPI DUP1 PUSH4 0xA7CC1582 EQ PUSH2 0x75 JUMPI DUP1 PUSH4 0xC7EF6BFB EQ PUSH2 0x91 JUMPI JUMPDEST PUSH0 PUSH0 REVERT JUMPDEST PUSH2 0x5D PUSH1 0x4 DUP1 CALLDATASIZE SUB DUP2 ADD SWAP1 PUSH2 0x58 SWAP2 SWAP1 PUSH2 0x608 JUMP JUMPDEST PUSH2 0xC3 JUMP JUMPDEST PUSH1 0x40 MLOAD PUSH2 0x6C SWAP4 SWAP3 SWAP2 SWAP1 PUSH2 0x6C7 JUMP JUMPDEST PUSH1 0x40 MLOAD DUP1 SWAP2 SUB SWAP1 RETURN JUMPDEST PUSH2 0x8F PUSH1 0x4 DUP1 CALLDATASIZE SUB DUP2 ADD SWAP1 PUSH2 0x8A SWAP2 SWAP1 PUSH2 0x734 JUMP JUMPDEST PUSH2 0x238 JUMP JUMPDEST STOP JUMPDEST PUSH2 0xAB PUSH1 0x4 DUP1 CALLDATASIZE SUB DUP2 ADD SWAP1 PUSH2 0xA6 SWAP2 SWAP1 PUSH2 0x608 JUMP JUMPDEST PUSH2 0x372 JUMP JUMPDEST PUSH1 0x40 MLOAD PUSH2 0xBA SWAP4 SWAP3 SWAP2 SWAP1 PUSH2 0x6C7 JUMP JUMPDEST PUSH1 0x40 MLOAD DUP1 SWAP2 SUB SWAP1 RETURN JUMPDEST PUSH1 0x60 PUSH0 PUSH1 0x60 PUSH0 PUSH0 DUP6 PUSH1 0x40 MLOAD PUSH2 0xD8 SWAP2 SWAP1 PUSH2 0x7C8 JUMP JUMPDEST SWAP1 DUP2 MSTORE PUSH1 0x20 ADD PUSH1 0x40 MLOAD DUP1 SWAP2 SUB SWAP1 KECCAK256 PUSH1 0x40 MLOAD DUP1 PUSH1 0x60 ADD PUSH1 0x40 MSTORE SWAP1 DUP2 PUSH0 DUP3 ADD DUP1 SLOAD PUSH2 0x100 SWAP1 PUSH2 0x80B JUMP JUMPDEST DUP1 PUSH1 0x1F ADD PUSH1 0x20 DUP1 SWAP2 DIV MUL PUSH1 0x20 ADD PUSH1 0x40 MLOAD SWAP1 DUP2 ADD PUSH1 0x40 MSTORE DUP1 SWAP3 SWAP2 SWAP1 DUP2 DUP2 MSTORE PUSH1 0x20 ADD DUP3 DUP1 SLOAD PUSH2 0x12C SWAP1 PUSH2 0x80B JUMP JUMPDEST DUP1 ISZERO PUSH2 0x177 JUMPI DUP1 PUSH1 0x1F LT PUSH2 0x14E JUMPI PUSH2 0x100 DUP1 DUP4 SLOAD DIV MUL DUP4 MSTORE SWAP2 PUSH1 0x20 ADD SWAP2 PUSH2 0x177 JUMP JUMPDEST DUP3 ADD SWAP2 SWAP1 PUSH0 MSTORE PUSH1 0x20 PUSH0 KECCAK256 SWAP1 JUMPDEST DUP2 SLOAD DUP2 MSTORE SWAP1 PUSH1 0x1 ADD SWAP1 PUSH1 0x20 ADD DUP1 DUP4 GT PUSH2 0x15A JUMPI DUP3 SWAP1 SUB PUSH1 0x1F AND DUP3 ADD SWAP2 JUMPDEST POP POP POP POP POP DUP2 MSTORE PUSH1 0x20 ADD PUSH1 0x1 DUP3 ADD SLOAD DUP2 MSTORE PUSH1 0x20 ADD PUSH1 0x2 DUP3 ADD DUP1 SLOAD PUSH2 0x19A SWAP1 PUSH2 0x80B JUMP JUMPDEST DUP1 PUSH1 0x1F ADD PUSH1 0x20 DUP1 SWAP2 DIV MUL PUSH1 0x20 ADD PUSH1 0x40 MLOAD SWAP1 DUP2 ADD PUSH1 0x40 MSTORE DUP1 SWAP3 SWAP2 SWAP1 DUP2 DUP2 MSTORE PUSH1 0x20 ADD DUP3 DUP1 SLOAD PUSH2 0x1C6 SWAP1 PUSH2 0x80B JUMP JUMPDEST DUP1 ISZERO PUSH2 0x211 JUMPI DUP1 PUSH1 0x1F LT PUSH2 0x1E8 JUMPI PUSH2 0x100 DUP1 DUP4 SLOAD DIV MUL DUP4 MSTORE SWAP2 PUSH1 0x20 ADD SWAP2 PUSH2 0x211 JUMP JUMPDEST DUP3 ADD SWAP2 SWAP1 PUSH0 MSTORE PUSH1 0x20 PUSH0 KECCAK256 SWAP1 JUMPDEST DUP2 SLOAD DUP2 MSTORE SWAP1 PUSH1 0x1 ADD SWAP1 PUSH1 0x20 ADD DUP1 DUP4 GT PUSH2 0x1F4 JUMPI DUP3 SWAP1 SUB PUSH1 0x1F AND DUP3 ADD SWAP2 JUMPDEST POP POP POP POP POP DUP2 MSTORE POP POP SWAP1 POP DUP1 PUSH0 ADD MLOAD DUP2 PUSH1 0x20 ADD MLOAD DUP3 PUSH1 0x40 ADD MLOAD SWAP4 POP SWAP4 POP SWAP4 POP POP SWAP2 SWAP4 SWAP1 SWAP3 POP JUMP JUMPDEST PUSH1 0x60 PUSH1 0x50 DUP3 LT PUSH2 0x27F JUMPI PUSH1 0x40 MLOAD DUP1 PUSH1 0x40 ADD PUSH1 0x40 MSTORE DUP1 PUSH1 0xB DUP2 MSTORE PUSH1 0x20 ADD PUSH32 0x44697374696E6374696F6E000000000000000000000000000000000000000000 DUP2 MSTORE POP SWAP1 POP PUSH2 0x2FE JUMP JUMPDEST PUSH1 0x3C DUP3 LT PUSH2 0x2C4 JUMPI PUSH1 0x40 MLOAD DUP1 PUSH1 0x40 ADD PUSH1 0x40 MSTORE DUP1 PUSH1 0x4 DUP2 MSTORE PUSH1 0x20 ADD PUSH32 0x5061737300000000000000000000000000000000000000000000000000000000 DUP2 MSTORE POP SWAP1 POP PUSH2 0x2FD JUMP JUMPDEST PUSH1 0x40 MLOAD DUP1 PUSH1 0x40 ADD PUSH1 0x40 MSTORE DUP1 PUSH1 0x4 DUP2 MSTORE PUSH1 0x20 ADD PUSH32 0x4661696C00000000000000000000000000000000000000000000000000000000 DUP2 MSTORE POP SWAP1 POP JUMPDEST JUMPDEST PUSH1 0x40 MLOAD DUP1 PUSH1 0x60 ADD PUSH1 0x40 MSTORE DUP1 DUP5 DUP2 MSTORE PUSH1 0x20 ADD DUP4 DUP2 MSTORE PUSH1 0x20 ADD DUP3 DUP2 MSTORE POP PUSH0 DUP5 PUSH1 0x40 MLOAD PUSH2 0x328 SWAP2 SWAP1 PUSH2 0x7C8 JUMP JUMPDEST SWAP1 DUP2 MSTORE PUSH1 0x20 ADD PUSH1 0x40 MLOAD DUP1 SWAP2 SUB SWAP1 KECCAK256 PUSH0 DUP3 ADD MLOAD DUP2 PUSH0 ADD SWAP1 DUP2 PUSH2 0x349 SWAP2 SWAP1 PUSH2 0x9DB JUMP JUMPDEST POP PUSH1 0x20 DUP3 ADD MLOAD DUP2 PUSH1 0x1 ADD SSTORE PUSH1 0x40 DUP3 ADD MLOAD DUP2 PUSH1 0x2 ADD SWAP1 DUP2 PUSH2 0x369 SWAP2 SWAP1 PUSH2 0x9DB JUMP JUMPDEST POP SWAP1 POP POP POP POP POP JUMP JUMPDEST PUSH0 DUP2 DUP1 MLOAD PUSH1 0x20 DUP2 ADD DUP3 ADD DUP1 MLOAD DUP5 DUP3 MSTORE PUSH1 0x20 DUP4 ADD PUSH1 0x20 DUP6 ADD KECCAK256 DUP2 DUP4 MSTORE DUP1 SWAP6 POP POP POP POP POP POP PUSH0 SWAP2 POP SWAP1 POP DUP1 PUSH0 ADD DUP1 SLOAD PUSH2 0x3A8 SWAP1 PUSH2 0x80B JUMP JUMPDEST DUP1 PUSH1 0x1F ADD PUSH1 0x20 DUP1 SWAP2 DIV MUL PUSH1 0x20 ADD PUSH1 0x40 MLOAD SWAP1 DUP2 ADD PUSH1 0x40 MSTORE DUP1 SWAP3 SWAP2 SWAP1 DUP2 DUP2 MSTORE PUSH1 0x20 ADD DUP3 DUP1 SLOAD PUSH2 0x3D4 SWAP1 PUSH2 0x80B JUMP JUMPDEST DUP1 ISZERO PUSH2 0x41F JUMPI DUP1 PUSH1 0x1F LT PUSH2 0x3F6 JUMPI PUSH2 0x100 DUP1 DUP4 SLOAD DIV MUL DUP4 MSTORE SWAP2 PUSH1 0x20 ADD SWAP2 PUSH2 0x41F JUMP JUMPDEST DUP3 ADD SWAP2 SWAP1 PUSH0 MSTORE PUSH1 0x20 PUSH0 KECCAK256 SWAP1 JUMPDEST DUP2 SLOAD DUP2 MSTORE SWAP1 PUSH1 0x1 ADD SWAP1 PUSH1 0x20 ADD DUP1 DUP4 GT PUSH2 0x402 JUMPI DUP3 SWAP1 SUB PUSH1 0x1F AND DUP3 ADD SWAP2 JUMPDEST POP POP POP POP POP SWAP1 DUP1 PUSH1 0x1 ADD SLOAD SWAP1 DUP1 PUSH1 0x2 ADD DUP1 SLOAD PUSH2 0x43A SWAP1 PUSH2 0x80B JUMP JUMPDEST DUP1 PUSH1 0x1F ADD PUSH1 0x20 DUP1 SWAP2 DIV MUL PUSH1 0x20 ADD PUSH1 0x40 MLOAD SWAP1 DUP2 ADD PUSH1 0x40 MSTORE DUP1 SWAP3 SWAP2 SWAP1 DUP2 DUP2 MSTORE PUSH1 0x20 ADD DUP3 DUP1 SLOAD PUSH2 0x466 SWAP1 PUSH2 0x80B JUMP JUMPDEST DUP1 ISZERO PUSH2 0x4B1 JUMPI DUP1 PUSH1 0x1F LT PUSH2 0x488 JUMPI PUSH2 0x100 DUP1 DUP4 SLOAD DIV MUL DUP4 MSTORE SWAP2 PUSH1 0x20 ADD SWAP2 PUSH2 0x4B1 JUMP JUMPDEST DUP3 ADD SWAP2 SWAP1 PUSH0 MSTORE PUSH1 0x20 PUSH0 KECCAK256 SWAP1 JUMPDEST DUP2 SLOAD DUP2 MSTORE SWAP1 PUSH1 0x1 ADD SWAP1 PUSH1 0x20 ADD DUP1 DUP4 GT PUSH2 0x494 JUMPI DUP3 SWAP1 SUB PUSH1 0x1F AND DUP3 ADD SWAP2 JUMPDEST POP POP POP POP POP SWAP1 POP DUP4 JUMP JUMPDEST PUSH0 PUSH1 0x40 MLOAD SWAP1 POP SWAP1 JUMP JUMPDEST PUSH0 PUSH0 REVERT JUMPDEST PUSH0 PUSH0 REVERT JUMPDEST PUSH0 PUSH0 REVERT JUMPDEST PUSH0 PUSH0 REVERT JUMPDEST PUSH0 PUSH1 0x1F NOT PUSH1 0x1F DUP4 ADD AND SWAP1 POP SWAP2 SWAP1 POP JUMP JUMPDEST PUSH32 0x4E487B7100000000000000000000000000000000000000000000000000000000 PUSH0 MSTORE PUSH1 0x41 PUSH1 0x4 MSTORE PUSH1 0x24 PUSH0 REVERT JUMPDEST PUSH2 0x51A DUP3 PUSH2 0x4D4 JUMP JUMPDEST DUP2 ADD DUP2 DUP2 LT PUSH8 0xFFFFFFFFFFFFFFFF DUP3 GT OR ISZERO PUSH2 0x539 JUMPI PUSH2 0x538 PUSH2 0x4E4 JUMP JUMPDEST JUMPDEST DUP1 PUSH1 0x40 MSTORE POP POP POP JUMP JUMPDEST PUSH0 PUSH2 0x54B PUSH2 0x4BB JUMP JUMPDEST SWAP1 POP PUSH2 0x557 DUP3 DUP3 PUSH2 0x511 JUMP JUMPDEST SWAP2 SWAP1 POP JUMP JUMPDEST PUSH0 PUSH8 0xFFFFFFFFFFFFFFFF DUP3 GT ISZERO PUSH2 0x576 JUMPI PUSH2 0x575 PUSH2 0x4E4 JUMP JUMPDEST JUMPDEST PUSH2 0x57F DUP3 PUSH2 0x4D4 JUMP JUMPDEST SWAP1 POP PUSH1 0x20 DUP2 ADD SWAP1 POP SWAP2 SWAP1 POP JUMP JUMPDEST DUP3 DUP2 DUP4 CALLDATACOPY PUSH0 DUP4 DUP4 ADD MSTORE POP POP POP JUMP JUMPDEST PUSH0 PUSH2 0x5AC PUSH2 0x5A7 DUP5 PUSH2 0x55C JUMP JUMPDEST PUSH2 0x542 JUMP JUMPDEST SWAP1 POP DUP3 DUP2 MSTORE PUSH1 0x20 DUP2 ADD DUP5 DUP5 DUP5 ADD GT ISZERO PUSH2 0x5C8 JUMPI PUSH2 0x5C7 PUSH2 0x4D0 JUMP JUMPDEST JUMPDEST PUSH2 0x5D3 DUP5 DUP3 DUP6 PUSH2 0x58C JUMP JUMPDEST POP SWAP4 SWAP3 POP POP POP JUMP JUMPDEST PUSH0 DUP3 PUSH1 0x1F DUP4 ADD SLT PUSH2 0x5EF JUMPI PUSH2 0x5EE PUSH2 0x4CC JUMP JUMPDEST JUMPDEST DUP2 CALLDATALOAD PUSH2 0x5FF DUP5 DUP3 PUSH1 0x20 DUP7 ADD PUSH2 0x59A JUMP JUMPDEST SWAP2 POP POP SWAP3 SWAP2 POP POP JUMP JUMPDEST PUSH0 PUSH1 0x20 DUP3 DUP5 SUB SLT ISZERO PUSH2 0x61D JUMPI PUSH2 0x61C PUSH2 0x4C4 JUMP JUMPDEST JUMPDEST PUSH0 DUP3 ADD CALLDATALOAD PUSH8 0xFFFFFFFFFFFFFFFF DUP2 GT ISZERO PUSH2 0x63A JUMPI PUSH2 0x639 PUSH2 0x4C8 JUMP JUMPDEST JUMPDEST PUSH2 0x646 DUP5 DUP3 DUP6 ADD PUSH2 0x5DB JUMP JUMPDEST SWAP2 POP POP SWAP3 SWAP2 POP POP JUMP JUMPDEST PUSH0 DUP2 MLOAD SWAP1 POP SWAP2 SWAP1 POP JUMP JUMPDEST PUSH0 DUP3 DUP3 MSTORE PUSH1 0x20 DUP3 ADD SWAP1 POP SWAP3 SWAP2 POP POP JUMP JUMPDEST DUP3 DUP2 DUP4 MCOPY PUSH0 DUP4 DUP4 ADD MSTORE POP POP POP JUMP JUMPDEST PUSH0 PUSH2 0x681 DUP3 PUSH2 0x64F JUMP JUMPDEST PUSH2 0x68B DUP2 DUP6 PUSH2 0x659 JUMP JUMPDEST SWAP4 POP PUSH2 0x69B DUP2 DUP6 PUSH1 0x20 DUP7 ADD PUSH2 0x669 JUMP JUMPDEST PUSH2 0x6A4 DUP2 PUSH2 0x4D4 JUMP JUMPDEST DUP5 ADD SWAP2 POP POP SWAP3 SWAP2 POP POP JUMP JUMPDEST PUSH0 DUP2 SWAP1 POP SWAP2 SWAP1 POP JUMP JUMPDEST PUSH2 0x6C1 DUP2 PUSH2 0x6AF JUMP JUMPDEST DUP3 MSTORE POP POP JUMP JUMPDEST PUSH0 PUSH1 0x60 DUP3 ADD SWAP1 POP DUP2 DUP2 SUB PUSH0 DUP4 ADD MSTORE PUSH2 0x6DF DUP2 DUP7 PUSH2 0x677 JUMP JUMPDEST SWAP1 POP PUSH2 0x6EE PUSH1 0x20 DUP4 ADD DUP6 PUSH2 0x6B8 JUMP JUMPDEST DUP2 DUP2 SUB PUSH1 0x40 DUP4 ADD MSTORE PUSH2 0x700 DUP2 DUP5 PUSH2 0x677 JUMP JUMPDEST SWAP1 POP SWAP5 SWAP4 POP POP POP POP JUMP JUMPDEST PUSH2 0x713 DUP2 PUSH2 0x6AF JUMP JUMPDEST DUP2 EQ PUSH2 0x71D JUMPI PUSH0 PUSH0 REVERT JUMPDEST POP JUMP JUMPDEST PUSH0 DUP2 CALLDATALOAD SWAP1 POP PUSH2 0x72E DUP2 PUSH2 0x70A JUMP JUMPDEST SWAP3 SWAP2 POP POP JUMP JUMPDEST PUSH0 PUSH0 PUSH1 0x40 DUP4 DUP6 SUB SLT ISZERO PUSH2 0x74A JUMPI PUSH2 0x749 PUSH2 0x4C4 JUMP JUMPDEST JUMPDEST PUSH0 DUP4 ADD CALLDATALOAD PUSH8 0xFFFFFFFFFFFFFFFF DUP2 GT ISZERO PUSH2 0x767 JUMPI PUSH2 0x766 PUSH2 0x4C8 JUMP JUMPDEST JUMPDEST PUSH2 0x773 DUP6 DUP3 DUP7 ADD PUSH2 0x5DB JUMP JUMPDEST SWAP3 POP POP PUSH1 0x20 PUSH2 0x784 DUP6 DUP3 DUP7 ADD PUSH2 0x720 JUMP JUMPDEST SWAP2 POP POP SWAP3 POP SWAP3 SWAP1 POP JUMP JUMPDEST PUSH0 DUP2 SWAP1 POP SWAP3 SWAP2 POP POP JUMP JUMPDEST PUSH0 PUSH2 0x7A2 DUP3 PUSH2 0x64F JUMP JUMPDEST PUSH2 0x7AC DUP2 DUP6 PUSH2 0x78E JUMP JUMPDEST SWAP4 POP PUSH2 0x7BC DUP2 DUP6 PUSH1 0x20 DUP7 ADD PUSH2 0x669 JUMP JUMPDEST DUP1 DUP5 ADD SWAP2 POP POP SWAP3 SWAP2 POP POP JUMP JUMPDEST PUSH0 PUSH2 0x7D3 DUP3 DUP5 PUSH2 0x798 JUMP JUMPDEST SWAP2 POP DUP2 SWAP1 POP SWAP3 SWAP2 POP POP JUMP JUMPDEST PUSH32 0x4E487B7100000000000000000000000000000000000000000000000000000000 PUSH0 MSTORE PUSH1 0x22 PUSH1 0x4 MSTORE PUSH1 0x24 PUSH0 REVERT JUMPDEST PUSH0 PUSH1 0x2 DUP3 DIV SWAP1 POP PUSH1 0x1 DUP3 AND DUP1 PUSH2 0x822 JUMPI PUSH1 0x7F DUP3 AND SWAP2 POP JUMPDEST PUSH1 0x20 DUP3 LT DUP2 SUB PUSH2 0x835 JUMPI PUSH2 0x834 PUSH2 0x7DE JUMP JUMPDEST JUMPDEST POP SWAP2 SWAP1 POP JUMP JUMPDEST PUSH0 DUP2 SWAP1 POP DUP2 PUSH0 MSTORE PUSH1 0x20 PUSH0 KECCAK256 SWAP1 POP SWAP2 SWAP1 POP JUMP JUMPDEST PUSH0 PUSH1 0x20 PUSH1 0x1F DUP4 ADD DIV SWAP1 POP SWAP2 SWAP1 POP JUMP JUMPDEST PUSH0 DUP3 DUP3 SHL SWAP1 POP SWAP3 SWAP2 POP POP JUMP JUMPDEST PUSH0 PUSH1 0x8 DUP4 MUL PUSH2 0x897 PUSH32 0xFFFFFFFFFFFFFFFFFFFFFFFFFFFFFFFFFFFFFFFFFFFFFFFFFFFFFFFFFFFFFFFF DUP3 PUSH2 0x85C JUMP JUMPDEST PUSH2 0x8A1 DUP7 DUP4 PUSH2 0x85C JUMP JUMPDEST SWAP6 POP DUP1 NOT DUP5 AND SWAP4 POP DUP1 DUP7 AND DUP5 OR SWAP3 POP POP POP SWAP4 SWAP3 POP POP POP JUMP JUMPDEST PUSH0 DUP2 SWAP1 POP SWAP2 SWAP1 POP JUMP JUMPDEST PUSH0 PUSH2 0x8DC PUSH2 0x8D7 PUSH2 0x8D2 DUP5 PUSH2 0x6AF JUMP JUMPDEST PUSH2 0x8B9 JUMP JUMPDEST PUSH2 0x6AF JUMP JUMPDEST SWAP1 POP SWAP2 SWAP1 POP JUMP JUMPDEST PUSH0 DUP2 SWAP1 POP SWAP2 SWAP1 POP JUMP JUMPDEST PUSH2 0x8F5 DUP4 PUSH2 0x8C2 JUMP JUMPDEST PUSH2 0x909 PUSH2 0x901 DUP3 PUSH2 0x8E3 JUMP JUMPDEST DUP5 DUP5 SLOAD PUSH2 0x868 JUMP JUMPDEST DUP3 SSTORE POP POP POP POP JUMP JUMPDEST PUSH0 PUSH0 SWAP1 POP SWAP1 JUMP JUMPDEST PUSH2 0x920 PUSH2 0x911 JUMP JUMPDEST PUSH2 0x92B DUP2 DUP5 DUP5 PUSH2 0x8EC JUMP JUMPDEST POP POP POP JUMP JUMPDEST JUMPDEST DUP2 DUP2 LT ISZERO PUSH2 0x94E JUMPI PUSH2 0x943 PUSH0 DUP3 PUSH2 0x918 JUMP JUMPDEST PUSH1 0x1 DUP2 ADD SWAP1 POP PUSH2 0x931 JUMP JUMPDEST POP POP JUMP JUMPDEST PUSH1 0x1F DUP3 GT ISZERO PUSH2 0x993 JUMPI PUSH2 0x964 DUP2 PUSH2 0x83B JUMP JUMPDEST PUSH2 0x96D DUP5 PUSH2 0x84D JUMP JUMPDEST DUP2 ADD PUSH1 0x20 DUP6 LT ISZERO PUSH2 0x97C JUMPI DUP2 SWAP1 POP JUMPDEST PUSH2 0x990 PUSH2 0x988 DUP6 PUSH2 0x84D JUMP JUMPDEST DUP4 ADD DUP3 PUSH2 0x930 JUMP JUMPDEST POP POP JUMPDEST POP POP POP JUMP JUMPDEST PUSH0 DUP3 DUP3 SHR SWAP1 POP SWAP3 SWAP2 POP POP JUMP JUMPDEST PUSH0 PUSH2 0x9B3 PUSH0 NOT DUP5 PUSH1 0x8 MUL PUSH2 0x998 JUMP JUMPDEST NOT DUP1 DUP4 AND SWAP2 POP POP SWAP3 SWAP2 POP POP JUMP JUMPDEST PUSH0 PUSH2 0x9CB DUP4 DUP4 PUSH2 0x9A4 JUMP JUMPDEST SWAP2 POP DUP3 PUSH1 0x2 MUL DUP3 OR SWAP1 POP SWAP3 SWAP2 POP POP JUMP JUMPDEST PUSH2 0x9E4 DUP3 PUSH2 0x64F JUMP JUMPDEST PUSH8 0xFFFFFFFFFFFFFFFF DUP2 GT ISZERO PUSH2 0x9FD JUMPI PUSH2 0x9FC PUSH2 0x4E4 JUMP JUMPDEST JUMPDEST PUSH2 0xA07 DUP3 SLOAD PUSH2 0x80B JUMP JUMPDEST PUSH2 0xA12 DUP3 DUP3 DUP6 PUSH2 0x952 JUMP JUMPDEST PUSH0 PUSH1 0x20 SWAP1 POP PUSH1 0x1F DUP4 GT PUSH1 0x1 DUP2 EQ PUSH2 0xA43 JUMPI PUSH0 DUP5 ISZERO PUSH2 0xA31 JUMPI DUP3 DUP8 ADD MLOAD SWAP1 POP JUMPDEST PUSH2 0xA3B DUP6 DUP3 PUSH2 0x9C0 JUMP JUMPDEST DUP7 SSTORE POP PUSH2 0xAA2 JUMP JUMPDEST PUSH1 0x1F NOT DUP5 AND PUSH2 0xA51 DUP7 PUSH2 0x83B JUMP JUMPDEST PUSH0 JUMPDEST DUP3 DUP2 LT ISZERO PUSH2 0xA78 JUMPI DUP5 DUP10 ADD MLOAD DUP3 SSTORE PUSH1 0x1 DUP3 ADD SWAP2 POP PUSH1 0x20 DUP6 ADD SWAP5 POP PUSH1 0x20 DUP2 ADD SWAP1 POP PUSH2 0xA53 JUMP JUMPDEST DUP7 DUP4 LT ISZERO PUSH2 0xA95 JUMPI DUP5 DUP10 ADD MLOAD PUSH2 0xA91 PUSH1 0x1F DUP10 AND DUP3 PUSH2 0x9A4 JUMP JUMPDEST DUP4 SSTORE POP JUMPDEST PUSH1 0x1 PUSH1 0x2 DUP9 MUL ADD DUP9 SSTORE POP POP POP JUMPDEST POP POP POP POP POP POP JUMP INVALID LOG2 PUSH5 0x6970667358 0x22 SLT KECCAK256 0x4B 0xEB SWAP5 DUP11 PUSH10 0x689DB23347E61384925C GAS KECCAK256 ORIGIN ORIGIN 0xB7 0xC5 LOG3 SWAP16 0x2F 0x4F MULMOD LOG0 JUMP PUSH13 0xD80B9564736F6C634300081F00 CALLER "
		},
		"gasEstimates": {
			"creation": {
				"codeDepositCost": "556800",
				"executionCost": "585",
				"totalCost": "557385"
			},
			"external": {
				"getStudentDetails(string)": "infinite",
				"setStudentDetails(string,uint256)": "infinite",
				"students(string)": "infinite"
			}
		},
		"methodIdentifiers": {
			"getStudentDetails(string)": "8805f0f4",
			"setStudentDetails(string,uint256)": "a7cc1582",
			"students(string)": "c7ef6bfb"
		}
	},
	"abi": [
		{
			"inputs": [
				{
					"internalType": "string",
					"name": "_name",
					"type": "string"
				}
			],
			"name": "getStudentDetails",
			"outputs": [
				{
					"internalType": "string",
					"name": "",
					"type": "string"
				},
				{
					"internalType": "uint256",
					"name": "",
					"type": "uint256"
				},
				{
					"internalType": "string",
					"name": "",
					"type": "string"
				}
			],
			"stateMutability": "view",
			"type": "function"
		},
		{
			"inputs": [
				{
					"internalType": "string",
					"name": "_name",
					"type": "string"
				},
				{
					"internalType": "uint256",
					"name": "_marks",
					"type": "uint256"
				}
			],
			"name": "setStudentDetails",
			"outputs": [],
			"stateMutability": "nonpayable",
			"type": "function"
		},
		{
			"inputs": [
				{
					"internalType": "string",
					"name": "",
					"type": "string"
				}
			],
			"name": "students",
			"outputs": [
				{
					"internalType": "string",
					"name": "name",
					"type": "string"
				},
				{
					"internalType": "uint256",
					"name": "marks",
					"type": "uint256"
				},
				{
					"internalType": "string",
					"name": "result",
					"type": "string"
				}
			],
			"stateMutability": "view",
			"type": "function"
		}
	]
}