{
	"data": {
		"bytecode": {
			"linkReferences": {},
			"object": "6080604052348015600e575f5ffd5b50610a728061001c5f395ff3fe608060405234801561000f575f5ffd5b506004361061004a575f3560e01c80630450f0b41461004e57806306ead22e1461006a57806328bcb51a1461009d578063642f9163146100bb575b5f5ffd5b61006860048036038101906100639190610553565b6100ee565b005b610084600480360381019061007f91906105d3565b6101a7565b60405161009494939291906106e0565b60405180910390f35b6100a5610273565b6040516100b2919061072a565b60405180910390f35b6100d560048036038101906100d091906105d3565b61027e565b6040516100e594939291906106e0565b60405180910390f35b5f604051806080016040528086815260200185815260200184815260200183600281111561011f5761011e61066d565b5b815250908060018154018082558091505060019003905f5260205f2090600402015f909190919091505f820151815f015560208201518160010190816101659190610940565b50604082015181600201556060820151816003015f6101000a81548160ff0219169083600281111561019a5761019961066d565b5b0217905550505050505050565b5f81815481106101b5575f80fd5b905f5260205f2090600402015f91509050805f0154908060010180546101da90610770565b80601f016020809104026020016040519081016040528092919081815260200182805461020690610770565b80156102515780601f1061022857610100808354040283529160200191610251565b820191905f5260205f20905b81548152906001019060200180831161023457829003601f168201915b505050505090806002015490806003015f9054906101000a900460ff16905084565b5f5f80549050905090565b5f60605f5f5f5f868154811061029757610296610a0f565b5b905f5260205f2090600402016040518060800160405290815f82015481526020016001820180546102c790610770565b80601f01602080910402602001604051908101604052809291908181526020018280546102f390610770565b801561033e5780601f106103155761010080835404028352916020019161033e565b820191905f5260205f20905b81548152906001019060200180831161032157829003601f168201915b5050505050815260200160028201548152602001600382015f9054906101000a900460ff1660028111156103755761037461066d565b5b60028111156103875761038661066d565b5b815250509050805f01518160200151826040015183606001519450945094509450509193509193565b5f604051905090565b5f5ffd5b5f5ffd5b5f819050919050565b6103d3816103c1565b81146103dd575f5ffd5b50565b5f813590506103ee816103ca565b92915050565b5f5ffd5b5f5ffd5b5f601f19601f8301169050919050565b7f4e487b71000000000000000000000000000000000000000000000000000000005f52604160045260245ffd5b610442826103fc565b810181811067ffffffffffffffff821117156104615761046061040c565b5b80604052505050565b5f6104736103b0565b905061047f8282610439565b919050565b5f67ffffffffffffffff82111561049e5761049d61040c565b5b6104a7826103fc565b9050602081019050919050565b828183375f83830152505050565b5f6104d46104cf84610484565b61046a565b9050828152602081018484840111156104f0576104ef6103f8565b5b6104fb8482856104b4565b509392505050565b5f82601f830112610517576105166103f4565b5b81356105278482602086016104c2565b91505092915050565b6003811061053c575f5ffd5b50565b5f8135905061054d81610530565b92915050565b5f5f5f5f6080858703121561056b5761056a6103b9565b5b5f610578878288016103e0565b945050602085013567ffffffffffffffff811115610599576105986103bd565b5b6105a587828801610503565b93505060406105b6878288016103e0565b92505060606105c78782880161053f565b91505092959194509250565b5f602082840312156105e8576105e76103b9565b5b5f6105f5848285016103e0565b91505092915050565b610607816103c1565b82525050565b5f81519050919050565b5f82825260208201905092915050565b8281835e5f83830152505050565b5f61063f8261060d565b6106498185610617565b9350610659818560208601610627565b610662816103fc565b840191505092915050565b7f4e487b71000000000000000000000000000000000000000000000000000000005f52602160045260245ffd5b600381106106ab576106aa61066d565b5b50565b5f8190506106bb8261069a565b919050565b5f6106ca826106ae565b9050919050565b6106da816106c0565b82525050565b5f6080820190506106f35f8301876105fe565b81810360208301526107058186610635565b905061071460408301856105fe565b61072160608301846106d1565b95945050505050565b5f60208201905061073d5f8301846105fe565b92915050565b7f4e487b71000000000000000000000000000000000000000000000000000000005f52602260045260245ffd5b5f600282049050600182168061078757607f821691505b60208210810361079a57610799610743565b5b50919050565b5f819050815f5260205f209050919050565b5f6020601f8301049050919050565b5f82821b905092915050565b5f600883026107fc7fffffffffffffffffffffffffffffffffffffffffffffffffffffffffffffffff826107c1565b61080686836107c1565b95508019841693508086168417925050509392505050565b5f819050919050565b5f61084161083c610837846103c1565b61081e565b6103c1565b9050919050565b5f819050919050565b61085a83610827565b61086e61086682610848565b8484546107cd565b825550505050565b5f5f905090565b610885610876565b610890818484610851565b505050565b5b818110156108b3576108a85f8261087d565b600181019050610896565b5050565b601f8211156108f8576108c9816107a0565b6108d2846107b2565b810160208510156108e1578190505b6108f56108ed856107b2565b830182610895565b50505b505050565b5f82821c905092915050565b5f6109185f19846008026108fd565b1980831691505092915050565b5f6109308383610909565b9150826002028217905092915050565b6109498261060d565b67ffffffffffffffff8111156109625761096161040c565b5b61096c8254610770565b6109778282856108b7565b5f60209050601f8311600181146109a8575f8415610996578287015190505b6109a08582610925565b865550610a07565b601f1984166109b6866107a0565b5f5b828110156109dd578489015182556001820191506020850194506020810190506109b8565b868310156109fa57848901516109f6601f891682610909565b8355505b6001600288020188555050505b505050505050565b7f4e487b71000000000000000000000000000000000000000000000000000000005f52603260045260245ffdfea26469706673582212202ce4b7e9fe1903b2bc18de909ba7e4946aaee7eeab17914520f75b953b3efd5264736f6c634300081f0033",
			"opcodes": "PUSH1 0x80 PUSH1 0x40 MSTORE CALLVALUE DUP1 ISZERO PUSH1 0xE JUMPI PUSH0 PUSH0 REVERT JUMPDEST POP PUSH2 0xA72 DUP1 PUSH2 0x1C PUSH0 CODECOPY PUSH0 RETURN INVALID PUSH1 0x80 PUSH1 0x40 MSTORE CALLVALUE DUP1 ISZERO PUSH2 0xF JUMPI PUSH0 PUSH0 REVERT JUMPDEST POP PUSH1 0x4 CALLDATASIZE LT PUSH2 0x4A JUMPI PUSH0 CALLDATALOAD PUSH1 0xE0 SHR DUP1 PUSH4 0x450F0B4 EQ PUSH2 0x4E JUMPI DUP1 PUSH4 0x6EAD22E EQ PUSH2 0x6A JUMPI DUP1 PUSH4 0x28BCB51A EQ PUSH2 0x9D JUMPI DUP1 PUSH4 0x642F9163 EQ PUSH2 0xBB JUMPI JUMPDEST PUSH0 PUSH0 REVERT JUMPDEST PUSH2 0x68 PUSH1 0x4 DUP1 CALLDATASIZE SUB DUP2 ADD SWAP1 PUSH2 0x63 SWAP2 SWAP1 PUSH2 0x553 JUMP JUMPDEST PUSH2 0xEE JUMP JUMPDEST STOP JUMPDEST PUSH2 0x84 PUSH1 0x4 DUP1 CALLDATASIZE SUB DUP2 ADD SWAP1 PUSH2 0x7F SWAP2 SWAP1 PUSH2 0x5D3 JUMP JUMPDEST PUSH2 0x1A7 JUMP JUMPDEST PUSH1 0x40 MLOAD PUSH2 0x94 SWAP5 SWAP4 SWAP3 SWAP2 SWAP1 PUSH2 0x6E0 JUMP JUMPDEST PUSH1 0x40 MLOAD DUP1 SWAP2 SUB SWAP1 RETURN JUMPDEST PUSH2 0xA5 PUSH2 0x273 JUMP JUMPDEST PUSH1 0x40 MLOAD PUSH2 0xB2 SWAP2 SWAP1 PUSH2 0x72A JUMP JUMPDEST PUSH1 0x40 MLOAD DUP1 SWAP2 SUB SWAP1 RETURN JUMPDEST PUSH2 0xD5 PUSH1 0x4 DUP1 CALLDATASIZE SUB DUP2 ADD SWAP1 PUSH2 0xD0 SWAP2 SWAP1 PUSH2 0x5D3 JUMP JUMPDEST PUSH2 0x27E JUMP JUMPDEST PUSH1 0x40 MLOAD PUSH2 0xE5 SWAP5 SWAP4 SWAP3 SWAP2 SWAP1 PUSH2 0x6E0 JUMP JUMPDEST PUSH1 0x40 MLOAD DUP1 SWAP2 SUB SWAP1 RETURN JUMPDEST PUSH0 PUSH1 0x40 MLOAD DUP1 PUSH1 0x80 ADD PUSH1 0x40 MSTORE DUP1 DUP7 DUP2 MSTORE PUSH1 0x20 ADD DUP6 DUP2 MSTORE PUSH1 0x20 ADD DUP5 DUP2 MSTORE PUSH1 0x20 ADD DUP4 PUSH1 0x2 DUP2 GT ISZERO PUSH2 0x11F JUMPI PUSH2 0x11E PUSH2 0x66D JUMP JUMPDEST JUMPDEST DUP2 MSTORE POP SWAP1 DUP1 PUSH1 0x1 DUP2 SLOAD ADD DUP1 DUP3 SSTORE DUP1 SWAP2 POP POP PUSH1 0x1 SWAP1 SUB SWAP1 PUSH0 MSTORE PUSH1 0x20 PUSH0 KECCAK256 SWAP1 PUSH1 0x4 MUL ADD PUSH0 SWAP1 SWAP2 SWAP1 SWAP2 SWAP1 SWAP2 POP PUSH0 DUP3 ADD MLOAD DUP2 PUSH0 ADD SSTORE PUSH1 0x20 DUP3 ADD MLOAD DUP2 PUSH1 0x1 ADD SWAP1 DUP2 PUSH2 0x165 SWAP2 SWAP1 PUSH2 0x940 JUMP JUMPDEST POP PUSH1 0x40 DUP3 ADD MLOAD DUP2 PUSH1 0x2 ADD SSTORE PUSH1 0x60 DUP3 ADD MLOAD DUP2 PUSH1 0x3 ADD PUSH0 PUSH2 0x100 EXP DUP2 SLOAD DUP2 PUSH1 0xFF MUL NOT AND SWAP1 DUP4 PUSH1 0x2 DUP2 GT ISZERO PUSH2 0x19A JUMPI PUSH2 0x199 PUSH2 0x66D JUMP JUMPDEST JUMPDEST MUL OR SWAP1 SSTORE POP POP POP POP POP POP POP JUMP JUMPDEST PUSH0 DUP2 DUP2 SLOAD DUP2 LT PUSH2 0x1B5 JUMPI PUSH0 DUP1 REVERT JUMPDEST SWAP1 PUSH0 MSTORE PUSH1 0x20 PUSH0 KECCAK256 SWAP1 PUSH1 0x4 MUL ADD PUSH0 SWAP2 POP SWAP1 POP DUP1 PUSH0 ADD SLOAD SWAP1 DUP1 PUSH1 0x1 ADD DUP1 SLOAD PUSH2 0x1DA SWAP1 PUSH2 0x770 JUMP JUMPDEST DUP1 PUSH1 0x1F ADD PUSH1 0x20 DUP1 SWAP2 DIV MUL PUSH1 0x20 ADD PUSH1 0x40 MLOAD SWAP1 DUP2 ADD PUSH1 0x40 MSTORE DUP1 SWAP3 SWAP2 SWAP1 DUP2 DUP2 MSTORE PUSH1 0x20 ADD DUP3 DUP1 SLOAD PUSH2 0x206 SWAP1 PUSH2 0x770 JUMP JUMPDEST DUP1 ISZERO PUSH2 0x251 JUMPI DUP1 PUSH1 0x1F LT PUSH2 0x228 JUMPI PUSH2 0x100 DUP1 DUP4 SLOAD DIV MUL DUP4 MSTORE SWAP2 PUSH1 0x20 ADD SWAP2 PUSH2 0x251 JUMP JUMPDEST DUP3 ADD SWAP2 SWAP1 PUSH0 MSTORE PUSH1 0x20 PUSH0 KECCAK256 SWAP1 JUMPDEST DUP2 SLOAD DUP2 MSTORE SWAP1 PUSH1 0x1 ADD SWAP1 PUSH1 0x20 ADD DUP1 DUP4 GT PUSH2 0x234 JUMPI DUP3 SWAP1 SUB PUSH1 0x1F AND DUP3 ADD SWAP2 JUMPDEST POP POP POP POP POP SWAP1 DUP1 PUSH1 0x2 ADD SLOAD SWAP1 DUP1 PUSH1 0x3 ADD PUSH0 SWAP1 SLOAD SWAP1 PUSH2 0x100 EXP SWAP1 DIV PUSH1 0xFF AND SWAP1 POP DUP5 JUMP JUMPDEST PUSH0 PUSH0 DUP1 SLOAD SWAP1 POP SWAP1 POP SWAP1 JUMP JUMPDEST PUSH0 PUSH1 0x60 PUSH0 PUSH0 PUSH0 PUSH0 DUP7 DUP2 SLOAD DUP2 LT PUSH2 0x297 JUMPI PUSH2 0x296 PUSH2 0xA0F JUMP JUMPDEST JUMPDEST SWAP1 PUSH0 MSTORE PUSH1 0x20 PUSH0 KECCAK256 SWAP1 PUSH1 0x4 MUL ADD PUSH1 0x40 MLOAD DUP1 PUSH1 0x80 ADD PUSH1 0x40 MSTORE SWAP1 DUP2 PUSH0 DUP3 ADD SLOAD DUP2 MSTORE PUSH1 0x20 ADD PUSH1 0x1 DUP3 ADD DUP1 SLOAD PUSH2 0x2C7 SWAP1 PUSH2 0x770 JUMP JUMPDEST DUP1 PUSH1 0x1F ADD PUSH1 0x20 DUP1 SWAP2 DIV MUL PUSH1 0x20 ADD PUSH1 0x40 MLOAD SWAP1 DUP2 ADD PUSH1 0x40 MSTORE DUP1 SWAP3 SWAP2 SWAP1 DUP2 DUP2 MSTORE PUSH1 0x20 ADD DUP3 DUP1 SLOAD PUSH2 0x2F3 SWAP1 PUSH2 0x770 JUMP JUMPDEST DUP1 ISZERO PUSH2 0x33E JUMPI DUP1 PUSH1 0x1F LT PUSH2 0x315 JUMPI PUSH2 0x100 DUP1 DUP4 SLOAD DIV MUL DUP4 MSTORE SWAP2 PUSH1 0x20 ADD SWAP2 PUSH2 0x33E JUMP JUMPDEST DUP3 ADD SWAP2 SWAP1 PUSH0 MSTORE PUSH1 0x20 PUSH0 KECCAK256 SWAP1 JUMPDEST DUP2 SLOAD DUP2 MSTORE SWAP1 PUSH1 0x1 ADD SWAP1 PUSH1 0x20 ADD DUP1 DUP4 GT PUSH2 0x321 JUMPI DUP3 SWAP1 SUB PUSH1 0x1F AND DUP3 ADD SWAP2 JUMPDEST POP POP POP POP POP DUP2 MSTORE PUSH1 0x20 ADD PUSH1 0x2 DUP3 ADD SLOAD DUP2 MSTORE PUSH1 0x20 ADD PUSH1 0x3 DUP3 ADD PUSH0 SWAP1 SLOAD SWAP1 PUSH2 0x100 EXP SWAP1 DIV PUSH1 0xFF AND PUSH1 0x2 DUP2 GT ISZERO PUSH2 0x375 JUMPI PUSH2 0x374 PUSH2 0x66D JUMP JUMPDEST JUMPDEST PUSH1 0x2 DUP2 GT ISZERO PUSH2 0x387 JUMPI PUSH2 0x386 PUSH2 0x66D JUMP JUMPDEST JUMPDEST DUP2 MSTORE POP POP SWAP1 POP DUP1 PUSH0 ADD MLOAD DUP2 PUSH1 0x20 ADD MLOAD DUP3 PUSH1 0x40 ADD MLOAD DUP4 PUSH1 0x60 ADD MLOAD SWAP5 POP SWAP5 POP SWAP5 POP SWAP5 POP POP SWAP2 SWAP4 POP SWAP2 SWAP4 JUMP JUMPDEST PUSH0 PUSH1 0x40 MLOAD SWAP1 POP SWAP1 JUMP JUMPDEST PUSH0 PUSH0 REVERT JUMPDEST PUSH0 PUSH0 REVERT JUMPDEST PUSH0 DUP2 SWAP1 POP SWAP2 SWAP1 POP JUMP JUMPDEST PUSH2 0x3D3 DUP2 PUSH2 0x3C1 JUMP JUMPDEST DUP2 EQ PUSH2 0x3DD JUMPI PUSH0 PUSH0 REVERT JUMPDEST POP JUMP JUMPDEST PUSH0 DUP2 CALLDATALOAD SWAP1 POP PUSH2 0x3EE DUP2 PUSH2 0x3CA JUMP JUMPDEST SWAP3 SWAP2 POP POP JUMP JUMPDEST PUSH0 PUSH0 REVERT JUMPDEST PUSH0 PUSH0 REVERT JUMPDEST PUSH0 PUSH1 0x1F NOT PUSH1 0x1F DUP4 ADD AND SWAP1 POP SWAP2 SWAP1 POP JUMP JUMPDEST PUSH32 0x4E487B7100000000000000000000000000000000000000000000000000000000 PUSH0 MSTORE PUSH1 0x41 PUSH1 0x4 MSTORE PUSH1 0x24 PUSH0 REVERT JUMPDEST PUSH2 0x442 DUP3 PUSH2 0x3FC JUMP JUMPDEST DUP2 ADD DUP2 DUP2 LT PUSH8 0xFFFFFFFFFFFFFFFF DUP3 GT OR ISZERO PUSH2 0x461 JUMPI PUSH2 0x460 PUSH2 0x40C JUMP JUMPDEST JUMPDEST DUP1 PUSH1 0x40 MSTORE POP POP POP JUMP JUMPDEST PUSH0 PUSH2 0x473 PUSH2 0x3B0 JUMP JUMPDEST SWAP1 POP PUSH2 0x47F DUP3 DUP3 PUSH2 0x439 JUMP JUMPDEST SWAP2 SWAP1 POP JUMP JUMPDEST PUSH0 PUSH8 0xFFFFFFFFFFFFFFFF DUP3 GT ISZERO PUSH2 0x49E JUMPI PUSH2 0x49D PUSH2 0x40C JUMP JUMPDEST JUMPDEST PUSH2 0x4A7 DUP3 PUSH2 0x3FC JUMP JUMPDEST SWAP1 POP PUSH1 0x20 DUP2 ADD SWAP1 POP SWAP2 SWAP1 POP JUMP JUMPDEST DUP3 DUP2 DUP4 CALLDATACOPY PUSH0 DUP4 DUP4 ADD MSTORE POP POP POP JUMP JUMPDEST PUSH0 PUSH2 0x4D4 PUSH2 0x4CF DUP5 PUSH2 0x484 JUMP JUMPDEST PUSH2 0x46A JUMP JUMPDEST SWAP1 POP DUP3 DUP2 MSTORE PUSH1 0x20 DUP2 ADD DUP5 DUP5 DUP5 ADD GT ISZERO PUSH2 0x4F0 JUMPI PUSH2 0x4EF PUSH2 0x3F8 JUMP JUMPDEST JUMPDEST PUSH2 0x4FB DUP5 DUP3 DUP6 PUSH2 0x4B4 JUMP JUMPDEST POP SWAP4 SWAP3 POP POP POP JUMP JUMPDEST PUSH0 DUP3 PUSH1 0x1F DUP4 ADD SLT PUSH2 0x517 JUMPI PUSH2 0x516 PUSH2 0x3F4 JUMP JUMPDEST JUMPDEST DUP2 CALLDATALOAD PUSH2 0x527 DUP5 DUP3 PUSH1 0x20 DUP7 ADD PUSH2 0x4C2 JUMP JUMPDEST SWAP2 POP POP SWAP3 SWAP2 POP POP JUMP JUMPDEST PUSH1 0x3 DUP2 LT PUSH2 0x53C JUMPI PUSH0 PUSH0 REVERT JUMPDEST POP JUMP JUMPDEST PUSH0 DUP2 CALLDATALOAD SWAP1 POP PUSH2 0x54D DUP2 PUSH2 0x530 JUMP JUMPDEST SWAP3 SWAP2 POP POP JUMP JUMPDEST PUSH0 PUSH0 PUSH0 PUSH0 PUSH1 0x80 DUP6 DUP8 SUB SLT ISZERO PUSH2 0x56B JUMPI PUSH2 0x56A PUSH2 0x3B9 JUMP JUMPDEST JUMPDEST PUSH0 PUSH2 0x578 DUP8 DUP3 DUP9 ADD PUSH2 0x3E0 JUMP JUMPDEST SWAP5 POP POP PUSH1 0x20 DUP6 ADD CALLDATALOAD PUSH8 0xFFFFFFFFFFFFFFFF DUP2 GT ISZERO PUSH2 0x599 JUMPI PUSH2 0x598 PUSH2 0x3BD JUMP JUMPDEST JUMPDEST PUSH2 0x5A5 DUP8 DUP3 DUP9 ADD PUSH2 0x503 JUMP JUMPDEST SWAP4 POP POP PUSH1 0x40 PUSH2 0x5B6 DUP8 DUP3 DUP9 ADD PUSH2 0x3E0 JUMP JUMPDEST SWAP3 POP POP PUSH1 0x60 PUSH2 0x5C7 DUP8 DUP3 DUP9 ADD PUSH2 0x53F JUMP JUMPDEST SWAP2 POP POP SWAP3 SWAP6 SWAP2 SWAP5 POP SWAP3 POP JUMP JUMPDEST PUSH0 PUSH1 0x20 DUP3 DUP5 SUB SLT ISZERO PUSH2 0x5E8 JUMPI PUSH2 0x5E7 PUSH2 0x3B9 JUMP JUMPDEST JUMPDEST PUSH0 PUSH2 0x5F5 DUP5 DUP3 DUP6 ADD PUSH2 0x3E0 JUMP JUMPDEST SWAP2 POP POP SWAP3 SWAP2 POP POP JUMP JUMPDEST PUSH2 0x607 DUP2 PUSH2 0x3C1 JUMP JUMPDEST DUP3 MSTORE POP POP JUMP JUMPDEST PUSH0 DUP2 MLOAD SWAP1 POP SWAP2 SWAP1 POP JUMP JUMPDEST PUSH0 DUP3 DUP3 MSTORE PUSH1 0x20 DUP3 ADD SWAP1 POP SWAP3 SWAP2 POP POP JUMP JUMPDEST DUP3 DUP2 DUP4 MCOPY PUSH0 DUP4 DUP4 ADD MSTORE POP POP POP JUMP JUMPDEST PUSH0 PUSH2 0x63F DUP3 PUSH2 0x60D JUMP JUMPDEST PUSH2 0x649 DUP2 DUP6 PUSH2 0x617 JUMP JUMPDEST SWAP4 POP PUSH2 0x659 DUP2 DUP6 PUSH1 0x20 DUP7 ADD PUSH2 0x627 JUMP JUMPDEST PUSH2 0x662 DUP2 PUSH2 0x3FC JUMP JUMPDEST DUP5 ADD SWAP2 POP POP SWAP3 SWAP2 POP POP JUMP JUMPDEST PUSH32 0x4E487B7100000000000000000000000000000000000000000000000000000000 PUSH0 MSTORE PUSH1 0x21 PUSH1 0x4 MSTORE PUSH1 0x24 PUSH0 REVERT JUMPDEST PUSH1 0x3 DUP2 LT PUSH2 0x6AB JUMPI PUSH2 0x6AA PUSH2 0x66D JUMP JUMPDEST JUMPDEST POP JUMP JUMPDEST PUSH0 DUP2 SWAP1 POP PUSH2 0x6BB DUP3 PUSH2 0x69A JUMP JUMPDEST SWAP2 SWAP1 POP JUMP JUMPDEST PUSH0 PUSH2 0x6CA DUP3 PUSH2 0x6AE JUMP JUMPDEST SWAP1 POP SWAP2 SWAP1 POP JUMP JUMPDEST PUSH2 0x6DA DUP2 PUSH2 0x6C0 JUMP JUMPDEST DUP3 MSTORE POP POP JUMP JUMPDEST PUSH0 PUSH1 0x80 DUP3 ADD SWAP1 POP PUSH2 0x6F3 PUSH0 DUP4 ADD DUP8 PUSH2 0x5FE JUMP JUMPDEST DUP2 DUP2 SUB PUSH1 0x20 DUP4 ADD MSTORE PUSH2 0x705 DUP2 DUP7 PUSH2 0x635 JUMP JUMPDEST SWAP1 POP PUSH2 0x714 PUSH1 0x40 DUP4 ADD DUP6 PUSH2 0x5FE JUMP JUMPDEST PUSH2 0x721 PUSH1 0x60 DUP4 ADD DUP5 PUSH2 0x6D1 JUMP JUMPDEST SWAP6 SWAP5 POP POP POP POP POP JUMP JUMPDEST PUSH0 PUSH1 0x20 DUP3 ADD SWAP1 POP PUSH2 0x73D PUSH0 DUP4 ADD DUP5 PUSH2 0x5FE JUMP JUMPDEST SWAP3 SWAP2 POP POP JUMP JUMPDEST PUSH32 0x4E487B7100000000000000000000000000000000000000000000000000000000 PUSH0 MSTORE PUSH1 0x22 PUSH1 0x4 MSTORE PUSH1 0x24 PUSH0 REVERT JUMPDEST PUSH0 PUSH1 0x2 DUP3 DIV SWAP1 POP PUSH1 0x1 DUP3 AND DUP1 PUSH2 0x787 JUMPI PUSH1 0x7F DUP3 AND SWAP2 POP JUMPDEST PUSH1 0x20 DUP3 LT DUP2 SUB PUSH2 0x79A JUMPI PUSH2 0x799 PUSH2 0x743 JUMP JUMPDEST JUMPDEST POP SWAP2 SWAP1 POP JUMP JUMPDEST PUSH0 DUP2 SWAP1 POP DUP2 PUSH0 MSTORE PUSH1 0x20 PUSH0 KECCAK256 SWAP1 POP SWAP2 SWAP1 POP JUMP JUMPDEST PUSH0 PUSH1 0x20 PUSH1 0x1F DUP4 ADD DIV SWAP1 POP SWAP2 SWAP1 POP JUMP JUMPDEST PUSH0 DUP3 DUP3 SHL SWAP1 POP SWAP3 SWAP2 POP POP JUMP JUMPDEST PUSH0 PUSH1 0x8 DUP4 MUL PUSH2 0x7FC PUSH32 0xFFFFFFFFFFFFFFFFFFFFFFFFFFFFFFFFFFFFFFFFFFFFFFFFFFFFFFFFFFFFFFFF DUP3 PUSH2 0x7C1 JUMP JUMPDEST PUSH2 0x806 DUP7 DUP4 PUSH2 0x7C1 JUMP JUMPDEST SWAP6 POP DUP1 NOT DUP5 AND SWAP4 POP DUP1 DUP7 AND DUP5 OR SWAP3 POP POP POP SWAP4 SWAP3 POP POP POP JUMP JUMPDEST PUSH0 DUP2 SWAP1 POP SWAP2 SWAP1 POP JUMP JUMPDEST PUSH0 PUSH2 0x841 PUSH2 0x83C PUSH2 0x837 DUP5 PUSH2 0x3C1 JUMP JUMPDEST PUSH2 0x81E JUMP JUMPDEST PUSH2 0x3C1 JUMP JUMPDEST SWAP1 POP SWAP2 SWAP1 POP JUMP JUMPDEST PUSH0 DUP2 SWAP1 POP SWAP2 SWAP1 POP JUMP JUMPDEST PUSH2 0x85A DUP4 PUSH2 0x827 JUMP JUMPDEST PUSH2 0x86E PUSH2 0x866 DUP3 PUSH2 0x848 JUMP JUMPDEST DUP5 DUP5 SLOAD PUSH2 0x7CD JUMP JUMPDEST DUP3 SSTORE POP POP POP POP JUMP JUMPDEST PUSH0 PUSH0 SWAP1 POP SWAP1 JUMP JUMPDEST PUSH2 0x885 PUSH2 0x876 JUMP JUMPDEST PUSH2 0x890 DUP2 DUP5 DUP5 PUSH2 0x851 JUMP JUMPDEST POP POP POP JUMP JUMPDEST JUMPDEST DUP2 DUP2 LT ISZERO PUSH2 0x8B3 JUMPI PUSH2 0x8A8 PUSH0 DUP3 PUSH2 0x87D JUMP JUMPDEST PUSH1 0x1 DUP2 ADD SWAP1 POP PUSH2 0x896 JUMP JUMPDEST POP POP JUMP JUMPDEST PUSH1 0x1F DUP3 GT ISZERO PUSH2 0x8F8 JUMPI PUSH2 0x8C9 DUP2 PUSH2 0x7A0 JUMP JUMPDEST PUSH2 0x8D2 DUP5 PUSH2 0x7B2 JUMP JUMPDEST DUP2 ADD PUSH1 0x20 DUP6 LT ISZERO PUSH2 0x8E1 JUMPI DUP2 SWAP1 POP JUMPDEST PUSH2 0x8F5 PUSH2 0x8ED DUP6 PUSH2 0x7B2 JUMP JUMPDEST DUP4 ADD DUP3 PUSH2 0x895 JUMP JUMPDEST POP POP JUMPDEST POP POP POP JUMP JUMPDEST PUSH0 DUP3 DUP3 SHR SWAP1 POP SWAP3 SWAP2 POP POP JUMP JUMPDEST PUSH0 PUSH2 0x918 PUSH0 NOT DUP5 PUSH1 0x8 MUL PUSH2 0x8FD JUMP JUMPDEST NOT DUP1 DUP4 AND SWAP2 POP POP SWAP3 SWAP2 POP POP JUMP JUMPDEST PUSH0 PUSH2 0x930 DUP4 DUP4 PUSH2 0x909 JUMP JUMPDEST SWAP2 POP DUP3 PUSH1 0x2 MUL DUP3 OR SWAP1 POP SWAP3 SWAP2 POP POP JUMP JUMPDEST PUSH2 0x949 DUP3 PUSH2 0x60D JUMP JUMPDEST PUSH8 0xFFFFFFFFFFFFFFFF DUP2 GT ISZERO PUSH2 0x962 JUMPI PUSH2 0x961 PUSH2 0x40C JUMP JUMPDEST JUMPDEST PUSH2 0x96C DUP3 SLOAD PUSH2 0x770 JUMP JUMPDEST PUSH2 0x977 DUP3 DUP3 DUP6 PUSH2 0x8B7 JUMP JUMPDEST PUSH0 PUSH1 0x20 SWAP1 POP PUSH1 0x1F DUP4 GT PUSH1 0x1 DUP2 EQ PUSH2 0x9A8 JUMPI PUSH0 DUP5 ISZERO PUSH2 0x996 JUMPI DUP3 DUP8 ADD MLOAD SWAP1 POP JUMPDEST PUSH2 0x9A0 DUP6 DUP3 PUSH2 0x925 JUMP JUMPDEST DUP7 SSTORE POP PUSH2 0xA07 JUMP JUMPDEST PUSH1 0x1F NOT DUP5 AND PUSH2 0x9B6 DUP7 PUSH2 0x7A0 JUMP JUMPDEST PUSH0 JUMPDEST DUP3 DUP2 LT ISZERO PUSH2 0x9DD JUMPI DUP5 DUP10 ADD MLOAD DUP3 SSTORE PUSH1 0x1 DUP3 ADD SWAP2 POP PUSH1 0x20 DUP6 ADD SWAP5 POP PUSH1 0x20 DUP2 ADD SWAP1 POP PUSH2 0x9B8 JUMP JUMPDEST DUP7 DUP4 LT ISZERO PUSH2 0x9FA JUMPI DUP5 DUP10 ADD MLOAD PUSH2 0x9F6 PUSH1 0x1F DUP10 AND DUP3 PUSH2 0x909 JUMP JUMPDEST DUP4 SSTORE POP JUMPDEST PUSH1 0x1 PUSH1 0x2 DUP9 MUL ADD DUP9 SSTORE POP POP POP JUMPDEST POP POP POP POP POP POP JUMP JUMPDEST PUSH32 0x4E487B7100000000000000000000000000000000000000000000000000000000 PUSH0 MSTORE PUSH1 0x32 PUSH1 0x4 MSTORE PUSH1 0x24 PUSH0 REVERT INVALID LOG2 PUSH5 0x6970667358 0x22 SLT KECCAK256 0x2C RETF 0xB7 0xE9 INVALID NOT SUB 0xB2 0xBC XOR 0xDE SWAP1 SWAP12 0xA7 RETF SWAP5 PUSH11 0xAEE7EEAB17914520F75B95 EXTCODESIZE RETURNDATACOPY REVERT MSTORE PUSH5 0x736F6C6343 STOP ADDMOD 0x1F STOP CALLER "
		},
		"gasEstimates": {
			"creation": {
				"codeDepositCost": "534800",
				"executionCost": "566",
				"totalCost": "535366"
			},
			"external": {
				"getStudent(uint256)": "infinite",
				"getTotalStudents()": "2461",
				"setStudent(uint256,string,uint256,uint8)": "infinite",
				"students(uint256)": "infinite"
			}
		},
		"methodIdentifiers": {
			"getStudent(uint256)": "642f9163",
			"getTotalStudents()": "28bcb51a",
			"setStudent(uint256,string,uint256,uint8)": "0450f0b4",
			"students(uint256)": "06ead22e"
		}
	},
	"abi": [
		{
			"inputs": [
				{
					"internalType": "uint256",
					"name": "index",
					"type": "uint256"
				}
			],
			"name": "getStudent",
			"outputs": [
				{
					"internalType": "uint256",
					"name": "",
					"type": "uint256"
				},
				{
					"internalType": "string",
					"name": "",
					"type": "string"
				},
				{
					"internalType": "uint256",
					"name": "",
					"type": "uint256"
				},
				{
					"internalType": "enum StudentManagement.CourseStatus",
					"name": "",
					"type": "uint8"
				}
			],
			"stateMutability": "view",
			"type": "function"
		},
		{
			"inputs": [],
			"name": "getTotalStudents",
			"outputs": [
				{
					"internalType": "uint256",
					"name": "",
					"type": "uint256"
				}
			],
			"stateMutability": "view",
			"type": "function"
		},
		{
			"inputs": [
				{
					"internalType": "uint256",
					"name": "_id",
					"type": "uint256"
				},
				{
					"internalType": "string",
					"name": "_name",
					"type": "string"
				},
				{
					"internalType": "uint256",
					"name": "_age",
					"type": "uint256"
				},
				{
					"internalType": "enum StudentManagement.CourseStatus",
					"name": "_status",
					"type": "uint8"
				}
			],
			"name": "setStudent",
			"outputs": [],
			"stateMutability": "nonpayable",
			"type": "function"
		},
		{
			"inputs": [
				{
					"internalType": "uint256",
					"name": "",
					"type": "uint256"
				}
			],
			"name": "students",
			"outputs": [
				{
					"internalType": "uint256",
					"name": "id",
					"type": "uint256"
				},
				{
					"internalType": "string",
					"name": "name",
					"type": "string"
				},
				{
					"internalType": "uint256",
					"name": "age",
					"type": "uint256"
				},
				{
					"internalType": "enum StudentManagement.CourseStatus",
					"name": "status",
					"type": "uint8"
				}
			],
			"stateMutability": "view",
			"type": "function"
		}
	]
}